{
  "abi": [
    {
      "inputs": [
        {
          "internalType": "contract OptimisticOracleV3",
          "name": "_optimisticOracleV3",
          "type": "address"
        }
      ],
      "stateMutability": "nonpayable",
      "type": "constructor"
    },
    {
      "inputs": [
        {
          "internalType": "bytes",
          "name": "claim",
          "type": "bytes"
        },
        {
          "internalType": "address",
          "name": "callbackRecipient",
          "type": "address"
        },
        {
          "internalType": "address",
          "name": "escalationManager",
          "type": "address"
        },
        {
          "internalType": "uint64",
          "name": "liveness",
          "type": "uint64"
        },
        {
          "internalType": "contract IERC20",
          "name": "currency",
          "type": "address"
        },
        {
          "internalType": "uint256",
          "name": "bond",
          "type": "uint256"
        },
        {
          "internalType": "bytes32",
          "name": "identifier",
          "type": "bytes32"
        },
        {
          "internalType": "bytes32",
          "name": "domainId",
          "type": "bytes32"
        }
      ],
      "name": "assertTruth",
      "outputs": [
        {
          "internalType": "bytes32",
          "name": "assertionId",
          "type": "bytes32"
        }
      ],
      "stateMutability": "nonpayable",
      "type": "function"
    }
  ],
  "bytecode": {
    "object": "0x60a060405234801561001057600080fd5b5060405161087838038061087883398101604081905261002f91610040565b6001600160a01b0316608052610070565b60006020828403121561005257600080fd5b81516001600160a01b038116811461006957600080fd5b9392505050565b6080516107e861009060003960008181607b015260b701526107e86000f3fe608060405234801561001057600080fd5b506004361061002b5760003560e01c8063025ac24f14610030575b600080fd5b61004361003e36600461057b565b610055565b60405190815260200160405180910390f35b600061006c6001600160a01b03861633308761014c565b6100a06001600160a01b0386167f0000000000000000000000000000000000000000000000000000000000000000866101bd565b604051636457c97960e01b81526001600160a01b037f00000000000000000000000000000000000000000000000000000000000000001690636457c979906100fc908c9033908d908d908d908d908d908d908d906004016106da565b6020604051808303816000875af115801561011b573d6000803e3d6000fd5b505050506040513d601f19601f8201168201806040525081019061013f9190610748565b9998505050505050505050565b6040516001600160a01b03808516602483015283166044820152606481018290526101b79085906323b872dd60e01b906084015b60408051601f198184030181529190526020810180516001600160e01b03166001600160e01b0319909316929092179091526102dc565b50505050565b8015806102375750604051636eb1769f60e11b81523060048201526001600160a01b03838116602483015284169063dd62ed3e90604401602060405180830381865afa158015610211573d6000803e3d6000fd5b505050506040513d601f19601f820116820180604052508101906102359190610748565b155b6102a75760405162461bcd60e51b815260206004820152603660248201527f5361666545524332303a20617070726f76652066726f6d206e6f6e2d7a65726f60448201527520746f206e6f6e2d7a65726f20616c6c6f77616e636560501b60648201526084015b60405180910390fd5b6040516001600160a01b0383166024820152604481018290526102d790849063095ea7b360e01b90606401610180565b505050565b6000610331826040518060400160405280602081526020017f5361666545524332303a206c6f772d6c6576656c2063616c6c206661696c6564815250856001600160a01b03166103ae9092919063ffffffff16565b8051909150156102d7578080602001905181019061034f9190610761565b6102d75760405162461bcd60e51b815260206004820152602a60248201527f5361666545524332303a204552433230206f7065726174696f6e20646964206e6044820152691bdd081cdd58d8d9595960b21b606482015260840161029e565b60606103bd84846000856103c7565b90505b9392505050565b6060824710156104285760405162461bcd60e51b815260206004820152602660248201527f416464726573733a20696e73756666696369656e742062616c616e636520666f6044820152651c8818d85b1b60d21b606482015260840161029e565b6001600160a01b0385163b61047f5760405162461bcd60e51b815260206004820152601d60248201527f416464726573733a2063616c6c20746f206e6f6e2d636f6e7472616374000000604482015260640161029e565b600080866001600160a01b0316858760405161049b9190610783565b60006040518083038185875af1925050503d80600081146104d8576040519150601f19603f3d011682016040523d82523d6000602084013e6104dd565b606091505b50915091506104ed8282866104f8565b979650505050505050565b606083156105075750816103c0565b8251156105175782518084602001fd5b8160405162461bcd60e51b815260040161029e919061079f565b634e487b7160e01b600052604160045260246000fd5b80356001600160a01b038116811461055e57600080fd5b919050565b803567ffffffffffffffff8116811461055e57600080fd5b600080600080600080600080610100898b03121561059857600080fd5b883567ffffffffffffffff808211156105b057600080fd5b818b0191508b601f8301126105c457600080fd5b8135818111156105d6576105d6610531565b604051601f8201601f19908116603f011681019083821181831017156105fe576105fe610531565b816040528281528e602084870101111561061757600080fd5b82602086016020830137600060208483010152809c50505050505061063e60208a01610547565b965061064c60408a01610547565b955061065a60608a01610563565b945061066860808a01610547565b979a969950949793969560a0850135955060c08501359460e001359350915050565b60005b838110156106a557818101518382015260200161068d565b50506000910152565b600081518084526106c681602086016020860161068a565b601f01601f19169290920160200192915050565b60006101208083526106ee8184018d6106ae565b6001600160a01b039b8c166020850152998b1660408401525050958816606087015267ffffffffffffffff9490941660808601529190951660a084015260c083019490945260e08201939093526101000191909152919050565b60006020828403121561075a57600080fd5b5051919050565b60006020828403121561077357600080fd5b815180151581146103c057600080fd5b6000825161079581846020870161068a565b9190910192915050565b6020815260006103c060208301846106ae56fea264697066735822122040fd4937917989d4e157fb0795bc9dc886b180a95780126fdd27487a425c565f64736f6c63430008100033",
    "linkReferences": {}
  },
  "methodIdentifiers": {
    "assertTruth(bytes,address,address,uint64,address,uint256,bytes32,bytes32)": "025ac24f"
  },
  "id": 52
}