{
  "abi": [
    {
      "inputs": [],
      "name": "account1",
      "outputs": [
        {
          "internalType": "address",
          "name": "",
          "type": "address"
        }
      ],
      "stateMutability": "view",
      "type": "function"
    },
    {
      "inputs": [],
      "name": "account2",
      "outputs": [
        {
          "internalType": "address",
          "name": "",
          "type": "address"
        }
      ],
      "stateMutability": "view",
      "type": "function"
    },
    {
      "inputs": [],
      "name": "account3",
      "outputs": [
        {
          "internalType": "address",
          "name": "",
          "type": "address"
        }
      ],
      "stateMutability": "view",
      "type": "function"
    },
    {
      "inputs": [],
      "name": "owner",
      "outputs": [
        {
          "internalType": "address",
          "name": "",
          "type": "address"
        }
      ],
      "stateMutability": "view",
      "type": "function"
    },
    {
      "inputs": [],
      "name": "random",
      "outputs": [
        {
          "internalType": "address",
          "name": "",
          "type": "address"
        }
      ],
      "stateMutability": "view",
      "type": "function"
    }
  ],
  "bytecode": {
    "object": "0x60d5610039600b82828239805160001a60731461002c57634e487b7160e01b600052600060045260246000fd5b30600052607381538281f3fe7300000000000000000000000000000000000000003014608060405260043610605b5760003560e01c80632384c0581460605780635ec01e4d14608357806382f8152c14608a5780638da5cb5b146091578063ecfd0a56146098575b600080fd5b6067600481565b6040516001600160a01b03909116815260200160405180910390f35b6067600581565b6067600381565b6067600181565b606760028156fea2646970667358221220c3a4fd091a147491f8b92b9b32e9e2f0cb8620069d263c90ed87496ecee73b4564736f6c63430008100033",
    "linkReferences": {}
  },
  "methodIdentifiers": {
    "account1()": "ecfd0a56",
    "account2()": "82f8152c",
    "account3()": "2384c058",
    "owner()": "8da5cb5b",
    "random()": "5ec01e4d"
  },
  "id": 64
}