{
  "abi": [
    {
      "inputs": [
        {
          "internalType": "address",
          "name": "_finderAddress",
          "type": "address"
        },
        {
          "internalType": "address",
          "name": "_timerAddress",
          "type": "address"
        }
      ],
      "stateMutability": "nonpayable",
      "type": "constructor"
    },
    {
      "anonymous": false,
      "inputs": [
        {
          "indexed": true,
          "internalType": "address",
          "name": "requester",
          "type": "address"
        },
        {
          "indexed": true,
          "internalType": "bytes32",
          "name": "identifier",
          "type": "bytes32"
        },
        {
          "indexed": false,
          "internalType": "uint256",
          "name": "time",
          "type": "uint256"
        },
        {
          "indexed": false,
          "internalType": "bytes",
          "name": "ancillaryData",
          "type": "bytes"
        },
        {
          "indexed": true,
          "internalType": "bytes32",
          "name": "requestId",
          "type": "bytes32"
        }
      ],
      "name": "PriceRequestAdded",
      "type": "event"
    },
    {
      "anonymous": false,
      "inputs": [
        {
          "indexed": true,
          "internalType": "address",
          "name": "pusher",
          "type": "address"
        },
        {
          "indexed": true,
          "internalType": "bytes32",
          "name": "identifier",
          "type": "bytes32"
        },
        {
          "indexed": false,
          "internalType": "uint256",
          "name": "time",
          "type": "uint256"
        },
        {
          "indexed": false,
          "internalType": "bytes",
          "name": "ancillaryData",
          "type": "bytes"
        },
        {
          "indexed": false,
          "internalType": "int256",
          "name": "price",
          "type": "int256"
        },
        {
          "indexed": true,
          "internalType": "bytes32",
          "name": "requestId",
          "type": "bytes32"
        }
      ],
      "name": "PushedPrice",
      "type": "event"
    },
    {
      "inputs": [],
      "name": "getCurrentTime",
      "outputs": [
        {
          "internalType": "uint256",
          "name": "",
          "type": "uint256"
        }
      ],
      "stateMutability": "view",
      "type": "function"
    },
    {
      "inputs": [],
      "name": "getPendingQueries",
      "outputs": [
        {
          "components": [
            {
              "internalType": "bytes32",
              "name": "identifier",
              "type": "bytes32"
            },
            {
              "internalType": "uint256",
              "name": "time",
              "type": "uint256"
            },
            {
              "internalType": "bytes",
              "name": "ancillaryData",
              "type": "bytes"
            }
          ],
          "internalType": "struct MockOracleAncillary.QueryPoint[]",
          "name": "",
          "type": "tuple[]"
        }
      ],
      "stateMutability": "view",
      "type": "function"
    },
    {
      "inputs": [
        {
          "internalType": "bytes32",
          "name": "identifier",
          "type": "bytes32"
        },
        {
          "internalType": "uint256",
          "name": "time",
          "type": "uint256"
        },
        {
          "internalType": "bytes",
          "name": "ancillaryData",
          "type": "bytes"
        }
      ],
      "name": "getPrice",
      "outputs": [
        {
          "internalType": "int256",
          "name": "",
          "type": "int256"
        }
      ],
      "stateMutability": "view",
      "type": "function"
    },
    {
      "inputs": [
        {
          "internalType": "bytes32",
          "name": "requestId",
          "type": "bytes32"
        }
      ],
      "name": "getRequestParameters",
      "outputs": [
        {
          "components": [
            {
              "internalType": "bytes32",
              "name": "identifier",
              "type": "bytes32"
            },
            {
              "internalType": "uint256",
              "name": "time",
              "type": "uint256"
            },
            {
              "internalType": "bytes",
              "name": "ancillaryData",
              "type": "bytes"
            }
          ],
          "internalType": "struct MockOracleAncillary.QueryPoint",
          "name": "",
          "type": "tuple"
        }
      ],
      "stateMutability": "view",
      "type": "function"
    },
    {
      "inputs": [
        {
          "internalType": "bytes32",
          "name": "identifier",
          "type": "bytes32"
        },
        {
          "internalType": "uint256",
          "name": "time",
          "type": "uint256"
        },
        {
          "internalType": "bytes",
          "name": "ancillaryData",
          "type": "bytes"
        }
      ],
      "name": "hasPrice",
      "outputs": [
        {
          "internalType": "bool",
          "name": "",
          "type": "bool"
        }
      ],
      "stateMutability": "view",
      "type": "function"
    },
    {
      "inputs": [
        {
          "internalType": "bytes32",
          "name": "identifier",
          "type": "bytes32"
        },
        {
          "internalType": "uint256",
          "name": "time",
          "type": "uint256"
        },
        {
          "internalType": "bytes",
          "name": "ancillaryData",
          "type": "bytes"
        },
        {
          "internalType": "int256",
          "name": "price",
          "type": "int256"
        }
      ],
      "name": "pushPrice",
      "outputs": [],
      "stateMutability": "nonpayable",
      "type": "function"
    },
    {
      "inputs": [
        {
          "internalType": "bytes32",
          "name": "requestId",
          "type": "bytes32"
        },
        {
          "internalType": "int256",
          "name": "price",
          "type": "int256"
        }
      ],
      "name": "pushPriceByRequestId",
      "outputs": [],
      "stateMutability": "nonpayable",
      "type": "function"
    },
    {
      "inputs": [
        {
          "internalType": "bytes32",
          "name": "identifier",
          "type": "bytes32"
        },
        {
          "internalType": "uint256",
          "name": "time",
          "type": "uint256"
        },
        {
          "internalType": "bytes",
          "name": "ancillaryData",
          "type": "bytes"
        }
      ],
      "name": "requestPrice",
      "outputs": [],
      "stateMutability": "nonpayable",
      "type": "function"
    },
    {
      "inputs": [
        {
          "internalType": "uint256",
          "name": "time",
          "type": "uint256"
        }
      ],
      "name": "setCurrentTime",
      "outputs": [],
      "stateMutability": "nonpayable",
      "type": "function"
    },
    {
      "inputs": [],
      "name": "timerAddress",
      "outputs": [
        {
          "internalType": "address",
          "name": "",
          "type": "address"
        }
      ],
      "stateMutability": "view",
      "type": "function"
    }
  ],
  "bytecode": {
    "object": "0x608060405234801561001057600080fd5b5060405161121838038061121883398101604081905261002f9161007f565b600080546001600160a01b039283166001600160a01b031991821617909155600180549390921692169190911790556100b2565b80516001600160a01b038116811461007a57600080fd5b919050565b6000806040838503121561009257600080fd5b61009b83610063565b91506100a960208401610063565b90509250929050565b611157806100c16000396000f3fe608060405234801561001057600080fd5b506004361061009e5760003560e01c8063719c6d5611610066578063719c6d5614610131578063b551cd5014610144578063b555d60814610167578063d7d6f43d1461017c578063f76177cf1461018f57600080fd5b80631c39c38d146100a3578063216666a4146100d357806322f8e566146100e857806329cb924d146100fb5780636a5ef50614610111575b600080fd5b6000546100b6906001600160a01b031681565b6040516001600160a01b0390911681526020015b60405180910390f35b6100e66100e1366004610c0f565b6101a2565b005b6100e66100f6366004610c5f565b61039c565b61010361040b565b6040519081526020016100ca565b61012461011f366004610c5f565b61049c565b6040516100ca9190610cef565b61010361013f366004610c0f565b6105f1565b610157610152366004610c0f565b610630565b60405190151581526020016100ca565b61016f61065f565b6040516100ca9190610d09565b6100e661018a366004610d6b565b610764565b6100e661019d366004610dc3565b610a33565b6101aa610a5d565b6001600160a01b03166390978d1b846040518263ffffffff1660e01b81526004016101d791815260200190565b602060405180830381865afa1580156101f4573d6000803e3d6000fd5b505050506040513d601f19601f820116820180604052508101906102189190610de5565b61022157600080fd5b600061022e848484610ae0565b600081815260026020526040902080549192509060ff16158015610261575060008281526003602052604090205460ff16155b15610395576040805180820182526001808252600480546020808501918252600088815260038083528782209651875490151560ff1990911617875592519585019590955585516060810187528b81529081018a81529581018981528354948501845592909452835192027f8a35acfbc15ff81a39ae7d344fd709f28e8600b4aa8c65c6b64bfe7fe36bd19b810192835593517f8a35acfbc15ff81a39ae7d344fd709f28e8600b4aa8c65c6b64bfe7fe36bd19c85015551919290917f8a35acfbc15ff81a39ae7d344fd709f28e8600b4aa8c65c6b64bfe7fe36bd19d9091019061034c9082610e8f565b5050508185336001600160a01b03167f5b89fcc758ee4d9d8841986019cd2bb83213389a619b54baff9ec2ec9944e7a7878760405161038c929190610f4f565b60405180910390a45b5050505050565b6000546001600160a01b03166103b157600080fd5b60005460405163117c72b360e11b8152600481018390526001600160a01b03909116906322f8e56690602401600060405180830381600087803b1580156103f757600080fd5b505af1158015610395573d6000803e3d6000fd5b600080546001600160a01b0316156104975760008054906101000a90046001600160a01b03166001600160a01b03166329cb924d6040518163ffffffff1660e01b8152600401602060405180830381865afa15801561046e573d6000803e3d6000fd5b505050506040513d601f19601f820116820180604052508101906104929190610f68565b905090565b504290565b604080516060808201835260008083526020830152918101919091526000828152600360205260409020805460ff166105135760405162461bcd60e51b815260206004820152601460248201527314995c5d595cdd081251081b9bdd08199bdd5b9960621b60448201526064015b60405180910390fd5b600481600101548154811061052a5761052a610f81565b9060005260206000209060030201604051806060016040529081600082015481526020016001820154815260200160028201805461056790610e07565b80601f016020809104026020016040519081016040528092919081815260200182805461059390610e07565b80156105e05780601f106105b5576101008083540402835291602001916105e0565b820191906000526020600020905b8154815290600101906020018083116105c357829003601f168201915b505050505081525050915050919050565b60008060026000610603878787610ae0565b81526020810191909152604001600020805490915060ff1661062457600080fd5b60010154949350505050565b60008060026000610642878787610ae0565b815260208101919091526040016000205460ff1695945050505050565b60606004805480602002602001604051908101604052809291908181526020016000905b8282101561075b578382906000526020600020906003020160405180606001604052908160008201548152602001600182015481526020016002820180546106ca90610e07565b80601f01602080910402602001604051908101604052809291908181526020018280546106f690610e07565b80156107435780601f1061071857610100808354040283529160200191610743565b820191906000526020600020905b81548152906001019060200180831161072657829003601f168201915b50505050508152505081526020019060010190610683565b50505050905090565b6000610771858585610ae0565b9050604051806060016040528060011515815260200183815260200161079561040b565b905260008281526002602081815260408084208551815460ff1916901515178155858301516001820155948101519490920193909355600390925220805460ff166108385760405162461bcd60e51b815260206004820152602d60248201527f43616e2774207075736820707269636573207468617420686176656e2774206260448201526c19595b881c995c5d595cdd1959609a1b606482015260840161050a565b6001808201546000848152600360205260408120805460ff1916815583018190556004549192909161086a9190610f97565b90508181146109a05760006004828154811061088857610888610f81565b90600052602060002090600302019050826003600061093c846000015485600101548660020180546108b990610e07565b80601f01602080910402602001604051908101604052809291908181526020018280546108e590610e07565b80156109325780601f1061090757610100808354040283529160200191610932565b820191906000526020600020905b81548152906001019060200180831161091557829003601f168201915b5050505050610ae0565b815260200190815260200160002060010181905550806004848154811061096557610965610f81565b906000526020600020906003020160008201548160000155600182015481600101556002820181600201908161099b9190610fbe565b505050505b60048054806109b1576109b1611091565b60008281526020812060036000199093019283020181815560018101829055906109de6002830182610b16565b505090558388336001600160a01b03167f01aba42f88d71f240ed63f6e0b37e62ba65f3d4bc0f11228ef9163cdc56c64b58a8a8a604051610a21939291906110a7565b60405180910390a45050505050505050565b6000610a3e8361049c565b9050610a5881600001518260200151836040015185610764565b505050565b6001546040516302abf57960e61b8152721259195b9d1a599a595c95da1a5d195b1a5cdd606a1b60048201526000916001600160a01b03169063aafd5e4090602401602060405180830381865afa158015610abc573d6000803e3d6000fd5b505050506040513d601f19601f8201168201806040525081019061049291906110d0565b6000838383604051602001610af7939291906110f9565b6040516020818303038152906040528051906020012090509392505050565b508054610b2290610e07565b6000825580601f10610b32575050565b601f016020900490600052602060002090810190610b509190610b53565b50565b5b80821115610b685760008155600101610b54565b5090565b634e487b7160e01b600052604160045260246000fd5b600082601f830112610b9357600080fd5b813567ffffffffffffffff80821115610bae57610bae610b6c565b604051601f8301601f19908116603f01168101908282118183101715610bd657610bd6610b6c565b81604052838152866020858801011115610bef57600080fd5b836020870160208301376000602085830101528094505050505092915050565b600080600060608486031215610c2457600080fd5b8335925060208401359150604084013567ffffffffffffffff811115610c4957600080fd5b610c5586828701610b82565b9150509250925092565b600060208284031215610c7157600080fd5b5035919050565b6000815180845260005b81811015610c9e57602081850181015186830182015201610c82565b506000602082860101526020601f19601f83011685010191505092915050565b80518252602081015160208301526000604082015160606040850152610ce76060850182610c78565b949350505050565b602081526000610d026020830184610cbe565b9392505050565b6000602080830181845280855180835260408601915060408160051b870101925083870160005b82811015610d5e57603f19888603018452610d4c858351610cbe565b94509285019290850190600101610d30565b5092979650505050505050565b60008060008060808587031215610d8157600080fd5b8435935060208501359250604085013567ffffffffffffffff811115610da657600080fd5b610db287828801610b82565b949793965093946060013593505050565b60008060408385031215610dd657600080fd5b50508035926020909101359150565b600060208284031215610df757600080fd5b81518015158114610d0257600080fd5b600181811c90821680610e1b57607f821691505b602082108103610e3b57634e487b7160e01b600052602260045260246000fd5b50919050565b601f821115610a5857600081815260208120601f850160051c81016020861015610e685750805b601f850160051c820191505b81811015610e8757828155600101610e74565b505050505050565b815167ffffffffffffffff811115610ea957610ea9610b6c565b610ebd81610eb78454610e07565b84610e41565b602080601f831160018114610ef25760008415610eda5750858301515b600019600386901b1c1916600185901b178555610e87565b600085815260208120601f198616915b82811015610f2157888601518255948401946001909101908401610f02565b5085821015610f3f5787850151600019600388901b60f8161c191681555b5050505050600190811b01905550565b828152604060208201526000610ce76040830184610c78565b600060208284031215610f7a57600080fd5b5051919050565b634e487b7160e01b600052603260045260246000fd5b81810381811115610fb857634e487b7160e01b600052601160045260246000fd5b92915050565b818103610fc9575050565b610fd38254610e07565b67ffffffffffffffff811115610feb57610feb610b6c565b610ff981610eb78454610e07565b6000601f82116001811461102d57600083156110155750848201545b600019600385901b1c1916600184901b178455610395565b600085815260209020601f19841690600086815260209020845b838110156110675782860154825560019586019590910190602001611047565b5085831015610f3f5793015460001960f8600387901b161c19169092555050600190811b01905550565b634e487b7160e01b600052603160045260246000fd5b8381526060602082015260006110c06060830185610c78565b9050826040830152949350505050565b6000602082840312156110e257600080fd5b81516001600160a01b0381168114610d0257600080fd5b8381528260208201526060604082015260006111186060830184610c78565b9594505050505056fea2646970667358221220f4b1e35f6eb1f5816327034316343d8b6a7a59647aab0193187ab03600ae070964736f6c63430008100033",
    "linkReferences": {}
  },
  "methodIdentifiers": {
    "getCurrentTime()": "29cb924d",
    "getPendingQueries()": "b555d608",
    "getPrice(bytes32,uint256,bytes)": "719c6d56",
    "getRequestParameters(bytes32)": "6a5ef506",
    "hasPrice(bytes32,uint256,bytes)": "b551cd50",
    "pushPrice(bytes32,uint256,bytes,int256)": "d7d6f43d",
    "pushPriceByRequestId(bytes32,int256)": "f76177cf",
    "requestPrice(bytes32,uint256,bytes)": "216666a4",
    "setCurrentTime(uint256)": "22f8e566",
    "timerAddress()": "1c39c38d"
  },
  "id": 49
}