{
  "abi": [
    {
      "inputs": [
        {
          "internalType": "address",
          "name": "_currency",
          "type": "address"
        },
        {
          "internalType": "address",
          "name": "_optimisticOracleV3",
          "type": "address"
        }
      ],
      "stateMutability": "nonpayable",
      "type": "constructor"
    },
    {
      "anonymous": false,
      "inputs": [
        {
          "indexed": true,
          "internalType": "bytes32",
          "name": "marketId",
          "type": "bytes32"
        },
        {
          "indexed": true,
          "internalType": "address",
          "name": "account",
          "type": "address"
        },
        {
          "indexed": false,
          "internalType": "uint256",
          "name": "creditsMinted",
          "type": "uint256"
        }
      ],
      "name": "CreditsMinted",
      "type": "event"
    },
    {
      "anonymous": false,
      "inputs": [
        {
          "indexed": true,
          "internalType": "bytes32",
          "name": "marketId",
          "type": "bytes32"
        },
        {
          "indexed": true,
          "internalType": "bytes32",
          "name": "assertionId",
          "type": "bytes32"
        }
      ],
      "name": "FalsePromisedDeclared",
      "type": "event"
    },
    {
      "anonymous": false,
      "inputs": [
        {
          "indexed": true,
          "internalType": "bytes32",
          "name": "marketId",
          "type": "bytes32"
        },
        {
          "indexed": false,
          "internalType": "string",
          "name": "description",
          "type": "string"
        },
        {
          "indexed": false,
          "internalType": "uint256",
          "name": "reward",
          "type": "uint256"
        },
        {
          "indexed": false,
          "internalType": "uint256",
          "name": "requiredBond",
          "type": "uint256"
        },
        {
          "indexed": false,
          "internalType": "address",
          "name": "owner",
          "type": "address"
        }
      ],
      "name": "MarketInitialized",
      "type": "event"
    },
    {
      "anonymous": false,
      "inputs": [
        {
          "indexed": true,
          "internalType": "bytes32",
          "name": "marketId",
          "type": "bytes32"
        }
      ],
      "name": "MarketResolved",
      "type": "event"
    },
    {
      "anonymous": false,
      "inputs": [
        {
          "indexed": true,
          "internalType": "bytes32",
          "name": "marketId",
          "type": "bytes32"
        },
        {
          "indexed": true,
          "internalType": "address",
          "name": "account",
          "type": "address"
        },
        {
          "indexed": false,
          "internalType": "uint256",
          "name": "individualReward",
          "type": "uint256"
        },
        {
          "indexed": false,
          "internalType": "uint256",
          "name": "creditReceived",
          "type": "uint256"
        }
      ],
      "name": "MarketSettled",
      "type": "event"
    },
    {
      "anonymous": false,
      "inputs": [
        {
          "indexed": true,
          "internalType": "bytes32",
          "name": "marketId",
          "type": "bytes32"
        },
        {
          "indexed": true,
          "internalType": "address",
          "name": "account",
          "type": "address"
        }
      ],
      "name": "ValidatorRegistered",
      "type": "event"
    },
    {
      "inputs": [],
      "name": "accountBalance",
      "outputs": [
        {
          "internalType": "uint256",
          "name": "",
          "type": "uint256"
        }
      ],
      "stateMutability": "view",
      "type": "function"
    },
    {
      "inputs": [
        {
          "internalType": "bytes32",
          "name": "",
          "type": "bytes32"
        }
      ],
      "name": "assertedMarkets",
      "outputs": [
        {
          "internalType": "address",
          "name": "asserter",
          "type": "address"
        },
        {
          "internalType": "bytes32",
          "name": "marketId",
          "type": "bytes32"
        }
      ],
      "stateMutability": "view",
      "type": "function"
    },
    {
      "inputs": [
        {
          "internalType": "bytes32",
          "name": "assertionId",
          "type": "bytes32"
        }
      ],
      "name": "assertionDisputedCallback",
      "outputs": [],
      "stateMutability": "nonpayable",
      "type": "function"
    },
    {
      "inputs": [],
      "name": "assertionLiveness",
      "outputs": [
        {
          "internalType": "uint64",
          "name": "",
          "type": "uint64"
        }
      ],
      "stateMutability": "view",
      "type": "function"
    },
    {
      "inputs": [
        {
          "internalType": "bytes32",
          "name": "assertionId",
          "type": "bytes32"
        },
        {
          "internalType": "bool",
          "name": "assertedTruthfully",
          "type": "bool"
        }
      ],
      "name": "assertionResolvedCallback",
      "outputs": [],
      "stateMutability": "nonpayable",
      "type": "function"
    },
    {
      "inputs": [
        {
          "internalType": "bytes32",
          "name": "marketId",
          "type": "bytes32"
        }
      ],
      "name": "carbonCreditBalance",
      "outputs": [
        {
          "internalType": "uint256",
          "name": "",
          "type": "uint256"
        }
      ],
      "stateMutability": "view",
      "type": "function"
    },
    {
      "inputs": [
        {
          "internalType": "bytes32",
          "name": "marketId",
          "type": "bytes32"
        },
        {
          "internalType": "uint64",
          "name": "state",
          "type": "uint64"
        }
      ],
      "name": "changeMarketState",
      "outputs": [],
      "stateMutability": "nonpayable",
      "type": "function"
    },
    {
      "inputs": [
        {
          "internalType": "bytes32",
          "name": "marketId",
          "type": "bytes32"
        }
      ],
      "name": "convertibleCarbonCreditBalance",
      "outputs": [
        {
          "internalType": "uint256",
          "name": "",
          "type": "uint256"
        }
      ],
      "stateMutability": "view",
      "type": "function"
    },
    {
      "inputs": [],
      "name": "currency",
      "outputs": [
        {
          "internalType": "contract IERC20",
          "name": "",
          "type": "address"
        }
      ],
      "stateMutability": "view",
      "type": "function"
    },
    {
      "inputs": [],
      "name": "data_oo",
      "outputs": [
        {
          "internalType": "contract OptimisticOracleV3Interface",
          "name": "",
          "type": "address"
        }
      ],
      "stateMutability": "view",
      "type": "function"
    },
    {
      "inputs": [
        {
          "internalType": "bytes32",
          "name": "marketId",
          "type": "bytes32"
        }
      ],
      "name": "declareFalsePromise",
      "outputs": [
        {
          "internalType": "bytes32",
          "name": "assertionId",
          "type": "bytes32"
        }
      ],
      "stateMutability": "nonpayable",
      "type": "function"
    },
    {
      "inputs": [],
      "name": "defaultIdentifier",
      "outputs": [
        {
          "internalType": "bytes32",
          "name": "",
          "type": "bytes32"
        }
      ],
      "stateMutability": "view",
      "type": "function"
    },
    {
      "inputs": [
        {
          "internalType": "bytes32",
          "name": "marketId",
          "type": "bytes32"
        }
      ],
      "name": "getMarket",
      "outputs": [
        {
          "components": [
            {
              "internalType": "address",
              "name": "owner",
              "type": "address"
            },
            {
              "internalType": "uint256",
              "name": "requiredBond",
              "type": "uint256"
            },
            {
              "internalType": "uint256",
              "name": "reward",
              "type": "uint256"
            },
            {
              "internalType": "uint256",
              "name": "creditCap",
              "type": "uint256"
            },
            {
              "internalType": "contract ExpandedIERC20",
              "name": "carbonCredit",
              "type": "address"
            },
            {
              "internalType": "contract ExpandedIERC20",
              "name": "convertibleCarbonCredit",
              "type": "address"
            },
            {
              "internalType": "contract ExpandedIERC20",
              "name": "validatorToken",
              "type": "address"
            },
            {
              "internalType": "string",
              "name": "description",
              "type": "string"
            },
            {
              "internalType": "bool",
              "name": "promiseDelivered",
              "type": "bool"
            },
            {
              "internalType": "uint64",
              "name": "marketState",
              "type": "uint64"
            }
          ],
          "internalType": "struct CarbonUMArket.Market",
          "name": "",
          "type": "tuple"
        }
      ],
      "stateMutability": "view",
      "type": "function"
    },
    {
      "inputs": [
        {
          "internalType": "uint256",
          "name": "_reward",
          "type": "uint256"
        },
        {
          "internalType": "uint256",
          "name": "_requiredBond",
          "type": "uint256"
        },
        {
          "internalType": "uint256",
          "name": "_creditCap",
          "type": "uint256"
        },
        {
          "internalType": "string",
          "name": "_description",
          "type": "string"
        }
      ],
      "name": "initializeMarket",
      "outputs": [
        {
          "internalType": "bytes32",
          "name": "marketId",
          "type": "bytes32"
        }
      ],
      "stateMutability": "nonpayable",
      "type": "function"
    },
    {
      "inputs": [
        {
          "internalType": "bytes32",
          "name": "marketId",
          "type": "bytes32"
        }
      ],
      "name": "isValidator",
      "outputs": [
        {
          "internalType": "bool",
          "name": "",
          "type": "bool"
        }
      ],
      "stateMutability": "view",
      "type": "function"
    },
    {
      "inputs": [
        {
          "internalType": "bytes32",
          "name": "",
          "type": "bytes32"
        }
      ],
      "name": "markets",
      "outputs": [
        {
          "internalType": "address",
          "name": "owner",
          "type": "address"
        },
        {
          "internalType": "uint256",
          "name": "requiredBond",
          "type": "uint256"
        },
        {
          "internalType": "uint256",
          "name": "reward",
          "type": "uint256"
        },
        {
          "internalType": "uint256",
          "name": "creditCap",
          "type": "uint256"
        },
        {
          "internalType": "contract ExpandedIERC20",
          "name": "carbonCredit",
          "type": "address"
        },
        {
          "internalType": "contract ExpandedIERC20",
          "name": "convertibleCarbonCredit",
          "type": "address"
        },
        {
          "internalType": "contract ExpandedIERC20",
          "name": "validatorToken",
          "type": "address"
        },
        {
          "internalType": "string",
          "name": "description",
          "type": "string"
        },
        {
          "internalType": "bool",
          "name": "promiseDelivered",
          "type": "bool"
        },
        {
          "internalType": "uint64",
          "name": "marketState",
          "type": "uint64"
        }
      ],
      "stateMutability": "view",
      "type": "function"
    },
    {
      "inputs": [
        {
          "internalType": "bytes32",
          "name": "marketId",
          "type": "bytes32"
        },
        {
          "internalType": "uint256",
          "name": "creditToCreate",
          "type": "uint256"
        }
      ],
      "name": "mintCredit",
      "outputs": [],
      "stateMutability": "nonpayable",
      "type": "function"
    },
    {
      "inputs": [],
      "name": "oo",
      "outputs": [
        {
          "internalType": "contract OptimisticOracleV3Interface",
          "name": "",
          "type": "address"
        }
      ],
      "stateMutability": "view",
      "type": "function"
    },
    {
      "inputs": [
        {
          "internalType": "bytes32",
          "name": "marketId",
          "type": "bytes32"
        }
      ],
      "name": "registerValidator",
      "outputs": [],
      "stateMutability": "nonpayable",
      "type": "function"
    },
    {
      "inputs": [
        {
          "internalType": "bytes32",
          "name": "marketId",
          "type": "bytes32"
        },
        {
          "internalType": "uint64",
          "name": "proportion",
          "type": "uint64"
        }
      ],
      "name": "settleMarket",
      "outputs": [],
      "stateMutability": "nonpayable",
      "type": "function"
    },
    {
      "inputs": [],
      "name": "validatorFee",
      "outputs": [
        {
          "internalType": "uint64",
          "name": "",
          "type": "uint64"
        }
      ],
      "stateMutability": "view",
      "type": "function"
    }
  ],
  "bytecode": {
    "object": "0x60e06040523480156200001157600080fd5b5060405162004d1938038062004d198339810160408190526200003491620000d4565b6001600160a01b03808316608052811660a08190526040805163d509b01760e01b8152905163d509b017916004808201926020929091908290030181865afa15801562000085573d6000803e3d6000fd5b505050506040513d601f19601f82011682018060405250810190620000ab91906200010c565b60c05250620001269050565b80516001600160a01b0381168114620000cf57600080fd5b919050565b60008060408385031215620000e857600080fd5b620000f383620000b7565b91506200010360208401620000b7565b90509250929050565b6000602082840312156200011f57600080fd5b5051919050565b60805160a05160c051614b4c620001cd600039600081816103a0015261076a01526000818161025201528181610581015281816106770152818161079901528181611df90152611edb0152600081816103c8015281816105560152818161061e015281816106550152818161073b01528181610e2f015281816112770152818161157501528181611a3101528181611ba601528181611eb001526120770152614b4c6000f3fe60806040523480156200001157600080fd5b5060043610620001515760003560e01c8063a7f0de8111620000c7578063c3c95c7b1162000086578063c3c95c7b146200030a578063d41076451462000330578063d448a4ec1462000386578063d509b017146200039a578063e5a6b10f14620003c2578063f1b156b214620003ea57600080fd5b8063a7f0de8114620002b5578063af2b57ce14620002cc578063b0a1c1c414620002e0578063b75d4e2414620002ea578063bac6d3c114620002f357600080fd5b8063607049d81162000114578063607049d814620001ef5780637564912b146200020657806382f7b9ac14620002355780638921a614146200024c5780639d37c680146200028d57600080fd5b80631122cca314620001565780632a98b03d14620001805780633f6d82561462000197578063481e9c6b14620001bf5780635a68298614620001d8575b600080fd5b6200016d620001673660046200265d565b62000401565b6040519081526020015b60405180910390f35b6200016d620001913660046200268d565b62000885565b620001a666038d7ea4c6800081565b6040516001600160401b03909116815260200162000177565b620001d6620001d036600462002764565b62000ea3565b005b620001d6620001e936600462002764565b62000f9b565b620001d6620002003660046200265d565b62001363565b6200021d620002173660046200265d565b620015d6565b604051620001779a99989796959493929190620027f6565b6200016d620002463660046200265d565b620016d9565b620002747f000000000000000000000000000000000000000000000000000000000000000081565b6040516001600160a01b03909116815260200162000177565b620002a46200029e3660046200265d565b62001762565b604051901515815260200162000177565b620001d6620002c636600462002874565b620017e7565b60005462000274906001600160a01b031681565b6200016d62001b8e565b620001a6607881565b6200016d620003043660046200265d565b62001c21565b620003216200031b3660046200265d565b62001c61565b60405162000177919062002897565b62000366620003413660046200265d565b600260205260009081526040902080546001909101546001600160a01b039091169082565b604080516001600160a01b03909316835260208301919091520162000177565b620001d6620003973660046200265d565b50565b6200016d7f000000000000000000000000000000000000000000000000000000000000000081565b620002747f000000000000000000000000000000000000000000000000000000000000000081565b620001d6620003fb36600462002978565b62001dee565b60008181526001602081905260408220600881015490916101009091046001600160401b031614620004865760405162461bcd60e51b815260206004820152602360248201527f50726f6a656374206973206e6f7420726561647920666f72206175646974207960448201526265742160e81b60648201526084015b60405180910390fd5b80546001600160a01b0316620004d85760405162461bcd60e51b815260206004820152601660248201527513585c9ad95d081b9bdd081a5b9a5d1a585b1a5e995960521b60448201526064016200047d565b6000838152600260205260409020546001600160a01b0316156200053f5760405162461bcd60e51b815260206004820152601760248201527f4d61726b657420616c726561647920617373657274656400000000000000000060448201526064016200047d565b604051634360af3d60e01b81526001600160a01b037f0000000000000000000000000000000000000000000000000000000000000000811660048301526000917f000000000000000000000000000000000000000000000000000000000000000090911690634360af3d90602401602060405180830381865afa158015620005cb573d6000803e3d6000fd5b505050506040513d601f19601f82011682018060405250810190620005f19190620029a0565b90506000818360010154116200060857816200060e565b82600101545b9050620006476001600160a01b037f000000000000000000000000000000000000000000000000000000000000000016333084620020fb565b6200069d6001600160a01b037f0000000000000000000000000000000000000000000000000000000000000000167f0000000000000000000000000000000000000000000000000000000000000000836200216e565b604051636457c97960e01b8152610120600482015260436101248201527f54686520696e737469747574696f6e2063616e6e6f742064656c6976657220746101448201527f68652070726f6d6973656420616d6f756e74206f6620636172626f6e2063726561016482015262191a5d60ea1b610184820152336024820152306044820152600060648201819052607860848301526001600160a01b037f0000000000000000000000000000000000000000000000000000000000000000811660a484015260c483018490527f000000000000000000000000000000000000000000000000000000000000000060e48401526101048301919091527f00000000000000000000000000000000000000000000000000000000000000001690636457c979906101a4016020604051808303816000875af1158015620007e4573d6000803e3d6000fd5b505050506040513d601f19601f820116820180604052508101906200080a9190620029a0565b604080518082018252338152602080820189815260008581526002909252838220925183546001600160a01b0319166001600160a01b03909116178355516001909201919091559051919550859187917f584cc08a71081fce3cb80c249a3f322d34332812916fce18435e2d1a4468fa7091a3505050919050565b600043833384604051602001620008a09493929190620029ba565b60408051601f198184030181529181528151602092830120600081815260019093529120549091506001600160a01b031615620009185760405162461bcd60e51b81526020600482015260156024820152744d61726b657420616c72656164792065786973747360581b60448201526064016200047d565b6000826040516020016200092d9190620029f3565b60405160208183030381529060405260016040516200094c906200264f565b6200095992919062002a20565b604051809103906000f08015801562000976573d6000803e3d6000fd5b5090506000836040516020016200098e919062002a63565b6040516020818303038152906040526001604051620009ad906200264f565b620009ba92919062002a9c565b604051809103906000f080158015620009d7573d6000803e3d6000fd5b509050600084604051602001620009ef919062002ae0565b604051602081830303815290604052600160405162000a0e906200264f565b62000a1b92919062002b16565b604051809103906000f08015801562000a38573d6000803e3d6000fd5b50604051634c1d96ab60e11b81523060048201529091506001600160a01b0384169063983b2d5690602401600060405180830381600087803b15801562000a7e57600080fd5b505af115801562000a93573d6000803e3d6000fd5b5050604051634c1d96ab60e11b81523060048201526001600160a01b038516925063983b2d569150602401600060405180830381600087803b15801562000ad957600080fd5b505af115801562000aee573d6000803e3d6000fd5b5050604051634c1d96ab60e11b81523060048201526001600160a01b038416925063983b2d569150602401600060405180830381600087803b15801562000b3457600080fd5b505af115801562000b49573d6000803e3d6000fd5b5050604051637a231bdd60e11b81523060048201526001600160a01b038616925063f44637ba9150602401600060405180830381600087803b15801562000b8f57600080fd5b505af115801562000ba4573d6000803e3d6000fd5b5050604051637a231bdd60e11b81523060048201526001600160a01b038516925063f44637ba9150602401600060405180830381600087803b15801562000bea57600080fd5b505af115801562000bff573d6000803e3d6000fd5b5050604051637a231bdd60e11b81523060048201526001600160a01b038416925063f44637ba9150602401600060405180830381600087803b15801562000c4557600080fd5b505af115801562000c5a573d6000803e3d6000fd5b50505050604051806101400160405280336001600160a01b03168152602001888152602001898152602001878152602001846001600160a01b03168152602001836001600160a01b03168152602001826001600160a01b0316815260200186815260200160011515815260200160006001600160401b03168152506001600086815260200190815260200160002060008201518160000160006101000a8154816001600160a01b0302191690836001600160a01b0316021790555060208201518160010155604082015181600201556060820151816003015560808201518160040160006101000a8154816001600160a01b0302191690836001600160a01b0316021790555060a08201518160050160006101000a8154816001600160a01b0302191690836001600160a01b0316021790555060c08201518160060160006101000a8154816001600160a01b0302191690836001600160a01b0316021790555060e082015181600701908162000dd1919062002be7565b506101008281015160089092018054610120909401516001600160401b031690910268ffffffffffffffff00199215159290921668ffffffffffffffffff1990931692909217179055861562000e585762000e586001600160a01b037f00000000000000000000000000000000000000000000000000000000000000001633308a620020fb565b837f1a49307b6f6ab1604ebafd15886fc4caa9e917f99e76d07d6b73e45f5713a22d868a8a3360405162000e90949392919062002cb3565b60405180910390a2505050949350505050565b6000828152600160205260409020546001600160a01b0316331462000f165760405162461bcd60e51b815260206004820152602260248201527f4f6e6c79206f776e65722063616e206368616e6765206d61726b657420737461604482015261746560f01b60648201526084016200047d565b6002816001600160401b0316111562000f625760405162461bcd60e51b815260206004820152600d60248201526c496e76616c696420737461746560981b60448201526064016200047d565b60009182526001602052604090912060080180546001600160401b039092166101000268ffffffffffffffff0019909216919091179055565b6000828152600160205260409020600881015461010090046001600160401b03166002146200100d5760405162461bcd60e51b815260206004820152601c60248201527f4d61726b6574206e6f7420726561647920666f7220736574746c65210000000060448201526064016200047d565b60058101546040516370a0823160e01b81523360048201526000916001600160a01b0316906370a0823190602401602060405180830381865afa15801562001059573d6000803e3d6000fd5b505050506040513d601f19601f820116820180604052508101906200107f9190620029a0565b600583015460405163079cc67960e41b81523360048201526024810183905291925060009182916001600160a01b0316906379cc6790906044016020604051808303816000875af1158015620010d9573d6000803e3d6000fd5b505050506040513d601f19601f82011682018060405250810190620010ff919062002ced565b50600884015460ff1615620011395782915081156200113357600484015462001133906001600160a01b0316338462002290565b6200131e565b60068401546040516370a0823160e01b81523360048201526000916001600160a01b0316906370a0823190602401602060405180830381865afa15801562001185573d6000803e3d6000fd5b505050506040513d601f19601f82011682018060405250810190620011ab9190620029a0565b11156200131e576006840154604080516318160ddd60e01b815290516000926001600160a01b0316916318160ddd9160048083019260209291908290030181865afa158015620011ff573d6000803e3d6000fd5b505050506040513d601f19601f82011682018060405250810190620012259190620029a0565b11620012335760006200125d565b612710856001600160401b0316856002015462001251919062002d23565b6200125d919062002d5b565b90508015620012a2578354620012a2906001600160a01b037f0000000000000000000000000000000000000000000000000000000000000000811691163384620020fb565b600684015460405163079cc67960e41b8152336004820152600160248201526001600160a01b03909116906379cc6790906044016020604051808303816000875af1158015620012f6573d6000803e3d6000fd5b505050506040513d601f19601f820116820180604052508101906200131c919062002ced565b505b6040805182815260208101849052339188917f64e88f38de745da960b2de2db645d82947a21a405c4943480e05ee1ca974a907910160405180910390a3505050505050565b6000818152600160205260409020600881015460026101009091046001600160401b031610620013cb5760405162461bcd60e51b81526020600482015260126024820152714d61726b657420697320617564697465642160701b60448201526064016200047d565b80546001600160a01b0316620014205760405162461bcd60e51b815260206004820152601960248201527813585c9ad95d081a5cc81b9bdd081a5b9a5d1a585b1a5e9959603a1b60448201526064016200047d565b60068101546040516370a0823160e01b81523360048201526001600160a01b03909116906370a0823190602401602060405180830381865afa1580156200146b573d6000803e3d6000fd5b505050506040513d601f19601f82011682018060405250810190620014919190620029a0565b15620014ec5760405162461bcd60e51b8152602060048201526024808201527f56616c696461746f722063616e207265676973746572206f6e6c79206f6e652060448201526374696d6560e01b60648201526084016200047d565b60068101546040516340c10f1960e01b8152336004820152600160248201526001600160a01b03909116906340c10f19906044016020604051808303816000875af115801562001540573d6000803e3d6000fd5b505050506040513d601f19601f8201168201806040525081019062001566919062002ced565b50620015a56001600160a01b037f000000000000000000000000000000000000000000000000000000000000000016333066038d7ea4c68000620020fb565b604051339083907fd2eefd4ce8a0e3945e0e703d5d36e37c6dfaa66a08807564ef3d863f76400a9190600090a35050565b6001602081905260009182526040909120805491810154600282015460038301546004840154600585015460068601546007870180546001600160a01b03998a169997989697959694861695938416949290931692620016369062002b59565b80601f0160208091040260200160405190810160405280929190818152602001828054620016649062002b59565b8015620016b55780601f106200168957610100808354040283529160200191620016b5565b820191906000526020600020905b8154815290600101906020018083116200169757829003601f168201915b5050506008909301549192505060ff8116906001600160401b03610100909104168a565b60008181526001602052604080822060049081015491516370a0823160e01b815233918101919091526001600160a01b03909116906370a08231906024015b602060405180830381865afa15801562001736573d6000803e3d6000fd5b505050506040513d601f19601f820116820180604052508101906200175c9190620029a0565b92915050565b6000818152600160205260408082206006015490516370a0823160e01b815233600482015282916001600160a01b0316906370a0823190602401602060405180830381865afa158015620017ba573d6000803e3d6000fd5b505050506040513d601f19601f82011682018060405250810190620017e09190620029a0565b1192915050565b6000828152600160205260409020600881015461010090046001600160401b0316156200184b5760405162461bcd60e51b81526020600482015260116024820152704d61726b657420697320636c6f7365642160781b60448201526064016200047d565b80546001600160a01b0316620018a05760405162461bcd60e51b815260206004820152601960248201527813585c9ad95d081a5cc81b9bdd081a5b9a5d1a585b1a5e9959603a1b60448201526064016200047d565b60008211620019115760405162461bcd60e51b815260206004820152603660248201527f546865206e756d626572206f66206372656469742067656e65726174656420736044820152750686f756c6420626520626967676572207468616e20360541b60648201526084016200047d565b60008160040160009054906101000a90046001600160a01b03166001600160a01b03166318160ddd6040518163ffffffff1660e01b8152600401602060405180830381865afa15801562001969573d6000803e3d6000fd5b505050506040513d601f19601f820116820180604052508101906200198f9190620029a0565b6003830154909150620019a3848362002d72565b1115620019c1828460030154620019bb919062002d88565b620022c2565b604051602001620019d3919062002d9e565b6040516020818303038152906040529062001a035760405162461bcd60e51b81526004016200047d919062002de4565b50815462001a5a9033906001600160a01b031662001a278664e8d4a5100062002d23565b6001600160a01b037f000000000000000000000000000000000000000000000000000000000000000016929190620020fb565b6004828101546040516340c10f1960e01b81523092810192909252602482018590526001600160a01b0316906340c10f19906044016020604051808303816000875af115801562001aaf573d6000803e3d6000fd5b505050506040513d601f19601f8201168201806040525081019062001ad5919062002ced565b5060058201546040516340c10f1960e01b8152336004820152602481018590526001600160a01b03909116906340c10f19906044016020604051808303816000875af115801562001b2a573d6000803e3d6000fd5b505050506040513d601f19601f8201168201806040525081019062001b50919062002ced565b50604051838152339085907fb33c99b82010ff18b32d024f038afefb8096ad49050d8896e20cdd6df4e401ee9060200160405180910390a350505050565b6040516370a0823160e01b81523360048201526000907f00000000000000000000000000000000000000000000000000000000000000006001600160a01b0316906370a0823190602401602060405180830381865afa15801562001bf6573d6000803e3d6000fd5b505050506040513d601f19601f8201168201806040525081019062001c1c9190620029a0565b905090565b6000818152600160205260408082206005015490516370a0823160e01b81523360048201526001600160a01b03909116906370a082319060240162001718565b604080516101408101825260008082526020820181905291810182905260608082018390526080820183905260a0820183905260c0820183905260e0820152610100810182905261012081019190915260008281526001602081815260409283902083516101408101855281546001600160a01b0390811682529382015492810192909252600281015493820193909352600383015460608201526004830154821660808201526005830154821660a0820152600683015490911660c082015260078201805491929160e08401919062001d3b9062002b59565b80601f016020809104026020016040519081016040528092919081815260200182805462001d699062002b59565b801562001dba5780601f1062001d8e5761010080835404028352916020019162001dba565b820191906000526020600020905b81548152906001019060200180831162001d9c57829003601f168201915b50505091835250506008919091015460ff81161515602083015261010090046001600160401b031660409091015292915050565b336001600160a01b037f0000000000000000000000000000000000000000000000000000000000000000161462001e685760405162461bcd60e51b815260206004820181905260248201527f4f6e6c79204f4f76332063616e2063616c6c20746869732066756e6374696f6e60448201526064016200047d565b6000828152600260209081526040808320600190810154845290915290208115620020a45760088101805460ff19169055604051634360af3d60e01b81526001600160a01b037f0000000000000000000000000000000000000000000000000000000000000000811660048301526000917f000000000000000000000000000000000000000000000000000000000000000090911690634360af3d90602401602060405180830381865afa15801562001f25573d6000803e3d6000fd5b505050506040513d601f19601f8201168201806040525081019062001f4b9190620029a0565b905060008183600101541162001f62578162001f68565b82600101545b600480850154604080516318160ddd60e01b815290519394506001600160a01b03909116926379cc679092309285926318160ddd928281019260209291908290030181865afa15801562001fc0573d6000803e3d6000fd5b505050506040513d601f19601f8201168201806040525081019062001fe69190620029a0565b6040516001600160e01b031960e085901b1681526001600160a01b03909216600483015260248201526044016020604051808303816000875af115801562002032573d6000803e3d6000fd5b505050506040513d601f19601f8201168201806040525081019062002058919062002ced565b50600085815260026020526040902054620020a1906001600160a01b037f0000000000000000000000000000000000000000000000000000000000000000811691168362002290565b50505b60088101805468ffffffffffffffff00191661020017905560008381526002602052604080822060010154905190917fe9146184308c5e4b8f243047cc6f81dce88e004d7980502e123b02f887ab514491a2505050565b6040516001600160a01b0380851660248301528316604482015260648101829052620021689085906323b872dd60e01b906084015b60408051601f198184030181529190526020810180516001600160e01b03166001600160e01b031990931692909217909152620023e2565b50505050565b801580620021ec5750604051636eb1769f60e11b81523060048201526001600160a01b03838116602483015284169063dd62ed3e90604401602060405180830381865afa158015620021c4573d6000803e3d6000fd5b505050506040513d601f19601f82011682018060405250810190620021ea9190620029a0565b155b620022595760405162461bcd60e51b815260206004820152603660248201527f5361666545524332303a20617070726f76652066726f6d206e6f6e2d7a65726f60448201527520746f206e6f6e2d7a65726f20616c6c6f77616e636560501b60648201526084016200047d565b6040516001600160a01b0383166024820152604481018290526200228b90849063095ea7b360e01b9060640162002130565b505050565b6040516001600160a01b0383166024820152604481018290526200228b90849063a9059cbb60e01b9060640162002130565b606081600003620022ea5750506040805180820190915260018152600360fc1b602082015290565b8160005b81156200231a5780620023018162002df9565b9150620023129050600a8362002d5b565b9150620022ee565b6000816001600160401b0381111562002337576200233762002677565b6040519080825280601f01601f19166020018201604052801562002362576020820181803683370190505b5090505b8415620023da576200237a60018362002d88565b915062002389600a8662002e15565b6200239690603062002d72565b60f81b818381518110620023ae57620023ae62002e2c565b60200101906001600160f81b031916908160001a905350620023d2600a8662002d5b565b945062002366565b949350505050565b600062002439826040518060400160405280602081526020017f5361666545524332303a206c6f772d6c6576656c2063616c6c206661696c6564815250856001600160a01b0316620024bb9092919063ffffffff16565b8051909150156200228b57808060200190518101906200245a919062002ced565b6200228b5760405162461bcd60e51b815260206004820152602a60248201527f5361666545524332303a204552433230206f7065726174696f6e20646964206e6044820152691bdd081cdd58d8d9595960b21b60648201526084016200047d565b6060620024cc8484600085620024d6565b90505b9392505050565b606082471015620025395760405162461bcd60e51b815260206004820152602660248201527f416464726573733a20696e73756666696369656e742062616c616e636520666f6044820152651c8818d85b1b60d21b60648201526084016200047d565b6001600160a01b0385163b620025925760405162461bcd60e51b815260206004820152601d60248201527f416464726573733a2063616c6c20746f206e6f6e2d636f6e747261637400000060448201526064016200047d565b600080866001600160a01b03168587604051620025b0919062002e42565b60006040518083038185875af1925050503d8060008114620025ef576040519150601f19603f3d011682016040523d82523d6000602084013e620025f4565b606091505b50915091506200260682828662002611565b979650505050505050565b6060831562002622575081620024cf565b825115620026335782518084602001fd5b8160405162461bcd60e51b81526004016200047d919062002de4565b611cb68062002e6183390190565b6000602082840312156200267057600080fd5b5035919050565b634e487b7160e01b600052604160045260246000fd5b60008060008060808587031215620026a457600080fd5b84359350602085013592506040850135915060608501356001600160401b0380821115620026d157600080fd5b818701915087601f830112620026e657600080fd5b813581811115620026fb57620026fb62002677565b604051601f8201601f19908116603f0116810190838211818310171562002726576200272662002677565b816040528281528a60208487010111156200274057600080fd5b82602086016020830137600060208483010152809550505050505092959194509250565b600080604083850312156200277857600080fd5b8235915060208301356001600160401b03811681146200279757600080fd5b809150509250929050565b60005b83811015620027bf578181015183820152602001620027a5565b50506000910152565b60008151808452620027e2816020860160208601620027a2565b601f01601f19169290920160200192915050565b6001600160a01b038b81168252602082018b9052604082018a905260608201899052878116608083015286811660a0830152851660c082015261014060e082018190526000906200284a83820187620027c8565b94151561010084015250506001600160401b03919091166101209091015298975050505050505050565b600080604083850312156200288857600080fd5b50508035926020909101359150565b60208152620028b26020820183516001600160a01b03169052565b60208201516040820152604082015160608201526060820151608082015260006080830151620028ed60a08401826001600160a01b03169052565b5060a08301516001600160a01b03811660c08401525060c08301516001600160a01b03811660e08401525060e0830151610140610100818186015262002938610160860184620027c8565b90860151909250610120620029508682018315159052565b909501516001600160401b031693019290925250919050565b80151581146200039757600080fd5b600080604083850312156200298c57600080fd5b823591506020830135620027978162002969565b600060208284031215620029b357600080fd5b5051919050565b84815283602082015260018060a01b0383166040820152608060608201526000620029e96080830184620027c8565b9695505050505050565b6000825162002a07818460208701620027a2565b660810dc99591a5d60ca1b920191825250600701919050565b60608152600062002a356060830185620027c8565b82810360208401526002815261434360f01b60208201526040810191505060ff831660408301529392505050565b6000825162002a77818460208701620027a2565b720810dbdb9d995c9d1a589b194810dc99591a5d606a1b920191825250601301919050565b60608152600062002ab16060830185620027c8565b8281036020840152600381526243434360e81b60208201526040810191505060ff831660408301529392505050565b6000825162002af4818460208701620027a2565b6f102b30b634b230ba37b9102a37b5b2b760811b920191825250601001919050565b60608152600062002b2b6060830185620027c8565b82810360208401526002815261159560f21b60208201526040810191505060ff831660408301529392505050565b600181811c9082168062002b6e57607f821691505b60208210810362002b8f57634e487b7160e01b600052602260045260246000fd5b50919050565b601f8211156200228b57600081815260208120601f850160051c8101602086101562002bbe5750805b601f850160051c820191505b8181101562002bdf5782815560010162002bca565b505050505050565b81516001600160401b0381111562002c035762002c0362002677565b62002c1b8162002c14845462002b59565b8462002b95565b602080601f83116001811462002c53576000841562002c3a5750858301515b600019600386901b1c1916600185901b17855562002bdf565b600085815260208120601f198616915b8281101562002c845788860151825594840194600190910190840162002c63565b508582101562002ca35787850151600019600388901b60f8161c191681555b5050505050600190811b01905550565b60808152600062002cc86080830187620027c8565b60208301959095525060408101929092526001600160a01b0316606090910152919050565b60006020828403121562002d0057600080fd5b8151620024cf8162002969565b634e487b7160e01b600052601160045260246000fd5b600081600019048311821515161562002d405762002d4062002d0d565b500290565b634e487b7160e01b600052601260045260246000fd5b60008262002d6d5762002d6d62002d45565b500490565b808201808211156200175c576200175c62002d0d565b818103818111156200175c576200175c62002d0d565b64027b7363c960dd1b81526000825162002dc0816005850160208701620027a2565b6c20746f6b656e73206c6566742160981b6005939091019283015250601201919050565b602081526000620024cf6020830184620027c8565b60006001820162002e0e5762002e0e62002d0d565b5060010190565b60008262002e275762002e2762002d45565b500690565b634e487b7160e01b600052603260045260246000fd5b6000825162002e56818460208701620027a2565b919091019291505056fe60806040523480156200001157600080fd5b5060405162001cb638038062001cb6833981016040819052620000349162000563565b8282600362000044838262000676565b50600462000053828262000676565b50506006805460ff191660ff8416179055506200007360008033620000a5565b6200009060015b60408051600080825260208201909252620001f5565b6200009c60026200007a565b50505062000796565b826000808281526005602052604090206001015460ff166002811115620000d057620000d062000742565b14620001235760405162461bcd60e51b815260206004820152601e60248201527f43616e6e6f74207573652061207072652d6578697374696e6720726f6c65000060448201526064015b60405180910390fd5b60008481526005602052604090206001808201805460ff1916828002179055508381556200016160028201846200033b602090811b62000a6617901c565b60008481526005602052604081206001015460ff1660028111156200018a576200018a62000742565b03620001ee5760405162461bcd60e51b815260206004820152603c602482015260008051602062001c9683398151915260448201527f20746f206d616e61676520616e206578636c757369766520726f6c650000000060648201526084016200011a565b5050505050565b826000808281526005602052604090206001015460ff16600281111562000220576200022062000742565b146200026f5760405162461bcd60e51b815260206004820152601e60248201527f43616e6e6f74207573652061207072652d6578697374696e6720726f6c65000060448201526064016200011a565b600084815260056020908152604090912060018101805460ff1916600217905584815590620002ae906003830190859062000a706200034b821b17901c565b60008481526005602052604081206001015460ff166002811115620002d757620002d762000742565b03620001ee5760405162461bcd60e51b8152602060048201526038602482015260008051602062001c9683398151915260448201527f20746f206d616e61676520612073686172656420726f6c65000000000000000060648201526084016200011a565b620003478282620003a0565b5050565b60005b81518110156200039b57620003868383838151811062000372576200037262000758565b60200260200101516200042160201b60201c565b8062000392816200076e565b9150506200034e565b505050565b6001600160a01b038116620004045760405162461bcd60e51b815260206004820152602360248201527f43616e6e6f742073657420616e206578636c757369766520726f6c6520746f2060448201526203078360ec1b60648201526084016200011a565b81546001600160a01b0319166001600160a01b0391909116179055565b6001600160a01b038116620004795760405162461bcd60e51b815260206004820152601f60248201527f43616e6e6f74206164642030783020746f20612073686172656420726f6c650060448201526064016200011a565b6001600160a01b0316600090815260209190915260409020805460ff19166001179055565b634e487b7160e01b600052604160045260246000fd5b600082601f830112620004c657600080fd5b81516001600160401b0380821115620004e357620004e36200049e565b604051601f8301601f19908116603f011681019082821181831017156200050e576200050e6200049e565b816040528381526020925086838588010111156200052b57600080fd5b600091505b838210156200054f578582018301518183018401529082019062000530565b600093810190920192909252949350505050565b6000806000606084860312156200057957600080fd5b83516001600160401b03808211156200059157600080fd5b6200059f87838801620004b4565b94506020860151915080821115620005b657600080fd5b50620005c586828701620004b4565b925050604084015160ff81168114620005dd57600080fd5b809150509250925092565b600181811c90821680620005fd57607f821691505b6020821081036200061e57634e487b7160e01b600052602260045260246000fd5b50919050565b601f8211156200039b57600081815260208120601f850160051c810160208610156200064d5750805b601f850160051c820191505b818110156200066e5782815560010162000659565b505050505050565b81516001600160401b038111156200069257620006926200049e565b620006aa81620006a38454620005e8565b8462000624565b602080601f831160018114620006e25760008415620006c95750858301515b600019600386901b1c1916600185901b1785556200066e565b600085815260208120601f198616915b828110156200071357888601518255948401946001909101908401620006f2565b5085821015620007325787850151600019600388901b60f8161c191681555b5050505050600190811b01905550565b634e487b7160e01b600052602160045260246000fd5b634e487b7160e01b600052603260045260246000fd5b6000600182016200078f57634e487b7160e01b600052601160045260246000fd5b5060010190565b6114f080620007a66000396000f3fe608060405234801561001057600080fd5b506004361061014d5760003560e01c806374d0a676116100c3578063a9059cbb1161007c578063a9059cbb146102be578063aaa14ca3146102d1578063ab3545e5146102e4578063d97c05be1461030f578063dd62ed3e14610322578063f44637ba1461035b57600080fd5b806374d0a6761461025757806379cc67901461026a5780637cdc1cb91461027d57806395d89b4114610290578063983b2d5614610298578063a457c2d7146102ab57600080fd5b8063395093511161011557806339509351146101cd57806340c10f19146101e057806342966c68146101f35780636be7658b1461020857806370a082311461021b57806373cc802a1461024457600080fd5b806306fdde0314610152578063095ea7b31461017057806318160ddd1461019357806323b872dd146101a5578063313ce567146101b8575b600080fd5b61015a61036e565b6040516101679190611183565b60405180910390f35b61018361017e3660046111ed565b610400565b6040519015158152602001610167565b6002545b604051908152602001610167565b6101836101b3366004611217565b61041a565b60065460405160ff9091168152602001610167565b6101836101db3660046111ed565b61043e565b6101836101ee3660046111ed565b61047d565b610206610201366004611253565b6104ba565b005b61020661021636600461126c565b6104f0565b610197610229366004611298565b6001600160a01b031660009081526020819052604090205490565b610206610252366004611298565b6105c6565b61020661026536600461126c565b6105d4565b6101836102783660046111ed565b6106aa565b61018361028b36600461126c565b6106de565b61015a6107a3565b6102066102a6366004611298565b6107b2565b6101836102b93660046111ed565b6107be565b6101836102cc3660046111ed565b610850565b6102066102df366004611253565b61085e565b6102f76102f2366004611253565b61091a565b6040516001600160a01b039091168152602001610167565b61020661031d36600461126c565b610986565b6101976103303660046112ba565b6001600160a01b03918216600090815260016020908152604080832093909416825291909152205490565b610206610369366004611298565b610a5c565b60606003805461037d906112e4565b80601f01602080910402602001604051908101604052809291908181526020018280546103a9906112e4565b80156103f65780601f106103cb576101008083540402835291602001916103f6565b820191906000526020600020905b8154815290600101906020018083116103d957829003601f168201915b5050505050905090565b60003361040e818585610ab6565b60019150505b92915050565b600033610428858285610bda565b610433858585610c6c565b506001949350505050565b3360008181526001602090815260408083206001600160a01b038716845290915281205490919061040e908290869061047890879061132e565b610ab6565b6000600161048b81336106de565b6104b05760405162461bcd60e51b81526004016104a790611357565b60405180910390fd5b61040e8484610e3a565b60026104c681336106de565b6104e25760405162461bcd60e51b81526004016104a790611357565b6104ec3383610f19565b5050565b81600260008281526005602052604090206001015460ff16600281111561051957610519611341565b146105365760405162461bcd60e51b81526004016104a790611399565b600083815260056020526040902054839061055190336106de565b61056d5760405162461bcd60e51b81526004016104a7906113e5565b60008481526005602052604090206105889060030184611067565b60405133906001600160a01b0385169086907feb3e33034c392e69263b04ec0fa376dc12784a41b6676c7f31b936cbc0fbb5af90600090a450505050565b6105d1600082610986565b50565b81600260008281526005602052604090206001015460ff1660028111156105fd576105fd611341565b1461061a5760405162461bcd60e51b81526004016104a790611399565b600083815260056020526040902054839061063590336106de565b6106515760405162461bcd60e51b81526004016104a7906113e5565b600084815260056020526040902061066c9060030184611089565b60405133906001600160a01b0385169086907f63502af7324ff6db91ab38f8236a648727d9385ea6c782073dd4882d8a61a48f90600090a450505050565b600060026106b881336106de565b6106d45760405162461bcd60e51b81526004016104a790611357565b61040e8484610f19565b600082815260056020526040812060018082015460ff16600281111561070657610706611341565b036107275760028101546001600160a01b038481169116145b915050610414565b6002600182015460ff16600281111561074257610742611341565b0361076a576001600160a01b038316600090815260038201602052604090205460ff1661071f565b60405162461bcd60e51b815260206004820152600e60248201526d125b9d985b1a59081c9bdb19525960921b60448201526064016104a7565b60606004805461037d906112e4565b6105d160015b826105d4565b3360008181526001602090815260408083206001600160a01b0387168452909152812054909190838110156108435760405162461bcd60e51b815260206004820152602560248201527f45524332303a2064656372656173656420616c6c6f77616e63652062656c6f77604482015264207a65726f60d81b60648201526084016104a7565b6104338286868403610ab6565b60003361040e818585610c6c565b80600260008281526005602052604090206001015460ff16600281111561088757610887611341565b146108a45760405162461bcd60e51b81526004016104a790611399565b816108af81336106de565b6108cb5760405162461bcd60e51b81526004016104a790611357565b60008381526005602052604090206108e69060030133611067565b6040513390819085907feb3e33034c392e69263b04ec0fa376dc12784a41b6676c7f31b936cbc0fbb5af90600090a4505050565b600081600160008281526005602052604090206001015460ff16600281111561094557610945611341565b146109625760405162461bcd60e51b81526004016104a790611429565b6000838152600560205260409020600201546001600160a01b031691505b50919050565b81600160008281526005602052604090206001015460ff1660028111156109af576109af611341565b146109cc5760405162461bcd60e51b81526004016104a790611429565b60008381526005602052604090205483906109e790336106de565b610a035760405162461bcd60e51b81526004016104a7906113e5565b6000848152600560205260409020610a1e9060020184611104565b60405133906001600160a01b0385169086907f3b855c56b409b671c7112789d022675eb639d0bcb8896f1b6197c132f799e74690600090a450505050565b6105d160026107b8565b6104ec8282611104565b60005b8151811015610ab157610a9f83838381518110610a9257610a92611478565b6020026020010151611089565b80610aa98161148e565b915050610a73565b505050565b6001600160a01b038316610b185760405162461bcd60e51b8152602060048201526024808201527f45524332303a20617070726f76652066726f6d20746865207a65726f206164646044820152637265737360e01b60648201526084016104a7565b6001600160a01b038216610b795760405162461bcd60e51b815260206004820152602260248201527f45524332303a20617070726f766520746f20746865207a65726f206164647265604482015261737360f01b60648201526084016104a7565b6001600160a01b0383811660008181526001602090815260408083209487168084529482529182902085905590518481527f8c5be1e5ebec7d5bd14f71427d1e84f3dd0314c0f7b2291e5b200ac8c7c3b925910160405180910390a3505050565b6001600160a01b038381166000908152600160209081526040808320938616835292905220546000198114610c665781811015610c595760405162461bcd60e51b815260206004820152601d60248201527f45524332303a20696e73756666696369656e7420616c6c6f77616e636500000060448201526064016104a7565b610c668484848403610ab6565b50505050565b6001600160a01b038316610cd05760405162461bcd60e51b815260206004820152602560248201527f45524332303a207472616e736665722066726f6d20746865207a65726f206164604482015264647265737360d81b60648201526084016104a7565b6001600160a01b038216610d325760405162461bcd60e51b815260206004820152602360248201527f45524332303a207472616e7366657220746f20746865207a65726f206164647260448201526265737360e81b60648201526084016104a7565b6001600160a01b03831660009081526020819052604090205481811015610daa5760405162461bcd60e51b815260206004820152602660248201527f45524332303a207472616e7366657220616d6f756e7420657863656564732062604482015265616c616e636560d01b60648201526084016104a7565b6001600160a01b03808516600090815260208190526040808220858503905591851681529081208054849290610de190849061132e565b92505081905550826001600160a01b0316846001600160a01b03167fddf252ad1be2c89b69c2b068fc378daa952ba7f163c4a11628f55a4df523b3ef84604051610e2d91815260200190565b60405180910390a3610c66565b6001600160a01b038216610e905760405162461bcd60e51b815260206004820152601f60248201527f45524332303a206d696e7420746f20746865207a65726f20616464726573730060448201526064016104a7565b8060026000828254610ea2919061132e565b90915550506001600160a01b03821660009081526020819052604081208054839290610ecf90849061132e565b90915550506040518181526001600160a01b038316906000907fddf252ad1be2c89b69c2b068fc378daa952ba7f163c4a11628f55a4df523b3ef9060200160405180910390a35050565b6001600160a01b038216610f795760405162461bcd60e51b815260206004820152602160248201527f45524332303a206275726e2066726f6d20746865207a65726f206164647265736044820152607360f81b60648201526084016104a7565b6001600160a01b03821660009081526020819052604090205481811015610fed5760405162461bcd60e51b815260206004820152602260248201527f45524332303a206275726e20616d6f756e7420657863656564732062616c616e604482015261636560f01b60648201526084016104a7565b6001600160a01b038316600090815260208190526040812083830390556002805484929061101c9084906114a7565b90915550506040518281526000906001600160a01b038516907fddf252ad1be2c89b69c2b068fc378daa952ba7f163c4a11628f55a4df523b3ef9060200160405180910390a3505050565b6001600160a01b0316600090815260209190915260409020805460ff19169055565b6001600160a01b0381166110df5760405162461bcd60e51b815260206004820152601f60248201527f43616e6e6f74206164642030783020746f20612073686172656420726f6c650060448201526064016104a7565b6001600160a01b0316600090815260209190915260409020805460ff19166001179055565b6001600160a01b0381166111665760405162461bcd60e51b815260206004820152602360248201527f43616e6e6f742073657420616e206578636c757369766520726f6c6520746f2060448201526203078360ec1b60648201526084016104a7565b81546001600160a01b0319166001600160a01b0391909116179055565b600060208083528351808285015260005b818110156111b057858101830151858201604001528201611194565b506000604082860101526040601f19601f8301168501019250505092915050565b80356001600160a01b03811681146111e857600080fd5b919050565b6000806040838503121561120057600080fd5b611209836111d1565b946020939093013593505050565b60008060006060848603121561122c57600080fd5b611235846111d1565b9250611243602085016111d1565b9150604084013590509250925092565b60006020828403121561126557600080fd5b5035919050565b6000806040838503121561127f57600080fd5b8235915061128f602084016111d1565b90509250929050565b6000602082840312156112aa57600080fd5b6112b3826111d1565b9392505050565b600080604083850312156112cd57600080fd5b6112d6836111d1565b915061128f602084016111d1565b600181811c908216806112f857607f821691505b60208210810361098057634e487b7160e01b600052602260045260246000fd5b634e487b7160e01b600052601160045260246000fd5b8082018082111561041457610414611318565b634e487b7160e01b600052602160045260246000fd5b60208082526022908201527f53656e64657220646f6573206e6f7420686f6c6420726571756972656420726f6040820152616c6560f01b606082015260800190565b6020808252602c908201527f4d7573742062652063616c6c6564206f6e20616e20696e697469616c697a656460408201526b2053686172656420726f6c6560a01b606082015260800190565b60208082526024908201527f43616e206f6e6c792062652063616c6c6564206279206120726f6c65206d616e60408201526330b3b2b960e11b606082015260800190565b6020808252602f908201527f4d7573742062652063616c6c6564206f6e20616e20696e697469616c697a656460408201526e204578636c757369766520726f6c6560881b606082015260800190565b634e487b7160e01b600052603260045260246000fd5b6000600182016114a0576114a0611318565b5060010190565b818103818111156104145761041461131856fea26469706673582212208961104dd3923b79c08fd49fd308093d4ed7792f1229905fa0e9f300d355f10d64736f6c63430008100033417474656d7074656420746f2075736520616e20696e76616c696420726f6c65a264697066735822122040e078e34b28f2b109ad72ab977e755d32e3824d9e361095452ac15ef06c494664736f6c63430008100033",
    "linkReferences": {}
  },
  "methodIdentifiers": {
    "accountBalance()": "b0a1c1c4",
    "assertedMarkets(bytes32)": "d4107645",
    "assertionDisputedCallback(bytes32)": "d448a4ec",
    "assertionLiveness()": "b75d4e24",
    "assertionResolvedCallback(bytes32,bool)": "f1b156b2",
    "carbonCreditBalance(bytes32)": "82f7b9ac",
    "changeMarketState(bytes32,uint64)": "481e9c6b",
    "convertibleCarbonCreditBalance(bytes32)": "bac6d3c1",
    "currency()": "e5a6b10f",
    "data_oo()": "af2b57ce",
    "declareFalsePromise(bytes32)": "1122cca3",
    "defaultIdentifier()": "d509b017",
    "getMarket(bytes32)": "c3c95c7b",
    "initializeMarket(uint256,uint256,uint256,string)": "2a98b03d",
    "isValidator(bytes32)": "9d37c680",
    "markets(bytes32)": "7564912b",
    "mintCredit(bytes32,uint256)": "a7f0de81",
    "oo()": "8921a614",
    "registerValidator(bytes32)": "607049d8",
    "settleMarket(bytes32,uint64)": "5a682986",
    "validatorFee()": "3f6d8256"
  },
  "id": 0
}