{
  "abi": [
    {
      "inputs": [
        {
          "internalType": "address",
          "name": "_finder",
          "type": "address"
        },
        {
          "internalType": "address",
          "name": "_currency",
          "type": "address"
        },
        {
          "internalType": "address",
          "name": "_optimisticOracleV3",
          "type": "address"
        }
      ],
      "stateMutability": "nonpayable",
      "type": "constructor"
    },
    {
      "anonymous": false,
      "inputs": [
        {
          "indexed": true,
          "internalType": "bytes32",
          "name": "marketId",
          "type": "bytes32"
        },
        {
          "indexed": false,
          "internalType": "string",
          "name": "assertedOutcome",
          "type": "string"
        },
        {
          "indexed": true,
          "internalType": "bytes32",
          "name": "assertionId",
          "type": "bytes32"
        }
      ],
      "name": "MarketAsserted",
      "type": "event"
    },
    {
      "anonymous": false,
      "inputs": [
        {
          "indexed": true,
          "internalType": "bytes32",
          "name": "marketId",
          "type": "bytes32"
        },
        {
          "indexed": false,
          "internalType": "string",
          "name": "outcome1",
          "type": "string"
        },
        {
          "indexed": false,
          "internalType": "string",
          "name": "outcome2",
          "type": "string"
        },
        {
          "indexed": false,
          "internalType": "string",
          "name": "description",
          "type": "string"
        },
        {
          "indexed": false,
          "internalType": "address",
          "name": "outcome1Token",
          "type": "address"
        },
        {
          "indexed": false,
          "internalType": "address",
          "name": "outcome2Token",
          "type": "address"
        },
        {
          "indexed": false,
          "internalType": "uint256",
          "name": "reward",
          "type": "uint256"
        },
        {
          "indexed": false,
          "internalType": "uint256",
          "name": "requiredBond",
          "type": "uint256"
        }
      ],
      "name": "MarketInitialized",
      "type": "event"
    },
    {
      "anonymous": false,
      "inputs": [
        {
          "indexed": true,
          "internalType": "bytes32",
          "name": "marketId",
          "type": "bytes32"
        }
      ],
      "name": "MarketResolved",
      "type": "event"
    },
    {
      "anonymous": false,
      "inputs": [
        {
          "indexed": true,
          "internalType": "bytes32",
          "name": "marketId",
          "type": "bytes32"
        },
        {
          "indexed": true,
          "internalType": "address",
          "name": "account",
          "type": "address"
        },
        {
          "indexed": false,
          "internalType": "uint256",
          "name": "tokensCreated",
          "type": "uint256"
        }
      ],
      "name": "TokensCreated",
      "type": "event"
    },
    {
      "anonymous": false,
      "inputs": [
        {
          "indexed": true,
          "internalType": "bytes32",
          "name": "marketId",
          "type": "bytes32"
        },
        {
          "indexed": true,
          "internalType": "address",
          "name": "account",
          "type": "address"
        },
        {
          "indexed": false,
          "internalType": "uint256",
          "name": "tokensRedeemed",
          "type": "uint256"
        }
      ],
      "name": "TokensRedeemed",
      "type": "event"
    },
    {
      "anonymous": false,
      "inputs": [
        {
          "indexed": true,
          "internalType": "bytes32",
          "name": "marketId",
          "type": "bytes32"
        },
        {
          "indexed": true,
          "internalType": "address",
          "name": "account",
          "type": "address"
        },
        {
          "indexed": false,
          "internalType": "uint256",
          "name": "payout",
          "type": "uint256"
        },
        {
          "indexed": false,
          "internalType": "uint256",
          "name": "outcome1Tokens",
          "type": "uint256"
        },
        {
          "indexed": false,
          "internalType": "uint256",
          "name": "outcome2Tokens",
          "type": "uint256"
        }
      ],
      "name": "TokensSettled",
      "type": "event"
    },
    {
      "inputs": [
        {
          "internalType": "bytes32",
          "name": "marketId",
          "type": "bytes32"
        },
        {
          "internalType": "string",
          "name": "assertedOutcome",
          "type": "string"
        }
      ],
      "name": "assertMarket",
      "outputs": [
        {
          "internalType": "bytes32",
          "name": "assertionId",
          "type": "bytes32"
        }
      ],
      "stateMutability": "nonpayable",
      "type": "function"
    },
    {
      "inputs": [
        {
          "internalType": "bytes32",
          "name": "",
          "type": "bytes32"
        }
      ],
      "name": "assertedMarkets",
      "outputs": [
        {
          "internalType": "address",
          "name": "asserter",
          "type": "address"
        },
        {
          "internalType": "bytes32",
          "name": "marketId",
          "type": "bytes32"
        }
      ],
      "stateMutability": "view",
      "type": "function"
    },
    {
      "inputs": [
        {
          "internalType": "bytes32",
          "name": "assertionId",
          "type": "bytes32"
        }
      ],
      "name": "assertionDisputedCallback",
      "outputs": [],
      "stateMutability": "nonpayable",
      "type": "function"
    },
    {
      "inputs": [],
      "name": "assertionLiveness",
      "outputs": [
        {
          "internalType": "uint64",
          "name": "",
          "type": "uint64"
        }
      ],
      "stateMutability": "view",
      "type": "function"
    },
    {
      "inputs": [
        {
          "internalType": "bytes32",
          "name": "assertionId",
          "type": "bytes32"
        },
        {
          "internalType": "bool",
          "name": "assertedTruthfully",
          "type": "bool"
        }
      ],
      "name": "assertionResolvedCallback",
      "outputs": [],
      "stateMutability": "nonpayable",
      "type": "function"
    },
    {
      "inputs": [
        {
          "internalType": "bytes32",
          "name": "marketId",
          "type": "bytes32"
        },
        {
          "internalType": "uint256",
          "name": "tokensToCreate",
          "type": "uint256"
        }
      ],
      "name": "createOutcomeTokens",
      "outputs": [],
      "stateMutability": "nonpayable",
      "type": "function"
    },
    {
      "inputs": [],
      "name": "currency",
      "outputs": [
        {
          "internalType": "contract IERC20",
          "name": "",
          "type": "address"
        }
      ],
      "stateMutability": "view",
      "type": "function"
    },
    {
      "inputs": [],
      "name": "defaultIdentifier",
      "outputs": [
        {
          "internalType": "bytes32",
          "name": "",
          "type": "bytes32"
        }
      ],
      "stateMutability": "view",
      "type": "function"
    },
    {
      "inputs": [],
      "name": "finder",
      "outputs": [
        {
          "internalType": "contract FinderInterface",
          "name": "",
          "type": "address"
        }
      ],
      "stateMutability": "view",
      "type": "function"
    },
    {
      "inputs": [
        {
          "internalType": "bytes32",
          "name": "marketId",
          "type": "bytes32"
        }
      ],
      "name": "getMarket",
      "outputs": [
        {
          "components": [
            {
              "internalType": "bool",
              "name": "resolved",
              "type": "bool"
            },
            {
              "internalType": "bytes32",
              "name": "assertedOutcomeId",
              "type": "bytes32"
            },
            {
              "internalType": "contract ExpandedIERC20",
              "name": "outcome1Token",
              "type": "address"
            },
            {
              "internalType": "contract ExpandedIERC20",
              "name": "outcome2Token",
              "type": "address"
            },
            {
              "internalType": "uint256",
              "name": "reward",
              "type": "uint256"
            },
            {
              "internalType": "uint256",
              "name": "requiredBond",
              "type": "uint256"
            },
            {
              "internalType": "bytes",
              "name": "outcome1",
              "type": "bytes"
            },
            {
              "internalType": "bytes",
              "name": "outcome2",
              "type": "bytes"
            },
            {
              "internalType": "bytes",
              "name": "description",
              "type": "bytes"
            }
          ],
          "internalType": "struct PredictionMarket.Market",
          "name": "",
          "type": "tuple"
        }
      ],
      "stateMutability": "view",
      "type": "function"
    },
    {
      "inputs": [
        {
          "internalType": "string",
          "name": "outcome1",
          "type": "string"
        },
        {
          "internalType": "string",
          "name": "outcome2",
          "type": "string"
        },
        {
          "internalType": "string",
          "name": "description",
          "type": "string"
        },
        {
          "internalType": "uint256",
          "name": "reward",
          "type": "uint256"
        },
        {
          "internalType": "uint256",
          "name": "requiredBond",
          "type": "uint256"
        }
      ],
      "name": "initializeMarket",
      "outputs": [
        {
          "internalType": "bytes32",
          "name": "marketId",
          "type": "bytes32"
        }
      ],
      "stateMutability": "nonpayable",
      "type": "function"
    },
    {
      "inputs": [
        {
          "internalType": "bytes32",
          "name": "",
          "type": "bytes32"
        }
      ],
      "name": "markets",
      "outputs": [
        {
          "internalType": "bool",
          "name": "resolved",
          "type": "bool"
        },
        {
          "internalType": "bytes32",
          "name": "assertedOutcomeId",
          "type": "bytes32"
        },
        {
          "internalType": "contract ExpandedIERC20",
          "name": "outcome1Token",
          "type": "address"
        },
        {
          "internalType": "contract ExpandedIERC20",
          "name": "outcome2Token",
          "type": "address"
        },
        {
          "internalType": "uint256",
          "name": "reward",
          "type": "uint256"
        },
        {
          "internalType": "uint256",
          "name": "requiredBond",
          "type": "uint256"
        },
        {
          "internalType": "bytes",
          "name": "outcome1",
          "type": "bytes"
        },
        {
          "internalType": "bytes",
          "name": "outcome2",
          "type": "bytes"
        },
        {
          "internalType": "bytes",
          "name": "description",
          "type": "bytes"
        }
      ],
      "stateMutability": "view",
      "type": "function"
    },
    {
      "inputs": [],
      "name": "oo",
      "outputs": [
        {
          "internalType": "contract OptimisticOracleV3Interface",
          "name": "",
          "type": "address"
        }
      ],
      "stateMutability": "view",
      "type": "function"
    },
    {
      "inputs": [
        {
          "internalType": "bytes32",
          "name": "marketId",
          "type": "bytes32"
        },
        {
          "internalType": "uint256",
          "name": "tokensToRedeem",
          "type": "uint256"
        }
      ],
      "name": "redeemOutcomeTokens",
      "outputs": [],
      "stateMutability": "nonpayable",
      "type": "function"
    },
    {
      "inputs": [
        {
          "internalType": "bytes32",
          "name": "marketId",
          "type": "bytes32"
        }
      ],
      "name": "settleOutcomeTokens",
      "outputs": [
        {
          "internalType": "uint256",
          "name": "payout",
          "type": "uint256"
        }
      ],
      "stateMutability": "nonpayable",
      "type": "function"
    },
    {
      "inputs": [],
      "name": "unresolvable",
      "outputs": [
        {
          "internalType": "bytes",
          "name": "",
          "type": "bytes"
        }
      ],
      "stateMutability": "view",
      "type": "function"
    }
  ],
  "bytecode": {
    "object": "0x6101006040523480156200001257600080fd5b5060405162004acd38038062004acd833981016040819052620000359162000242565b6001600160a01b0383166080526200004c62000190565b604051631d1d5b3960e11b81526001600160a01b0384811660048301529190911690633a3ab67290602401602060405180830381865afa15801562000095573d6000803e3d6000fd5b505050506040513d601f19601f82011682018060405250810190620000bb91906200028c565b6200010c5760405162461bcd60e51b815260206004820152601460248201527f556e737570706f727465642063757272656e6379000000000000000000000000604482015260640160405180910390fd5b6001600160a01b0380831660a052811660c08190526040805163d509b01760e01b8152905163d509b017916004808201926020929091908290030181865afa1580156200015d573d6000803e3d6000fd5b505050506040513d601f19601f82011682018060405250810190620001839190620002b7565b60e05250620002ef915050565b6080516040516302abf57960e61b81527f436f6c6c61746572616c57686974656c6973740000000000000000000000000060048201526000916001600160a01b03169063aafd5e4090602401602060405180830381865afa158015620001fa573d6000803e3d6000fd5b505050506040513d601f19601f82011682018060405250810190620002209190620002d1565b905090565b80516001600160a01b03811681146200023d57600080fd5b919050565b6000806000606084860312156200025857600080fd5b620002638462000225565b9250620002736020850162000225565b9150620002836040850162000225565b90509250925092565b6000602082840312156200029f57600080fd5b81518015158114620002b057600080fd5b9392505050565b600060208284031215620002ca57600080fd5b5051919050565b600060208284031215620002e457600080fd5b620002b08262000225565b60805160a05160c05160e0516147426200038b600039600081816103330152611c530152600081816101cf0152818161055b015281816106f5015281816118b60152611bf501526000818161035b015281816105300152818161069c015281816106d301528181610d04015281816110c9015281816111770152818161158c015281816119720152611c2f0152600061027b01526147426000f3fe60806040523480156200001157600080fd5b5060043610620001155760003560e01c8063b75d4e2411620000a3578063d448a4ec116200006e578063d448a4ec1462000319578063d509b017146200032d578063e5a6b10f1462000355578063f1b156b2146200037d57600080fd5b8063b75d4e241462000251578063b9a3c84c1462000275578063c3c95c7b146200029d578063d410764514620002c357600080fd5b80638921a61411620000e45780638921a61414620001c95780639d2edf46146200020a5780639d5bacfd1462000223578063acd98e29146200023a57600080fd5b80630880c65a146200011a578063565429a8146200015e5780635cb1cc0b14620001845780637564912b146200019b575b600080fd5b620001466040518060400160405280600c81526020016b556e7265736f6c7661626c6560a01b81525081565b60405162000155919062002112565b60405180910390f35b620001756200016f366004620021d2565b62000394565b60405190815260200162000155565b62000175620001953660046200221d565b620007b3565b620001b2620001ac366004620022c1565b62000d7e565b6040516200015599989796959493929190620022db565b620001f17f000000000000000000000000000000000000000000000000000000000000000081565b6040516001600160a01b03909116815260200162000155565b620002216200021b36600462002364565b62000f8a565b005b620002216200023436600462002364565b6200112e565b620001756200024b366004620022c1565b620012cb565b6200025b611c2081565b60405167ffffffffffffffff909116815260200162000155565b620001f17f000000000000000000000000000000000000000000000000000000000000000081565b620002b4620002ae366004620022c1565b62001601565b60405162000155919062002387565b620002f9620002d4366004620022c1565b600160208190526000918252604090912080549101546001600160a01b039091169082565b604080516001600160a01b03909316835260208301919091520162000155565b620002216200032a366004620022c1565b50565b620001757f000000000000000000000000000000000000000000000000000000000000000081565b620001f17f000000000000000000000000000000000000000000000000000000000000000081565b620002216200038e36600462002463565b620018ab565b600082815260208190526040812060028101546001600160a01b0316620003d85760405162461bcd60e51b8152600401620003cf9062002496565b60405180910390fd5b82516020840120600182015415620004335760405162461bcd60e51b815260206004820152601c60248201527f417373657274696f6e20616374697665206f72207265736f6c766564000000006044820152606401620003cf565b8160060160405162000446919062002501565b6040518091039020811480620004755750816007016040516200046a919062002501565b604051809103902081145b80620004c4575060408051808201909152600c81526b556e7265736f6c7661626c6560a01b6020909101527fffa5c42fda42ac0bea9ca62d68dcc08a4b371f06b6e71afb99dee2ce276cbe4e81145b620005125760405162461bcd60e51b815260206004820152601860248201527f496e76616c6964206173736572746564206f7574636f6d6500000000000000006044820152606401620003cf565b60018201819055604051634360af3d60e01b81526001600160a01b037f0000000000000000000000000000000000000000000000000000000000000000811660048301526000917f000000000000000000000000000000000000000000000000000000000000000090911690634360af3d90602401602060405180830381865afa158015620005a5573d6000803e3d6000fd5b505050506040513d601f19601f82011682018060405250810190620005cb91906200257f565b9050600081846005015411620005e25781620005e8565b83600501545b905060006200068c878660080180546200060290620024c5565b80601f01602080910402602001604051908101604052809291908181526020018280546200063090620024c5565b8015620006815780601f10620006555761010080835404028352916020019162000681565b820191906000526020600020905b8154815290600101906020018083116200066357829003601f168201915b505050505062001a0b565b9050620006c56001600160a01b037f00000000000000000000000000000000000000000000000000000000000000001633308562001a46565b6200071b6001600160a01b037f0000000000000000000000000000000000000000000000000000000000000000167f00000000000000000000000000000000000000000000000000000000000000008462001ab9565b62000727818362001bdb565b60408051808201825233815260208082018c81526000858152600192839052849020925183546001600160a01b0319166001600160a01b039091161783555191015551909650869089907fc55c01025649b2056980da18d75125fed301d8a2f7cf93d2151fab07bfe2a49290620007a0908b9062002112565b60405180910390a3505050505092915050565b600080865111620007fd5760405162461bcd60e51b8152602060048201526013602482015272456d707479206669727374206f7574636f6d6560681b6044820152606401620003cf565b6000855111620008475760405162461bcd60e51b8152602060048201526014602482015273456d707479207365636f6e64206f7574636f6d6560601b6044820152606401620003cf565b84805190602001208680519060200120036200089e5760405162461bcd60e51b81526020600482015260156024820152744f7574636f6d657320617265207468652073616d6560581b6044820152606401620003cf565b6000845111620008e55760405162461bcd60e51b815260206004820152601160248201527022b6b83a3c903232b9b1b934b83a34b7b760791b6044820152606401620003cf565b4384604051602001620008fa92919062002599565b60408051601f1981840301815291815281516020928301206000818152928390529120600201549091506001600160a01b031615620009745760405162461bcd60e51b81526020600482015260156024820152744d61726b657420616c72656164792065786973747360581b6044820152606401620003cf565b600086604051602001620009899190620025b4565b6040516020818303038152906040526012604051620009a890620020b0565b620009b5929190620025e0565b604051809103906000f080158015620009d2573d6000803e3d6000fd5b509050600086604051602001620009ea9190620025b4565b604051602081830303815290604052601260405162000a0990620020b0565b62000a1692919062002624565b604051809103906000f08015801562000a33573d6000803e3d6000fd5b50604051634c1d96ab60e11b81523060048201529091506001600160a01b0383169063983b2d5690602401600060405180830381600087803b15801562000a7957600080fd5b505af115801562000a8e573d6000803e3d6000fd5b5050604051634c1d96ab60e11b81523060048201526001600160a01b038416925063983b2d569150602401600060405180830381600087803b15801562000ad457600080fd5b505af115801562000ae9573d6000803e3d6000fd5b5050604051637a231bdd60e11b81523060048201526001600160a01b038516925063f44637ba9150602401600060405180830381600087803b15801562000b2f57600080fd5b505af115801562000b44573d6000803e3d6000fd5b5050604051637a231bdd60e11b81523060048201526001600160a01b038416925063f44637ba9150602401600060405180830381600087803b15801562000b8a57600080fd5b505af115801562000b9f573d6000803e3d6000fd5b505050506040518061012001604052806000151581526020016000801b8152602001836001600160a01b03168152602001826001600160a01b031681526020018681526020018581526020018981526020018881526020018781525060008085815260200190815260200160002060008201518160000160006101000a81548160ff0219169083151502179055506020820151816001015560408201518160020160006101000a8154816001600160a01b0302191690836001600160a01b0316021790555060608201518160030160006101000a8154816001600160a01b0302191690836001600160a01b031602179055506080820151816004015560a0820151816005015560c082015181600601908162000cbc9190620026ba565b5060e0820151600782019062000cd39082620026ba565b50610100820151600882019062000ceb9082620026ba565b50508515905062000d2d5762000d2d6001600160a01b037f00000000000000000000000000000000000000000000000000000000000000001633308862001a46565b827f7669fe199a3ccd4081193361fbf7ef7b3e82937c8b39c4ec55af2235be28307189898986868b8b60405162000d6b979695949392919062002787565b60405180910390a2505095945050505050565b600060208190529081526040902080546001820154600283015460038401546004850154600586015460068701805460ff9097169795966001600160a01b039586169694909516949293919262000dd590620024c5565b80601f016020809104026020016040519081016040528092919081815260200182805462000e0390620024c5565b801562000e545780601f1062000e285761010080835404028352916020019162000e54565b820191906000526020600020905b81548152906001019060200180831162000e3657829003601f168201915b50505050509080600701805462000e6b90620024c5565b80601f016020809104026020016040519081016040528092919081815260200182805462000e9990620024c5565b801562000eea5780601f1062000ebe5761010080835404028352916020019162000eea565b820191906000526020600020905b81548152906001019060200180831162000ecc57829003601f168201915b50505050509080600801805462000f0190620024c5565b80601f016020809104026020016040519081016040528092919081815260200182805462000f2f90620024c5565b801562000f805780601f1062000f545761010080835404028352916020019162000f80565b820191906000526020600020905b81548152906001019060200180831162000f6257829003601f168201915b5050505050905089565b600082815260208190526040902060028101546001600160a01b031662000fc55760405162461bcd60e51b8152600401620003cf9062002496565b600281015460405163079cc67960e41b8152336004820152602481018490526001600160a01b03909116906379cc6790906044016020604051808303816000875af115801562001019573d6000803e3d6000fd5b505050506040513d601f19601f820116820180604052508101906200103f9190620027f6565b50600381015460405163079cc67960e41b8152336004820152602481018490526001600160a01b03909116906379cc6790906044016020604051808303816000875af115801562001094573d6000803e3d6000fd5b505050506040513d601f19601f82011682018060405250810190620010ba9190620027f6565b50620010f16001600160a01b037f000000000000000000000000000000000000000000000000000000000000000016338462001ccb565b604051828152339084907f48bc562be531fa6322b3cb3a9333ca19d2e3c63c1793fcb5ce885d02d6e0226e906020015b60405180910390a3505050565b600082815260208190526040902060028101546001600160a01b0316620011695760405162461bcd60e51b8152600401620003cf9062002496565b620011a06001600160a01b037f00000000000000000000000000000000000000000000000000000000000000001633308562001a46565b60028101546040516340c10f1960e01b8152336004820152602481018490526001600160a01b03909116906340c10f19906044016020604051808303816000875af1158015620011f4573d6000803e3d6000fd5b505050506040513d601f19601f820116820180604052508101906200121a9190620027f6565b5060038101546040516340c10f1960e01b8152336004820152602481018490526001600160a01b03909116906340c10f19906044016020604051808303816000875af11580156200126f573d6000803e3d6000fd5b505050506040513d601f19601f82011682018060405250810190620012959190620027f6565b50604051828152339084907fa1a00dd4222724941c9d085479758183928d765e55583d239c414b0f09c5da4b9060200162001121565b6000818152602081905260408120805460ff16620013225760405162461bcd60e51b815260206004820152601360248201527213585c9ad95d081b9bdd081c995cdbdb1d9959606a1b6044820152606401620003cf565b60028101546040516370a0823160e01b81523360048201526000916001600160a01b0316906370a0823190602401602060405180830381865afa1580156200136e573d6000803e3d6000fd5b505050506040513d601f19601f820116820180604052508101906200139491906200257f565b60038301546040516370a0823160e01b81523360048201529192506000916001600160a01b03909116906370a0823190602401602060405180830381865afa158015620013e5573d6000803e3d6000fd5b505050506040513d601f19601f820116820180604052508101906200140b91906200257f565b90508260060160405162001420919062002501565b60405180910390208360010154036200143c5781935062001488565b826007016040516200144f919062002501565b60405180910390208360010154036200146b5780935062001488565b60026200147982846200282c565b62001485919062002842565b93505b600283015460405163079cc67960e41b8152336004820152602481018490526001600160a01b03909116906379cc6790906044016020604051808303816000875af1158015620014dc573d6000803e3d6000fd5b505050506040513d601f19601f82011682018060405250810190620015029190620027f6565b50600383015460405163079cc67960e41b8152336004820152602481018390526001600160a01b03909116906379cc6790906044016020604051808303816000875af115801562001557573d6000803e3d6000fd5b505050506040513d601f19601f820116820180604052508101906200157d9190620027f6565b50620015b46001600160a01b037f000000000000000000000000000000000000000000000000000000000000000016338662001ccb565b6040805185815260208101849052908101829052339086907f25ffdbe909949aba86fccc6c8a3f5d94d7ab78bc67a3cc1327908845235874eb9060600160405180910390a3505050919050565b620016686040518061012001604052806000151581526020016000801916815260200160006001600160a01b0316815260200160006001600160a01b0316815260200160008152602001600081526020016060815260200160608152602001606081525090565b60008281526020818152604091829020825161012081018452815460ff161515815260018201549281019290925260028101546001600160a01b03908116938301939093526003810154909216606082015260048201546080820152600582015460a082015260068201805491929160c084019190620016e890620024c5565b80601f01602080910402602001604051908101604052809291908181526020018280546200171690620024c5565b8015620017675780601f106200173b5761010080835404028352916020019162001767565b820191906000526020600020905b8154815290600101906020018083116200174957829003601f168201915b505050505081526020016007820180546200178290620024c5565b80601f0160208091040260200160405190810160405280929190818152602001828054620017b090620024c5565b8015620018015780601f10620017d55761010080835404028352916020019162001801565b820191906000526020600020905b815481529060010190602001808311620017e357829003601f168201915b505050505081526020016008820180546200181c90620024c5565b80601f01602080910402602001604051908101604052809291908181526020018280546200184a90620024c5565b80156200189b5780601f106200186f576101008083540402835291602001916200189b565b820191906000526020600020905b8154815290600101906020018083116200187d57829003601f168201915b5050505050815250509050919050565b336001600160a01b037f00000000000000000000000000000000000000000000000000000000000000001614620019165760405162461bcd60e51b815260206004820152600e60248201526d139bdd08185d5d1a1bdc9a5e995960921b6044820152606401620003cf565b600082815260016020818152604080842090920154835282905290208115620019df57805460ff191660011781556004810154156200199d5760008381526001602052604090205460048201546200199d916001600160a01b037f000000000000000000000000000000000000000000000000000000000000000081169291169062001ccb565b600083815260016020819052604080832090910154905190917fe9146184308c5e4b8f243047cc6f81dce88e004d7980502e123b02f887ab514491a2620019e7565b600060018201555b50506000908152600160208190526040822080546001600160a01b03191681550155565b606062001a184262001cfd565b838360405160200162001a2e9392919062002865565b60405160208183030381529060405290505b92915050565b6040516001600160a01b038085166024830152831660448201526064810182905262001ab39085906323b872dd60e01b906084015b60408051601f198184030181529190526020810180516001600160e01b03166001600160e01b03199093169290921790915262001e45565b50505050565b80158062001b375750604051636eb1769f60e11b81523060048201526001600160a01b03838116602483015284169063dd62ed3e90604401602060405180830381865afa15801562001b0f573d6000803e3d6000fd5b505050506040513d601f19601f8201168201806040525081019062001b3591906200257f565b155b62001ba45760405162461bcd60e51b815260206004820152603660248201527f5361666545524332303a20617070726f76652066726f6d206e6f6e2d7a65726f60448201527520746f206e6f6e2d7a65726f20616c6c6f77616e636560501b6064820152608401620003cf565b6040516001600160a01b03831660248201526044810182905262001bd690849063095ea7b360e01b9060640162001a7b565b505050565b604051636457c97960e01b81526000906001600160a01b037f00000000000000000000000000000000000000000000000000000000000000001690636457c9799062001c7e908690339030908790611c20907f0000000000000000000000000000000000000000000000000000000000000000908b907f000000000000000000000000000000000000000000000000000000000000000090859060040162002942565b6020604051808303816000875af115801562001c9e573d6000803e3d6000fd5b505050506040513d601f19601f8201168201806040525081019062001cc491906200257f565b9392505050565b6040516001600160a01b03831660248201526044810182905262001bd690849063a9059cbb60e01b9060640162001a7b565b60608160000362001d255750506040805180820190915260018152600360fc1b602082015290565b8160005b811562001d55578062001d3c81620029b2565b915062001d4d9050600a8362002842565b915062001d29565b60008167ffffffffffffffff81111562001d735762001d7362002127565b6040519080825280601f01601f19166020018201604052801562001d9e576020820181803683370190505b509050815b851562001e3c5762001db7600182620029ce565b9050600062001dc8600a8862002842565b62001dd590600a620029e4565b62001de19088620029ce565b62001dee90603062002a06565b905060008160f81b90508084848151811062001e0e5762001e0e62002a22565b60200101906001600160f81b031916908160001a90535062001e32600a8962002842565b9750505062001da3565b50949350505050565b600062001e9c826040518060400160405280602081526020017f5361666545524332303a206c6f772d6c6576656c2063616c6c206661696c6564815250856001600160a01b031662001f1e9092919063ffffffff16565b80519091501562001bd6578080602001905181019062001ebd9190620027f6565b62001bd65760405162461bcd60e51b815260206004820152602a60248201527f5361666545524332303a204552433230206f7065726174696f6e20646964206e6044820152691bdd081cdd58d8d9595960b21b6064820152608401620003cf565b606062001f2f848460008562001f37565b949350505050565b60608247101562001f9a5760405162461bcd60e51b815260206004820152602660248201527f416464726573733a20696e73756666696369656e742062616c616e636520666f6044820152651c8818d85b1b60d21b6064820152608401620003cf565b6001600160a01b0385163b62001ff35760405162461bcd60e51b815260206004820152601d60248201527f416464726573733a2063616c6c20746f206e6f6e2d636f6e74726163740000006044820152606401620003cf565b600080866001600160a01b0316858760405162002011919062002a38565b60006040518083038185875af1925050503d806000811462002050576040519150601f19603f3d011682016040523d82523d6000602084013e62002055565b606091505b50915091506200206782828662002072565b979650505050505050565b606083156200208357508162001cc4565b825115620020945782518084602001fd5b8160405162461bcd60e51b8152600401620003cf919062002112565b611cb68062002a5783390190565b60005b83811015620020db578181015183820152602001620020c1565b50506000910152565b60008151808452620020fe816020860160208601620020be565b601f01601f19169290920160200192915050565b60208152600062001cc46020830184620020e4565b634e487b7160e01b600052604160045260246000fd5b600082601f8301126200214f57600080fd5b813567ffffffffffffffff808211156200216d576200216d62002127565b604051601f8301601f19908116603f0116810190828211818310171562002198576200219862002127565b81604052838152866020858801011115620021b257600080fd5b836020870160208301376000602085830101528094505050505092915050565b60008060408385031215620021e657600080fd5b82359150602083013567ffffffffffffffff8111156200220557600080fd5b62002213858286016200213d565b9150509250929050565b600080600080600060a086880312156200223657600080fd5b853567ffffffffffffffff808211156200224f57600080fd5b6200225d89838a016200213d565b965060208801359150808211156200227457600080fd5b6200228289838a016200213d565b955060408801359150808211156200229957600080fd5b50620022a8888289016200213d565b9598949750949560608101359550608001359392505050565b600060208284031215620022d457600080fd5b5035919050565b8915158152602081018990526001600160a01b038881166040830152871660608201526080810186905260a0810185905261012060c082018190526000906200232783820187620020e4565b905082810360e08401526200233d8186620020e4565b9050828103610100840152620023548185620020e4565b9c9b505050505050505050505050565b600080604083850312156200237857600080fd5b50508035926020909101359150565b602081526200239b60208201835115159052565b6020820151604082015260006040830151620023c260608401826001600160a01b03169052565b5060608301516001600160a01b038116608084015250608083015160a083015260a083015160c083015260c08301516101208060e08501526200240a610140850183620020e4565b915060e0850151601f196101008187860301818801526200242c8584620020e4565b9088015187820390920184880152935090506200244a8382620020e4565b9695505050505050565b80151581146200032a57600080fd5b600080604083850312156200247757600080fd5b8235915060208301356200248b8162002454565b809150509250929050565b60208082526015908201527413585c9ad95d08191bd95cc81b9bdd08195e1a5cdd605a1b604082015260600190565b600181811c90821680620024da57607f821691505b602082108103620024fb57634e487b7160e01b600052602260045260246000fd5b50919050565b60008083546200251181620024c5565b600182811680156200252c5760018114620025425762002573565b60ff198416875282151583028701945062002573565b8760005260208060002060005b858110156200256a5781548a8201529084019082016200254f565b50505082870194505b50929695505050505050565b6000602082840312156200259257600080fd5b5051919050565b82815260406020820152600062001f2f6040830184620020e4565b60008251620025c8818460208701620020be565b65102a37b5b2b760d11b920191825250600601919050565b606081526000620025f56060830185620020e4565b8281036020840152600381526213cc5560ea1b60208201526040810191505060ff831660408301529392505050565b606081526000620026396060830185620020e4565b8281036020840152600381526213cc9560ea1b60208201526040810191505060ff831660408301529392505050565b601f82111562001bd657600081815260208120601f850160051c81016020861015620026915750805b601f850160051c820191505b81811015620026b2578281556001016200269d565b505050505050565b815167ffffffffffffffff811115620026d757620026d762002127565b620026ef81620026e88454620024c5565b8462002668565b602080601f8311600181146200272757600084156200270e5750858301515b600019600386901b1c1916600185901b178555620026b2565b600085815260208120601f198616915b82811015620027585788860151825594840194600190910190840162002737565b5085821015620027775787850151600019600388901b60f8161c191681555b5050505050600190811b01905550565b60e0815260006200279c60e083018a620020e4565b8281036020840152620027b0818a620020e4565b90508281036040840152620027c68189620020e4565b6001600160a01b0397881660608501529590961660808301525060a081019290925260c090910152949350505050565b6000602082840312156200280957600080fd5b815162001cc48162002454565b634e487b7160e01b600052601160045260246000fd5b8082018082111562001a405762001a4062002816565b6000826200286057634e487b7160e01b600052601260045260246000fd5b500490565b7f4173206f6620617373657274696f6e2074696d657374616d70200000000000008152600084516200289f81601a850160208901620020be565b7f2c20746865206465736372696265642070726564696374696f6e206d61726b65601a918401918201526d03a1037baba31b7b6b29034b99d160951b603a8201528451620028f5816048840160208901620020be565b7f2e20546865206d61726b6574206465736372697074696f6e2069733a2000000060489290910191820152835162002935816065840160208801620020be565b0160650195945050505050565b6000610120808352620029588184018d620020e4565b6001600160a01b039b8c166020850152998b1660408401525050958816606087015267ffffffffffffffff9490941660808601529190951660a084015260c083019490945260e08201939093526101000191909152919050565b600060018201620029c757620029c762002816565b5060010190565b8181038181111562001a405762001a4062002816565b600081600019048311821515161562002a015762002a0162002816565b500290565b60ff818116838216019081111562001a405762001a4062002816565b634e487b7160e01b600052603260045260246000fd5b6000825162002a4c818460208701620020be565b919091019291505056fe60806040523480156200001157600080fd5b5060405162001cb638038062001cb6833981016040819052620000349162000563565b8282600362000044838262000676565b50600462000053828262000676565b50506006805460ff191660ff8416179055506200007360008033620000a5565b6200009060015b60408051600080825260208201909252620001f5565b6200009c60026200007a565b50505062000796565b826000808281526005602052604090206001015460ff166002811115620000d057620000d062000742565b14620001235760405162461bcd60e51b815260206004820152601e60248201527f43616e6e6f74207573652061207072652d6578697374696e6720726f6c65000060448201526064015b60405180910390fd5b60008481526005602052604090206001808201805460ff1916828002179055508381556200016160028201846200033b602090811b62000a6617901c565b60008481526005602052604081206001015460ff1660028111156200018a576200018a62000742565b03620001ee5760405162461bcd60e51b815260206004820152603c602482015260008051602062001c9683398151915260448201527f20746f206d616e61676520616e206578636c757369766520726f6c650000000060648201526084016200011a565b5050505050565b826000808281526005602052604090206001015460ff16600281111562000220576200022062000742565b146200026f5760405162461bcd60e51b815260206004820152601e60248201527f43616e6e6f74207573652061207072652d6578697374696e6720726f6c65000060448201526064016200011a565b600084815260056020908152604090912060018101805460ff1916600217905584815590620002ae906003830190859062000a706200034b821b17901c565b60008481526005602052604081206001015460ff166002811115620002d757620002d762000742565b03620001ee5760405162461bcd60e51b8152602060048201526038602482015260008051602062001c9683398151915260448201527f20746f206d616e61676520612073686172656420726f6c65000000000000000060648201526084016200011a565b620003478282620003a0565b5050565b60005b81518110156200039b57620003868383838151811062000372576200037262000758565b60200260200101516200042160201b60201c565b8062000392816200076e565b9150506200034e565b505050565b6001600160a01b038116620004045760405162461bcd60e51b815260206004820152602360248201527f43616e6e6f742073657420616e206578636c757369766520726f6c6520746f2060448201526203078360ec1b60648201526084016200011a565b81546001600160a01b0319166001600160a01b0391909116179055565b6001600160a01b038116620004795760405162461bcd60e51b815260206004820152601f60248201527f43616e6e6f74206164642030783020746f20612073686172656420726f6c650060448201526064016200011a565b6001600160a01b0316600090815260209190915260409020805460ff19166001179055565b634e487b7160e01b600052604160045260246000fd5b600082601f830112620004c657600080fd5b81516001600160401b0380821115620004e357620004e36200049e565b604051601f8301601f19908116603f011681019082821181831017156200050e576200050e6200049e565b816040528381526020925086838588010111156200052b57600080fd5b600091505b838210156200054f578582018301518183018401529082019062000530565b600093810190920192909252949350505050565b6000806000606084860312156200057957600080fd5b83516001600160401b03808211156200059157600080fd5b6200059f87838801620004b4565b94506020860151915080821115620005b657600080fd5b50620005c586828701620004b4565b925050604084015160ff81168114620005dd57600080fd5b809150509250925092565b600181811c90821680620005fd57607f821691505b6020821081036200061e57634e487b7160e01b600052602260045260246000fd5b50919050565b601f8211156200039b57600081815260208120601f850160051c810160208610156200064d5750805b601f850160051c820191505b818110156200066e5782815560010162000659565b505050505050565b81516001600160401b038111156200069257620006926200049e565b620006aa81620006a38454620005e8565b8462000624565b602080601f831160018114620006e25760008415620006c95750858301515b600019600386901b1c1916600185901b1785556200066e565b600085815260208120601f198616915b828110156200071357888601518255948401946001909101908401620006f2565b5085821015620007325787850151600019600388901b60f8161c191681555b5050505050600190811b01905550565b634e487b7160e01b600052602160045260246000fd5b634e487b7160e01b600052603260045260246000fd5b6000600182016200078f57634e487b7160e01b600052601160045260246000fd5b5060010190565b6114f080620007a66000396000f3fe608060405234801561001057600080fd5b506004361061014d5760003560e01c806374d0a676116100c3578063a9059cbb1161007c578063a9059cbb146102be578063aaa14ca3146102d1578063ab3545e5146102e4578063d97c05be1461030f578063dd62ed3e14610322578063f44637ba1461035b57600080fd5b806374d0a6761461025757806379cc67901461026a5780637cdc1cb91461027d57806395d89b4114610290578063983b2d5614610298578063a457c2d7146102ab57600080fd5b8063395093511161011557806339509351146101cd57806340c10f19146101e057806342966c68146101f35780636be7658b1461020857806370a082311461021b57806373cc802a1461024457600080fd5b806306fdde0314610152578063095ea7b31461017057806318160ddd1461019357806323b872dd146101a5578063313ce567146101b8575b600080fd5b61015a61036e565b6040516101679190611183565b60405180910390f35b61018361017e3660046111ed565b610400565b6040519015158152602001610167565b6002545b604051908152602001610167565b6101836101b3366004611217565b61041a565b60065460405160ff9091168152602001610167565b6101836101db3660046111ed565b61043e565b6101836101ee3660046111ed565b61047d565b610206610201366004611253565b6104ba565b005b61020661021636600461126c565b6104f0565b610197610229366004611298565b6001600160a01b031660009081526020819052604090205490565b610206610252366004611298565b6105c6565b61020661026536600461126c565b6105d4565b6101836102783660046111ed565b6106aa565b61018361028b36600461126c565b6106de565b61015a6107a3565b6102066102a6366004611298565b6107b2565b6101836102b93660046111ed565b6107be565b6101836102cc3660046111ed565b610850565b6102066102df366004611253565b61085e565b6102f76102f2366004611253565b61091a565b6040516001600160a01b039091168152602001610167565b61020661031d36600461126c565b610986565b6101976103303660046112ba565b6001600160a01b03918216600090815260016020908152604080832093909416825291909152205490565b610206610369366004611298565b610a5c565b60606003805461037d906112e4565b80601f01602080910402602001604051908101604052809291908181526020018280546103a9906112e4565b80156103f65780601f106103cb576101008083540402835291602001916103f6565b820191906000526020600020905b8154815290600101906020018083116103d957829003601f168201915b5050505050905090565b60003361040e818585610ab6565b60019150505b92915050565b600033610428858285610bda565b610433858585610c6c565b506001949350505050565b3360008181526001602090815260408083206001600160a01b038716845290915281205490919061040e908290869061047890879061132e565b610ab6565b6000600161048b81336106de565b6104b05760405162461bcd60e51b81526004016104a790611357565b60405180910390fd5b61040e8484610e3a565b60026104c681336106de565b6104e25760405162461bcd60e51b81526004016104a790611357565b6104ec3383610f19565b5050565b81600260008281526005602052604090206001015460ff16600281111561051957610519611341565b146105365760405162461bcd60e51b81526004016104a790611399565b600083815260056020526040902054839061055190336106de565b61056d5760405162461bcd60e51b81526004016104a7906113e5565b60008481526005602052604090206105889060030184611067565b60405133906001600160a01b0385169086907feb3e33034c392e69263b04ec0fa376dc12784a41b6676c7f31b936cbc0fbb5af90600090a450505050565b6105d1600082610986565b50565b81600260008281526005602052604090206001015460ff1660028111156105fd576105fd611341565b1461061a5760405162461bcd60e51b81526004016104a790611399565b600083815260056020526040902054839061063590336106de565b6106515760405162461bcd60e51b81526004016104a7906113e5565b600084815260056020526040902061066c9060030184611089565b60405133906001600160a01b0385169086907f63502af7324ff6db91ab38f8236a648727d9385ea6c782073dd4882d8a61a48f90600090a450505050565b600060026106b881336106de565b6106d45760405162461bcd60e51b81526004016104a790611357565b61040e8484610f19565b600082815260056020526040812060018082015460ff16600281111561070657610706611341565b036107275760028101546001600160a01b038481169116145b915050610414565b6002600182015460ff16600281111561074257610742611341565b0361076a576001600160a01b038316600090815260038201602052604090205460ff1661071f565b60405162461bcd60e51b815260206004820152600e60248201526d125b9d985b1a59081c9bdb19525960921b60448201526064016104a7565b60606004805461037d906112e4565b6105d160015b826105d4565b3360008181526001602090815260408083206001600160a01b0387168452909152812054909190838110156108435760405162461bcd60e51b815260206004820152602560248201527f45524332303a2064656372656173656420616c6c6f77616e63652062656c6f77604482015264207a65726f60d81b60648201526084016104a7565b6104338286868403610ab6565b60003361040e818585610c6c565b80600260008281526005602052604090206001015460ff16600281111561088757610887611341565b146108a45760405162461bcd60e51b81526004016104a790611399565b816108af81336106de565b6108cb5760405162461bcd60e51b81526004016104a790611357565b60008381526005602052604090206108e69060030133611067565b6040513390819085907feb3e33034c392e69263b04ec0fa376dc12784a41b6676c7f31b936cbc0fbb5af90600090a4505050565b600081600160008281526005602052604090206001015460ff16600281111561094557610945611341565b146109625760405162461bcd60e51b81526004016104a790611429565b6000838152600560205260409020600201546001600160a01b031691505b50919050565b81600160008281526005602052604090206001015460ff1660028111156109af576109af611341565b146109cc5760405162461bcd60e51b81526004016104a790611429565b60008381526005602052604090205483906109e790336106de565b610a035760405162461bcd60e51b81526004016104a7906113e5565b6000848152600560205260409020610a1e9060020184611104565b60405133906001600160a01b0385169086907f3b855c56b409b671c7112789d022675eb639d0bcb8896f1b6197c132f799e74690600090a450505050565b6105d160026107b8565b6104ec8282611104565b60005b8151811015610ab157610a9f83838381518110610a9257610a92611478565b6020026020010151611089565b80610aa98161148e565b915050610a73565b505050565b6001600160a01b038316610b185760405162461bcd60e51b8152602060048201526024808201527f45524332303a20617070726f76652066726f6d20746865207a65726f206164646044820152637265737360e01b60648201526084016104a7565b6001600160a01b038216610b795760405162461bcd60e51b815260206004820152602260248201527f45524332303a20617070726f766520746f20746865207a65726f206164647265604482015261737360f01b60648201526084016104a7565b6001600160a01b0383811660008181526001602090815260408083209487168084529482529182902085905590518481527f8c5be1e5ebec7d5bd14f71427d1e84f3dd0314c0f7b2291e5b200ac8c7c3b925910160405180910390a3505050565b6001600160a01b038381166000908152600160209081526040808320938616835292905220546000198114610c665781811015610c595760405162461bcd60e51b815260206004820152601d60248201527f45524332303a20696e73756666696369656e7420616c6c6f77616e636500000060448201526064016104a7565b610c668484848403610ab6565b50505050565b6001600160a01b038316610cd05760405162461bcd60e51b815260206004820152602560248201527f45524332303a207472616e736665722066726f6d20746865207a65726f206164604482015264647265737360d81b60648201526084016104a7565b6001600160a01b038216610d325760405162461bcd60e51b815260206004820152602360248201527f45524332303a207472616e7366657220746f20746865207a65726f206164647260448201526265737360e81b60648201526084016104a7565b6001600160a01b03831660009081526020819052604090205481811015610daa5760405162461bcd60e51b815260206004820152602660248201527f45524332303a207472616e7366657220616d6f756e7420657863656564732062604482015265616c616e636560d01b60648201526084016104a7565b6001600160a01b03808516600090815260208190526040808220858503905591851681529081208054849290610de190849061132e565b92505081905550826001600160a01b0316846001600160a01b03167fddf252ad1be2c89b69c2b068fc378daa952ba7f163c4a11628f55a4df523b3ef84604051610e2d91815260200190565b60405180910390a3610c66565b6001600160a01b038216610e905760405162461bcd60e51b815260206004820152601f60248201527f45524332303a206d696e7420746f20746865207a65726f20616464726573730060448201526064016104a7565b8060026000828254610ea2919061132e565b90915550506001600160a01b03821660009081526020819052604081208054839290610ecf90849061132e565b90915550506040518181526001600160a01b038316906000907fddf252ad1be2c89b69c2b068fc378daa952ba7f163c4a11628f55a4df523b3ef9060200160405180910390a35050565b6001600160a01b038216610f795760405162461bcd60e51b815260206004820152602160248201527f45524332303a206275726e2066726f6d20746865207a65726f206164647265736044820152607360f81b60648201526084016104a7565b6001600160a01b03821660009081526020819052604090205481811015610fed5760405162461bcd60e51b815260206004820152602260248201527f45524332303a206275726e20616d6f756e7420657863656564732062616c616e604482015261636560f01b60648201526084016104a7565b6001600160a01b038316600090815260208190526040812083830390556002805484929061101c9084906114a7565b90915550506040518281526000906001600160a01b038516907fddf252ad1be2c89b69c2b068fc378daa952ba7f163c4a11628f55a4df523b3ef9060200160405180910390a3505050565b6001600160a01b0316600090815260209190915260409020805460ff19169055565b6001600160a01b0381166110df5760405162461bcd60e51b815260206004820152601f60248201527f43616e6e6f74206164642030783020746f20612073686172656420726f6c650060448201526064016104a7565b6001600160a01b0316600090815260209190915260409020805460ff19166001179055565b6001600160a01b0381166111665760405162461bcd60e51b815260206004820152602360248201527f43616e6e6f742073657420616e206578636c757369766520726f6c6520746f2060448201526203078360ec1b60648201526084016104a7565b81546001600160a01b0319166001600160a01b0391909116179055565b600060208083528351808285015260005b818110156111b057858101830151858201604001528201611194565b506000604082860101526040601f19601f8301168501019250505092915050565b80356001600160a01b03811681146111e857600080fd5b919050565b6000806040838503121561120057600080fd5b611209836111d1565b946020939093013593505050565b60008060006060848603121561122c57600080fd5b611235846111d1565b9250611243602085016111d1565b9150604084013590509250925092565b60006020828403121561126557600080fd5b5035919050565b6000806040838503121561127f57600080fd5b8235915061128f602084016111d1565b90509250929050565b6000602082840312156112aa57600080fd5b6112b3826111d1565b9392505050565b600080604083850312156112cd57600080fd5b6112d6836111d1565b915061128f602084016111d1565b600181811c908216806112f857607f821691505b60208210810361098057634e487b7160e01b600052602260045260246000fd5b634e487b7160e01b600052601160045260246000fd5b8082018082111561041457610414611318565b634e487b7160e01b600052602160045260246000fd5b60208082526022908201527f53656e64657220646f6573206e6f7420686f6c6420726571756972656420726f6040820152616c6560f01b606082015260800190565b6020808252602c908201527f4d7573742062652063616c6c6564206f6e20616e20696e697469616c697a656460408201526b2053686172656420726f6c6560a01b606082015260800190565b60208082526024908201527f43616e206f6e6c792062652063616c6c6564206279206120726f6c65206d616e60408201526330b3b2b960e11b606082015260800190565b6020808252602f908201527f4d7573742062652063616c6c6564206f6e20616e20696e697469616c697a656460408201526e204578636c757369766520726f6c6560881b606082015260800190565b634e487b7160e01b600052603260045260246000fd5b6000600182016114a0576114a0611318565b5060010190565b818103818111156104145761041461131856fea26469706673582212208961104dd3923b79c08fd49fd308093d4ed7792f1229905fa0e9f300d355f10d64736f6c63430008100033417474656d7074656420746f2075736520616e20696e76616c696420726f6c65a2646970667358221220086c5aa3f96334e34488d41ae357f364e0ea84dbbacc4679565813aae47714e164736f6c63430008100033",
    "linkReferences": {}
  },
  "methodIdentifiers": {
    "assertMarket(bytes32,string)": "565429a8",
    "assertedMarkets(bytes32)": "d4107645",
    "assertionDisputedCallback(bytes32)": "d448a4ec",
    "assertionLiveness()": "b75d4e24",
    "assertionResolvedCallback(bytes32,bool)": "f1b156b2",
    "createOutcomeTokens(bytes32,uint256)": "9d5bacfd",
    "currency()": "e5a6b10f",
    "defaultIdentifier()": "d509b017",
    "finder()": "b9a3c84c",
    "getMarket(bytes32)": "c3c95c7b",
    "initializeMarket(string,string,string,uint256,uint256)": "5cb1cc0b",
    "markets(bytes32)": "7564912b",
    "oo()": "8921a614",
    "redeemOutcomeTokens(bytes32,uint256)": "9d2edf46",
    "settleOutcomeTokens(bytes32)": "acd98e29",
    "unresolvable()": "0880c65a"
  },
  "id": 56
}