{
  "abi": [
    {
      "inputs": [
        {
          "internalType": "bytes[]",
          "name": "data",
          "type": "bytes[]"
        }
      ],
      "name": "multicall",
      "outputs": [
        {
          "internalType": "bytes[]",
          "name": "results",
          "type": "bytes[]"
        }
      ],
      "stateMutability": "nonpayable",
      "type": "function"
    }
  ],
  "bytecode": {
    "object": "0x608060405234801561001057600080fd5b5061048f806100206000396000f3fe608060405234801561001057600080fd5b506004361061002b5760003560e01c8063ac9650d814610030575b600080fd5b61004361003e3660046101ba565b610059565b604051610050919061027f565b60405180910390f35b60608167ffffffffffffffff811115610074576100746102e1565b6040519080825280602002602001820160405280156100a757816020015b60608152602001906001900390816100925790505b50905060005b828110156101b357600080308686858181106100cb576100cb6102f7565b90506020028101906100dd919061030d565b6040516100eb92919061035b565b600060405180830381855af49150503d8060008114610126576040519150601f19603f3d011682016040523d82523d6000602084013e61012b565b606091505b5091509150816101805760448151101561014457600080fd5b6004810190508080602001905181019061015e919061036b565b60405162461bcd60e51b81526004016101779190610418565b60405180910390fd5b80848481518110610193576101936102f7565b6020026020010181905250505080806101ab90610432565b9150506100ad565b5092915050565b600080602083850312156101cd57600080fd5b823567ffffffffffffffff808211156101e557600080fd5b818501915085601f8301126101f957600080fd5b81358181111561020857600080fd5b8660208260051b850101111561021d57600080fd5b60209290920196919550909350505050565b60005b8381101561024a578181015183820152602001610232565b50506000910152565b6000815180845261026b81602086016020860161022f565b601f01601f19169290920160200192915050565b6000602080830181845280855180835260408601915060408160051b870101925083870160005b828110156102d457603f198886030184526102c2858351610253565b945092850192908501906001016102a6565b5092979650505050505050565b634e487b7160e01b600052604160045260246000fd5b634e487b7160e01b600052603260045260246000fd5b6000808335601e1984360301811261032457600080fd5b83018035915067ffffffffffffffff82111561033f57600080fd5b60200191503681900382131561035457600080fd5b9250929050565b8183823760009101908152919050565b60006020828403121561037d57600080fd5b815167ffffffffffffffff8082111561039557600080fd5b818401915084601f8301126103a957600080fd5b8151818111156103bb576103bb6102e1565b604051601f8201601f19908116603f011681019083821181831017156103e3576103e36102e1565b816040528281528760208487010111156103fc57600080fd5b61040d83602083016020880161022f565b979650505050505050565b60208152600061042b6020830184610253565b9392505050565b60006001820161045257634e487b7160e01b600052601160045260246000fd5b506001019056fea2646970667358221220ad1e4a7fe9d82b469e7ccfa609a9acc829a8d0283e7b7c5dcaa6b49dacf38d4264736f6c63430008100033",
    "linkReferences": {}
  },
  "methodIdentifiers": {
    "multicall(bytes[])": "ac9650d8"
  },
  "id": 33
}