{
  "abi": [
    {
      "inputs": [
        {
          "internalType": "contract FinderInterface",
          "name": "_finder",
          "type": "address"
        },
        {
          "internalType": "contract IERC20",
          "name": "_defaultCurrency",
          "type": "address"
        },
        {
          "internalType": "uint64",
          "name": "_defaultLiveness",
          "type": "uint64"
        }
      ],
      "stateMutability": "nonpayable",
      "type": "constructor"
    },
    {
      "anonymous": false,
      "inputs": [
        {
          "indexed": false,
          "internalType": "contract IERC20",
          "name": "defaultCurrency",
          "type": "address"
        },
        {
          "indexed": false,
          "internalType": "uint64",
          "name": "defaultLiveness",
          "type": "uint64"
        },
        {
          "indexed": false,
          "internalType": "uint256",
          "name": "burnedBondPercentage",
          "type": "uint256"
        }
      ],
      "name": "AdminPropertiesSet",
      "type": "event"
    },
    {
      "anonymous": false,
      "inputs": [
        {
          "indexed": true,
          "internalType": "bytes32",
          "name": "assertionId",
          "type": "bytes32"
        },
        {
          "indexed": true,
          "internalType": "address",
          "name": "caller",
          "type": "address"
        },
        {
          "indexed": true,
          "internalType": "address",
          "name": "disputer",
          "type": "address"
        }
      ],
      "name": "AssertionDisputed",
      "type": "event"
    },
    {
      "anonymous": false,
      "inputs": [
        {
          "indexed": true,
          "internalType": "bytes32",
          "name": "assertionId",
          "type": "bytes32"
        },
        {
          "indexed": false,
          "internalType": "bytes32",
          "name": "domainId",
          "type": "bytes32"
        },
        {
          "indexed": false,
          "internalType": "bytes",
          "name": "claim",
          "type": "bytes"
        },
        {
          "indexed": true,
          "internalType": "address",
          "name": "asserter",
          "type": "address"
        },
        {
          "indexed": false,
          "internalType": "address",
          "name": "callbackRecipient",
          "type": "address"
        },
        {
          "indexed": false,
          "internalType": "address",
          "name": "escalationManager",
          "type": "address"
        },
        {
          "indexed": false,
          "internalType": "address",
          "name": "caller",
          "type": "address"
        },
        {
          "indexed": false,
          "internalType": "uint64",
          "name": "expirationTime",
          "type": "uint64"
        },
        {
          "indexed": false,
          "internalType": "contract IERC20",
          "name": "currency",
          "type": "address"
        },
        {
          "indexed": false,
          "internalType": "uint256",
          "name": "bond",
          "type": "uint256"
        },
        {
          "indexed": true,
          "internalType": "bytes32",
          "name": "identifier",
          "type": "bytes32"
        }
      ],
      "name": "AssertionMade",
      "type": "event"
    },
    {
      "anonymous": false,
      "inputs": [
        {
          "indexed": true,
          "internalType": "bytes32",
          "name": "assertionId",
          "type": "bytes32"
        },
        {
          "indexed": true,
          "internalType": "address",
          "name": "bondRecipient",
          "type": "address"
        },
        {
          "indexed": false,
          "internalType": "bool",
          "name": "disputed",
          "type": "bool"
        },
        {
          "indexed": false,
          "internalType": "bool",
          "name": "settlementResolution",
          "type": "bool"
        },
        {
          "indexed": false,
          "internalType": "address",
          "name": "settleCaller",
          "type": "address"
        }
      ],
      "name": "AssertionSettled",
      "type": "event"
    },
    {
      "anonymous": false,
      "inputs": [
        {
          "indexed": true,
          "internalType": "address",
          "name": "previousOwner",
          "type": "address"
        },
        {
          "indexed": true,
          "internalType": "address",
          "name": "newOwner",
          "type": "address"
        }
      ],
      "name": "OwnershipTransferred",
      "type": "event"
    },
    {
      "inputs": [
        {
          "internalType": "bytes",
          "name": "claim",
          "type": "bytes"
        },
        {
          "internalType": "address",
          "name": "asserter",
          "type": "address"
        },
        {
          "internalType": "address",
          "name": "callbackRecipient",
          "type": "address"
        },
        {
          "internalType": "address",
          "name": "escalationManager",
          "type": "address"
        },
        {
          "internalType": "uint64",
          "name": "liveness",
          "type": "uint64"
        },
        {
          "internalType": "contract IERC20",
          "name": "currency",
          "type": "address"
        },
        {
          "internalType": "uint256",
          "name": "bond",
          "type": "uint256"
        },
        {
          "internalType": "bytes32",
          "name": "identifier",
          "type": "bytes32"
        },
        {
          "internalType": "bytes32",
          "name": "domainId",
          "type": "bytes32"
        }
      ],
      "name": "assertTruth",
      "outputs": [
        {
          "internalType": "bytes32",
          "name": "assertionId",
          "type": "bytes32"
        }
      ],
      "stateMutability": "nonpayable",
      "type": "function"
    },
    {
      "inputs": [
        {
          "internalType": "bytes",
          "name": "claim",
          "type": "bytes"
        },
        {
          "internalType": "address",
          "name": "asserter",
          "type": "address"
        }
      ],
      "name": "assertTruthWithDefaults",
      "outputs": [
        {
          "internalType": "bytes32",
          "name": "",
          "type": "bytes32"
        }
      ],
      "stateMutability": "nonpayable",
      "type": "function"
    },
    {
      "inputs": [
        {
          "internalType": "bytes32",
          "name": "",
          "type": "bytes32"
        }
      ],
      "name": "assertions",
      "outputs": [
        {
          "components": [
            {
              "internalType": "bool",
              "name": "arbitrateViaEscalationManager",
              "type": "bool"
            },
            {
              "internalType": "bool",
              "name": "discardOracle",
              "type": "bool"
            },
            {
              "internalType": "bool",
              "name": "validateDisputers",
              "type": "bool"
            },
            {
              "internalType": "address",
              "name": "assertingCaller",
              "type": "address"
            },
            {
              "internalType": "address",
              "name": "escalationManager",
              "type": "address"
            }
          ],
          "internalType": "struct OptimisticOracleV3Interface.EscalationManagerSettings",
          "name": "escalationManagerSettings",
          "type": "tuple"
        },
        {
          "internalType": "address",
          "name": "asserter",
          "type": "address"
        },
        {
          "internalType": "uint64",
          "name": "assertionTime",
          "type": "uint64"
        },
        {
          "internalType": "bool",
          "name": "settled",
          "type": "bool"
        },
        {
          "internalType": "contract IERC20",
          "name": "currency",
          "type": "address"
        },
        {
          "internalType": "uint64",
          "name": "expirationTime",
          "type": "uint64"
        },
        {
          "internalType": "bool",
          "name": "settlementResolution",
          "type": "bool"
        },
        {
          "internalType": "bytes32",
          "name": "domainId",
          "type": "bytes32"
        },
        {
          "internalType": "bytes32",
          "name": "identifier",
          "type": "bytes32"
        },
        {
          "internalType": "uint256",
          "name": "bond",
          "type": "uint256"
        },
        {
          "internalType": "address",
          "name": "callbackRecipient",
          "type": "address"
        },
        {
          "internalType": "address",
          "name": "disputer",
          "type": "address"
        }
      ],
      "stateMutability": "view",
      "type": "function"
    },
    {
      "inputs": [],
      "name": "burnedBondPercentage",
      "outputs": [
        {
          "internalType": "uint256",
          "name": "",
          "type": "uint256"
        }
      ],
      "stateMutability": "view",
      "type": "function"
    },
    {
      "inputs": [
        {
          "internalType": "address",
          "name": "",
          "type": "address"
        }
      ],
      "name": "cachedCurrencies",
      "outputs": [
        {
          "internalType": "bool",
          "name": "isWhitelisted",
          "type": "bool"
        },
        {
          "internalType": "uint256",
          "name": "finalFee",
          "type": "uint256"
        }
      ],
      "stateMutability": "view",
      "type": "function"
    },
    {
      "inputs": [
        {
          "internalType": "bytes32",
          "name": "",
          "type": "bytes32"
        }
      ],
      "name": "cachedIdentifiers",
      "outputs": [
        {
          "internalType": "bool",
          "name": "",
          "type": "bool"
        }
      ],
      "stateMutability": "view",
      "type": "function"
    },
    {
      "inputs": [],
      "name": "cachedOracle",
      "outputs": [
        {
          "internalType": "address",
          "name": "",
          "type": "address"
        }
      ],
      "stateMutability": "view",
      "type": "function"
    },
    {
      "inputs": [],
      "name": "defaultCurrency",
      "outputs": [
        {
          "internalType": "contract IERC20",
          "name": "",
          "type": "address"
        }
      ],
      "stateMutability": "view",
      "type": "function"
    },
    {
      "inputs": [],
      "name": "defaultIdentifier",
      "outputs": [
        {
          "internalType": "bytes32",
          "name": "",
          "type": "bytes32"
        }
      ],
      "stateMutability": "view",
      "type": "function"
    },
    {
      "inputs": [],
      "name": "defaultLiveness",
      "outputs": [
        {
          "internalType": "uint64",
          "name": "",
          "type": "uint64"
        }
      ],
      "stateMutability": "view",
      "type": "function"
    },
    {
      "inputs": [
        {
          "internalType": "bytes32",
          "name": "assertionId",
          "type": "bytes32"
        },
        {
          "internalType": "address",
          "name": "disputer",
          "type": "address"
        }
      ],
      "name": "disputeAssertion",
      "outputs": [],
      "stateMutability": "nonpayable",
      "type": "function"
    },
    {
      "inputs": [],
      "name": "finder",
      "outputs": [
        {
          "internalType": "contract FinderInterface",
          "name": "",
          "type": "address"
        }
      ],
      "stateMutability": "view",
      "type": "function"
    },
    {
      "inputs": [
        {
          "internalType": "bytes32",
          "name": "assertionId",
          "type": "bytes32"
        }
      ],
      "name": "getAssertion",
      "outputs": [
        {
          "components": [
            {
              "components": [
                {
                  "internalType": "bool",
                  "name": "arbitrateViaEscalationManager",
                  "type": "bool"
                },
                {
                  "internalType": "bool",
                  "name": "discardOracle",
                  "type": "bool"
                },
                {
                  "internalType": "bool",
                  "name": "validateDisputers",
                  "type": "bool"
                },
                {
                  "internalType": "address",
                  "name": "assertingCaller",
                  "type": "address"
                },
                {
                  "internalType": "address",
                  "name": "escalationManager",
                  "type": "address"
                }
              ],
              "internalType": "struct OptimisticOracleV3Interface.EscalationManagerSettings",
              "name": "escalationManagerSettings",
              "type": "tuple"
            },
            {
              "internalType": "address",
              "name": "asserter",
              "type": "address"
            },
            {
              "internalType": "uint64",
              "name": "assertionTime",
              "type": "uint64"
            },
            {
              "internalType": "bool",
              "name": "settled",
              "type": "bool"
            },
            {
              "internalType": "contract IERC20",
              "name": "currency",
              "type": "address"
            },
            {
              "internalType": "uint64",
              "name": "expirationTime",
              "type": "uint64"
            },
            {
              "internalType": "bool",
              "name": "settlementResolution",
              "type": "bool"
            },
            {
              "internalType": "bytes32",
              "name": "domainId",
              "type": "bytes32"
            },
            {
              "internalType": "bytes32",
              "name": "identifier",
              "type": "bytes32"
            },
            {
              "internalType": "uint256",
              "name": "bond",
              "type": "uint256"
            },
            {
              "internalType": "address",
              "name": "callbackRecipient",
              "type": "address"
            },
            {
              "internalType": "address",
              "name": "disputer",
              "type": "address"
            }
          ],
          "internalType": "struct OptimisticOracleV3Interface.Assertion",
          "name": "",
          "type": "tuple"
        }
      ],
      "stateMutability": "view",
      "type": "function"
    },
    {
      "inputs": [
        {
          "internalType": "bytes32",
          "name": "assertionId",
          "type": "bytes32"
        }
      ],
      "name": "getAssertionResult",
      "outputs": [
        {
          "internalType": "bool",
          "name": "",
          "type": "bool"
        }
      ],
      "stateMutability": "view",
      "type": "function"
    },
    {
      "inputs": [],
      "name": "getCurrentTime",
      "outputs": [
        {
          "internalType": "uint256",
          "name": "",
          "type": "uint256"
        }
      ],
      "stateMutability": "view",
      "type": "function"
    },
    {
      "inputs": [
        {
          "internalType": "address",
          "name": "currency",
          "type": "address"
        }
      ],
      "name": "getMinimumBond",
      "outputs": [
        {
          "internalType": "uint256",
          "name": "",
          "type": "uint256"
        }
      ],
      "stateMutability": "view",
      "type": "function"
    },
    {
      "inputs": [
        {
          "internalType": "bytes[]",
          "name": "data",
          "type": "bytes[]"
        }
      ],
      "name": "multicall",
      "outputs": [
        {
          "internalType": "bytes[]",
          "name": "results",
          "type": "bytes[]"
        }
      ],
      "stateMutability": "nonpayable",
      "type": "function"
    },
    {
      "inputs": [],
      "name": "numericalTrue",
      "outputs": [
        {
          "internalType": "int256",
          "name": "",
          "type": "int256"
        }
      ],
      "stateMutability": "view",
      "type": "function"
    },
    {
      "inputs": [],
      "name": "owner",
      "outputs": [
        {
          "internalType": "address",
          "name": "",
          "type": "address"
        }
      ],
      "stateMutability": "view",
      "type": "function"
    },
    {
      "inputs": [],
      "name": "renounceOwnership",
      "outputs": [],
      "stateMutability": "nonpayable",
      "type": "function"
    },
    {
      "inputs": [
        {
          "internalType": "contract IERC20",
          "name": "_defaultCurrency",
          "type": "address"
        },
        {
          "internalType": "uint64",
          "name": "_defaultLiveness",
          "type": "uint64"
        },
        {
          "internalType": "uint256",
          "name": "_burnedBondPercentage",
          "type": "uint256"
        }
      ],
      "name": "setAdminProperties",
      "outputs": [],
      "stateMutability": "nonpayable",
      "type": "function"
    },
    {
      "inputs": [
        {
          "internalType": "bytes32",
          "name": "assertionId",
          "type": "bytes32"
        }
      ],
      "name": "settleAndGetAssertionResult",
      "outputs": [
        {
          "internalType": "bool",
          "name": "",
          "type": "bool"
        }
      ],
      "stateMutability": "nonpayable",
      "type": "function"
    },
    {
      "inputs": [
        {
          "internalType": "bytes32",
          "name": "assertionId",
          "type": "bytes32"
        }
      ],
      "name": "settleAssertion",
      "outputs": [],
      "stateMutability": "nonpayable",
      "type": "function"
    },
    {
      "inputs": [
        {
          "internalType": "bytes32",
          "name": "assertionId",
          "type": "bytes32"
        }
      ],
      "name": "stampAssertion",
      "outputs": [
        {
          "internalType": "bytes",
          "name": "",
          "type": "bytes"
        }
      ],
      "stateMutability": "view",
      "type": "function"
    },
    {
      "inputs": [
        {
          "internalType": "bytes32",
          "name": "identifier",
          "type": "bytes32"
        },
        {
          "internalType": "address",
          "name": "currency",
          "type": "address"
        }
      ],
      "name": "syncUmaParams",
      "outputs": [],
      "stateMutability": "nonpayable",
      "type": "function"
    },
    {
      "inputs": [
        {
          "internalType": "address",
          "name": "newOwner",
          "type": "address"
        }
      ],
      "name": "transferOwnership",
      "outputs": [],
      "stateMutability": "nonpayable",
      "type": "function"
    }
  ],
  "bytecode": {
    "object": "0x60a06040523480156200001157600080fd5b5060405162003cd138038062003cd1833981016040819052620000349162000634565b6000805460ff19166001179055620000536200004d3390565b6200007e565b6001600160a01b0383166080526200007582826706f05b59d3b20000620000d7565b5050506200072f565b600080546001600160a01b03838116610100818102610100600160a81b0319851617855560405193049190911692909183917f8be0079c531659141344cd1fd0a4f28419497f9722a3daafe3b4186f6b6457e091a35050565b6000546001600160a01b036101009091041633146200013d5760405162461bcd60e51b815260206004820181905260248201527f4f776e61626c653a2063616c6c6572206973206e6f7420746865206f776e657260448201526064015b60405180910390fd5b670de0b6b3a7640000811115620001975760405162461bcd60e51b815260206004820152601c60248201527f4275726e656420626f6e642070657263656e74616765203e2031303000000000604482015260640162000134565b60008111620001e95760405162461bcd60e51b815260206004820152601b60248201527f4275726e656420626f6e642070657263656e7461676520697320300000000000604482015260640162000134565b6005819055600680546001600160401b038416600160a01b026001600160e01b03199091166001600160a01b03861617179055620002376b082a6a68aa4a8bea8a4aaa8960a31b846200028e565b604080516001600160a01b03851681526001600160401b03841660208201529081018290527fd0f09246d369018534c67fec6a6c3259c6f962ef82c5521c337ae0ccc104e4bd9060600160405180910390a1505050565b6080516040516302abf57960e61b8152654f7261636c6560d01b60048201526001600160a01b039091169063aafd5e4090602401602060405180830381865afa158015620002e0573d6000803e3d6000fd5b505050506040513d601f19601f8201168201806040525081019062000306919062000693565b600180546001600160a01b0319166001600160a01b039290921691909117905562000330620004f9565b6001600160a01b03166390978d1b836040518263ffffffff1660e01b81526004016200035e91815260200190565b602060405180830381865afa1580156200037c573d6000803e3d6000fd5b505050506040513d601f19601f82011682018060405250810190620003a29190620006ba565b6000838152600360205260409020805460ff1916911515919091179055620003c96200058f565b604051631d1d5b3960e11b81526001600160a01b0383811660048301529190911690633a3ab67290602401602060405180830381865afa15801562000412573d6000803e3d6000fd5b505050506040513d601f19601f82011682018060405250810190620004389190620006ba565b6001600160a01b0382166000908152600260205260409020805460ff191691151591909117905562000469620005e1565b604051635b97aadd60e01b81526001600160a01b0383811660048301529190911690635b97aadd90602401602060405180830381865afa158015620004b2573d6000803e3d6000fd5b505050506040513d601f19601f82011682018060405250810190620004d89190620006de565b516001600160a01b0390911660009081526002602052604090206001015550565b6080516040516302abf57960e61b81527f4964656e74696669657257686974656c6973740000000000000000000000000060048201526000916001600160a01b03169063aafd5e40906024015b602060405180830381865afa15801562000564573d6000803e3d6000fd5b505050506040513d601f19601f820116820180604052508101906200058a919062000693565b905090565b6080516040516302abf57960e61b81527f436f6c6c61746572616c57686974656c6973740000000000000000000000000060048201526000916001600160a01b03169063aafd5e409060240162000546565b6080516040516302abf57960e61b81526453746f726560d81b60048201526000916001600160a01b03169063aafd5e409060240162000546565b6001600160a01b03811681146200063157600080fd5b50565b6000806000606084860312156200064a57600080fd5b835162000657816200061b565b60208501519093506200066a816200061b565b60408501519092506001600160401b03811681146200068857600080fd5b809150509250925092565b600060208284031215620006a657600080fd5b8151620006b3816200061b565b9392505050565b600060208284031215620006cd57600080fd5b81518015158114620006b357600080fd5b600060208284031215620006f157600080fd5b604051602081016001600160401b03811182821017156200072257634e487b7160e01b600052604160045260246000fd5b6040529151825250919050565b60805161356a620007676000396000818161051a015281816115e301528181611e1b0152818161248001526124e5015261356a6000f3fe608060405234801561001057600080fd5b506004361061018e5760003560e01c80638ea2f2ab116100de578063b9a3c84c11610097578063da03b36e11610071578063da03b36e14610646578063e39dfd7f14610655578063f2fde38b14610668578063fe4e19831461067b57600080fd5b8063b9a3c84c14610515578063d509b0171461053c578063d60715b51461055257600080fd5b80638ea2f2ab14610489578063a6a22b431461049c578063a7af2d0f146104af578063a8655785146104c2578063ac9650d8146104d5578063afedba4f146104f557600080fd5b8063530dd3921161014b578063715018a611610125578063715018a6146102a557806382762520146102ad57806388302884146102c05780638da5cb5b1461047357600080fd5b8063530dd3921461021b5780636457c9791461024e578063707621571461026157600080fd5b806308e7c3e61461019357806320402e1d146101af57806329cb924d146101da57806336b13af4146101e05780634124beef146101f35780634360af3d14610208575b600080fd5b61019c60055481565b6040519081526020015b60405180910390f35b6006546101c2906001600160a01b031681565b6040516001600160a01b0390911681526020016101a6565b4261019c565b61019c6101ee366004612b2e565b6106ad565b610206610201366004612bb0565b610734565b005b61019c610216366004612bc9565b610af7565b61023e610229366004612bb0565b60036020526000908152604090205460ff1681565b60405190151581526020016101a6565b61019c61025c366004612c6a565b610b32565b61028e61026f366004612bc9565b6002602052600090815260409020805460019091015460ff9091169082565b6040805192151583526020830191909152016101a6565b61020661113e565b6102066102bb366004612d5a565b61117a565b6104666102ce366004612bb0565b6040805161022081018252600061018082018181526101a083018290526101c083018290526101e083018290526102008301829052825260208201819052918101829052606081018290526080810182905260a0810182905260c0810182905260e0810182905261010081018290526101208101829052610140810182905261016081019190915250600090815260046020818152604092839020835161022081018552815460ff80821615156101808401908152610100808404831615156101a0860152620100008404831615156101c08601526001600160a01b03630100000090940484166101e0860152600186015484166102008601529084526002850154808416968501969096526001600160401b03600160a01b808804821699860199909952600160e01b96879004831615156060860152600386015480851660808701529889041660a085015294909604909516151560c08201529281015460e08401526005810154918301919091526006810154610120830152600781015483166101408301526008015490911661016082015290565b6040516101a69190612dda565b60005461010090046001600160a01b03166101c2565b61023e610497366004612bb0565b6112f5565b6102066104aa366004612eb4565b61132d565b6001546101c2906001600160a01b031681565b6102066104d0366004612eb4565b6115c5565b6104e86104e3366004612ee4565b611839565b6040516101a69190612fa8565b610508610503366004612bb0565b611990565b6040516101a6919061300a565b6101c27f000000000000000000000000000000000000000000000000000000000000000081565b61019c6b082a6a68aa4a8bea8a4aaa8960a31b81565b61062e610560366004612bb0565b600460208181526000928352604092839020835160a081018552815460ff808216151583526101008204811615159483019490945262010000810484161515958201959095526001600160a01b0363010000009095048516606082015260018201548516608082015260028201546003830154948301546005840154600685015460078601546008909601549498848116986001600160401b03600160a01b80880482169a600160e01b9889900481169a8486169a928504909316989093049092169594939290811691168c565b6040516101a69c9b9a9998979695949392919061301d565b61019c670de0b6b3a764000081565b61023e610663366004612bb0565b61199b565b610206610676366004612bc9565b611b19565b60065461069590600160a01b90046001600160401b031681565b6040516001600160401b0390911681526020016101a6565b600061072a84848080601f01602080910402602001604051908101604052809392919081815260200183838082843760009201829052506006548894509092508291506001600160401b03600160a01b820416906001600160a01b031661071381610af7565b6b082a6a68aa4a8bea8a4aaa8960a31b6000610b32565b90505b9392505050565b61073c611bb7565b61074b6000805460ff19169055565b600081815260046020526040902060028101546001600160a01b03166107b35760405162461bcd60e51b8152602060048201526018602482015277105cdcd95c9d1a5bdb88191bd95cc81b9bdd08195e1a5cdd60421b60448201526064015b60405180910390fd5b6002810154600160e01b900460ff161561080f5760405162461bcd60e51b815260206004820152601960248201527f417373657274696f6e20616c726561647920736574746c65640000000000000060448201526064016107aa565b60028101805460ff60e01b1916600160e01b17905560088101546001600160a01b031661092e57426003820154600160a01b90046001600160401b031611156108925760405162461bcd60e51b8152602060048201526015602482015274105cdcd95c9d1a5bdb881b9bdd08195e1c1a5c9959605a1b60448201526064016107aa565b60038101805460ff60e01b198116600160e01b17909155600282015460068301546108ca926001600160a01b03908116921690611c09565b6108d5826001611c71565b6002810154604080516000815260016020820152338183015290516001600160a01b039092169184917ff4fa324b13daeb4e1aae736c2553632ae0fb16fb31f2d4da8ac99fd056313a13919081900360600190a3610ae1565b6005810154600282015460009161095791859190600160a01b90046001600160401b0316611d78565b8254909150610100900460ff161561097d5760038201805460ff60e01b1916905561099f565b60038201805460ff60e01b1916670de0b6b3a76400008314600160e01b021790555b6000670de0b6b3a764000082146109c35760088301546001600160a01b03166109d2565b60028301546001600160a01b03165b90506000670de0b6b3a764000084600601546005546109f191906130b4565b6109fb91906130e9565b905060008185600601546002610a1191906130b4565b610a1b919061310b565b9050610a3d610a28611dfb565b60038701546001600160a01b03169084611c09565b6003850154610a56906001600160a01b03168483611c09565b8454610100900460ff16610a7e576003850154610a7e908790600160e01b900460ff16611c71565b60038501546040805160018152600160e01b90920460ff161515602083015233908201526001600160a01b0384169087907ff4fa324b13daeb4e1aae736c2553632ae0fb16fb31f2d4da8ac99fd056313a139060600160405180910390a3505050505b50610af46000805460ff19166001179055565b50565b6001600160a01b038116600090815260026020526040812060010154600554610b2882670de0b6b3a76400006130b4565b61072d91906130e9565b6000610b3c611bb7565b610b4b6000805460ff19169055565b42610b658b866001600160401b0384168a8a8e8e8b611e94565b91506001600160a01b038a16610bb25760405162461bcd60e51b8152602060048201526012602482015271041737365727465722063616e7420626520360741b60448201526064016107aa565b6000828152600460205260409020600201546001600160a01b031615610c1a5760405162461bcd60e51b815260206004820152601860248201527f417373657274696f6e20616c726561647920657869737473000000000000000060448201526064016107aa565b610c2384611edb565b610c685760405162461bcd60e51b81526020600482015260166024820152752ab739bab83837b93a32b21034b232b73a34b334b2b960511b60448201526064016107aa565b610c7186611f94565b610cb45760405162461bcd60e51b8152602060048201526014602482015273556e737570706f727465642063757272656e637960601b60448201526064016107aa565b610cbd86610af7565b851015610d025760405162461bcd60e51b8152602060048201526013602482015272426f6e6420616d6f756e7420746f6f206c6f7760681b60448201526064016107aa565b6040805161022081018252600061018082018181526101a083018290526101c08301829052336101e08401526001600160a01b038c81166102008501529083528d811660208401526001600160401b038516938301939093526060820152908716608082015260a08101610d76898461311e565b6001600160401b031681526020016000151581526020018481526020018581526020018681526020018a6001600160a01b0316815260200160006001600160a01b03168152506004600084815260200190815260200160002060008201518160000160008201518160000160006101000a81548160ff02191690831515021790555060208201518160000160016101000a81548160ff02191690831515021790555060408201518160000160026101000a81548160ff02191690831515021790555060608201518160000160036101000a8154816001600160a01b0302191690836001600160a01b0316021790555060808201518160010160006101000a8154816001600160a01b0302191690836001600160a01b03160217905550505060208201518160020160006101000a8154816001600160a01b0302191690836001600160a01b0316021790555060408201518160020160146101000a8154816001600160401b0302191690836001600160401b03160217905550606082015181600201601c6101000a81548160ff02191690831515021790555060808201518160030160006101000a8154816001600160a01b0302191690836001600160a01b0316021790555060a08201518160030160146101000a8154816001600160401b0302191690836001600160401b0316021790555060c082015181600301601c6101000a81548160ff02191690831515021790555060e08201518160040155610100820151816005015561012082015181600601556101408201518160070160006101000a8154816001600160a01b0302191690836001600160a01b031602179055506101608201518160080160006101000a8154816001600160a01b0302191690836001600160a01b031602179055509050506000611012836120f6565b80519091501561105c5760405162461bcd60e51b8152602060048201526015602482015274105cdcd95c9d1a5bdb881b9bdd08185b1b1bddd959605a1b60448201526064016107aa565b6000838152600460209081526040918290209083015191830151606090930151815462ffff001916620100009115159190910261ff00191617610100931515939093029290921760ff19169015151790556110c26001600160a01b0387163330886121cb565b838a6001600160a01b0316837fdb1513f0abeb57a364db56aa3eb52015cca5268f00fd67bc73aaf22bccab02b7868f8e8e338f8a611100919061311e565b8f8f60405161111698979695949392919061313e565b60405180910390a4506111316000805460ff19166001179055565b9998505050505050505050565b6000546001600160a01b0361010090910416331461116e5760405162461bcd60e51b81526004016107aa906131a0565b6111786000612203565b565b6000546001600160a01b036101009091041633146111aa5760405162461bcd60e51b81526004016107aa906131a0565b670de0b6b3a76400008111156112025760405162461bcd60e51b815260206004820152601c60248201527f4275726e656420626f6e642070657263656e74616765203e203130300000000060448201526064016107aa565b600081116112525760405162461bcd60e51b815260206004820152601b60248201527f4275726e656420626f6e642070657263656e746167652069732030000000000060448201526064016107aa565b6005819055600680546001600160401b038416600160a01b026001600160e01b03199091166001600160a01b0386161717905561129e6b082a6a68aa4a8bea8a4aaa8960a31b846115c5565b604080516001600160a01b03851681526001600160401b03841660208201529081018290527fd0f09246d369018534c67fec6a6c3259c6f962ef82c5521c337ae0ccc104e4bd9060600160405180910390a1505050565b600081815260046020526040812060020154600160e01b900460ff1661131e5761131e82610734565b6113278261199b565b92915050565b611335611bb7565b6113446000805460ff19169055565b6001600160a01b0381166113905760405162461bcd60e51b8152602060048201526013602482015272044697370757465722063616e2774206265203606c1b60448201526064016107aa565b600082815260046020526040902060028101546001600160a01b03166113f35760405162461bcd60e51b8152602060048201526018602482015277105cdcd95c9d1a5bdb88191bd95cc81b9bdd08195e1a5cdd60421b60448201526064016107aa565b60088101546001600160a01b03161561144e5760405162461bcd60e51b815260206004820152601a60248201527f417373657274696f6e20616c726561647920646973707574656400000000000060448201526064016107aa565b426003820154600160a01b90046001600160401b0316116114a85760405162461bcd60e51b8152602060048201526014602482015273105cdcd95c9d1a5bdb881a5cc8195e1c1a5c995960621b60448201526064016107aa565b6114b18361225c565b6114f35760405162461bcd60e51b8152602060048201526013602482015272111a5cdc1d5d19481b9bdd08185b1b1bddd959606a1b60448201526064016107aa565b6008810180546001600160a01b0319166001600160a01b03848116919091179091556006820154600383015461152e921690339030906121cb565b60058101546002820154611553918591600160a01b90046001600160401b0316612318565b61155c8361238f565b8054610100900460ff161561157657611576836000611c71565b6040516001600160a01b03831690339085907f60133788b013c89f2a3756dbc47e3484997b87bd7e0af98a7d70232032c1ce2b90600090a4506115c16000805460ff19166001179055565b5050565b6040516302abf57960e61b8152654f7261636c6560d01b60048201527f00000000000000000000000000000000000000000000000000000000000000006001600160a01b03169063aafd5e4090602401602060405180830381865afa158015611632573d6000803e3d6000fd5b505050506040513d601f19601f8201168201806040525081019061165691906131d5565b600180546001600160a01b0319166001600160a01b039290921691909117905561167e612452565b6001600160a01b03166390978d1b836040518263ffffffff1660e01b81526004016116ab91815260200190565b602060405180830381865afa1580156116c8573d6000803e3d6000fd5b505050506040513d601f19601f820116820180604052508101906116ec9190613202565b6000838152600360205260409020805460ff19169115159190911790556117116124b7565b604051631d1d5b3960e11b81526001600160a01b0383811660048301529190911690633a3ab67290602401602060405180830381865afa158015611759573d6000803e3d6000fd5b505050506040513d601f19601f8201168201806040525081019061177d9190613202565b6001600160a01b0382166000908152600260205260409020805460ff19169115159190911790556117ac611dfb565b604051635b97aadd60e01b81526001600160a01b0383811660048301529190911690635b97aadd90602401602060405180830381865afa1580156117f4573d6000803e3d6000fd5b505050506040513d601f19601f82011682018060405250810190611818919061321d565b516001600160a01b0390911660009081526002602052604090206001015550565b6060816001600160401b0381111561185357611853612be6565b60405190808252806020026020018201604052801561188657816020015b60608152602001906001900390816118715790505b50905060005b8281101561198957600080308686858181106118aa576118aa61325e565b90506020028101906118bc9190613274565b6040516118ca9291906132c1565b600060405180830381855af49150503d8060008114611905576040519150601f19603f3d011682016040523d82523d6000602084013e61190a565b606091505b5091509150816119565760448151101561192357600080fd5b6004810190508080602001905181019061193d91906132d1565b60405162461bcd60e51b81526004016107aa919061300a565b808484815181106119695761196961325e565b60200260200101819052505050808061198190613347565b91505061188c565b5092915050565b60606113278261251c565b6000818152600460208181526040808420815161022081018352815460ff80821615156101808401908152610100808404831615156101a0860152620100008404831615156101c08601526001600160a01b03630100000090940484166101e0860152600186015484166102008601529084526002850154808416978501979097526001600160401b03600160a01b808904821697860197909752600160e01b97889004831615156060860152600386015480851660808701529687041660a085015295909404909316151560c08201529381015460e085015260058101549284019290925260068201546101208401526007820154811661014084015260089091015416610160820181905215801590611ab857508051602001515b15611ac65750600092915050565b8060600151611b0f5760405162461bcd60e51b8152602060048201526015602482015274105cdcd95c9d1a5bdb881b9bdd081cd95d1d1b1959605a1b60448201526064016107aa565b60c0015192915050565b6000546001600160a01b03610100909104163314611b495760405162461bcd60e51b81526004016107aa906131a0565b6001600160a01b038116611bae5760405162461bcd60e51b815260206004820152602660248201527f4f776e61626c653a206e6577206f776e657220697320746865207a65726f206160448201526564647265737360d01b60648201526084016107aa565b610af481612203565b60005460ff166111785760405162461bcd60e51b815260206004820152601f60248201527f5265656e7472616e637947756172643a207265656e7472616e742063616c6c0060448201526064016107aa565b6040516001600160a01b038316602482015260448101829052611c6c90849063a9059cbb60e01b906064015b60408051601f198184030181529190526020810180516001600160e01b03166001600160e01b0319909316929092179091526125a2565b505050565b600082815260046020526040902060078101546001909101546001600160a01b0391821691168115611d00576040516378d8ab5960e11b81526004810185905283151560248201526001600160a01b0383169063f1b156b290604401600060405180830381600087803b158015611ce757600080fd5b505af1158015611cfb573d6000803e3d6000fd5b505050505b6001600160a01b03811615611d72576040516378d8ab5960e11b81526004810185905283151560248201526001600160a01b0382169063f1b156b290604401600060405180830381600087803b158015611d5957600080fd5b505af1158015611d6d573d6000803e3d6000fd5b505050505b50505050565b6000611d8384612674565b6001600160a01b031663719c6d568484611d9c8861251c565b6040518463ffffffff1660e01b8152600401611dba93929190613360565b602060405180830381865afa158015611dd7573d6000803e3d6000fd5b505050506040513d601f19601f8201168201806040525081019061072a919061337f565b6040516302abf57960e61b81526453746f726560d81b60048201526000907f00000000000000000000000000000000000000000000000000000000000000006001600160a01b03169063aafd5e40906024015b602060405180830381865afa158015611e6b573d6000803e3d6000fd5b505050506040513d601f19601f82011682018060405250810190611e8f91906131d5565b905090565b6000888888888888888833604051602001611eb799989796959493929190613398565b60405160208183030381529060405280519060200120905098975050505050505050565b60008181526003602052604081205460ff1615611efa57506001919050565b611f02612452565b6001600160a01b03166390978d1b836040518263ffffffff1660e01b8152600401611f2f91815260200190565b602060405180830381865afa158015611f4c573d6000803e3d6000fd5b505050506040513d601f19601f82011682018060405250810190611f709190613202565b600092835260036020526040909220805460ff191692151592831790555060ff1690565b6001600160a01b03811660009081526002602052604081205460ff1615611fbd57506001919050565b611fc56124b7565b604051631d1d5b3960e11b81526001600160a01b0384811660048301529190911690633a3ab67290602401602060405180830381865afa15801561200d573d6000803e3d6000fd5b505050506040513d601f19601f820116820180604052508101906120319190613202565b6001600160a01b0383166000908152600260205260409020805460ff1916911515919091179055612060611dfb565b604051635b97aadd60e01b81526001600160a01b0384811660048301529190911690635b97aadd90602401602060405180830381865afa1580156120a8573d6000803e3d6000fd5b505050506040513d601f19601f820116820180604052508101906120cc919061321d565b516001600160a01b0390921660009081526002602052604090206001810192909255505460ff1690565b6040805160808101825260008082526020808301829052828401829052606083018290528482526004905291909120600101546001600160a01b031680612162575050604080516080810182526000808252602082018190529181018290526060810191909152919050565b60405163a6b011a760e01b8152600481018490526001600160a01b0382169063a6b011a790602401608060405180830381865afa1580156121a7573d6000803e3d6000fd5b505050506040513d601f19601f8201168201806040525081019061072d9190613400565b6040516001600160a01b0380851660248301528316604482015260648101829052611d729085906323b872dd60e01b90608401611c35565b600080546001600160a01b03838116610100818102610100600160a81b0319851617855560405193049190911692909183917f8be0079c531659141344cd1fd0a4f28419497f9722a3daafe3b4186f6b6457e091a35050565b60008181526004602052604081205462010000900460ff1661228057506001919050565b6000828152600460205260409020600101546001600160a01b0316806122a95750600192915050565b604051636b915d9160e01b8152600481018490523360248201526001600160a01b03821690636b915d9190604401602060405180830381865afa1580156122f4573d6000803e3d6000fd5b505050506040513d601f19601f8201168201806040525081019061072d9190613202565b61232183612674565b6001600160a01b031663216666a4838361233a8761251c565b6040518463ffffffff1660e01b815260040161235893929190613360565b600060405180830381600087803b15801561237257600080fd5b505af1158015612386573d6000803e3d6000fd5b50505050505050565b600081815260046020526040902060078101546001909101546001600160a01b039182169116811561241657604051633512293b60e21b8152600481018490526001600160a01b0383169063d448a4ec90602401600060405180830381600087803b1580156123fd57600080fd5b505af1158015612411573d6000803e3d6000fd5b505050505b6001600160a01b03811615611c6c57604051633512293b60e21b8152600481018490526001600160a01b0382169063d448a4ec90602401612358565b6040516302abf57960e61b8152721259195b9d1a599a595c95da1a5d195b1a5cdd606a1b60048201526000907f00000000000000000000000000000000000000000000000000000000000000006001600160a01b03169063aafd5e4090602401611e4e565b6040516302abf57960e61b81527210dbdb1b185d195c985b15da1a5d195b1a5cdd606a1b60048201526000907f00000000000000000000000000000000000000000000000000000000000000006001600160a01b03169063aafd5e4090602401611e4e565b606061132761255e604051806020016040528060008152506040518060400160405280600b81526020016a185cdcd95c9d1a5bdb925960aa1b815250856126bc565b604080518082018252600a81526937b7a0b9b9b2b93a32b960b11b6020808301919091526000878152600490915291909120600201546001600160a01b0316612702565b60006125f7826040518060400160405280602081526020017f5361666545524332303a206c6f772d6c6576656c2063616c6c206661696c6564815250856001600160a01b031661271d9092919063ffffffff16565b805190915015611c6c57808060200190518101906126159190613202565b611c6c5760405162461bcd60e51b815260206004820152602a60248201527f5361666545524332303a204552433230206f7065726174696f6e20646964206e6044820152691bdd081cdd58d8d9595960b21b60648201526084016107aa565b60008181526004602052604081205460ff16156126ab576000828152600460205260409020600101546001600160a01b0316611327565b50506001546001600160a01b031690565b606060006126ca858561272c565b905084816126d78561276e565b6040516020016126e99392919061347c565b6040516020818303038152906040529150509392505050565b60606000612710858561272c565b905084816126d7856127af565b606061072a8484600085612806565b81516060901561275d578160405160200161274791906134bf565b6040516020818303038152906040529050611327565b8160405160200161274791906134f3565b606061277d608083901c612937565b61278683612937565b6040805160208101939093528201526060015b6040516020818303038152906040529050919050565b60606127c76001600160801b03602084901c16612937565b6127e28360601b6bffffffffffffffffffffffff1916612937565b6040516020016127999291909182526001600160c01b031916602082015260280190565b6060824710156128675760405162461bcd60e51b815260206004820152602660248201527f416464726573733a20696e73756666696369656e742062616c616e636520666f6044820152651c8818d85b1b60d21b60648201526084016107aa565b6001600160a01b0385163b6128be5760405162461bcd60e51b815260206004820152601d60248201527f416464726573733a2063616c6c20746f206e6f6e2d636f6e747261637400000060448201526064016107aa565b600080866001600160a01b031685876040516128da9190613518565b60006040518083038185875af1925050503d8060008114612917576040519150601f19603f3d011682016040523d82523d6000602084013e61291c565b606091505b509150915061292c828286612ad0565b979650505050505050565b6000808260001c9050806001600160801b03169050806801000000000000000002811777ffffffffffffffff0000000000000000ffffffffffffffff169050806401000000000281177bffffffff00000000ffffffff00000000ffffffff00000000ffffffff16905080620100000281177dffff0000ffff0000ffff0000ffff0000ffff0000ffff0000ffff0000ffff169050806101000281177eff00ff00ff00ff00ff00ff00ff00ff00ff00ff00ff00ff00ff00ff00ff00ff1690508060100281177f0f0f0f0f0f0f0f0f0f0f0f0f0f0f0f0f0f0f0f0f0f0f0f0f0f0f0f0f0f0f0f0f16905060006008827f08080808080808080808080808080808080808080808080808080808080808081681612a5257612a526130d3565b0460047f040404040404040404040404040404040404040404040404040404040404040484160460027f020202020202020202020202020202020202020202020202020202020202020285160417166027029091017f3030303030303030303030303030303030303030303030303030303030303030019392505050565b60608315612adf57508161072d565b825115612aef5782518084602001fd5b8160405162461bcd60e51b81526004016107aa919061300a565b6001600160a01b0381168114610af457600080fd5b8035612b2981612b09565b919050565b600080600060408486031215612b4357600080fd5b83356001600160401b0380821115612b5a57600080fd5b818601915086601f830112612b6e57600080fd5b813581811115612b7d57600080fd5b876020828501011115612b8f57600080fd5b60209283019550935050840135612ba581612b09565b809150509250925092565b600060208284031215612bc257600080fd5b5035919050565b600060208284031215612bdb57600080fd5b813561072d81612b09565b634e487b7160e01b600052604160045260246000fd5b604051601f8201601f191681016001600160401b0381118282101715612c2457612c24612be6565b604052919050565b60006001600160401b03821115612c4557612c45612be6565b50601f01601f191660200190565b80356001600160401b0381168114612b2957600080fd5b60008060008060008060008060006101208a8c031215612c8957600080fd5b89356001600160401b03811115612c9f57600080fd5b8a01601f81018c13612cb057600080fd5b8035612cc3612cbe82612c2c565b612bfc565b8181528d6020838501011115612cd857600080fd5b81602084016020830137600060208383010152809b50505050612cfd60208b01612b1e565b9750612d0b60408b01612b1e565b9650612d1960608b01612b1e565b9550612d2760808b01612c53565b9450612d3560a08b01612b1e565b935060c08a0135925060e08a013591506101008a013590509295985092959850929598565b600080600060608486031215612d6f57600080fd5b8335612d7a81612b09565b9250612d8860208501612c53565b9150604084013590509250925092565b8051151582526020808201511515908301526040808201511515908301526060808201516001600160a01b039081169184019190915260809182015116910152565b600061020082019050612dee828451612d98565b60208301516001600160a01b0390811660a084015260408401516001600160401b031660c08401526060840151151560e084015260808401519081166101008085019190915260a08501519150610120612e52818601846001600160401b03169052565b60c08601519250610140612e698187018515159052565b60e08701516101608781019190915292870151610180870152908601516101a08601528501516001600160a01b039081166101c0860152908501519081166101e08501529050611989565b60008060408385031215612ec757600080fd5b823591506020830135612ed981612b09565b809150509250929050565b60008060208385031215612ef757600080fd5b82356001600160401b0380821115612f0e57600080fd5b818501915085601f830112612f2257600080fd5b813581811115612f3157600080fd5b8660208260051b8501011115612f4657600080fd5b60209290920196919550909350505050565b60005b83811015612f73578181015183820152602001612f5b565b50506000910152565b60008151808452612f94816020860160208601612f58565b601f01601f19169290920160200192915050565b6000602080830181845280855180835260408601915060408160051b870101925083870160005b82811015612ffd57603f19888603018452612feb858351612f7c565b94509285019290850190600101612fcf565b5092979650505050505050565b60208152600061072d6020830184612f7c565b610200810161302c828f612d98565b6001600160a01b039c8d1660a08301526001600160401b039b8c1660c083015299151560e0820152978b16610100890152959098166101208701529215156101408601526101608501919091526101808401526101a08301529284166101c0820152919092166101e090910152919050565b634e487b7160e01b600052601160045260246000fd5b60008160001904831182151516156130ce576130ce61309e565b500290565b634e487b7160e01b600052601260045260246000fd5b60008261310657634e487b7160e01b600052601260045260246000fd5b500490565b818103818111156113275761132761309e565b6001600160401b038181168382160190808211156119895761198961309e565b60006101008a83528060208401526131588184018b612f7c565b6001600160a01b03998a1660408501529789166060840152505093861660808501526001600160401b039290921660a084015290931660c082015260e0019190915292915050565b6020808252818101527f4f776e61626c653a2063616c6c6572206973206e6f7420746865206f776e6572604082015260600190565b6000602082840312156131e757600080fd5b815161072d81612b09565b80518015158114612b2957600080fd5b60006020828403121561321457600080fd5b61072d826131f2565b60006020828403121561322f57600080fd5b604051602081018181106001600160401b038211171561325157613251612be6565b6040529151825250919050565b634e487b7160e01b600052603260045260246000fd5b6000808335601e1984360301811261328b57600080fd5b8301803591506001600160401b038211156132a557600080fd5b6020019150368190038213156132ba57600080fd5b9250929050565b8183823760009101908152919050565b6000602082840312156132e357600080fd5b81516001600160401b038111156132f957600080fd5b8201601f8101841361330a57600080fd5b8051613318612cbe82612c2c565b81815285602083850101111561332d57600080fd5b61333e826020830160208601612f58565b95945050505050565b6000600182016133595761335961309e565b5060010190565b83815282602082015260606040820152600061333e6060830184612f7c565b60006020828403121561339157600080fd5b5051919050565b60006101208083526133ac8184018d612f7c565b602084019b909b52505060408101979097526001600160401b039590951660608701526001600160a01b03938416608087015291831660a0860152821660c085015260e08401521661010090910152919050565b60006080828403121561341257600080fd5b604051608081018181106001600160401b038211171561343457613434612be6565b604052613440836131f2565b815261344e602084016131f2565b602082015261345f604084016131f2565b6040820152613470606084016131f2565b60608201529392505050565b6000845161348e818460208901612f58565b8451908301906134a2818360208901612f58565b84519101906134b5818360208801612f58565b0195945050505050565b600b60fa1b8152600082516134db816001850160208701612f58565b601d60f91b6001939091019283015250600201919050565b60008251613505818460208701612f58565b601d60f91b920191825250600101919050565b6000825161352a818460208701612f58565b919091019291505056fea2646970667358221220e69a97f9c013f92aee695edbe9683928f9b988d15a5ef80fcb6919b8a896228564736f6c63430008100033",
    "linkReferences": {}
  },
  "methodIdentifiers": {
    "assertTruth(bytes,address,address,address,uint64,address,uint256,bytes32,bytes32)": "6457c979",
    "assertTruthWithDefaults(bytes,address)": "36b13af4",
    "assertions(bytes32)": "d60715b5",
    "burnedBondPercentage()": "08e7c3e6",
    "cachedCurrencies(address)": "70762157",
    "cachedIdentifiers(bytes32)": "530dd392",
    "cachedOracle()": "a7af2d0f",
    "defaultCurrency()": "20402e1d",
    "defaultIdentifier()": "d509b017",
    "defaultLiveness()": "fe4e1983",
    "disputeAssertion(bytes32,address)": "a6a22b43",
    "finder()": "b9a3c84c",
    "getAssertion(bytes32)": "88302884",
    "getAssertionResult(bytes32)": "e39dfd7f",
    "getCurrentTime()": "29cb924d",
    "getMinimumBond(address)": "4360af3d",
    "multicall(bytes[])": "ac9650d8",
    "numericalTrue()": "da03b36e",
    "owner()": "8da5cb5b",
    "renounceOwnership()": "715018a6",
    "setAdminProperties(address,uint64,uint256)": "82762520",
    "settleAndGetAssertionResult(bytes32)": "8ea2f2ab",
    "settleAssertion(bytes32)": "4124beef",
    "stampAssertion(bytes32)": "afedba4f",
    "syncUmaParams(bytes32,address)": "a8655785",
    "transferOwnership(address)": "f2fde38b"
  },
  "id": 51
}