{
  "abi": [
    {
      "inputs": [],
      "name": "setUp",
      "outputs": [
        {
          "internalType": "contract Timer",
          "name": "timer",
          "type": "address"
        }
      ],
      "stateMutability": "nonpayable",
      "type": "function"
    }
  ],
  "bytecode": {
    "object": "0x608060405234801561001057600080fd5b50610195806100206000396000f3fe608060405234801561001057600080fd5b506004361061002b5760003560e01c80630a9254e414610030575b600080fd5b610038610054565b6040516001600160a01b03909116815260200160405180910390f35b600060405161006290610084565b604051809103906000f08015801561007e573d6000803e3d6000fd5b50905090565b60cf806100918339019056fe608060405234801561001057600080fd5b504260005560ac806100236000396000f3fe6080604052348015600f57600080fd5b506004361060325760003560e01c806322f8e56614603757806329cb924d146049575b600080fd5b60476042366004605e565b600055565b005b60005460405190815260200160405180910390f35b600060208284031215606f57600080fd5b503591905056fea2646970667358221220ac5277a6d951fefada8e9d179a43cc6317941f75cad69224364e3024cf39f58e64736f6c63430008100033a26469706673582212207d8871378c623a5dea15cfb24a39319d130f503849e860fc71f867f1c69297ba64736f6c63430008100033",
    "linkReferences": {}
  },
  "methodIdentifiers": {
    "setUp()": "0a9254e4"
  },
  "id": 65
}