{
  "abi": [
    {
      "inputs": [
        {
          "internalType": "address",
          "name": "_finder",
          "type": "address"
        },
        {
          "internalType": "address",
          "name": "_currency",
          "type": "address"
        },
        {
          "internalType": "address",
          "name": "_optimisticOracleV3",
          "type": "address"
        }
      ],
      "stateMutability": "nonpayable",
      "type": "constructor"
    },
    {
      "anonymous": false,
      "inputs": [
        {
          "indexed": true,
          "internalType": "bytes32",
          "name": "marketId",
          "type": "bytes32"
        },
        {
          "indexed": true,
          "internalType": "address",
          "name": "account",
          "type": "address"
        },
        {
          "indexed": false,
          "internalType": "uint256",
          "name": "creditsMinted",
          "type": "uint256"
        }
      ],
      "name": "CreditsMinted",
      "type": "event"
    },
    {
      "anonymous": false,
      "inputs": [
        {
          "indexed": true,
          "internalType": "bytes32",
          "name": "marketId",
          "type": "bytes32"
        },
        {
          "indexed": true,
          "internalType": "bytes32",
          "name": "assertionId",
          "type": "bytes32"
        }
      ],
      "name": "FalsePromisedDeclared",
      "type": "event"
    },
    {
      "anonymous": false,
      "inputs": [
        {
          "indexed": true,
          "internalType": "bytes32",
          "name": "marketId",
          "type": "bytes32"
        },
        {
          "indexed": false,
          "internalType": "string",
          "name": "description",
          "type": "string"
        },
        {
          "indexed": false,
          "internalType": "uint256",
          "name": "reward",
          "type": "uint256"
        },
        {
          "indexed": false,
          "internalType": "uint256",
          "name": "requiredBond",
          "type": "uint256"
        },
        {
          "indexed": false,
          "internalType": "address",
          "name": "owner",
          "type": "address"
        }
      ],
      "name": "MarketInitialized",
      "type": "event"
    },
    {
      "anonymous": false,
      "inputs": [
        {
          "indexed": true,
          "internalType": "bytes32",
          "name": "marketId",
          "type": "bytes32"
        }
      ],
      "name": "MarketResolved",
      "type": "event"
    },
    {
      "anonymous": false,
      "inputs": [
        {
          "indexed": true,
          "internalType": "bytes32",
          "name": "marketId",
          "type": "bytes32"
        },
        {
          "indexed": true,
          "internalType": "address",
          "name": "account",
          "type": "address"
        },
        {
          "indexed": false,
          "internalType": "uint256",
          "name": "individualReward",
          "type": "uint256"
        },
        {
          "indexed": false,
          "internalType": "uint256",
          "name": "creditReceived",
          "type": "uint256"
        }
      ],
      "name": "MarketSettled",
      "type": "event"
    },
    {
      "anonymous": false,
      "inputs": [
        {
          "indexed": true,
          "internalType": "bytes32",
          "name": "marketId",
          "type": "bytes32"
        },
        {
          "indexed": true,
          "internalType": "address",
          "name": "account",
          "type": "address"
        }
      ],
      "name": "ValidatorRegistered",
      "type": "event"
    },
    {
      "inputs": [],
      "name": "accountBalance",
      "outputs": [
        {
          "internalType": "uint256",
          "name": "",
          "type": "uint256"
        }
      ],
      "stateMutability": "view",
      "type": "function"
    },
    {
      "inputs": [
        {
          "internalType": "bytes32",
          "name": "",
          "type": "bytes32"
        }
      ],
      "name": "assertedMarkets",
      "outputs": [
        {
          "internalType": "address",
          "name": "asserter",
          "type": "address"
        },
        {
          "internalType": "bytes32",
          "name": "marketId",
          "type": "bytes32"
        }
      ],
      "stateMutability": "view",
      "type": "function"
    },
    {
      "inputs": [
        {
          "internalType": "bytes32",
          "name": "assertionId",
          "type": "bytes32"
        }
      ],
      "name": "assertionDisputedCallback",
      "outputs": [],
      "stateMutability": "nonpayable",
      "type": "function"
    },
    {
      "inputs": [],
      "name": "assertionLiveness",
      "outputs": [
        {
          "internalType": "uint64",
          "name": "",
          "type": "uint64"
        }
      ],
      "stateMutability": "view",
      "type": "function"
    },
    {
      "inputs": [
        {
          "internalType": "bytes32",
          "name": "assertionId",
          "type": "bytes32"
        },
        {
          "internalType": "bool",
          "name": "assertedTruthfully",
          "type": "bool"
        }
      ],
      "name": "assertionResolvedCallback",
      "outputs": [],
      "stateMutability": "nonpayable",
      "type": "function"
    },
    {
      "inputs": [
        {
          "internalType": "bytes32",
          "name": "marketId",
          "type": "bytes32"
        }
      ],
      "name": "carbonCreditBalance",
      "outputs": [
        {
          "internalType": "uint256",
          "name": "",
          "type": "uint256"
        }
      ],
      "stateMutability": "view",
      "type": "function"
    },
    {
      "inputs": [
        {
          "internalType": "bytes32",
          "name": "marketId",
          "type": "bytes32"
        },
        {
          "internalType": "uint64",
          "name": "state",
          "type": "uint64"
        }
      ],
      "name": "changeMarketState",
      "outputs": [],
      "stateMutability": "nonpayable",
      "type": "function"
    },
    {
      "inputs": [
        {
          "internalType": "bytes32",
          "name": "marketId",
          "type": "bytes32"
        }
      ],
      "name": "convertibleCarbonCreditBalance",
      "outputs": [
        {
          "internalType": "uint256",
          "name": "",
          "type": "uint256"
        }
      ],
      "stateMutability": "view",
      "type": "function"
    },
    {
      "inputs": [],
      "name": "currency",
      "outputs": [
        {
          "internalType": "contract IERC20",
          "name": "",
          "type": "address"
        }
      ],
      "stateMutability": "view",
      "type": "function"
    },
    {
      "inputs": [],
      "name": "data_oo",
      "outputs": [
        {
          "internalType": "contract OptimisticOracleV3Interface",
          "name": "",
          "type": "address"
        }
      ],
      "stateMutability": "view",
      "type": "function"
    },
    {
      "inputs": [
        {
          "internalType": "bytes32",
          "name": "marketId",
          "type": "bytes32"
        }
      ],
      "name": "declareFalsePromise",
      "outputs": [
        {
          "internalType": "bytes32",
          "name": "assertionId",
          "type": "bytes32"
        }
      ],
      "stateMutability": "nonpayable",
      "type": "function"
    },
    {
      "inputs": [],
      "name": "defaultIdentifier",
      "outputs": [
        {
          "internalType": "bytes32",
          "name": "",
          "type": "bytes32"
        }
      ],
      "stateMutability": "view",
      "type": "function"
    },
    {
      "inputs": [],
      "name": "finder",
      "outputs": [
        {
          "internalType": "contract FinderInterface",
          "name": "",
          "type": "address"
        }
      ],
      "stateMutability": "view",
      "type": "function"
    },
    {
      "inputs": [
        {
          "internalType": "bytes32",
          "name": "marketId",
          "type": "bytes32"
        }
      ],
      "name": "getMarket",
      "outputs": [
        {
          "components": [
            {
              "internalType": "address",
              "name": "owner",
              "type": "address"
            },
            {
              "internalType": "uint256",
              "name": "requiredBond",
              "type": "uint256"
            },
            {
              "internalType": "uint256",
              "name": "reward",
              "type": "uint256"
            },
            {
              "internalType": "uint256",
              "name": "creditCap",
              "type": "uint256"
            },
            {
              "internalType": "contract ExpandedIERC20",
              "name": "carbonCredit",
              "type": "address"
            },
            {
              "internalType": "contract ExpandedIERC20",
              "name": "convertibleCarbonCredit",
              "type": "address"
            },
            {
              "internalType": "contract ExpandedIERC20",
              "name": "validatorToken",
              "type": "address"
            },
            {
              "internalType": "uint256",
              "name": "startingTime",
              "type": "uint256"
            },
            {
              "internalType": "uint256",
              "name": "openingPeriod",
              "type": "uint256"
            },
            {
              "internalType": "uint256",
              "name": "auditPeriod",
              "type": "uint256"
            },
            {
              "internalType": "string",
              "name": "description",
              "type": "string"
            },
            {
              "internalType": "bool",
              "name": "promiseDelivered",
              "type": "bool"
            },
            {
              "internalType": "uint64",
              "name": "marketState",
              "type": "uint64"
            }
          ],
          "internalType": "struct CarbonUMArket.Market",
          "name": "",
          "type": "tuple"
        }
      ],
      "stateMutability": "view",
      "type": "function"
    },
    {
      "inputs": [
        {
          "internalType": "bytes32",
          "name": "marketId",
          "type": "bytes32"
        },
        {
          "internalType": "address",
          "name": "data_optimisticOracleV3",
          "type": "address"
        }
      ],
      "name": "initializeDataPool",
      "outputs": [
        {
          "internalType": "address",
          "name": "",
          "type": "address"
        }
      ],
      "stateMutability": "nonpayable",
      "type": "function"
    },
    {
      "inputs": [
        {
          "internalType": "uint256",
          "name": "_reward",
          "type": "uint256"
        },
        {
          "internalType": "uint256",
          "name": "_requiredBond",
          "type": "uint256"
        },
        {
          "internalType": "uint256",
          "name": "_creditCap",
          "type": "uint256"
        },
        {
          "internalType": "string",
          "name": "_description",
          "type": "string"
        },
        {
          "internalType": "uint256",
          "name": "_openingPeriod",
          "type": "uint256"
        },
        {
          "internalType": "uint256",
          "name": "_auditPeriod",
          "type": "uint256"
        }
      ],
      "name": "initializeMarket",
      "outputs": [
        {
          "internalType": "bytes32",
          "name": "marketId",
          "type": "bytes32"
        }
      ],
      "stateMutability": "nonpayable",
      "type": "function"
    },
    {
      "inputs": [
        {
          "internalType": "bytes32",
          "name": "",
          "type": "bytes32"
        }
      ],
      "name": "markets",
      "outputs": [
        {
          "internalType": "address",
          "name": "owner",
          "type": "address"
        },
        {
          "internalType": "uint256",
          "name": "requiredBond",
          "type": "uint256"
        },
        {
          "internalType": "uint256",
          "name": "reward",
          "type": "uint256"
        },
        {
          "internalType": "uint256",
          "name": "creditCap",
          "type": "uint256"
        },
        {
          "internalType": "contract ExpandedIERC20",
          "name": "carbonCredit",
          "type": "address"
        },
        {
          "internalType": "contract ExpandedIERC20",
          "name": "convertibleCarbonCredit",
          "type": "address"
        },
        {
          "internalType": "contract ExpandedIERC20",
          "name": "validatorToken",
          "type": "address"
        },
        {
          "internalType": "uint256",
          "name": "startingTime",
          "type": "uint256"
        },
        {
          "internalType": "uint256",
          "name": "openingPeriod",
          "type": "uint256"
        },
        {
          "internalType": "uint256",
          "name": "auditPeriod",
          "type": "uint256"
        },
        {
          "internalType": "string",
          "name": "description",
          "type": "string"
        },
        {
          "internalType": "bool",
          "name": "promiseDelivered",
          "type": "bool"
        },
        {
          "internalType": "uint64",
          "name": "marketState",
          "type": "uint64"
        }
      ],
      "stateMutability": "view",
      "type": "function"
    },
    {
      "inputs": [
        {
          "internalType": "bytes32",
          "name": "marketId",
          "type": "bytes32"
        },
        {
          "internalType": "uint256",
          "name": "creditToCreate",
          "type": "uint256"
        }
      ],
      "name": "mintCredit",
      "outputs": [],
      "stateMutability": "nonpayable",
      "type": "function"
    },
    {
      "inputs": [],
      "name": "oo",
      "outputs": [
        {
          "internalType": "contract OptimisticOracleV3Interface",
          "name": "",
          "type": "address"
        }
      ],
      "stateMutability": "view",
      "type": "function"
    },
    {
      "inputs": [
        {
          "internalType": "bytes32",
          "name": "marketId",
          "type": "bytes32"
        }
      ],
      "name": "registerValidator",
      "outputs": [],
      "stateMutability": "nonpayable",
      "type": "function"
    },
    {
      "inputs": [
        {
          "internalType": "bytes32",
          "name": "marketId",
          "type": "bytes32"
        }
      ],
      "name": "settleMarket",
      "outputs": [],
      "stateMutability": "nonpayable",
      "type": "function"
    },
    {
      "inputs": [
        {
          "internalType": "bytes32",
          "name": "marketId",
          "type": "bytes32"
        },
        {
          "internalType": "address",
          "name": "dataAsserterAddress",
          "type": "address"
        }
      ],
      "name": "settleValidatorToken",
      "outputs": [],
      "stateMutability": "nonpayable",
      "type": "function"
    },
    {
      "inputs": [
        {
          "internalType": "bytes32",
          "name": "marketId",
          "type": "bytes32"
        },
        {
          "internalType": "bytes32",
          "name": "dataId",
          "type": "bytes32"
        },
        {
          "internalType": "string",
          "name": "dataPath",
          "type": "string"
        },
        {
          "internalType": "string",
          "name": "description",
          "type": "string"
        },
        {
          "internalType": "address",
          "name": "dataAsserterAddress",
          "type": "address"
        }
      ],
      "name": "submitAndAssertData",
      "outputs": [
        {
          "internalType": "bytes32",
          "name": "assertionId",
          "type": "bytes32"
        }
      ],
      "stateMutability": "nonpayable",
      "type": "function"
    },
    {
      "inputs": [],
      "name": "validatorFee",
      "outputs": [
        {
          "internalType": "uint64",
          "name": "",
          "type": "uint64"
        }
      ],
      "stateMutability": "view",
      "type": "function"
    }
  ],
  "bytecode": {
    "object": "0x6101006040523480156200001257600080fd5b506040516200955e3803806200955e8339810160408190526200003591620000dc565b6001600160a01b0380841660805282811660a052811660c08190526040805163d509b01760e01b8152905163d509b017916004808201926020929091908290030181865afa1580156200008c573d6000803e3d6000fd5b505050506040513d601f19601f82011682018060405250810190620000b2919062000126565b60e0525062000140915050565b80516001600160a01b0381168114620000d757600080fd5b919050565b600080600060608486031215620000f257600080fd5b620000fd84620000bf565b92506200010d60208501620000bf565b91506200011d60408501620000bf565b90509250925092565b6000602082840312156200013957600080fd5b5051919050565b60805160a05160c05160e0516193516200020d600039600081816103ce015261081701526000818161024b0152818161062e01528181610724015281816108460152818161287a015261295c01526000818161042401528181610603015281816106cb01528181610702015281816107e801528181610c4c0152818161130901528181611a4a01528181611ce701528181611de001528181611e6201528181611f2c01528181612323015281816127ff015281816129310152612aeb0152600061030f01526193516000f3fe60806040523480156200001157600080fd5b5060043610620001755760003560e01c8063b0a1c1c411620000d3578063d448a4ec1162000086578063d448a4ec14620003b4578063d509b01714620003c8578063d79318d414620003f0578063e039c00e1462000407578063e5a6b10f146200041e578063f1b156b2146200044657600080fd5b8063b0a1c1c414620002f6578063b75d4e241462000300578063b9a3c84c1462000309578063bac6d3c11462000331578063c3c95c7b1462000348578063d4107645146200036e57600080fd5b80638921a614116200012c5780638921a61414620002455780638b5735241462000286578063a7f0de81146200029d578063ad7be66814620002b4578063aea59c7414620002cb578063af2b57ce14620002e257600080fd5b80631122cca3146200017a5780633f6d825614620001a4578063481e9c6b14620001cc578063607049d814620001e55780637564912b14620001fc57806382f7b9ac146200022e575b600080fd5b620001916200018b366004620030bf565b6200045d565b6040519081526020015b60405180910390f35b620001b366038d7ea4c6800081565b6040516001600160401b0390911681526020016200019b565b620001e3620001dd366004620030d9565b62000932565b005b620001e3620001f6366004620030bf565b62000a2a565b620002136200020d366004620030bf565b62000cad565b6040516200019b9d9c9b9a999897969594939291906200316b565b620001916200023f366004620030bf565b62000dc5565b6200026d7f000000000000000000000000000000000000000000000000000000000000000081565b6040516001600160a01b0390911681526020016200019b565b620001e36200029736600462003219565b62000e4e565b620001e3620002ae36600462003241565b6200108b565b62000191620002c53660046200327a565b62001468565b62000191620002dc366004620033ae565b62001ac1565b6000546200026d906001600160a01b031681565b6200019162001f14565b620001b3607881565b6200026d7f000000000000000000000000000000000000000000000000000000000000000081565b6200019162000342366004620030bf565b62001fa7565b6200035f62000359366004620030bf565b62001fe7565b6040516200019b91906200344d565b620003a46200037f366004620030bf565b600260205260009081526040902080546001909101546001600160a01b039091169082565b6040516200019b92919062003547565b620001e3620003c5366004620030bf565b50565b620001917f000000000000000000000000000000000000000000000000000000000000000081565b6200026d6200040136600462003219565b620021ad565b620001e362000418366004620030bf565b6200238d565b6200026d7f000000000000000000000000000000000000000000000000000000000000000081565b620001e3620004573660046200356f565b6200286f565b600081815260016020526040812060088101546007820154620004819190620035ad565b4210158015620004b65750806009015481600801548260070154620004a79190620035ad565b620004b39190620035ad565b42105b80620004d55750600b8101546001600160401b03610100909104166001145b620005335760405162461bcd60e51b815260206004820152602360248201527f50726f6a656374206973206e6f7420726561647920666f72206175646974207960448201526265742160e81b60648201526084015b60405180910390fd5b80546001600160a01b0316620005855760405162461bcd60e51b815260206004820152601660248201527513585c9ad95d081b9bdd081a5b9a5d1a585b1a5e995960521b60448201526064016200052a565b6000838152600260205260409020546001600160a01b031615620005ec5760405162461bcd60e51b815260206004820152601760248201527f4d61726b657420616c726561647920617373657274656400000000000000000060448201526064016200052a565b604051634360af3d60e01b81526001600160a01b037f0000000000000000000000000000000000000000000000000000000000000000811660048301526000917f000000000000000000000000000000000000000000000000000000000000000090911690634360af3d90602401602060405180830381865afa15801562000678573d6000803e3d6000fd5b505050506040513d601f19601f820116820180604052508101906200069e9190620035c3565b9050600081836001015411620006b55781620006bb565b82600101545b9050620006f46001600160a01b037f00000000000000000000000000000000000000000000000000000000000000001633308462002b6f565b6200074a6001600160a01b037f0000000000000000000000000000000000000000000000000000000000000000167f00000000000000000000000000000000000000000000000000000000000000008362002be2565b604051636457c97960e01b8152610120600482015260436101248201527f54686520696e737469747574696f6e2063616e6e6f742064656c6976657220746101448201527f68652070726f6d6973656420616d6f756e74206f6620636172626f6e2063726561016482015262191a5d60ea1b610184820152336024820152306044820152600060648201819052607860848301526001600160a01b037f0000000000000000000000000000000000000000000000000000000000000000811660a484015260c483018490527f000000000000000000000000000000000000000000000000000000000000000060e48401526101048301919091527f00000000000000000000000000000000000000000000000000000000000000001690636457c979906101a4016020604051808303816000875af115801562000891573d6000803e3d6000fd5b505050506040513d601f19601f82011682018060405250810190620008b79190620035c3565b604080518082018252338152602080820189815260008581526002909252838220925183546001600160a01b0319166001600160a01b03909116178355516001909201919091559051919550859187917f584cc08a71081fce3cb80c249a3f322d34332812916fce18435e2d1a4468fa7091a3505050919050565b6000828152600160205260409020546001600160a01b03163314620009a55760405162461bcd60e51b815260206004820152602260248201527f4f6e6c79206f776e65722063616e206368616e6765206d61726b657420737461604482015261746560f01b60648201526084016200052a565b6002816001600160401b03161115620009f15760405162461bcd60e51b815260206004820152600d60248201526c496e76616c696420737461746560981b60448201526064016200052a565b600091825260016020526040909120600b0180546001600160401b039092166101000268ffffffffffffffff0019909216919091179055565b600081815260016020526040902060098101546008820154600783015462000a539190620035ad565b62000a5f9190620035ad565b42108062000a805750600b81015460026101009091046001600160401b0316105b62000a9f5760405162461bcd60e51b81526004016200052a90620035dd565b80546001600160a01b031662000af45760405162461bcd60e51b815260206004820152601960248201527813585c9ad95d081a5cc81b9bdd081a5b9a5d1a585b1a5e9959603a1b60448201526064016200052a565b60068101546040516370a0823160e01b81523360048201526001600160a01b03909116906370a0823190602401602060405180830381865afa15801562000b3f573d6000803e3d6000fd5b505050506040513d601f19601f8201168201806040525081019062000b659190620035c3565b1562000bc05760405162461bcd60e51b8152602060048201526024808201527f56616c696461746f722063616e207265676973746572206f6e6c79206f6e652060448201526374696d6560e01b60648201526084016200052a565b60068101546040516340c10f1960e01b81526001600160a01b03909116906340c10f199062000bf790339060019060040162003547565b6020604051808303816000875af115801562000c17573d6000803e3d6000fd5b505050506040513d601f19601f8201168201806040525081019062000c3d919062003609565b5062000c7c6001600160a01b037f000000000000000000000000000000000000000000000000000000000000000016333066038d7ea4c6800062002b6f565b604051339083907fd2eefd4ce8a0e3945e0e703d5d36e37c6dfaa66a08807564ef3d863f76400a9190600090a35050565b600160208190526000918252604090912080549181015460028201546003830154600484015460058501546006860154600787015460088801546009890154600a8a0180546001600160a01b039c8d169c9a9b999a98999789169896871697969095169593949293919262000d229062003629565b80601f016020809104026020016040519081016040528092919081815260200182805462000d509062003629565b801562000da15780601f1062000d755761010080835404028352916020019162000da1565b820191906000526020600020905b81548152906001019060200180831162000d8357829003601f168201915b505050600b909301549192505060ff8116906001600160401b03610100909104168d565b60008181526001602052604080822060049081015491516370a0823160e01b815233918101919091526001600160a01b03909116906370a08231906024015b602060405180830381865afa15801562000e22573d6000803e3d6000fd5b505050506040513d601f19601f8201168201806040525081019062000e489190620035c3565b92915050565b6001600160a01b03811662000ea65760405162461bcd60e51b815260206004820152601960248201527f4461746120706f6f6c206e6f7420696e697469616c697a65640000000000000060448201526064016200052a565b600082815260016020526040902060098101546008820154600783015462000ecf9190620035ad565b62000edb9190620035ad565b4210158062000efc5750600b81015461010090046001600160401b03166002145b62000f4a5760405162461bcd60e51b815260206004820152601c60248201527f4d61726b6574206e6f7420726561647920666f7220736574746c65210000000060448201526064016200052a565b6000826001600160a01b0316634f7310876040518163ffffffff1660e01b8152600401602060405180830381865afa15801562000f8b573d6000803e3d6000fd5b505050506040513d601f19601f8201168201806040525081019062000fb19190620035c3565b9050826001600160a01b031663faa0a2646040518163ffffffff1660e01b8152600401600060405180830381600087803b15801562000fef57600080fd5b505af115801562001004573d6000803e3d6000fd5b50505060068301546040516340c10f1960e01b81526001600160a01b0390911691506340c10f19906200103e903390859060040162003547565b6020604051808303816000875af11580156200105e573d6000803e3d6000fd5b505050506040513d601f19601f8201168201806040525081019062001084919062003609565b5050505050565b600082815260016020526040902060078101544210801590620010c2575080600801548160070154620010bf9190620035ad565b42105b80620010de5750600b81015461010090046001600160401b0316155b620011205760405162461bcd60e51b81526020600482015260116024820152704d61726b657420697320636c6f7365642160781b60448201526064016200052a565b80546001600160a01b0316620011755760405162461bcd60e51b815260206004820152601960248201527813585c9ad95d081a5cc81b9bdd081a5b9a5d1a585b1a5e9959603a1b60448201526064016200052a565b60008211620011e65760405162461bcd60e51b815260206004820152603660248201527f546865206e756d626572206f66206372656469742067656e65726174656420736044820152750686f756c6420626520626967676572207468616e20360541b60648201526084016200052a565b60008160040160009054906101000a90046001600160a01b03166001600160a01b03166318160ddd6040518163ffffffff1660e01b8152600401602060405180830381865afa1580156200123e573d6000803e3d6000fd5b505050506040513d601f19601f82011682018060405250810190620012649190620035c3565b6003830154909150620012788483620035ad565b11156200129682846003015462001290919062003665565b62002cf4565b604051602001620012a891906200367b565b60405160208183030381529060405290620012d85760405162461bcd60e51b81526004016200052a9190620036c1565b508154620013329033906001600160a01b0316620012ff86670de0b6b3a7640000620036d6565b6001600160a01b037f00000000000000000000000000000000000000000000000000000000000000001692919062002b6f565b6004808301546040516340c10f1960e01b81526001600160a01b03909116916340c10f19916200136791309188910162003547565b6020604051808303816000875af115801562001387573d6000803e3d6000fd5b505050506040513d601f19601f82011682018060405250810190620013ad919062003609565b5060058201546040516340c10f1960e01b81526001600160a01b03909116906340c10f1990620013e4903390879060040162003547565b6020604051808303816000875af115801562001404573d6000803e3d6000fd5b505050506040513d601f19601f820116820180604052508101906200142a919062003609565b50604051838152339085907fb33c99b82010ff18b32d024f038afefb8096ad49050d8896e20cdd6df4e401ee9060200160405180910390a350505050565b600043853386604051602001620014839493929190620036f8565b60408051601f198184030181529181528151602092830120600081815260019093529120549091506001600160a01b031615620014fb5760405162461bcd60e51b81526020600482015260156024820152744d61726b657420616c72656164792065786973747360581b60448201526064016200052a565b60008460405160200162001510919062003731565b60405160208183030381529060405260016040516200152f90620030a3565b6200153c9291906200375e565b604051809103906000f08015801562001559573d6000803e3d6000fd5b509050600085604051602001620015719190620037a1565b60405160208183030381529060405260016040516200159090620030a3565b6200159d929190620037da565b604051809103906000f080158015620015ba573d6000803e3d6000fd5b509050600086604051602001620015d291906200381e565b6040516020818303038152906040526001604051620015f190620030a3565b620015fe92919062003854565b604051809103906000f0801580156200161b573d6000803e3d6000fd5b50604051634c1d96ab60e11b81523060048201529091506001600160a01b0384169063983b2d5690602401600060405180830381600087803b1580156200166157600080fd5b505af115801562001676573d6000803e3d6000fd5b5050604051634c1d96ab60e11b81523060048201526001600160a01b038516925063983b2d569150602401600060405180830381600087803b158015620016bc57600080fd5b505af1158015620016d1573d6000803e3d6000fd5b5050604051634c1d96ab60e11b81523060048201526001600160a01b038416925063983b2d569150602401600060405180830381600087803b1580156200171757600080fd5b505af11580156200172c573d6000803e3d6000fd5b5050604051637a231bdd60e11b81523060048201526001600160a01b038616925063f44637ba9150602401600060405180830381600087803b1580156200177257600080fd5b505af115801562001787573d6000803e3d6000fd5b5050604051637a231bdd60e11b81523060048201526001600160a01b038516925063f44637ba9150602401600060405180830381600087803b158015620017cd57600080fd5b505af1158015620017e2573d6000803e3d6000fd5b5050604051637a231bdd60e11b81523060048201526001600160a01b038416925063f44637ba9150602401600060405180830381600087803b1580156200182857600080fd5b505af11580156200183d573d6000803e3d6000fd5b505050506000429050604051806101a00160405280336001600160a01b031681526020018b81526020018c81526020018a8152602001856001600160a01b03168152602001846001600160a01b03168152602001836001600160a01b0316815260200182815260200188815260200187815260200189815260200160011515815260200160006001600160401b03168152506001600087815260200190815260200160002060008201518160000160006101000a8154816001600160a01b0302191690836001600160a01b0316021790555060208201518160010155604082015181600201556060820151816003015560808201518160040160006101000a8154816001600160a01b0302191690836001600160a01b0316021790555060a08201518160050160006101000a8154816001600160a01b0302191690836001600160a01b0316021790555060c08201518160060160006101000a8154816001600160a01b0302191690836001600160a01b0316021790555060e082015181600701556101008201518160080155610120820151816009015561014082015181600a019081620019ec9190620038e9565b50610160820151600b9091018054610180909301516001600160401b03166101000268ffffffffffffffff00199215159290921668ffffffffffffffffff1990931692909217179055891562001a735762001a736001600160a01b037f00000000000000000000000000000000000000000000000000000000000000001633308d62002b6f565b847f1a49307b6f6ab1604ebafd15886fc4caa9e917f99e76d07d6b73e45f5713a22d898d8d3360405162001aab9493929190620039b5565b60405180910390a2505050509695505050505050565b60006001600160a01b03821662001b1b5760405162461bcd60e51b815260206004820152601860248201527f44617461706f6f6c206e6f7420696e697469616c697a6564000000000000000060448201526064016200052a565b600088815260016020526040902060098101546008820154600783015462001b449190620035ad565b62001b509190620035ad565b42108062001b715750600b81015460026101009091046001600160401b0316105b62001b905760405162461bcd60e51b81526004016200052a90620035dd565b600089815260016020526040908190206006015490516370a0823160e01b81523360048201526001600160a01b03909116906370a0823190602401602060405180830381865afa15801562001be9573d6000803e3d6000fd5b505050506040513d601f19601f8201168201806040525081019062001c0f9190620035c3565b60011462001c605760405162461bcd60e51b815260206004820152601e60248201527f4f6e6c792076616c696461746f722063616e207375626d69742064617461000060448201526064016200052a565b600083905062001d5f3330836001600160a01b0316638921a6146040518163ffffffff1660e01b8152600401602060405180830381865afa15801562001caa573d6000803e3d6000fd5b505050506040513d601f19601f8201168201806040525081019062001cd09190620039ef565b604051634360af3d60e01b81526001600160a01b037f0000000000000000000000000000000000000000000000000000000000000000811660048301529190911690634360af3d90602401602060405180830381865afa15801562001d39573d6000803e3d6000fd5b505050506040513d601f19601f82011682018060405250810190620012ff9190620035c3565b62001e8a84826001600160a01b0316638921a6146040518163ffffffff1660e01b8152600401602060405180830381865afa15801562001da3573d6000803e3d6000fd5b505050506040513d601f19601f8201168201806040525081019062001dc99190620039ef565b604051634360af3d60e01b81526001600160a01b037f0000000000000000000000000000000000000000000000000000000000000000811660048301529190911690634360af3d90602401602060405180830381865afa15801562001e32573d6000803e3d6000fd5b505050506040513d601f19601f8201168201806040525081019062001e589190620035c3565b6001600160a01b037f000000000000000000000000000000000000000000000000000000000000000016919062002be2565b604051636f40874b60e11b81526001600160a01b0382169063de810e969062001ec0908c908c908c908c908c9060040162003a38565b6020604051808303816000875af115801562001ee0573d6000803e3d6000fd5b505050506040513d601f19601f8201168201806040525081019062001f069190620035c3565b9a9950505050505050505050565b6040516370a0823160e01b81523360048201526000907f00000000000000000000000000000000000000000000000000000000000000006001600160a01b0316906370a0823190602401602060405180830381865afa15801562001f7c573d6000803e3d6000fd5b505050506040513d601f19601f8201168201806040525081019062001fa29190620035c3565b905090565b6000818152600160205260408082206005015490516370a0823160e01b81523360048201526001600160a01b03909116906370a082319060240162000e04565b604080516101a08101825260008082526020820181905291810182905260608082018390526080820183905260a0820183905260c0820183905260e0820183905261010082018390526101208201839052610140820152610160810182905261018081019190915260008281526001602081815260409283902083516101a08101855281546001600160a01b0390811682529382015492810192909252600281015493820193909352600383015460608201526004830154821660808201526005830154821660a0820152600683015490911660c0820152600782015460e082015260088201546101008201526009820154610120820152600a8201805491929161014084019190620020fa9062003629565b80601f0160208091040260200160405190810160405280929190818152602001828054620021289062003629565b8015620021795780601f106200214d5761010080835404028352916020019162002179565b820191906000526020600020905b8154815290600101906020018083116200215b57829003601f168201915b5050509183525050600b919091015460ff81161515602083015261010090046001600160401b031660409091015292915050565b6000828152600160205260408082206006015490516370a0823160e01b81523360048201526001600160a01b03909116906370a0823190602401602060405180830381865afa15801562002205573d6000803e3d6000fd5b505050506040513d601f19601f820116820180604052508101906200222b9190620035c3565b6001146200228c5760405162461bcd60e51b815260206004820152602760248201527f4f6e6c792076616c696461746f722063616e20696e697469616c697a652064616044820152661d18481c1bdbdb60ca1b60648201526084016200052a565b6000838152600160205260409020600981015460088201546007830154620022b59190620035ad565b620022c19190620035ad565b421080620022e25750600b81015460026101009091046001600160401b0316105b620023015760405162461bcd60e51b81526004016200052a90620035dd565b600080546001600160a01b0319166001600160a01b03851690811782556040517f000000000000000000000000000000000000000000000000000000000000000091906200234f90620030b1565b6001600160a01b03928316815291166020820152604001604051809103906000f08015801562002383573d6000803e3d6000fd5b5095945050505050565b6000818152600160205260409020600981015460088201546007830154620023b69190620035ad565b620023c29190620035ad565b42101580620023e35750600b81015461010090046001600160401b03166002145b620024315760405162461bcd60e51b815260206004820152601c60248201527f4d61726b6574206e6f7420726561647920666f7220736574746c65210000000060448201526064016200052a565b60058101546040516370a0823160e01b81523360048201526000916001600160a01b0316906370a0823190602401602060405180830381865afa1580156200247d573d6000803e3d6000fd5b505050506040513d601f19601f82011682018060405250810190620024a39190620035c3565b60068301546040516370a0823160e01b815233600482015291925060009182916001600160a01b0316906370a0823190602401602060405180830381865afa158015620024f4573d6000803e3d6000fd5b505050506040513d601f19601f820116820180604052508101906200251a9190620035c3565b90506000808560060160009054906101000a90046001600160a01b03166001600160a01b03166318160ddd6040518163ffffffff1660e01b8152600401602060405180830381865afa15801562002575573d6000803e3d6000fd5b505050506040513d601f19601f820116820180604052508101906200259b9190620035c3565b11620025a9576000620026b3565b8460060160009054906101000a90046001600160a01b03166001600160a01b03166318160ddd6040518163ffffffff1660e01b8152600401602060405180830381865afa158015620025ff573d6000803e3d6000fd5b505050506040513d601f19601f82011682018060405250810190620026259190620035c3565b60068601546040516370a0823160e01b81523360048201526001600160a01b03909116906370a0823190602401602060405180830381865afa15801562002670573d6000803e3d6000fd5b505050506040513d601f19601f82011682018060405250810190620026969190620035c3565b8660020154620026a79190620036d6565b620026b3919062003a8b565b600586015460405163079cc67960e41b81529192506001600160a01b0316906379cc679090620026ea903390889060040162003547565b6020604051808303816000875af11580156200270a573d6000803e3d6000fd5b505050506040513d601f19601f8201168201806040525081019062002730919062003609565b50600685015460405163079cc67960e41b81526001600160a01b03909116906379cc67909062002767903390869060040162003547565b6020604051808303816000875af115801562002787573d6000803e3d6000fd5b505050506040513d601f19601f82011682018060405250810190620027ad919062003609565b50600b85015460ff1615620027e7578392508215620027e1576004850154620027e1906001600160a01b0316338562002e14565b6200282a565b80156200282a5784546200282a906001600160a01b037f000000000000000000000000000000000000000000000000000000000000000081169116338462002b6f565b6040805182815260208101859052339188917f64e88f38de745da960b2de2db645d82947a21a405c4943480e05ee1ca974a907910160405180910390a3505050505050565b336001600160a01b037f00000000000000000000000000000000000000000000000000000000000000001614620028e95760405162461bcd60e51b815260206004820181905260248201527f4f6e6c79204f4f76332063616e2063616c6c20746869732066756e6374696f6e60448201526064016200052a565b600082815260026020908152604080832060019081015484529091529020811562002b1857600b8101805460ff19169055604051634360af3d60e01b81526001600160a01b037f0000000000000000000000000000000000000000000000000000000000000000811660048301526000917f000000000000000000000000000000000000000000000000000000000000000090911690634360af3d90602401602060405180830381865afa158015620029a6573d6000803e3d6000fd5b505050506040513d601f19601f82011682018060405250810190620029cc9190620035c3565b9050600081836001015411620029e35781620029e9565b82600101545b600480850154604080516318160ddd60e01b815290519394506001600160a01b03909116926379cc679092309285926318160ddd928281019260209291908290030181865afa15801562002a41573d6000803e3d6000fd5b505050506040513d601f19601f8201168201806040525081019062002a679190620035c3565b6040518363ffffffff1660e01b815260040162002a8692919062003547565b6020604051808303816000875af115801562002aa6573d6000803e3d6000fd5b505050506040513d601f19601f8201168201806040525081019062002acc919062003609565b5060008581526002602052604090205462002b15906001600160a01b037f0000000000000000000000000000000000000000000000000000000000000000811691168362002e14565b50505b600b8101805468ffffffffffffffff00191661020017905560008381526002602052604080822060010154905190917fe9146184308c5e4b8f243047cc6f81dce88e004d7980502e123b02f887ab514491a2505050565b6040516001600160a01b038085166024830152831660448201526064810182905262002bdc9085906323b872dd60e01b906084015b60408051601f198184030181529190526020810180516001600160e01b03166001600160e01b03199093169290921790915262002e36565b50505050565b80158062002c605750604051636eb1769f60e11b81523060048201526001600160a01b03838116602483015284169063dd62ed3e90604401602060405180830381865afa15801562002c38573d6000803e3d6000fd5b505050506040513d601f19601f8201168201806040525081019062002c5e9190620035c3565b155b62002ccd5760405162461bcd60e51b815260206004820152603660248201527f5361666545524332303a20617070726f76652066726f6d206e6f6e2d7a65726f60448201527520746f206e6f6e2d7a65726f20616c6c6f77616e636560501b60648201526084016200052a565b62002cef8363095ea7b360e01b848460405160240162002ba492919062003547565b505050565b60608160000362002d1c5750506040805180820190915260018152600360fc1b602082015290565b8160005b811562002d4c578062002d338162003aa2565b915062002d449050600a8362003a8b565b915062002d20565b6000816001600160401b0381111562002d695762002d6962003264565b6040519080825280601f01601f19166020018201604052801562002d94576020820181803683370190505b5090505b841562002e0c5762002dac60018362003665565b915062002dbb600a8662003abe565b62002dc8906030620035ad565b60f81b81838151811062002de05762002de062003ad5565b60200101906001600160f81b031916908160001a90535062002e04600a8662003a8b565b945062002d98565b949350505050565b62002cef8363a9059cbb60e01b848460405160240162002ba492919062003547565b600062002e8d826040518060400160405280602081526020017f5361666545524332303a206c6f772d6c6576656c2063616c6c206661696c6564815250856001600160a01b031662002f0f9092919063ffffffff16565b80519091501562002cef578080602001905181019062002eae919062003609565b62002cef5760405162461bcd60e51b815260206004820152602a60248201527f5361666545524332303a204552433230206f7065726174696f6e20646964206e6044820152691bdd081cdd58d8d9595960b21b60648201526084016200052a565b606062002f20848460008562002f2a565b90505b9392505050565b60608247101562002f8d5760405162461bcd60e51b815260206004820152602660248201527f416464726573733a20696e73756666696369656e742062616c616e636520666f6044820152651c8818d85b1b60d21b60648201526084016200052a565b6001600160a01b0385163b62002fe65760405162461bcd60e51b815260206004820152601d60248201527f416464726573733a2063616c6c20746f206e6f6e2d636f6e747261637400000060448201526064016200052a565b600080866001600160a01b0316858760405162003004919062003aeb565b60006040518083038185875af1925050503d806000811462003043576040519150601f19603f3d011682016040523d82523d6000602084013e62003048565b606091505b50915091506200305a82828662003065565b979650505050505050565b606083156200307657508162002f23565b825115620030875782518084602001fd5b8160405162461bcd60e51b81526004016200052a9190620036c1565b611cb68062003b0a83390190565b613b5c80620057c083390190565b600060208284031215620030d257600080fd5b5035919050565b60008060408385031215620030ed57600080fd5b8235915060208301356001600160401b03811681146200310c57600080fd5b809150509250929050565b60005b83811015620031345781810151838201526020016200311a565b50506000910152565b600081518084526200315781602086016020860162003117565b601f01601f19169290920160200192915050565b6001600160a01b038e81168252602082018e9052604082018d9052606082018c90528a8116608083015289811660a0830152881660c082015260e08101879052610100810186905261012081018590526101a06101408201819052600090620031d7908301866200313d565b931515610160830152506001600160401b0391909116610180909101529b9a5050505050505050505050565b6001600160a01b0381168114620003c557600080fd5b600080604083850312156200322d57600080fd5b8235915060208301356200310c8162003203565b600080604083850312156200325557600080fd5b50508035926020909101359150565b634e487b7160e01b600052604160045260246000fd5b60008060008060008060c087890312156200329457600080fd5b86359550602087013594506040870135935060608701356001600160401b0380821115620032c157600080fd5b818901915089601f830112620032d657600080fd5b813581811115620032eb57620032eb62003264565b604051601f8201601f19908116603f0116810190838211818310171562003316576200331662003264565b816040528281528c60208487010111156200333057600080fd5b8260208601602083013760006020848301015280975050505050506080870135915060a087013590509295509295509295565b60008083601f8401126200337657600080fd5b5081356001600160401b038111156200338e57600080fd5b602083019150836020828501011115620033a757600080fd5b9250929050565b600080600080600080600060a0888a031215620033ca57600080fd5b873596506020880135955060408801356001600160401b0380821115620033f057600080fd5b620033fe8b838c0162003363565b909750955060608a01359150808211156200341857600080fd5b50620034278a828b0162003363565b90945092505060808801356200343d8162003203565b8091505092959891949750929550565b60208152620034686020820183516001600160a01b03169052565b60208201516040820152604082015160608201526060820151608082015260006080830151620034a360a08401826001600160a01b03169052565b5060a08301516001600160a01b03811660c08401525060c08301516001600160a01b03811660e08401525060e08301516101008381019190915283015161012080840191909152830151610140808401919091528301516101a0610160808501829052620035166101c08601846200313d565b908601519092506101806200352e8682018315159052565b909501516001600160401b031693019290925250919050565b6001600160a01b03929092168252602082015260400190565b8015158114620003c557600080fd5b600080604083850312156200358357600080fd5b8235915060208301356200310c8162003560565b634e487b7160e01b600052601160045260246000fd5b8082018082111562000e485762000e4862003597565b600060208284031215620035d657600080fd5b5051919050565b6020808252601290820152714d61726b657420697320617564697465642160701b604082015260600190565b6000602082840312156200361c57600080fd5b815162002f238162003560565b600181811c908216806200363e57607f821691505b6020821081036200365f57634e487b7160e01b600052602260045260246000fd5b50919050565b8181038181111562000e485762000e4862003597565b64027b7363c960dd1b8152600082516200369d81600585016020870162003117565b6c20746f6b656e73206c6566742160981b6005939091019283015250601201919050565b60208152600062002f2360208301846200313d565b6000816000190483118215151615620036f357620036f362003597565b500290565b84815283602082015260018060a01b03831660408201526080606082015260006200372760808301846200313d565b9695505050505050565b600082516200374581846020870162003117565b660810dc99591a5d60ca1b920191825250600701919050565b6060815260006200377360608301856200313d565b82810360208401526002815261434360f01b60208201526040810191505060ff831660408301529392505050565b60008251620037b581846020870162003117565b720810dbdb9d995c9d1a589b194810dc99591a5d606a1b920191825250601301919050565b606081526000620037ef60608301856200313d565b8281036020840152600381526243434360e81b60208201526040810191505060ff831660408301529392505050565b600082516200383281846020870162003117565b6f102b30b634b230ba37b9102a37b5b2b760811b920191825250601001919050565b6060815260006200386960608301856200313d565b82810360208401526002815261159560f21b60208201526040810191505060ff831660408301529392505050565b601f82111562002cef57600081815260208120601f850160051c81016020861015620038c05750805b601f850160051c820191505b81811015620038e157828155600101620038cc565b505050505050565b81516001600160401b0381111562003905576200390562003264565b6200391d8162003916845462003629565b8462003897565b602080601f8311600181146200395557600084156200393c5750858301515b600019600386901b1c1916600185901b178555620038e1565b600085815260208120601f198616915b82811015620039865788860151825594840194600190910190840162003965565b5085821015620039a55787850151600019600388901b60f8161c191681555b5050505050600190811b01905550565b608081526000620039ca60808301876200313d565b60208301959095525060408101929092526001600160a01b0316606090910152919050565b60006020828403121562003a0257600080fd5b815162002f238162003203565b81835281816020850137506000828201602090810191909152601f909101601f19169091010190565b85815260606020820152600062003a5460608301868862003a0f565b828103604084015262003a6981858762003a0f565b98975050505050505050565b634e487b7160e01b600052601260045260246000fd5b60008262003a9d5762003a9d62003a75565b500490565b60006001820162003ab75762003ab762003597565b5060010190565b60008262003ad05762003ad062003a75565b500690565b634e487b7160e01b600052603260045260246000fd5b6000825162003aff81846020870162003117565b919091019291505056fe60806040523480156200001157600080fd5b5060405162001cb638038062001cb6833981016040819052620000349162000563565b8282600362000044838262000676565b50600462000053828262000676565b50506006805460ff191660ff8416179055506200007360008033620000a5565b6200009060015b60408051600080825260208201909252620001f5565b6200009c60026200007a565b50505062000796565b826000808281526005602052604090206001015460ff166002811115620000d057620000d062000742565b14620001235760405162461bcd60e51b815260206004820152601e60248201527f43616e6e6f74207573652061207072652d6578697374696e6720726f6c65000060448201526064015b60405180910390fd5b60008481526005602052604090206001808201805460ff1916828002179055508381556200016160028201846200033b602090811b62000a6617901c565b60008481526005602052604081206001015460ff1660028111156200018a576200018a62000742565b03620001ee5760405162461bcd60e51b815260206004820152603c602482015260008051602062001c9683398151915260448201527f20746f206d616e61676520616e206578636c757369766520726f6c650000000060648201526084016200011a565b5050505050565b826000808281526005602052604090206001015460ff16600281111562000220576200022062000742565b146200026f5760405162461bcd60e51b815260206004820152601e60248201527f43616e6e6f74207573652061207072652d6578697374696e6720726f6c65000060448201526064016200011a565b600084815260056020908152604090912060018101805460ff1916600217905584815590620002ae906003830190859062000a706200034b821b17901c565b60008481526005602052604081206001015460ff166002811115620002d757620002d762000742565b03620001ee5760405162461bcd60e51b8152602060048201526038602482015260008051602062001c9683398151915260448201527f20746f206d616e61676520612073686172656420726f6c65000000000000000060648201526084016200011a565b620003478282620003a0565b5050565b60005b81518110156200039b57620003868383838151811062000372576200037262000758565b60200260200101516200042160201b60201c565b8062000392816200076e565b9150506200034e565b505050565b6001600160a01b038116620004045760405162461bcd60e51b815260206004820152602360248201527f43616e6e6f742073657420616e206578636c757369766520726f6c6520746f2060448201526203078360ec1b60648201526084016200011a565b81546001600160a01b0319166001600160a01b0391909116179055565b6001600160a01b038116620004795760405162461bcd60e51b815260206004820152601f60248201527f43616e6e6f74206164642030783020746f20612073686172656420726f6c650060448201526064016200011a565b6001600160a01b0316600090815260209190915260409020805460ff19166001179055565b634e487b7160e01b600052604160045260246000fd5b600082601f830112620004c657600080fd5b81516001600160401b0380821115620004e357620004e36200049e565b604051601f8301601f19908116603f011681019082821181831017156200050e576200050e6200049e565b816040528381526020925086838588010111156200052b57600080fd5b600091505b838210156200054f578582018301518183018401529082019062000530565b600093810190920192909252949350505050565b6000806000606084860312156200057957600080fd5b83516001600160401b03808211156200059157600080fd5b6200059f87838801620004b4565b94506020860151915080821115620005b657600080fd5b50620005c586828701620004b4565b925050604084015160ff81168114620005dd57600080fd5b809150509250925092565b600181811c90821680620005fd57607f821691505b6020821081036200061e57634e487b7160e01b600052602260045260246000fd5b50919050565b601f8211156200039b57600081815260208120601f850160051c810160208610156200064d5750805b601f850160051c820191505b818110156200066e5782815560010162000659565b505050505050565b81516001600160401b038111156200069257620006926200049e565b620006aa81620006a38454620005e8565b8462000624565b602080601f831160018114620006e25760008415620006c95750858301515b600019600386901b1c1916600185901b1785556200066e565b600085815260208120601f198616915b828110156200071357888601518255948401946001909101908401620006f2565b5085821015620007325787850151600019600388901b60f8161c191681555b5050505050600190811b01905550565b634e487b7160e01b600052602160045260246000fd5b634e487b7160e01b600052603260045260246000fd5b6000600182016200078f57634e487b7160e01b600052601160045260246000fd5b5060010190565b6114f080620007a66000396000f3fe608060405234801561001057600080fd5b506004361061014d5760003560e01c806374d0a676116100c3578063a9059cbb1161007c578063a9059cbb146102be578063aaa14ca3146102d1578063ab3545e5146102e4578063d97c05be1461030f578063dd62ed3e14610322578063f44637ba1461035b57600080fd5b806374d0a6761461025757806379cc67901461026a5780637cdc1cb91461027d57806395d89b4114610290578063983b2d5614610298578063a457c2d7146102ab57600080fd5b8063395093511161011557806339509351146101cd57806340c10f19146101e057806342966c68146101f35780636be7658b1461020857806370a082311461021b57806373cc802a1461024457600080fd5b806306fdde0314610152578063095ea7b31461017057806318160ddd1461019357806323b872dd146101a5578063313ce567146101b8575b600080fd5b61015a61036e565b6040516101679190611183565b60405180910390f35b61018361017e3660046111ed565b610400565b6040519015158152602001610167565b6002545b604051908152602001610167565b6101836101b3366004611217565b61041a565b60065460405160ff9091168152602001610167565b6101836101db3660046111ed565b61043e565b6101836101ee3660046111ed565b61047d565b610206610201366004611253565b6104ba565b005b61020661021636600461126c565b6104f0565b610197610229366004611298565b6001600160a01b031660009081526020819052604090205490565b610206610252366004611298565b6105c6565b61020661026536600461126c565b6105d4565b6101836102783660046111ed565b6106aa565b61018361028b36600461126c565b6106de565b61015a6107a3565b6102066102a6366004611298565b6107b2565b6101836102b93660046111ed565b6107be565b6101836102cc3660046111ed565b610850565b6102066102df366004611253565b61085e565b6102f76102f2366004611253565b61091a565b6040516001600160a01b039091168152602001610167565b61020661031d36600461126c565b610986565b6101976103303660046112ba565b6001600160a01b03918216600090815260016020908152604080832093909416825291909152205490565b610206610369366004611298565b610a5c565b60606003805461037d906112e4565b80601f01602080910402602001604051908101604052809291908181526020018280546103a9906112e4565b80156103f65780601f106103cb576101008083540402835291602001916103f6565b820191906000526020600020905b8154815290600101906020018083116103d957829003601f168201915b5050505050905090565b60003361040e818585610ab6565b60019150505b92915050565b600033610428858285610bda565b610433858585610c6c565b506001949350505050565b3360008181526001602090815260408083206001600160a01b038716845290915281205490919061040e908290869061047890879061132e565b610ab6565b6000600161048b81336106de565b6104b05760405162461bcd60e51b81526004016104a790611357565b60405180910390fd5b61040e8484610e3a565b60026104c681336106de565b6104e25760405162461bcd60e51b81526004016104a790611357565b6104ec3383610f19565b5050565b81600260008281526005602052604090206001015460ff16600281111561051957610519611341565b146105365760405162461bcd60e51b81526004016104a790611399565b600083815260056020526040902054839061055190336106de565b61056d5760405162461bcd60e51b81526004016104a7906113e5565b60008481526005602052604090206105889060030184611067565b60405133906001600160a01b0385169086907feb3e33034c392e69263b04ec0fa376dc12784a41b6676c7f31b936cbc0fbb5af90600090a450505050565b6105d1600082610986565b50565b81600260008281526005602052604090206001015460ff1660028111156105fd576105fd611341565b1461061a5760405162461bcd60e51b81526004016104a790611399565b600083815260056020526040902054839061063590336106de565b6106515760405162461bcd60e51b81526004016104a7906113e5565b600084815260056020526040902061066c9060030184611089565b60405133906001600160a01b0385169086907f63502af7324ff6db91ab38f8236a648727d9385ea6c782073dd4882d8a61a48f90600090a450505050565b600060026106b881336106de565b6106d45760405162461bcd60e51b81526004016104a790611357565b61040e8484610f19565b600082815260056020526040812060018082015460ff16600281111561070657610706611341565b036107275760028101546001600160a01b038481169116145b915050610414565b6002600182015460ff16600281111561074257610742611341565b0361076a576001600160a01b038316600090815260038201602052604090205460ff1661071f565b60405162461bcd60e51b815260206004820152600e60248201526d125b9d985b1a59081c9bdb19525960921b60448201526064016104a7565b60606004805461037d906112e4565b6105d160015b826105d4565b3360008181526001602090815260408083206001600160a01b0387168452909152812054909190838110156108435760405162461bcd60e51b815260206004820152602560248201527f45524332303a2064656372656173656420616c6c6f77616e63652062656c6f77604482015264207a65726f60d81b60648201526084016104a7565b6104338286868403610ab6565b60003361040e818585610c6c565b80600260008281526005602052604090206001015460ff16600281111561088757610887611341565b146108a45760405162461bcd60e51b81526004016104a790611399565b816108af81336106de565b6108cb5760405162461bcd60e51b81526004016104a790611357565b60008381526005602052604090206108e69060030133611067565b6040513390819085907feb3e33034c392e69263b04ec0fa376dc12784a41b6676c7f31b936cbc0fbb5af90600090a4505050565b600081600160008281526005602052604090206001015460ff16600281111561094557610945611341565b146109625760405162461bcd60e51b81526004016104a790611429565b6000838152600560205260409020600201546001600160a01b031691505b50919050565b81600160008281526005602052604090206001015460ff1660028111156109af576109af611341565b146109cc5760405162461bcd60e51b81526004016104a790611429565b60008381526005602052604090205483906109e790336106de565b610a035760405162461bcd60e51b81526004016104a7906113e5565b6000848152600560205260409020610a1e9060020184611104565b60405133906001600160a01b0385169086907f3b855c56b409b671c7112789d022675eb639d0bcb8896f1b6197c132f799e74690600090a450505050565b6105d160026107b8565b6104ec8282611104565b60005b8151811015610ab157610a9f83838381518110610a9257610a92611478565b6020026020010151611089565b80610aa98161148e565b915050610a73565b505050565b6001600160a01b038316610b185760405162461bcd60e51b8152602060048201526024808201527f45524332303a20617070726f76652066726f6d20746865207a65726f206164646044820152637265737360e01b60648201526084016104a7565b6001600160a01b038216610b795760405162461bcd60e51b815260206004820152602260248201527f45524332303a20617070726f766520746f20746865207a65726f206164647265604482015261737360f01b60648201526084016104a7565b6001600160a01b0383811660008181526001602090815260408083209487168084529482529182902085905590518481527f8c5be1e5ebec7d5bd14f71427d1e84f3dd0314c0f7b2291e5b200ac8c7c3b925910160405180910390a3505050565b6001600160a01b038381166000908152600160209081526040808320938616835292905220546000198114610c665781811015610c595760405162461bcd60e51b815260206004820152601d60248201527f45524332303a20696e73756666696369656e7420616c6c6f77616e636500000060448201526064016104a7565b610c668484848403610ab6565b50505050565b6001600160a01b038316610cd05760405162461bcd60e51b815260206004820152602560248201527f45524332303a207472616e736665722066726f6d20746865207a65726f206164604482015264647265737360d81b60648201526084016104a7565b6001600160a01b038216610d325760405162461bcd60e51b815260206004820152602360248201527f45524332303a207472616e7366657220746f20746865207a65726f206164647260448201526265737360e81b60648201526084016104a7565b6001600160a01b03831660009081526020819052604090205481811015610daa5760405162461bcd60e51b815260206004820152602660248201527f45524332303a207472616e7366657220616d6f756e7420657863656564732062604482015265616c616e636560d01b60648201526084016104a7565b6001600160a01b03808516600090815260208190526040808220858503905591851681529081208054849290610de190849061132e565b92505081905550826001600160a01b0316846001600160a01b03167fddf252ad1be2c89b69c2b068fc378daa952ba7f163c4a11628f55a4df523b3ef84604051610e2d91815260200190565b60405180910390a3610c66565b6001600160a01b038216610e905760405162461bcd60e51b815260206004820152601f60248201527f45524332303a206d696e7420746f20746865207a65726f20616464726573730060448201526064016104a7565b8060026000828254610ea2919061132e565b90915550506001600160a01b03821660009081526020819052604081208054839290610ecf90849061132e565b90915550506040518181526001600160a01b038316906000907fddf252ad1be2c89b69c2b068fc378daa952ba7f163c4a11628f55a4df523b3ef9060200160405180910390a35050565b6001600160a01b038216610f795760405162461bcd60e51b815260206004820152602160248201527f45524332303a206275726e2066726f6d20746865207a65726f206164647265736044820152607360f81b60648201526084016104a7565b6001600160a01b03821660009081526020819052604090205481811015610fed5760405162461bcd60e51b815260206004820152602260248201527f45524332303a206275726e20616d6f756e7420657863656564732062616c616e604482015261636560f01b60648201526084016104a7565b6001600160a01b038316600090815260208190526040812083830390556002805484929061101c9084906114a7565b90915550506040518281526000906001600160a01b038516907fddf252ad1be2c89b69c2b068fc378daa952ba7f163c4a11628f55a4df523b3ef9060200160405180910390a3505050565b6001600160a01b0316600090815260209190915260409020805460ff19169055565b6001600160a01b0381166110df5760405162461bcd60e51b815260206004820152601f60248201527f43616e6e6f74206164642030783020746f20612073686172656420726f6c650060448201526064016104a7565b6001600160a01b0316600090815260209190915260409020805460ff19166001179055565b6001600160a01b0381166111665760405162461bcd60e51b815260206004820152602360248201527f43616e6e6f742073657420616e206578636c757369766520726f6c6520746f2060448201526203078360ec1b60648201526084016104a7565b81546001600160a01b0319166001600160a01b0391909116179055565b600060208083528351808285015260005b818110156111b057858101830151858201604001528201611194565b506000604082860101526040601f19601f8301168501019250505092915050565b80356001600160a01b03811681146111e857600080fd5b919050565b6000806040838503121561120057600080fd5b611209836111d1565b946020939093013593505050565b60008060006060848603121561122c57600080fd5b611235846111d1565b9250611243602085016111d1565b9150604084013590509250925092565b60006020828403121561126557600080fd5b5035919050565b6000806040838503121561127f57600080fd5b8235915061128f602084016111d1565b90509250929050565b6000602082840312156112aa57600080fd5b6112b3826111d1565b9392505050565b600080604083850312156112cd57600080fd5b6112d6836111d1565b915061128f602084016111d1565b600181811c908216806112f857607f821691505b60208210810361098057634e487b7160e01b600052602260045260246000fd5b634e487b7160e01b600052601160045260246000fd5b8082018082111561041457610414611318565b634e487b7160e01b600052602160045260246000fd5b60208082526022908201527f53656e64657220646f6573206e6f7420686f6c6420726571756972656420726f6040820152616c6560f01b606082015260800190565b6020808252602c908201527f4d7573742062652063616c6c6564206f6e20616e20696e697469616c697a656460408201526b2053686172656420726f6c6560a01b606082015260800190565b60208082526024908201527f43616e206f6e6c792062652063616c6c6564206279206120726f6c65206d616e60408201526330b3b2b960e11b606082015260800190565b6020808252602f908201527f4d7573742062652063616c6c6564206f6e20616e20696e697469616c697a656460408201526e204578636c757369766520726f6c6560881b606082015260800190565b634e487b7160e01b600052603260045260246000fd5b6000600182016114a0576114a0611318565b5060010190565b818103818111156104145761041461131856fea26469706673582212208961104dd3923b79c08fd49fd308093d4ed7792f1229905fa0e9f300d355f10d64736f6c63430008100033417474656d7074656420746f2075736520616e20696e76616c696420726f6c6560e06040523480156200001157600080fd5b5060405162003b5c38038062003b5c83398101604081905262000034916200029b565b6001600160a01b03808316608052811660a08190526040805163d509b01760e01b8152905163d509b017916004808201926020929091908290030181865afa15801562000085573d6000803e3d6000fd5b505050506040513d601f19601f82011682018060405250810190620000ab9190620002d3565b60c052604051600190620000bf9062000270565b6060808252601c908201527f4461746141737365727465722056616c696461746f7220546f6b656e00000000608082015260a060208201819052600490820152631110559560e21b60c082015260ff909116604082015260e001604051809103906000f08015801562000136573d6000803e3d6000fd5b50600080546001600160a01b0319166001600160a01b03929092169182179055604051634c1d96ab60e11b815230600482015263983b2d5690602401600060405180830381600087803b1580156200018d57600080fd5b505af1158015620001a2573d6000803e3d6000fd5b5050600054604051637a231bdd60e11b81523060048201526001600160a01b03909116925063f44637ba9150602401600060405180830381600087803b158015620001ec57600080fd5b505af115801562000201573d6000803e3d6000fd5b505060005460a051604051634c1d96ab60e11b81526001600160a01b0391821660048201529116925063983b2d569150602401600060405180830381600087803b1580156200024f57600080fd5b505af115801562000264573d6000803e3d6000fd5b505050505050620002ed565b611cb68062001ea683390190565b80516001600160a01b03811681146200029657600080fd5b919050565b60008060408385031215620002af57600080fd5b620002ba836200027e565b9150620002ca602084016200027e565b90509250929050565b600060208284031215620002e657600080fd5b5051919050565b60805160a05160c051611b4b6200035b600039600081816101cd015261079501526000818161014d015281816105de015281816106af015281816106d601526108f601526000818160ee015281816105b1015281816106580152818161068d01526107710152611b4b6000f3fe608060405234801561001057600080fd5b50600436106100b45760003560e01c8063b75d4e2411610071578063b75d4e2414610193578063d448a4ec146101b5578063d509b017146101c8578063de810e96146101ef578063f1b156b214610202578063faa0a2641461021557600080fd5b806318e557aa146100b957806320402e1d146100e95780634f7310871461011057806354f6127f146101265780638921a61414610148578063b33893da1461016f575b600080fd5b6000546100cc906001600160a01b031681565b6040516001600160a01b0390911681526020015b60405180910390f35b6100cc7f000000000000000000000000000000000000000000000000000000000000000081565b61011861021d565b6040519081526020016100e0565b610139610134366004611448565b61028f565b6040516100e0939291906114b1565b6100cc7f000000000000000000000000000000000000000000000000000000000000000081565b61018261017d366004611448565b61044c565b6040516100e09594939291906114e8565b61019c611c2081565b60405167ffffffffffffffff90911681526020016100e0565b6101c66101c3366004611448565b50565b005b6101187f000000000000000000000000000000000000000000000000000000000000000081565b6101186101fd3660046115d9565b61059a565b6101c6610210366004611654565b6108eb565b6101c6610bd3565b600080546040516370a0823160e01b81523360048201526001600160a01b03909116906370a0823190602401602060405180830381865afa158015610266573d6000803e3d6000fd5b505050506040513d601f19601f8201168201806040525081019061028a9190611684565b905090565b6000818152600160205260408120600301546060908190600160a01b900460ff1661030b5760006040518060400160405280600781526020016615313630b7359560c91b8152506040518060400160405280601181526020017011185d18481b9bdd081c995cdbdb1d9959607a1b815250925092509250610445565b6000848152600160208190526040909120808201805490916002019082906103329061169d565b80601f016020809104026020016040519081016040528092919081815260200182805461035e9061169d565b80156103ab5780601f10610380576101008083540402835291602001916103ab565b820191906000526020600020905b81548152906001019060200180831161038e57829003601f168201915b505050505091508080546103be9061169d565b80601f01602080910402602001604051908101604052809291908181526020018280546103ea9061169d565b80156104375780601f1061040c57610100808354040283529160200191610437565b820191906000526020600020905b81548152906001019060200180831161041a57829003601f168201915b505050505090509250925092505b9193909250565b60016020819052600091825260409091208054918101805461046d9061169d565b80601f01602080910402602001604051908101604052809291908181526020018280546104999061169d565b80156104e65780601f106104bb576101008083540402835291602001916104e6565b820191906000526020600020905b8154815290600101906020018083116104c957829003601f168201915b5050505050908060020180546104fb9061169d565b80601f01602080910402602001604051908101604052809291908181526020018280546105279061169d565b80156105745780601f1061054957610100808354040283529160200191610574565b820191906000526020600020905b81548152906001019060200180831161055757829003601f168201915b505050600390930154919250506001600160a01b0381169060ff600160a01b9091041685565b604051634360af3d60e01b81526001600160a01b037f00000000000000000000000000000000000000000000000000000000000000008116600483015260009182917f00000000000000000000000000000000000000000000000000000000000000001690634360af3d90602401602060405180830381865afa158015610625573d6000803e3d6000fd5b505050506040513d601f19601f820116820180604052508101906106499190611684565b90506106806001600160a01b037f000000000000000000000000000000000000000000000000000000000000000016333084610cb8565b6106d46001600160a01b037f0000000000000000000000000000000000000000000000000000000000000000167f000000000000000000000000000000000000000000000000000000000000000083610d29565b7f00000000000000000000000000000000000000000000000000000000000000006001600160a01b0316636457c979858561070e89610e48565b61071733610e89565b61072042610ee0565b61072930610e89565b60405160200161073e969594939291906116f3565b60408051601f19818403018152908290526001600160e01b031960e084901b1682526107bf9133903090600090611c20907f0000000000000000000000000000000000000000000000000000000000000000908a907f0000000000000000000000000000000000000000000000000000000000000000908590600401611851565b6020604051808303816000875af11580156107de573d6000803e3d6000fd5b505050506040513d601f19601f820116820180604052508101906108029190611684565b6040805160a081018252878152602080820188815282840188905233606084015260006080840181905285815260019283905293909320825181559251939550909290820190610852908261190d565b5060408201516002820190610867908261190d565b506060820151600390910180546080909301511515600160a01b026001600160a81b03199093166001600160a01b03909216919091179190911790556040518290339087907f657936090f7950624cc4d0e1efd75ff2392aea9d1aaf742ac689d3db7cb20e72906108db90899089906119cd565b60405180910390a4509392505050565b336001600160a01b037f0000000000000000000000000000000000000000000000000000000000000000161461092057600080fd5b8015610b8e5760008281526001602081905260408083206003018054600160a01b60ff60a01b19821617909155925490516340c10f1960e01b81526001600160a01b039384166004820152602481019290925291909116906340c10f19906044016020604051808303816000875af11580156109a0573d6000803e3d6000fd5b505050506040513d601f19601f820116820180604052508101906109c491906119fb565b506000828152600160208181526040808420815160a081019092528054825292830180549193928401916109f79061169d565b80601f0160208091040260200160405190810160405280929190818152602001828054610a239061169d565b8015610a705780601f10610a4557610100808354040283529160200191610a70565b820191906000526020600020905b815481529060010190602001808311610a5357829003601f168201915b50505050508152602001600282018054610a899061169d565b80601f0160208091040260200160405190810160405280929190818152602001828054610ab59061169d565b8015610b025780601f10610ad757610100808354040283529160200191610b02565b820191906000526020600020905b815481529060010190602001808311610ae557829003601f168201915b5050509183525050600391909101546001600160a01b03808216602080850191909152600160a01b90920460ff1615156040938401526060840151845192850151858501519451959650889591909216937f36a2ca3a13b47a72af0f9bf95abd3c906882059e42e6c1c6b5b312e9da2064d792610b81929091906119cd565b60405180910390a4505050565b600082815260016020819052604082208281559190610baf908301826113fa565b610bbd6002830160006113fa565b5060030180546001600160a81b03191690555050565b6000546040516370a0823160e01b815233600482018190526001600160a01b03909216916379cc67909183906370a0823190602401602060405180830381865afa158015610c25573d6000803e3d6000fd5b505050506040513d601f19601f82011682018060405250810190610c499190611684565b6040516001600160e01b031960e085901b1681526001600160a01b03909216600483015260248201526044016020604051808303816000875af1158015610c94573d6000803e3d6000fd5b505050506040513d601f19601f820116820180604052508101906101c391906119fb565b6040516001600160a01b0380851660248301528316604482015260648101829052610d239085906323b872dd60e01b906084015b60408051601f198184030181529190526020810180516001600160e01b03166001600160e01b03199093169290921790915261100c565b50505050565b801580610da35750604051636eb1769f60e11b81523060048201526001600160a01b03838116602483015284169063dd62ed3e90604401602060405180830381865afa158015610d7d573d6000803e3d6000fd5b505050506040513d601f19601f82011682018060405250810190610da19190611684565b155b610e135760405162461bcd60e51b815260206004820152603660248201527f5361666545524332303a20617070726f76652066726f6d206e6f6e2d7a65726f60448201527520746f206e6f6e2d7a65726f20616c6c6f77616e636560501b60648201526084015b60405180910390fd5b6040516001600160a01b038316602482015260448101829052610e4390849063095ea7b360e01b90606401610cec565b505050565b6060610e57608083901c6110de565b610e60836110de565b6040805160208101939093528201526060015b6040516020818303038152906040529050919050565b6060610ea16001600160801b03602084901c166110de565b610ebc8360601b6bffffffffffffffffffffffff19166110de565b604051602001610e739291909182526001600160c01b031916602082015260280190565b606081600003610f075750506040805180820190915260018152600360fc1b602082015290565b8160005b8115610f315780610f1b81611a2e565b9150610f2a9050600a83611a5d565b9150610f0b565b60008167ffffffffffffffff811115610f4c57610f4c611536565b6040519080825280601f01601f191660200182016040528015610f76576020820181803683370190505b509050815b851561100357610f8c600182611a7f565b90506000610f9b600a88611a5d565b610fa690600a611a98565b610fb09088611a7f565b610fbb906030611ab7565b905060008160f81b905080848481518110610fd857610fd8611ad0565b60200101906001600160f81b031916908160001a905350610ffa600a89611a5d565b97505050610f7b565b50949350505050565b6000611061826040518060400160405280602081526020017f5361666545524332303a206c6f772d6c6576656c2063616c6c206661696c6564815250856001600160a01b03166112779092919063ffffffff16565b805190915015610e43578080602001905181019061107f91906119fb565b610e435760405162461bcd60e51b815260206004820152602a60248201527f5361666545524332303a204552433230206f7065726174696f6e20646964206e6044820152691bdd081cdd58d8d9595960b21b6064820152608401610e0a565b6000808260001c9050806001600160801b03169050806801000000000000000002811777ffffffffffffffff0000000000000000ffffffffffffffff169050806401000000000281177bffffffff00000000ffffffff00000000ffffffff00000000ffffffff16905080620100000281177dffff0000ffff0000ffff0000ffff0000ffff0000ffff0000ffff0000ffff169050806101000281177eff00ff00ff00ff00ff00ff00ff00ff00ff00ff00ff00ff00ff00ff00ff00ff1690508060100281177f0f0f0f0f0f0f0f0f0f0f0f0f0f0f0f0f0f0f0f0f0f0f0f0f0f0f0f0f0f0f0f0f16905060006008827f080808080808080808080808080808080808080808080808080808080808080816816111f9576111f9611a47565b0460047f040404040404040404040404040404040404040404040404040404040404040484160460027f020202020202020202020202020202020202020202020202020202020202020285160417166027029091017f3030303030303030303030303030303030303030303030303030303030303030019392505050565b60606112868484600085611290565b90505b9392505050565b6060824710156112f15760405162461bcd60e51b815260206004820152602660248201527f416464726573733a20696e73756666696369656e742062616c616e636520666f6044820152651c8818d85b1b60d21b6064820152608401610e0a565b6001600160a01b0385163b6113485760405162461bcd60e51b815260206004820152601d60248201527f416464726573733a2063616c6c20746f206e6f6e2d636f6e74726163740000006044820152606401610e0a565b600080866001600160a01b031685876040516113649190611ae6565b60006040518083038185875af1925050503d80600081146113a1576040519150601f19603f3d011682016040523d82523d6000602084013e6113a6565b606091505b50915091506113b68282866113c1565b979650505050505050565b606083156113d0575081611289565b8251156113e05782518084602001fd5b8160405162461bcd60e51b8152600401610e0a9190611b02565b5080546114069061169d565b6000825580601f10611416575050565b601f0160209004906000526020600020908101906101c391905b808211156114445760008155600101611430565b5090565b60006020828403121561145a57600080fd5b5035919050565b60005b8381101561147c578181015183820152602001611464565b50506000910152565b6000815180845261149d816020860160208601611461565b601f01601f19169290920160200192915050565b83151581526060602082015260006114cc6060830185611485565b82810360408401526114de8185611485565b9695505050505050565b85815260a06020820152600061150160a0830187611485565b82810360408401526115138187611485565b6001600160a01b0395909516606084015250509015156080909101529392505050565b634e487b7160e01b600052604160045260246000fd5b600082601f83011261155d57600080fd5b813567ffffffffffffffff8082111561157857611578611536565b604051601f8301601f19908116603f011681019082821181831017156115a0576115a0611536565b816040528381528660208588010111156115b957600080fd5b836020870160208301376000602085830101528094505050505092915050565b6000806000606084860312156115ee57600080fd5b83359250602084013567ffffffffffffffff8082111561160d57600080fd5b6116198783880161154c565b9350604086013591508082111561162f57600080fd5b5061163c8682870161154c565b9150509250925092565b80151581146101c357600080fd5b6000806040838503121561166757600080fd5b82359150602083013561167981611646565b809150509250929050565b60006020828403121561169657600080fd5b5051919050565b600181811c908216806116b157607f821691505b6020821081036116d157634e487b7160e01b600052602260045260246000fd5b50919050565b600081516116e9818560208601611461565b9290920192915050565b7002230ba309030b9b9b2b93a32b21030ba1607d1b81526000875161171f816011850160208c01611461565b710103bb4ba34103232b9b1b934b83a34b7b7160751b6011918401918201528751611751816023840160208c01611461565b6e040ccdee440c8c2e8c292c8744060f608b1b602392909101918201528651611781816032840160208b01611461565b70040c2dcc840c2e6e6cae4e8cae4744060f607b1b6032929091019182015285516117b3816043840160208a01611461565b6e01030ba103a34b6b2b9ba30b6b81d1608d1b6043929091019182015284516117e3816052840160208901611461565b61184361182d6118276052848601017f20696e207468652044617461417373657274657220636f6e747261637420617481526204060f60eb1b602082015260230190565b876116d7565b691034b9903b30b634b21760b11b8152600a0190565b9a9950505050505050505050565b60006101208083526118658184018d611485565b6001600160a01b039b8c166020850152998b1660408401525050958816606087015267ffffffffffffffff9490941660808601529190951660a084015260c083019490945260e08201939093526101000191909152919050565b601f821115610e4357600081815260208120601f850160051c810160208610156118e65750805b601f850160051c820191505b81811015611905578281556001016118f2565b505050505050565b815167ffffffffffffffff81111561192757611927611536565b61193b81611935845461169d565b846118bf565b602080601f83116001811461197057600084156119585750858301515b600019600386901b1c1916600185901b178555611905565b600085815260208120601f198616915b8281101561199f57888601518255948401946001909101908401611980565b50858210156119bd5787850151600019600388901b60f8161c191681555b5050505050600190811b01905550565b6040815260006119e06040830185611485565b82810360208401526119f28185611485565b95945050505050565b600060208284031215611a0d57600080fd5b815161128981611646565b634e487b7160e01b600052601160045260246000fd5b600060018201611a4057611a40611a18565b5060010190565b634e487b7160e01b600052601260045260246000fd5b600082611a7a57634e487b7160e01b600052601260045260246000fd5b500490565b81810381811115611a9257611a92611a18565b92915050565b6000816000190483118215151615611ab257611ab2611a18565b500290565b60ff8181168382160190811115611a9257611a92611a18565b634e487b7160e01b600052603260045260246000fd5b60008251611af8818460208701611461565b9190910192915050565b602081526000611289602083018461148556fea264697066735822122052ead0a1319f36aa3a765a3c6aef447df122d7208d51128fc0f1ccda5445fba164736f6c6343000810003360806040523480156200001157600080fd5b5060405162001cb638038062001cb6833981016040819052620000349162000563565b8282600362000044838262000676565b50600462000053828262000676565b50506006805460ff191660ff8416179055506200007360008033620000a5565b6200009060015b60408051600080825260208201909252620001f5565b6200009c60026200007a565b50505062000796565b826000808281526005602052604090206001015460ff166002811115620000d057620000d062000742565b14620001235760405162461bcd60e51b815260206004820152601e60248201527f43616e6e6f74207573652061207072652d6578697374696e6720726f6c65000060448201526064015b60405180910390fd5b60008481526005602052604090206001808201805460ff1916828002179055508381556200016160028201846200033b602090811b62000a6617901c565b60008481526005602052604081206001015460ff1660028111156200018a576200018a62000742565b03620001ee5760405162461bcd60e51b815260206004820152603c602482015260008051602062001c9683398151915260448201527f20746f206d616e61676520616e206578636c757369766520726f6c650000000060648201526084016200011a565b5050505050565b826000808281526005602052604090206001015460ff16600281111562000220576200022062000742565b146200026f5760405162461bcd60e51b815260206004820152601e60248201527f43616e6e6f74207573652061207072652d6578697374696e6720726f6c65000060448201526064016200011a565b600084815260056020908152604090912060018101805460ff1916600217905584815590620002ae906003830190859062000a706200034b821b17901c565b60008481526005602052604081206001015460ff166002811115620002d757620002d762000742565b03620001ee5760405162461bcd60e51b8152602060048201526038602482015260008051602062001c9683398151915260448201527f20746f206d616e61676520612073686172656420726f6c65000000000000000060648201526084016200011a565b620003478282620003a0565b5050565b60005b81518110156200039b57620003868383838151811062000372576200037262000758565b60200260200101516200042160201b60201c565b8062000392816200076e565b9150506200034e565b505050565b6001600160a01b038116620004045760405162461bcd60e51b815260206004820152602360248201527f43616e6e6f742073657420616e206578636c757369766520726f6c6520746f2060448201526203078360ec1b60648201526084016200011a565b81546001600160a01b0319166001600160a01b0391909116179055565b6001600160a01b038116620004795760405162461bcd60e51b815260206004820152601f60248201527f43616e6e6f74206164642030783020746f20612073686172656420726f6c650060448201526064016200011a565b6001600160a01b0316600090815260209190915260409020805460ff19166001179055565b634e487b7160e01b600052604160045260246000fd5b600082601f830112620004c657600080fd5b81516001600160401b0380821115620004e357620004e36200049e565b604051601f8301601f19908116603f011681019082821181831017156200050e576200050e6200049e565b816040528381526020925086838588010111156200052b57600080fd5b600091505b838210156200054f578582018301518183018401529082019062000530565b600093810190920192909252949350505050565b6000806000606084860312156200057957600080fd5b83516001600160401b03808211156200059157600080fd5b6200059f87838801620004b4565b94506020860151915080821115620005b657600080fd5b50620005c586828701620004b4565b925050604084015160ff81168114620005dd57600080fd5b809150509250925092565b600181811c90821680620005fd57607f821691505b6020821081036200061e57634e487b7160e01b600052602260045260246000fd5b50919050565b601f8211156200039b57600081815260208120601f850160051c810160208610156200064d5750805b601f850160051c820191505b818110156200066e5782815560010162000659565b505050505050565b81516001600160401b038111156200069257620006926200049e565b620006aa81620006a38454620005e8565b8462000624565b602080601f831160018114620006e25760008415620006c95750858301515b600019600386901b1c1916600185901b1785556200066e565b600085815260208120601f198616915b828110156200071357888601518255948401946001909101908401620006f2565b5085821015620007325787850151600019600388901b60f8161c191681555b5050505050600190811b01905550565b634e487b7160e01b600052602160045260246000fd5b634e487b7160e01b600052603260045260246000fd5b6000600182016200078f57634e487b7160e01b600052601160045260246000fd5b5060010190565b6114f080620007a66000396000f3fe608060405234801561001057600080fd5b506004361061014d5760003560e01c806374d0a676116100c3578063a9059cbb1161007c578063a9059cbb146102be578063aaa14ca3146102d1578063ab3545e5146102e4578063d97c05be1461030f578063dd62ed3e14610322578063f44637ba1461035b57600080fd5b806374d0a6761461025757806379cc67901461026a5780637cdc1cb91461027d57806395d89b4114610290578063983b2d5614610298578063a457c2d7146102ab57600080fd5b8063395093511161011557806339509351146101cd57806340c10f19146101e057806342966c68146101f35780636be7658b1461020857806370a082311461021b57806373cc802a1461024457600080fd5b806306fdde0314610152578063095ea7b31461017057806318160ddd1461019357806323b872dd146101a5578063313ce567146101b8575b600080fd5b61015a61036e565b6040516101679190611183565b60405180910390f35b61018361017e3660046111ed565b610400565b6040519015158152602001610167565b6002545b604051908152602001610167565b6101836101b3366004611217565b61041a565b60065460405160ff9091168152602001610167565b6101836101db3660046111ed565b61043e565b6101836101ee3660046111ed565b61047d565b610206610201366004611253565b6104ba565b005b61020661021636600461126c565b6104f0565b610197610229366004611298565b6001600160a01b031660009081526020819052604090205490565b610206610252366004611298565b6105c6565b61020661026536600461126c565b6105d4565b6101836102783660046111ed565b6106aa565b61018361028b36600461126c565b6106de565b61015a6107a3565b6102066102a6366004611298565b6107b2565b6101836102b93660046111ed565b6107be565b6101836102cc3660046111ed565b610850565b6102066102df366004611253565b61085e565b6102f76102f2366004611253565b61091a565b6040516001600160a01b039091168152602001610167565b61020661031d36600461126c565b610986565b6101976103303660046112ba565b6001600160a01b03918216600090815260016020908152604080832093909416825291909152205490565b610206610369366004611298565b610a5c565b60606003805461037d906112e4565b80601f01602080910402602001604051908101604052809291908181526020018280546103a9906112e4565b80156103f65780601f106103cb576101008083540402835291602001916103f6565b820191906000526020600020905b8154815290600101906020018083116103d957829003601f168201915b5050505050905090565b60003361040e818585610ab6565b60019150505b92915050565b600033610428858285610bda565b610433858585610c6c565b506001949350505050565b3360008181526001602090815260408083206001600160a01b038716845290915281205490919061040e908290869061047890879061132e565b610ab6565b6000600161048b81336106de565b6104b05760405162461bcd60e51b81526004016104a790611357565b60405180910390fd5b61040e8484610e3a565b60026104c681336106de565b6104e25760405162461bcd60e51b81526004016104a790611357565b6104ec3383610f19565b5050565b81600260008281526005602052604090206001015460ff16600281111561051957610519611341565b146105365760405162461bcd60e51b81526004016104a790611399565b600083815260056020526040902054839061055190336106de565b61056d5760405162461bcd60e51b81526004016104a7906113e5565b60008481526005602052604090206105889060030184611067565b60405133906001600160a01b0385169086907feb3e33034c392e69263b04ec0fa376dc12784a41b6676c7f31b936cbc0fbb5af90600090a450505050565b6105d1600082610986565b50565b81600260008281526005602052604090206001015460ff1660028111156105fd576105fd611341565b1461061a5760405162461bcd60e51b81526004016104a790611399565b600083815260056020526040902054839061063590336106de565b6106515760405162461bcd60e51b81526004016104a7906113e5565b600084815260056020526040902061066c9060030184611089565b60405133906001600160a01b0385169086907f63502af7324ff6db91ab38f8236a648727d9385ea6c782073dd4882d8a61a48f90600090a450505050565b600060026106b881336106de565b6106d45760405162461bcd60e51b81526004016104a790611357565b61040e8484610f19565b600082815260056020526040812060018082015460ff16600281111561070657610706611341565b036107275760028101546001600160a01b038481169116145b915050610414565b6002600182015460ff16600281111561074257610742611341565b0361076a576001600160a01b038316600090815260038201602052604090205460ff1661071f565b60405162461bcd60e51b815260206004820152600e60248201526d125b9d985b1a59081c9bdb19525960921b60448201526064016104a7565b60606004805461037d906112e4565b6105d160015b826105d4565b3360008181526001602090815260408083206001600160a01b0387168452909152812054909190838110156108435760405162461bcd60e51b815260206004820152602560248201527f45524332303a2064656372656173656420616c6c6f77616e63652062656c6f77604482015264207a65726f60d81b60648201526084016104a7565b6104338286868403610ab6565b60003361040e818585610c6c565b80600260008281526005602052604090206001015460ff16600281111561088757610887611341565b146108a45760405162461bcd60e51b81526004016104a790611399565b816108af81336106de565b6108cb5760405162461bcd60e51b81526004016104a790611357565b60008381526005602052604090206108e69060030133611067565b6040513390819085907feb3e33034c392e69263b04ec0fa376dc12784a41b6676c7f31b936cbc0fbb5af90600090a4505050565b600081600160008281526005602052604090206001015460ff16600281111561094557610945611341565b146109625760405162461bcd60e51b81526004016104a790611429565b6000838152600560205260409020600201546001600160a01b031691505b50919050565b81600160008281526005602052604090206001015460ff1660028111156109af576109af611341565b146109cc5760405162461bcd60e51b81526004016104a790611429565b60008381526005602052604090205483906109e790336106de565b610a035760405162461bcd60e51b81526004016104a7906113e5565b6000848152600560205260409020610a1e9060020184611104565b60405133906001600160a01b0385169086907f3b855c56b409b671c7112789d022675eb639d0bcb8896f1b6197c132f799e74690600090a450505050565b6105d160026107b8565b6104ec8282611104565b60005b8151811015610ab157610a9f83838381518110610a9257610a92611478565b6020026020010151611089565b80610aa98161148e565b915050610a73565b505050565b6001600160a01b038316610b185760405162461bcd60e51b8152602060048201526024808201527f45524332303a20617070726f76652066726f6d20746865207a65726f206164646044820152637265737360e01b60648201526084016104a7565b6001600160a01b038216610b795760405162461bcd60e51b815260206004820152602260248201527f45524332303a20617070726f766520746f20746865207a65726f206164647265604482015261737360f01b60648201526084016104a7565b6001600160a01b0383811660008181526001602090815260408083209487168084529482529182902085905590518481527f8c5be1e5ebec7d5bd14f71427d1e84f3dd0314c0f7b2291e5b200ac8c7c3b925910160405180910390a3505050565b6001600160a01b038381166000908152600160209081526040808320938616835292905220546000198114610c665781811015610c595760405162461bcd60e51b815260206004820152601d60248201527f45524332303a20696e73756666696369656e7420616c6c6f77616e636500000060448201526064016104a7565b610c668484848403610ab6565b50505050565b6001600160a01b038316610cd05760405162461bcd60e51b815260206004820152602560248201527f45524332303a207472616e736665722066726f6d20746865207a65726f206164604482015264647265737360d81b60648201526084016104a7565b6001600160a01b038216610d325760405162461bcd60e51b815260206004820152602360248201527f45524332303a207472616e7366657220746f20746865207a65726f206164647260448201526265737360e81b60648201526084016104a7565b6001600160a01b03831660009081526020819052604090205481811015610daa5760405162461bcd60e51b815260206004820152602660248201527f45524332303a207472616e7366657220616d6f756e7420657863656564732062604482015265616c616e636560d01b60648201526084016104a7565b6001600160a01b03808516600090815260208190526040808220858503905591851681529081208054849290610de190849061132e565b92505081905550826001600160a01b0316846001600160a01b03167fddf252ad1be2c89b69c2b068fc378daa952ba7f163c4a11628f55a4df523b3ef84604051610e2d91815260200190565b60405180910390a3610c66565b6001600160a01b038216610e905760405162461bcd60e51b815260206004820152601f60248201527f45524332303a206d696e7420746f20746865207a65726f20616464726573730060448201526064016104a7565b8060026000828254610ea2919061132e565b90915550506001600160a01b03821660009081526020819052604081208054839290610ecf90849061132e565b90915550506040518181526001600160a01b038316906000907fddf252ad1be2c89b69c2b068fc378daa952ba7f163c4a11628f55a4df523b3ef9060200160405180910390a35050565b6001600160a01b038216610f795760405162461bcd60e51b815260206004820152602160248201527f45524332303a206275726e2066726f6d20746865207a65726f206164647265736044820152607360f81b60648201526084016104a7565b6001600160a01b03821660009081526020819052604090205481811015610fed5760405162461bcd60e51b815260206004820152602260248201527f45524332303a206275726e20616d6f756e7420657863656564732062616c616e604482015261636560f01b60648201526084016104a7565b6001600160a01b038316600090815260208190526040812083830390556002805484929061101c9084906114a7565b90915550506040518281526000906001600160a01b038516907fddf252ad1be2c89b69c2b068fc378daa952ba7f163c4a11628f55a4df523b3ef9060200160405180910390a3505050565b6001600160a01b0316600090815260209190915260409020805460ff19169055565b6001600160a01b0381166110df5760405162461bcd60e51b815260206004820152601f60248201527f43616e6e6f74206164642030783020746f20612073686172656420726f6c650060448201526064016104a7565b6001600160a01b0316600090815260209190915260409020805460ff19166001179055565b6001600160a01b0381166111665760405162461bcd60e51b815260206004820152602360248201527f43616e6e6f742073657420616e206578636c757369766520726f6c6520746f2060448201526203078360ec1b60648201526084016104a7565b81546001600160a01b0319166001600160a01b0391909116179055565b600060208083528351808285015260005b818110156111b057858101830151858201604001528201611194565b506000604082860101526040601f19601f8301168501019250505092915050565b80356001600160a01b03811681146111e857600080fd5b919050565b6000806040838503121561120057600080fd5b611209836111d1565b946020939093013593505050565b60008060006060848603121561122c57600080fd5b611235846111d1565b9250611243602085016111d1565b9150604084013590509250925092565b60006020828403121561126557600080fd5b5035919050565b6000806040838503121561127f57600080fd5b8235915061128f602084016111d1565b90509250929050565b6000602082840312156112aa57600080fd5b6112b3826111d1565b9392505050565b600080604083850312156112cd57600080fd5b6112d6836111d1565b915061128f602084016111d1565b600181811c908216806112f857607f821691505b60208210810361098057634e487b7160e01b600052602260045260246000fd5b634e487b7160e01b600052601160045260246000fd5b8082018082111561041457610414611318565b634e487b7160e01b600052602160045260246000fd5b60208082526022908201527f53656e64657220646f6573206e6f7420686f6c6420726571756972656420726f6040820152616c6560f01b606082015260800190565b6020808252602c908201527f4d7573742062652063616c6c6564206f6e20616e20696e697469616c697a656460408201526b2053686172656420726f6c6560a01b606082015260800190565b60208082526024908201527f43616e206f6e6c792062652063616c6c6564206279206120726f6c65206d616e60408201526330b3b2b960e11b606082015260800190565b6020808252602f908201527f4d7573742062652063616c6c6564206f6e20616e20696e697469616c697a656460408201526e204578636c757369766520726f6c6560881b606082015260800190565b634e487b7160e01b600052603260045260246000fd5b6000600182016114a0576114a0611318565b5060010190565b818103818111156104145761041461131856fea26469706673582212208961104dd3923b79c08fd49fd308093d4ed7792f1229905fa0e9f300d355f10d64736f6c63430008100033417474656d7074656420746f2075736520616e20696e76616c696420726f6c65a26469706673582212209ed959ab7c307867c38697ffefbcb73a28d3986a8e6cce2984d2b25a9a36283564736f6c63430008100033",
    "linkReferences": {}
  },
  "methodIdentifiers": {
    "accountBalance()": "b0a1c1c4",
    "assertedMarkets(bytes32)": "d4107645",
    "assertionDisputedCallback(bytes32)": "d448a4ec",
    "assertionLiveness()": "b75d4e24",
    "assertionResolvedCallback(bytes32,bool)": "f1b156b2",
    "carbonCreditBalance(bytes32)": "82f7b9ac",
    "changeMarketState(bytes32,uint64)": "481e9c6b",
    "convertibleCarbonCreditBalance(bytes32)": "bac6d3c1",
    "currency()": "e5a6b10f",
    "data_oo()": "af2b57ce",
    "declareFalsePromise(bytes32)": "1122cca3",
    "defaultIdentifier()": "d509b017",
    "finder()": "b9a3c84c",
    "getMarket(bytes32)": "c3c95c7b",
    "initializeDataPool(bytes32,address)": "d79318d4",
    "initializeMarket(uint256,uint256,uint256,string,uint256,uint256)": "ad7be668",
    "markets(bytes32)": "7564912b",
    "mintCredit(bytes32,uint256)": "a7f0de81",
    "oo()": "8921a614",
    "registerValidator(bytes32)": "607049d8",
    "settleMarket(bytes32)": "e039c00e",
    "settleValidatorToken(bytes32,address)": "8b573524",
    "submitAndAssertData(bytes32,bytes32,string,string,address)": "aea59c74",
    "validatorFee()": "3f6d8256"
  },
  "id": 0
}