{
    "_format": "hh-sol-artifact-1",
    "contractName": "PredictionMarket",
    "sourceName": "contracts/PredictionMarket.sol",
    "abi": [
        {
            "inputs": [
                {
                    "internalType": "address",
                    "name": "_finder",
                    "type": "address"
                },
                {
                    "internalType": "address",
                    "name": "_currency",
                    "type": "address"
                },
                {
                    "internalType": "address",
                    "name": "_optimisticOracleV3",
                    "type": "address"
                }
            ],
            "stateMutability": "nonpayable",
            "type": "constructor"
        },
        {
            "anonymous": false,
            "inputs": [
                {
                    "indexed": true,
                    "internalType": "bytes32",
                    "name": "marketId",
                    "type": "bytes32"
                },
                {
                    "indexed": false,
                    "internalType": "string",
                    "name": "assertedOutcome",
                    "type": "string"
                },
                {
                    "indexed": true,
                    "internalType": "bytes32",
                    "name": "assertionId",
                    "type": "bytes32"
                }
            ],
            "name": "MarketAsserted",
            "type": "event"
        },
        {
            "anonymous": false,
            "inputs": [
                {
                    "indexed": true,
                    "internalType": "bytes32",
                    "name": "marketId",
                    "type": "bytes32"
                },
                {
                    "indexed": false,
                    "internalType": "string",
                    "name": "outcome1",
                    "type": "string"
                },
                {
                    "indexed": false,
                    "internalType": "string",
                    "name": "outcome2",
                    "type": "string"
                },
                {
                    "indexed": false,
                    "internalType": "string",
                    "name": "description",
                    "type": "string"
                },
                {
                    "indexed": false,
                    "internalType": "address",
                    "name": "outcome1Token",
                    "type": "address"
                },
                {
                    "indexed": false,
                    "internalType": "address",
                    "name": "outcome2Token",
                    "type": "address"
                },
                {
                    "indexed": false,
                    "internalType": "uint256",
                    "name": "reward",
                    "type": "uint256"
                },
                {
                    "indexed": false,
                    "internalType": "uint256",
                    "name": "requiredBond",
                    "type": "uint256"
                }
            ],
            "name": "MarketInitialized",
            "type": "event"
        },
        {
            "anonymous": false,
            "inputs": [
                {
                    "indexed": true,
                    "internalType": "bytes32",
                    "name": "marketId",
                    "type": "bytes32"
                }
            ],
            "name": "MarketResolved",
            "type": "event"
        },
        {
            "anonymous": false,
            "inputs": [
                {
                    "indexed": true,
                    "internalType": "bytes32",
                    "name": "marketId",
                    "type": "bytes32"
                },
                {
                    "indexed": true,
                    "internalType": "address",
                    "name": "account",
                    "type": "address"
                },
                {
                    "indexed": false,
                    "internalType": "uint256",
                    "name": "tokensCreated",
                    "type": "uint256"
                }
            ],
            "name": "TokensCreated",
            "type": "event"
        },
        {
            "anonymous": false,
            "inputs": [
                {
                    "indexed": true,
                    "internalType": "bytes32",
                    "name": "marketId",
                    "type": "bytes32"
                },
                {
                    "indexed": true,
                    "internalType": "address",
                    "name": "account",
                    "type": "address"
                },
                {
                    "indexed": false,
                    "internalType": "uint256",
                    "name": "tokensRedeemed",
                    "type": "uint256"
                }
            ],
            "name": "TokensRedeemed",
            "type": "event"
        },
        {
            "anonymous": false,
            "inputs": [
                {
                    "indexed": true,
                    "internalType": "bytes32",
                    "name": "marketId",
                    "type": "bytes32"
                },
                {
                    "indexed": true,
                    "internalType": "address",
                    "name": "account",
                    "type": "address"
                },
                {
                    "indexed": false,
                    "internalType": "uint256",
                    "name": "payout",
                    "type": "uint256"
                },
                {
                    "indexed": false,
                    "internalType": "uint256",
                    "name": "outcome1Tokens",
                    "type": "uint256"
                },
                {
                    "indexed": false,
                    "internalType": "uint256",
                    "name": "outcome2Tokens",
                    "type": "uint256"
                }
            ],
            "name": "TokensSettled",
            "type": "event"
        },
        {
            "inputs": [
                {
                    "internalType": "bytes32",
                    "name": "marketId",
                    "type": "bytes32"
                },
                {
                    "internalType": "string",
                    "name": "assertedOutcome",
                    "type": "string"
                }
            ],
            "name": "assertMarket",
            "outputs": [
                {
                    "internalType": "bytes32",
                    "name": "assertionId",
                    "type": "bytes32"
                }
            ],
            "stateMutability": "nonpayable",
            "type": "function"
        },
        {
            "inputs": [
                {
                    "internalType": "bytes32",
                    "name": "",
                    "type": "bytes32"
                }
            ],
            "name": "assertedMarkets",
            "outputs": [
                {
                    "internalType": "address",
                    "name": "asserter",
                    "type": "address"
                },
                {
                    "internalType": "bytes32",
                    "name": "marketId",
                    "type": "bytes32"
                }
            ],
            "stateMutability": "view",
            "type": "function"
        },
        {
            "inputs": [
                {
                    "internalType": "bytes32",
                    "name": "assertionId",
                    "type": "bytes32"
                }
            ],
            "name": "assertionDisputedCallback",
            "outputs": [],
            "stateMutability": "nonpayable",
            "type": "function"
        },
        {
            "inputs": [],
            "name": "assertionLiveness",
            "outputs": [
                {
                    "internalType": "uint64",
                    "name": "",
                    "type": "uint64"
                }
            ],
            "stateMutability": "view",
            "type": "function"
        },
        {
            "inputs": [
                {
                    "internalType": "bytes32",
                    "name": "assertionId",
                    "type": "bytes32"
                },
                {
                    "internalType": "bool",
                    "name": "assertedTruthfully",
                    "type": "bool"
                }
            ],
            "name": "assertionResolvedCallback",
            "outputs": [],
            "stateMutability": "nonpayable",
            "type": "function"
        },
        {
            "inputs": [
                {
                    "internalType": "bytes32",
                    "name": "marketId",
                    "type": "bytes32"
                },
                {
                    "internalType": "uint256",
                    "name": "tokensToCreate",
                    "type": "uint256"
                }
            ],
            "name": "createOutcomeTokens",
            "outputs": [],
            "stateMutability": "nonpayable",
            "type": "function"
        },
        {
            "inputs": [],
            "name": "currency",
            "outputs": [
                {
                    "internalType": "contract IERC20",
                    "name": "",
                    "type": "address"
                }
            ],
            "stateMutability": "view",
            "type": "function"
        },
        {
            "inputs": [],
            "name": "defaultIdentifier",
            "outputs": [
                {
                    "internalType": "bytes32",
                    "name": "",
                    "type": "bytes32"
                }
            ],
            "stateMutability": "view",
            "type": "function"
        },
        {
            "inputs": [],
            "name": "finder",
            "outputs": [
                {
                    "internalType": "contract FinderInterface",
                    "name": "",
                    "type": "address"
                }
            ],
            "stateMutability": "view",
            "type": "function"
        },
        {
            "inputs": [
                {
                    "internalType": "bytes32",
                    "name": "marketId",
                    "type": "bytes32"
                }
            ],
            "name": "getMarket",
            "outputs": [
                {
                    "components": [
                        {
                            "internalType": "bool",
                            "name": "resolved",
                            "type": "bool"
                        },
                        {
                            "internalType": "bytes32",
                            "name": "assertedOutcomeId",
                            "type": "bytes32"
                        },
                        {
                            "internalType": "contract ExpandedIERC20",
                            "name": "outcome1Token",
                            "type": "address"
                        },
                        {
                            "internalType": "contract ExpandedIERC20",
                            "name": "outcome2Token",
                            "type": "address"
                        },
                        {
                            "internalType": "uint256",
                            "name": "reward",
                            "type": "uint256"
                        },
                        {
                            "internalType": "uint256",
                            "name": "requiredBond",
                            "type": "uint256"
                        },
                        {
                            "internalType": "bytes",
                            "name": "outcome1",
                            "type": "bytes"
                        },
                        {
                            "internalType": "bytes",
                            "name": "outcome2",
                            "type": "bytes"
                        },
                        {
                            "internalType": "bytes",
                            "name": "description",
                            "type": "bytes"
                        }
                    ],
                    "internalType": "struct PredictionMarket.Market",
                    "name": "",
                    "type": "tuple"
                }
            ],
            "stateMutability": "view",
            "type": "function"
        },
        {
            "inputs": [
                {
                    "internalType": "string",
                    "name": "outcome1",
                    "type": "string"
                },
                {
                    "internalType": "string",
                    "name": "outcome2",
                    "type": "string"
                },
                {
                    "internalType": "string",
                    "name": "description",
                    "type": "string"
                },
                {
                    "internalType": "uint256",
                    "name": "reward",
                    "type": "uint256"
                },
                {
                    "internalType": "uint256",
                    "name": "requiredBond",
                    "type": "uint256"
                }
            ],
            "name": "initializeMarket",
            "outputs": [
                {
                    "internalType": "bytes32",
                    "name": "marketId",
                    "type": "bytes32"
                }
            ],
            "stateMutability": "nonpayable",
            "type": "function"
        },
        {
            "inputs": [
                {
                    "internalType": "bytes32",
                    "name": "",
                    "type": "bytes32"
                }
            ],
            "name": "markets",
            "outputs": [
                {
                    "internalType": "bool",
                    "name": "resolved",
                    "type": "bool"
                },
                {
                    "internalType": "bytes32",
                    "name": "assertedOutcomeId",
                    "type": "bytes32"
                },
                {
                    "internalType": "contract ExpandedIERC20",
                    "name": "outcome1Token",
                    "type": "address"
                },
                {
                    "internalType": "contract ExpandedIERC20",
                    "name": "outcome2Token",
                    "type": "address"
                },
                {
                    "internalType": "uint256",
                    "name": "reward",
                    "type": "uint256"
                },
                {
                    "internalType": "uint256",
                    "name": "requiredBond",
                    "type": "uint256"
                },
                {
                    "internalType": "bytes",
                    "name": "outcome1",
                    "type": "bytes"
                },
                {
                    "internalType": "bytes",
                    "name": "outcome2",
                    "type": "bytes"
                },
                {
                    "internalType": "bytes",
                    "name": "description",
                    "type": "bytes"
                }
            ],
            "stateMutability": "view",
            "type": "function"
        },
        {
            "inputs": [],
            "name": "oo",
            "outputs": [
                {
                    "internalType": "contract OptimisticOracleV3Interface",
                    "name": "",
                    "type": "address"
                }
            ],
            "stateMutability": "view",
            "type": "function"
        },
        {
            "inputs": [
                {
                    "internalType": "bytes32",
                    "name": "marketId",
                    "type": "bytes32"
                },
                {
                    "internalType": "uint256",
                    "name": "tokensToRedeem",
                    "type": "uint256"
                }
            ],
            "name": "redeemOutcomeTokens",
            "outputs": [],
            "stateMutability": "nonpayable",
            "type": "function"
        },
        {
            "inputs": [
                {
                    "internalType": "bytes32",
                    "name": "marketId",
                    "type": "bytes32"
                }
            ],
            "name": "settleOutcomeTokens",
            "outputs": [
                {
                    "internalType": "uint256",
                    "name": "payout",
                    "type": "uint256"
                }
            ],
            "stateMutability": "nonpayable",
            "type": "function"
        },
        {
            "inputs": [],
            "name": "unresolvable",
            "outputs": [
                {
                    "internalType": "bytes",
                    "name": "",
                    "type": "bytes"
                }
            ],
            "stateMutability": "view",
            "type": "function"
        }
    ],
    "bytecode": "0x6101006040523480156200001257600080fd5b50604051620089c8380380620089c883398181016040528101906200003891906200033a565b8273ffffffffffffffffffffffffffffffffffffffff1660808173ffffffffffffffffffffffffffffffffffffffff16815250506200007c6200022860201b60201c565b73ffffffffffffffffffffffffffffffffffffffff16633a3ab672836040518263ffffffff1660e01b8152600401620000b69190620003a7565b602060405180830381865afa158015620000d4573d6000803e3d6000fd5b505050506040513d601f19601f82011682018060405250810190620000fa919062000401565b6200013c576040517f08c379a0000000000000000000000000000000000000000000000000000000008152600401620001339062000494565b60405180910390fd5b8173ffffffffffffffffffffffffffffffffffffffff1660a08173ffffffffffffffffffffffffffffffffffffffff16815250508073ffffffffffffffffffffffffffffffffffffffff1660c08173ffffffffffffffffffffffffffffffffffffffff168152505060c05173ffffffffffffffffffffffffffffffffffffffff1663d509b0176040518163ffffffff1660e01b8152600401602060405180830381865afa158015620001f2573d6000803e3d6000fd5b505050506040513d601f19601f82011682018060405250810190620002189190620004f1565b60e0818152505050505062000583565b600060805173ffffffffffffffffffffffffffffffffffffffff1663aafd5e407f436f6c6c61746572616c57686974656c697374000000000000000000000000006040518263ffffffff1660e01b815260040162000287919062000534565b602060405180830381865afa158015620002a5573d6000803e3d6000fd5b505050506040513d601f19601f82011682018060405250810190620002cb919062000551565b905090565b600080fd5b600073ffffffffffffffffffffffffffffffffffffffff82169050919050565b60006200030282620002d5565b9050919050565b6200031481620002f5565b81146200032057600080fd5b50565b600081519050620003348162000309565b92915050565b600080600060608486031215620003565762000355620002d0565b5b6000620003668682870162000323565b9350506020620003798682870162000323565b92505060406200038c8682870162000323565b9150509250925092565b620003a181620002f5565b82525050565b6000602082019050620003be600083018462000396565b92915050565b60008115159050919050565b620003db81620003c4565b8114620003e757600080fd5b50565b600081519050620003fb81620003d0565b92915050565b6000602082840312156200041a5762000419620002d0565b5b60006200042a84828501620003ea565b91505092915050565b600082825260208201905092915050565b7f556e737570706f727465642063757272656e6379000000000000000000000000600082015250565b60006200047c60148362000433565b9150620004898262000444565b602082019050919050565b60006020820190508181036000830152620004af816200046d565b9050919050565b6000819050919050565b620004cb81620004b6565b8114620004d757600080fd5b50565b600081519050620004eb81620004c0565b92915050565b6000602082840312156200050a5762000509620002d0565b5b60006200051a84828501620004da565b91505092915050565b6200052e81620004b6565b82525050565b60006020820190506200054b600083018462000523565b92915050565b6000602082840312156200056a5762000569620002d0565b5b60006200057a8482850162000323565b91505092915050565b60805160a05160c05160e0516183a96200061f60003960008181611ee501526123cf0152600081816105cc015281816107a1015281816111fd01528181611f2d015261236901526000818161060801528181610755015281816107c301528181610f18015281816114230152818161157301528181611aee01528181611f090152818161205c01526123ad01526000611b9801526183a96000f3fe60806040523480156200001157600080fd5b5060043610620001185760003560e01c8063b75d4e2411620000a5578063d448a4ec116200006f578063d448a4ec1462000332578063d509b0171462000352578063e5a6b10f1462000374578063f1b156b214620003965762000118565b8063b75d4e241462000281578063b9a3c84c14620002a3578063c3c95c7b14620002c5578063d410764514620002fb5762000118565b80638921a61411620000e75780638921a61414620001e95780639d2edf46146200020b5780639d5bacfd146200022b578063acd98e29146200024b5762000118565b80630880c65a146200011d578063565429a8146200013f5780635cb1cc0b14620001755780637564912b14620001ab575b600080fd5b62000127620003b6565b60405162000136919062002a54565b60405180910390f35b6200015d600480360381019062000157919062002c18565b620003ef565b6040516200016c919062002c8f565b60405180910390f35b6200019360048036038101906200018d919062002ce7565b620008ee565b604051620001a2919062002c8f565b60405180910390f35b620001c96004803603810190620001c3919062002dcc565b62000fb0565b604051620001e09998979695949392919062002eb7565b60405180910390f35b620001f3620011fb565b60405162000202919062002f90565b60405180910390f35b62000229600480360381019062000223919062002fad565b6200121f565b005b62000249600480360381019062000243919062002fad565b620014be565b005b62000269600480360381019062000263919062002dcc565b6200175f565b60405162000278919062002ff4565b60405180910390f35b6200028b62001b90565b6040516200029a919062003036565b60405180910390f35b620002ad62001b96565b604051620002bc919062003078565b60405180910390f35b620002e36004803603810190620002dd919062002dcc565b62001bba565b604051620002f2919062003210565b60405180910390f35b62000319600480360381019062000313919062002dcc565b62001e9c565b6040516200032992919062003259565b60405180910390f35b6200035060048036038101906200034a919062002dcc565b62001ee0565b005b6200035c62001ee3565b6040516200036b919062002c8f565b60405180910390f35b6200037e62001f07565b6040516200038d9190620032ab565b60405180910390f35b620003b46004803603810190620003ae9190620032f9565b62001f2b565b005b6040518060400160405280600c81526020017f556e7265736f6c7661626c65000000000000000000000000000000000000000081525081565b6000806000808581526020019081526020016000209050600073ffffffffffffffffffffffffffffffffffffffff168160020160009054906101000a900473ffffffffffffffffffffffffffffffffffffffff1673ffffffffffffffffffffffffffffffffffffffff16036200049c576040517f08c379a00000000000000000000000000000000000000000000000000000000081526004016200049390620033a1565b60405180910390fd5b6000838051906020012090506000801b826001015414620004f4576040517f08c379a0000000000000000000000000000000000000000000000000000000008152600401620004eb9062003413565b60405180910390fd5b8160060160405162000507919062003548565b6040518091039020811480620005365750816007016040516200052b919062003548565b604051809103902081145b806200057d57506040518060400160405280600c81526020017f556e7265736f6c7661626c6500000000000000000000000000000000000000008152508051906020012081145b620005bf576040517f08c379a0000000000000000000000000000000000000000000000000000000008152600401620005b690620035b1565b60405180910390fd5b80826001018190555060007f000000000000000000000000000000000000000000000000000000000000000073ffffffffffffffffffffffffffffffffffffffff16634360af3d7f00000000000000000000000000000000000000000000000000000000000000006040518263ffffffff1660e01b8152600401620006459190620035d3565b602060405180830381865afa15801562000663573d6000803e3d6000fd5b505050506040513d601f19601f8201168201806040525081019062000689919062003607565b9050600081846005015411620006a05781620006a6565b83600501545b905060006200074a87866008018054620006c09062003464565b80601f0160208091040260200160405190810160405280929190818152602001828054620006ee9062003464565b80156200073f5780601f1062000713576101008083540402835291602001916200073f565b820191906000526020600020905b8154815290600101906020018083116200072157829003601f168201915b505050505062002142565b90506200079b3330847f000000000000000000000000000000000000000000000000000000000000000073ffffffffffffffffffffffffffffffffffffffff166200217c909392919063ffffffff16565b620008087f0000000000000000000000000000000000000000000000000000000000000000837f000000000000000000000000000000000000000000000000000000000000000073ffffffffffffffffffffffffffffffffffffffff16620022099092919063ffffffff16565b62000814818362002365565b955060405180604001604052803373ffffffffffffffffffffffffffffffffffffffff168152602001898152506001600088815260200190815260200160002060008201518160000160006101000a81548173ffffffffffffffffffffffffffffffffffffffff021916908373ffffffffffffffffffffffffffffffffffffffff1602179055506020820151816001015590505085887fc55c01025649b2056980da18d75125fed301d8a2f7cf93d2151fab07bfe2a49289604051620008db919062003685565b60405180910390a3505050505092915050565b60008086511162000936576040517f08c379a00000000000000000000000000000000000000000000000000000000081526004016200092d90620036f9565b60405180910390fd5b60008551116200097d576040517f08c379a000000000000000000000000000000000000000000000000000000000815260040162000974906200376b565b60405180910390fd5b8480519060200120868051906020012003620009d0576040517f08c379a0000000000000000000000000000000000000000000000000000000008152600401620009c790620037dd565b60405180910390fd5b600084511162000a17576040517f08c379a000000000000000000000000000000000000000000000000000000000815260040162000a0e906200384f565b60405180910390fd5b438460405160200162000a2c92919062003871565b604051602081830303815290604052805190602001209050600073ffffffffffffffffffffffffffffffffffffffff1660008083815260200190815260200160002060020160009054906101000a900473ffffffffffffffffffffffffffffffffffffffff1673ffffffffffffffffffffffffffffffffffffffff161462000aeb576040517f08c379a000000000000000000000000000000000000000000000000000000000815260040162000ae290620038f5565b60405180910390fd5b60008660405160200162000b009190620039a9565b604051602081830303815290604052601260405162000b1f906200292f565b62000b2c92919062003a6f565b604051809103906000f08015801562000b49573d6000803e3d6000fd5b50905060008660405160200162000b619190620039a9565b604051602081830303815290604052601260405162000b80906200292f565b62000b8d92919062003b08565b604051809103906000f08015801562000baa573d6000803e3d6000fd5b5090508173ffffffffffffffffffffffffffffffffffffffff1663983b2d56306040518263ffffffff1660e01b815260040162000be89190620035d3565b600060405180830381600087803b15801562000c0357600080fd5b505af115801562000c18573d6000803e3d6000fd5b505050508073ffffffffffffffffffffffffffffffffffffffff1663983b2d56306040518263ffffffff1660e01b815260040162000c579190620035d3565b600060405180830381600087803b15801562000c7257600080fd5b505af115801562000c87573d6000803e3d6000fd5b505050508173ffffffffffffffffffffffffffffffffffffffff1663f44637ba306040518263ffffffff1660e01b815260040162000cc69190620035d3565b600060405180830381600087803b15801562000ce157600080fd5b505af115801562000cf6573d6000803e3d6000fd5b505050508073ffffffffffffffffffffffffffffffffffffffff1663f44637ba306040518263ffffffff1660e01b815260040162000d359190620035d3565b600060405180830381600087803b15801562000d5057600080fd5b505af115801562000d65573d6000803e3d6000fd5b505050506040518061012001604052806000151581526020016000801b81526020018373ffffffffffffffffffffffffffffffffffffffff1681526020018273ffffffffffffffffffffffffffffffffffffffff1681526020018681526020018581526020018981526020018881526020018781525060008085815260200190815260200160002060008201518160000160006101000a81548160ff0219169083151502179055506020820151816001015560408201518160020160006101000a81548173ffffffffffffffffffffffffffffffffffffffff021916908373ffffffffffffffffffffffffffffffffffffffff16021790555060608201518160030160006101000a81548173ffffffffffffffffffffffffffffffffffffffff021916908373ffffffffffffffffffffffffffffffffffffffff1602179055506080820151816004015560a0820151816005015560c082015181600601908162000ed0919062003d04565b5060e082015181600701908162000ee8919062003d04565b5061010082015181600801908162000f01919062003d04565b50905050600085111562000f5f5762000f5e3330877f000000000000000000000000000000000000000000000000000000000000000073ffffffffffffffffffffffffffffffffffffffff166200217c909392919063ffffffff16565b5b827f7669fe199a3ccd4081193361fbf7ef7b3e82937c8b39c4ec55af2235be28307189898986868b8b60405162000f9d979695949392919062003deb565b60405180910390a2505095945050505050565b60006020528060005260406000206000915090508060000160009054906101000a900460ff16908060010154908060020160009054906101000a900473ffffffffffffffffffffffffffffffffffffffff16908060030160009054906101000a900473ffffffffffffffffffffffffffffffffffffffff1690806004015490806005015490806006018054620010469062003464565b80601f0160208091040260200160405190810160405280929190818152602001828054620010749062003464565b8015620010c55780601f106200109957610100808354040283529160200191620010c5565b820191906000526020600020905b815481529060010190602001808311620010a757829003601f168201915b505050505090806007018054620010dc9062003464565b80601f01602080910402602001604051908101604052809291908181526020018280546200110a9062003464565b80156200115b5780601f106200112f576101008083540402835291602001916200115b565b820191906000526020600020905b8154815290600101906020018083116200113d57829003601f168201915b505050505090806008018054620011729062003464565b80601f0160208091040260200160405190810160405280929190818152602001828054620011a09062003464565b8015620011f15780601f10620011c557610100808354040283529160200191620011f1565b820191906000526020600020905b815481529060010190602001808311620011d357829003601f168201915b5050505050905089565b7f000000000000000000000000000000000000000000000000000000000000000081565b60008060008481526020019081526020016000209050600073ffffffffffffffffffffffffffffffffffffffff168160020160009054906101000a900473ffffffffffffffffffffffffffffffffffffffff1673ffffffffffffffffffffffffffffffffffffffff1603620012cb576040517f08c379a0000000000000000000000000000000000000000000000000000000008152600401620012c290620033a1565b60405180910390fd5b8060020160009054906101000a900473ffffffffffffffffffffffffffffffffffffffff1673ffffffffffffffffffffffffffffffffffffffff166379cc679033846040518363ffffffff1660e01b81526004016200132c92919062003e7d565b6020604051808303816000875af11580156200134c573d6000803e3d6000fd5b505050506040513d601f19601f8201168201806040525081019062001372919062003ec1565b508060030160009054906101000a900473ffffffffffffffffffffffffffffffffffffffff1673ffffffffffffffffffffffffffffffffffffffff166379cc679033846040518363ffffffff1660e01b8152600401620013d492919062003e7d565b6020604051808303816000875af1158015620013f4573d6000803e3d6000fd5b505050506040513d601f19601f820116820180604052508101906200141a919062003ec1565b506200146833837f000000000000000000000000000000000000000000000000000000000000000073ffffffffffffffffffffffffffffffffffffffff16620024669092919063ffffffff16565b3373ffffffffffffffffffffffffffffffffffffffff16837f48bc562be531fa6322b3cb3a9333ca19d2e3c63c1793fcb5ce885d02d6e0226e84604051620014b1919062002ff4565b60405180910390a3505050565b60008060008481526020019081526020016000209050600073ffffffffffffffffffffffffffffffffffffffff168160020160009054906101000a900473ffffffffffffffffffffffffffffffffffffffff1673ffffffffffffffffffffffffffffffffffffffff16036200156a576040517f08c379a00000000000000000000000000000000000000000000000000000000081526004016200156190620033a1565b60405180910390fd5b620015b93330847f000000000000000000000000000000000000000000000000000000000000000073ffffffffffffffffffffffffffffffffffffffff166200217c909392919063ffffffff16565b8060020160009054906101000a900473ffffffffffffffffffffffffffffffffffffffff1673ffffffffffffffffffffffffffffffffffffffff166340c10f1933846040518363ffffffff1660e01b81526004016200161a92919062003e7d565b6020604051808303816000875af11580156200163a573d6000803e3d6000fd5b505050506040513d601f19601f8201168201806040525081019062001660919062003ec1565b508060030160009054906101000a900473ffffffffffffffffffffffffffffffffffffffff1673ffffffffffffffffffffffffffffffffffffffff166340c10f1933846040518363ffffffff1660e01b8152600401620016c292919062003e7d565b6020604051808303816000875af1158015620016e2573d6000803e3d6000fd5b505050506040513d601f19601f8201168201806040525081019062001708919062003ec1565b503373ffffffffffffffffffffffffffffffffffffffff16837fa1a00dd4222724941c9d085479758183928d765e55583d239c414b0f09c5da4b8460405162001752919062002ff4565b60405180910390a3505050565b60008060008084815260200190815260200160002090508060000160009054906101000a900460ff16620017ca576040517f08c379a0000000000000000000000000000000000000000000000000000000008152600401620017c19062003f43565b60405180910390fd5b60008160020160009054906101000a900473ffffffffffffffffffffffffffffffffffffffff1673ffffffffffffffffffffffffffffffffffffffff166370a08231336040518263ffffffff1660e01b81526004016200182b9190620035d3565b602060405180830381865afa15801562001849573d6000803e3d6000fd5b505050506040513d601f19601f820116820180604052508101906200186f919062003607565b905060008260030160009054906101000a900473ffffffffffffffffffffffffffffffffffffffff1673ffffffffffffffffffffffffffffffffffffffff166370a08231336040518263ffffffff1660e01b8152600401620018d29190620035d3565b602060405180830381865afa158015620018f0573d6000803e3d6000fd5b505050506040513d601f19601f8201168201806040525081019062001916919062003607565b9050826006016040516200192b919062003548565b6040518091039020836001015403620019475781935062001996565b826007016040516200195a919062003548565b6040518091039020836001015403620019765780935062001995565b6002818362001986919062003f94565b62001992919062003ffe565b93505b5b8260020160009054906101000a900473ffffffffffffffffffffffffffffffffffffffff1673ffffffffffffffffffffffffffffffffffffffff166379cc679033846040518363ffffffff1660e01b8152600401620019f792919062003e7d565b6020604051808303816000875af115801562001a17573d6000803e3d6000fd5b505050506040513d601f19601f8201168201806040525081019062001a3d919062003ec1565b508260030160009054906101000a900473ffffffffffffffffffffffffffffffffffffffff1673ffffffffffffffffffffffffffffffffffffffff166379cc679033836040518363ffffffff1660e01b815260040162001a9f92919062003e7d565b6020604051808303816000875af115801562001abf573d6000803e3d6000fd5b505050506040513d601f19601f8201168201806040525081019062001ae5919062003ec1565b5062001b3333857f000000000000000000000000000000000000000000000000000000000000000073ffffffffffffffffffffffffffffffffffffffff16620024669092919063ffffffff16565b3373ffffffffffffffffffffffffffffffffffffffff16857f25ffdbe909949aba86fccc6c8a3f5d94d7ab78bc67a3cc1327908845235874eb86858560405162001b809392919062004036565b60405180910390a3505050919050565b611c2081565b7f000000000000000000000000000000000000000000000000000000000000000081565b62001bc46200293d565b600080838152602001908152602001600020604051806101200160405290816000820160009054906101000a900460ff16151515158152602001600182015481526020016002820160009054906101000a900473ffffffffffffffffffffffffffffffffffffffff1673ffffffffffffffffffffffffffffffffffffffff1673ffffffffffffffffffffffffffffffffffffffff1681526020016003820160009054906101000a900473ffffffffffffffffffffffffffffffffffffffff1673ffffffffffffffffffffffffffffffffffffffff1673ffffffffffffffffffffffffffffffffffffffff168152602001600482015481526020016005820154815260200160068201805462001cd99062003464565b80601f016020809104026020016040519081016040528092919081815260200182805462001d079062003464565b801562001d585780601f1062001d2c5761010080835404028352916020019162001d58565b820191906000526020600020905b81548152906001019060200180831162001d3a57829003601f168201915b5050505050815260200160078201805462001d739062003464565b80601f016020809104026020016040519081016040528092919081815260200182805462001da19062003464565b801562001df25780601f1062001dc65761010080835404028352916020019162001df2565b820191906000526020600020905b81548152906001019060200180831162001dd457829003601f168201915b5050505050815260200160088201805462001e0d9062003464565b80601f016020809104026020016040519081016040528092919081815260200182805462001e3b9062003464565b801562001e8c5780601f1062001e605761010080835404028352916020019162001e8c565b820191906000526020600020905b81548152906001019060200180831162001e6e57829003601f168201915b5050505050815250509050919050565b60016020528060005260406000206000915090508060000160009054906101000a900473ffffffffffffffffffffffffffffffffffffffff16908060010154905082565b50565b7f000000000000000000000000000000000000000000000000000000000000000081565b7f000000000000000000000000000000000000000000000000000000000000000081565b7f000000000000000000000000000000000000000000000000000000000000000073ffffffffffffffffffffffffffffffffffffffff163373ffffffffffffffffffffffffffffffffffffffff161462001fbc576040517f08c379a000000000000000000000000000000000000000000000000000000000815260040162001fb390620040c3565b60405180910390fd5b60008060006001600086815260200190815260200160002060010154815260200190815260200160002090508115620020eb5760018160000160006101000a81548160ff021916908315150217905550600081600401541115620020a257620020a16001600085815260200190815260200160002060000160009054906101000a900473ffffffffffffffffffffffffffffffffffffffff1682600401547f000000000000000000000000000000000000000000000000000000000000000073ffffffffffffffffffffffffffffffffffffffff16620024669092919063ffffffff16565b5b60016000848152602001908152602001600020600101547fe9146184308c5e4b8f243047cc6f81dce88e004d7980502e123b02f887ab514460405160405180910390a2620020f8565b6000801b81600101819055505b60016000848152602001908152602001600020600080820160006101000a81549073ffffffffffffffffffffffffffffffffffffffff021916905560018201600090555050505050565b60606200214f42620024f0565b8383604051602001620021659392919062004232565b604051602081830303815290604052905092915050565b62002203846323b872dd60e01b858585604051602401620021a09392919062004290565b604051602081830303815290604052907bffffffffffffffffffffffffffffffffffffffffffffffffffffffff19166020820180517bffffffffffffffffffffffffffffffffffffffffffffffffffffffff838183161783525050505062002695565b50505050565b600081148062002299575060008373ffffffffffffffffffffffffffffffffffffffff1663dd62ed3e30856040518363ffffffff1660e01b815260040162002253929190620042cd565b602060405180830381865afa15801562002271573d6000803e3d6000fd5b505050506040513d601f19601f8201168201806040525081019062002297919062003607565b145b620022db576040517f08c379a0000000000000000000000000000000000000000000000000000000008152600401620022d29062004370565b60405180910390fd5b620023608363095ea7b360e01b8484604051602401620022fd92919062003e7d565b604051602081830303815290604052907bffffffffffffffffffffffffffffffffffffffffffffffffffffffff19166020820180517bffffffffffffffffffffffffffffffffffffffffffffffffffffffff838183161783525050505062002695565b505050565b60007f000000000000000000000000000000000000000000000000000000000000000073ffffffffffffffffffffffffffffffffffffffff16636457c9798433306000611c207f0000000000000000000000000000000000000000000000000000000000000000897f00000000000000000000000000000000000000000000000000000000000000006000801b6040518a63ffffffff1660e01b8152600401620024189998979695949392919062004392565b6020604051808303816000875af115801562002438573d6000803e3d6000fd5b505050506040513d601f19601f820116820180604052508101906200245e91906200444f565b905092915050565b620024eb8363a9059cbb60e01b84846040516024016200248892919062003e7d565b604051602081830303815290604052907bffffffffffffffffffffffffffffffffffffffffffffffffffffffff19166020820180517bffffffffffffffffffffffffffffffffffffffffffffffffffffffff838183161783525050505062002695565b505050565b60606000820362002539576040518060400160405280600181526020017f3000000000000000000000000000000000000000000000000000000000000000815250905062002690565b600082905060005b6000821462002571578080620025579062004481565b915050600a8262002569919062003ffe565b915062002541565b60008167ffffffffffffffff81111562002590576200258f62002ad1565b5b6040519080825280601f01601f191660200182016040528015620025c35781602001600182028036833780820191505090505b50905060008290505b600086146200268857600181620025e49190620044ce565b90506000600a8088620025f8919062003ffe565b62002604919062004509565b87620026119190620044ce565b60306200261f91906200456a565b905060008160f81b90508084848151811062002640576200263f620045a6565b5b60200101907effffffffffffffffffffffffffffffffffffffffffffffffffffffffffffff1916908160001a905350600a886200267e919062003ffe565b97505050620025cc565b819450505050505b919050565b6000620026f9826040518060400160405280602081526020017f5361666545524332303a206c6f772d6c6576656c2063616c6c206661696c65648152508573ffffffffffffffffffffffffffffffffffffffff16620027649092919063ffffffff16565b90506000815111156200275f57808060200190518101906200271c919062003ec1565b6200275e576040517f08c379a000000000000000000000000000000000000000000000000000000000815260040162002755906200464b565b60405180910390fd5b5b505050565b60606200277584846000856200277e565b90509392505050565b606082471015620027c6576040517f08c379a0000000000000000000000000000000000000000000000000000000008152600401620027bd90620046e3565b60405180910390fd5b620027d185620028a0565b62002813576040517f08c379a00000000000000000000000000000000000000000000000000000000081526004016200280a9062004755565b60405180910390fd5b6000808673ffffffffffffffffffffffffffffffffffffffff1685876040516200283e919062004777565b60006040518083038185875af1925050503d80600081146200287d576040519150601f19603f3d011682016040523d82523d6000602084013e62002882565b606091505b509150915062002894828286620028c3565b92505050949350505050565b6000808273ffffffffffffffffffffffffffffffffffffffff163b119050919050565b60608315620028d55782905062002928565b600083511115620028e95782518084602001fd5b816040517f08c379a00000000000000000000000000000000000000000000000000000000081526004016200291f919062003685565b60405180910390fd5b9392505050565b613be3806200479183390190565b60405180610120016040528060001515815260200160008019168152602001600073ffffffffffffffffffffffffffffffffffffffff168152602001600073ffffffffffffffffffffffffffffffffffffffff16815260200160008152602001600081526020016060815260200160608152602001606081525090565b600081519050919050565b600082825260208201905092915050565b60005b83811015620029f6578082015181840152602081019050620029d9565b60008484015250505050565b6000601f19601f8301169050919050565b600062002a2082620029ba565b62002a2c8185620029c5565b935062002a3e818560208601620029d6565b62002a498162002a02565b840191505092915050565b6000602082019050818103600083015262002a70818462002a13565b905092915050565b6000604051905090565b600080fd5b600080fd5b6000819050919050565b62002aa18162002a8c565b811462002aad57600080fd5b50565b60008135905062002ac18162002a96565b92915050565b600080fd5b600080fd5b7f4e487b7100000000000000000000000000000000000000000000000000000000600052604160045260246000fd5b62002b0b8262002a02565b810181811067ffffffffffffffff8211171562002b2d5762002b2c62002ad1565b5b80604052505050565b600062002b4262002a78565b905062002b50828262002b00565b919050565b600067ffffffffffffffff82111562002b735762002b7262002ad1565b5b62002b7e8262002a02565b9050602081019050919050565b82818337600083830152505050565b600062002bb162002bab8462002b55565b62002b36565b90508281526020810184848401111562002bd05762002bcf62002acc565b5b62002bdd84828562002b8b565b509392505050565b600082601f83011262002bfd5762002bfc62002ac7565b5b813562002c0f84826020860162002b9a565b91505092915050565b6000806040838503121562002c325762002c3162002a82565b5b600062002c428582860162002ab0565b925050602083013567ffffffffffffffff81111562002c665762002c6562002a87565b5b62002c748582860162002be5565b9150509250929050565b62002c898162002a8c565b82525050565b600060208201905062002ca6600083018462002c7e565b92915050565b6000819050919050565b62002cc18162002cac565b811462002ccd57600080fd5b50565b60008135905062002ce18162002cb6565b92915050565b600080600080600060a0868803121562002d065762002d0562002a82565b5b600086013567ffffffffffffffff81111562002d275762002d2662002a87565b5b62002d358882890162002be5565b955050602086013567ffffffffffffffff81111562002d595762002d5862002a87565b5b62002d678882890162002be5565b945050604086013567ffffffffffffffff81111562002d8b5762002d8a62002a87565b5b62002d998882890162002be5565b935050606062002dac8882890162002cd0565b925050608062002dbf8882890162002cd0565b9150509295509295909350565b60006020828403121562002de55762002de462002a82565b5b600062002df58482850162002ab0565b91505092915050565b60008115159050919050565b62002e158162002dfe565b82525050565b600073ffffffffffffffffffffffffffffffffffffffff82169050919050565b6000819050919050565b600062002e6662002e6062002e5a8462002e1b565b62002e3b565b62002e1b565b9050919050565b600062002e7a8262002e45565b9050919050565b600062002e8e8262002e6d565b9050919050565b62002ea08162002e81565b82525050565b62002eb18162002cac565b82525050565b60006101208201905062002ecf600083018c62002e0a565b62002ede602083018b62002c7e565b62002eed604083018a62002e95565b62002efc606083018962002e95565b62002f0b608083018862002ea6565b62002f1a60a083018762002ea6565b81810360c083015262002f2e818662002a13565b905081810360e083015262002f44818562002a13565b905081810361010083015262002f5b818462002a13565b90509a9950505050505050505050565b600062002f788262002e6d565b9050919050565b62002f8a8162002f6b565b82525050565b600060208201905062002fa7600083018462002f7f565b92915050565b6000806040838503121562002fc75762002fc662002a82565b5b600062002fd78582860162002ab0565b925050602062002fea8582860162002cd0565b9150509250929050565b60006020820190506200300b600083018462002ea6565b92915050565b600067ffffffffffffffff82169050919050565b620030308162003011565b82525050565b60006020820190506200304d600083018462003025565b92915050565b6000620030608262002e6d565b9050919050565b620030728162003053565b82525050565b60006020820190506200308f600083018462003067565b92915050565b620030a08162002dfe565b82525050565b620030b18162002a8c565b82525050565b620030c28162002e81565b82525050565b620030d38162002cac565b82525050565b600082825260208201905092915050565b6000620030f782620029ba565b620031038185620030d9565b935062003115818560208601620029d6565b620031208162002a02565b840191505092915050565b60006101208301600083015162003146600086018262003095565b5060208301516200315b6020860182620030a6565b506040830151620031706040860182620030b7565b506060830151620031856060860182620030b7565b5060808301516200319a6080860182620030c8565b5060a0830151620031af60a0860182620030c8565b5060c083015184820360c0860152620031c98282620030ea565b91505060e083015184820360e0860152620031e58282620030ea565b915050610100830151848203610100860152620032038282620030ea565b9150508091505092915050565b600060208201905081810360008301526200322c81846200312b565b905092915050565b6000620032418262002e1b565b9050919050565b620032538162003234565b82525050565b600060408201905062003270600083018562003248565b6200327f602083018462002c7e565b9392505050565b6000620032938262002e6d565b9050919050565b620032a58162003286565b82525050565b6000602082019050620032c260008301846200329a565b92915050565b620032d38162002dfe565b8114620032df57600080fd5b50565b600081359050620032f381620032c8565b92915050565b6000806040838503121562003313576200331262002a82565b5b6000620033238582860162002ab0565b92505060206200333685828601620032e2565b9150509250929050565b600082825260208201905092915050565b7f4d61726b657420646f6573206e6f742065786973740000000000000000000000600082015250565b60006200338960158362003340565b9150620033968262003351565b602082019050919050565b60006020820190508181036000830152620033bc816200337a565b9050919050565b7f417373657274696f6e20616374697665206f72207265736f6c76656400000000600082015250565b6000620033fb601c8362003340565b91506200340882620033c3565b602082019050919050565b600060208201905081810360008301526200342e81620033ec565b9050919050565b7f4e487b7100000000000000000000000000000000000000000000000000000000600052602260045260246000fd5b600060028204905060018216806200347d57607f821691505b60208210810362003493576200349262003435565b5b50919050565b600081905092915050565b60008190508160005260206000209050919050565b60008154620034c88162003464565b620034d4818662003499565b94506001821660008114620034f2576001811462003508576200353f565b60ff19831686528115158202860193506200353f565b6200351385620034a4565b60005b83811015620035375781548189015260018201915060208101905062003516565b838801955050505b50505092915050565b6000620035568284620034b9565b915081905092915050565b7f496e76616c6964206173736572746564206f7574636f6d650000000000000000600082015250565b60006200359960188362003340565b9150620035a68262003561565b602082019050919050565b60006020820190508181036000830152620035cc816200358a565b9050919050565b6000602082019050620035ea600083018462003248565b92915050565b600081519050620036018162002cb6565b92915050565b60006020828403121562003620576200361f62002a82565b5b60006200363084828501620035f0565b91505092915050565b600081519050919050565b6000620036518262003639565b6200365d818562003340565b93506200366f818560208601620029d6565b6200367a8162002a02565b840191505092915050565b60006020820190508181036000830152620036a1818462003644565b905092915050565b7f456d707479206669727374206f7574636f6d6500000000000000000000000000600082015250565b6000620036e160138362003340565b9150620036ee82620036a9565b602082019050919050565b600060208201905081810360008301526200371481620036d2565b9050919050565b7f456d707479207365636f6e64206f7574636f6d65000000000000000000000000600082015250565b60006200375360148362003340565b915062003760826200371b565b602082019050919050565b60006020820190508181036000830152620037868162003744565b9050919050565b7f4f7574636f6d657320617265207468652073616d650000000000000000000000600082015250565b6000620037c560158362003340565b9150620037d2826200378d565b602082019050919050565b60006020820190508181036000830152620037f881620037b6565b9050919050565b7f456d707479206465736372697074696f6e000000000000000000000000000000600082015250565b60006200383760118362003340565b91506200384482620037ff565b602082019050919050565b600060208201905081810360008301526200386a8162003828565b9050919050565b600060408201905062003888600083018562002ea6565b81810360208301526200389c818462003644565b90509392505050565b7f4d61726b657420616c7265616479206578697374730000000000000000000000600082015250565b6000620038dd60158362003340565b9150620038ea82620038a5565b602082019050919050565b600060208201905081810360008301526200391081620038ce565b9050919050565b600081905092915050565b60006200392f8262003639565b6200393b818562003917565b93506200394d818560208601620029d6565b80840191505092915050565b7f20546f6b656e0000000000000000000000000000000000000000000000000000600082015250565b60006200399160068362003917565b91506200399e8262003959565b600682019050919050565b6000620039b7828462003922565b9150620039c48262003982565b915081905092915050565b7f4f31540000000000000000000000000000000000000000000000000000000000600082015250565b600062003a0760038362003340565b915062003a1482620039cf565b602082019050919050565b6000819050919050565b600060ff82169050919050565b600062003a5762003a5162003a4b8462003a1f565b62002e3b565b62003a29565b9050919050565b62003a698162003a36565b82525050565b6000606082019050818103600083015262003a8b818562003644565b9050818103602083015262003aa081620039f8565b905062003ab1604083018462003a5e565b9392505050565b7f4f32540000000000000000000000000000000000000000000000000000000000600082015250565b600062003af060038362003340565b915062003afd8262003ab8565b602082019050919050565b6000606082019050818103600083015262003b24818562003644565b9050818103602083015262003b398162003ae1565b905062003b4a604083018462003a5e565b9392505050565b60006020601f8301049050919050565b600082821b905092915050565b60006008830262003ba07fffffffffffffffffffffffffffffffffffffffffffffffffffffffffffffffff8262003b61565b62003bac868362003b61565b95508019841693508086168417925050509392505050565b600062003be562003bdf62003bd98462002cac565b62002e3b565b62002cac565b9050919050565b6000819050919050565b62003c018362003bc4565b62003c1962003c108262003bec565b84845462003b6e565b825550505050565b600090565b62003c3062003c21565b62003c3d81848462003bf6565b505050565b5b8181101562003c655762003c5960008262003c26565b60018101905062003c43565b5050565b601f82111562003cb45762003c7e81620034a4565b62003c898462003b51565b8101602085101562003c99578190505b62003cb162003ca88562003b51565b83018262003c42565b50505b505050565b600082821c905092915050565b600062003cd96000198460080262003cb9565b1980831691505092915050565b600062003cf4838362003cc6565b9150826002028217905092915050565b62003d0f82620029ba565b67ffffffffffffffff81111562003d2b5762003d2a62002ad1565b5b62003d37825462003464565b62003d4482828562003c69565b600060209050601f83116001811462003d7c576000841562003d67578287015190505b62003d73858262003ce6565b86555062003de3565b601f19841662003d8c86620034a4565b60005b8281101562003db65784890151825560018201915060208501945060208101905062003d8f565b8683101562003dd6578489015162003dd2601f89168262003cc6565b8355505b6001600288020188555050505b505050505050565b600060e082019050818103600083015262003e07818a62003644565b9050818103602083015262003e1d818962003644565b9050818103604083015262003e33818862003644565b905062003e44606083018762003248565b62003e53608083018662003248565b62003e6260a083018562002ea6565b62003e7160c083018462002ea6565b98975050505050505050565b600060408201905062003e94600083018562003248565b62003ea3602083018462002ea6565b9392505050565b60008151905062003ebb81620032c8565b92915050565b60006020828403121562003eda5762003ed962002a82565b5b600062003eea8482850162003eaa565b91505092915050565b7f4d61726b6574206e6f74207265736f6c76656400000000000000000000000000600082015250565b600062003f2b60138362003340565b915062003f388262003ef3565b602082019050919050565b6000602082019050818103600083015262003f5e8162003f1c565b9050919050565b7f4e487b7100000000000000000000000000000000000000000000000000000000600052601160045260246000fd5b600062003fa18262002cac565b915062003fae8362002cac565b925082820190508082111562003fc95762003fc862003f65565b5b92915050565b7f4e487b7100000000000000000000000000000000000000000000000000000000600052601260045260246000fd5b60006200400b8262002cac565b9150620040188362002cac565b9250826200402b576200402a62003fcf565b5b828204905092915050565b60006060820190506200404d600083018662002ea6565b6200405c602083018562002ea6565b6200406b604083018462002ea6565b949350505050565b7f4e6f7420617574686f72697a6564000000000000000000000000000000000000600082015250565b6000620040ab600e8362003340565b9150620040b88262004073565b602082019050919050565b60006020820190508181036000830152620040de816200409c565b9050919050565b7f4173206f6620617373657274696f6e2074696d657374616d7020000000000000600082015250565b60006200411d601a8362003917565b91506200412a82620040e5565b601a82019050919050565b60006200414282620029ba565b6200414e818562003499565b935062004160818560208601620029d6565b80840191505092915050565b7f2c20746865206465736372696265642070726564696374696f6e206d61726b6560008201527f74206f7574636f6d652069733a20000000000000000000000000000000000000602082015250565b6000620041ca602e8362003917565b9150620041d7826200416c565b602e82019050919050565b7f2e20546865206d61726b6574206465736372697074696f6e2069733a20000000600082015250565b60006200421a601d8362003917565b91506200422782620041e2565b601d82019050919050565b60006200423f826200410e565b91506200424d828662004135565b91506200425a82620041bb565b915062004268828562003922565b915062004275826200420b565b915062004283828462004135565b9150819050949350505050565b6000606082019050620042a7600083018662003248565b620042b6602083018562003248565b620042c5604083018462002ea6565b949350505050565b6000604082019050620042e4600083018562003248565b620042f3602083018462003248565b9392505050565b7f5361666545524332303a20617070726f76652066726f6d206e6f6e2d7a65726f60008201527f20746f206e6f6e2d7a65726f20616c6c6f77616e636500000000000000000000602082015250565b60006200435860368362003340565b91506200436582620042fa565b604082019050919050565b600060208201905081810360008301526200438b8162004349565b9050919050565b6000610120820190508181036000830152620043af818c62002a13565b9050620043c0602083018b62003248565b620043cf604083018a62003248565b620043de606083018962003248565b620043ed608083018862003025565b620043fc60a08301876200329a565b6200440b60c083018662002ea6565b6200441a60e083018562002c7e565b6200442a61010083018462002c7e565b9a9950505050505050505050565b600081519050620044498162002a96565b92915050565b60006020828403121562004468576200446762002a82565b5b6000620044788482850162004438565b91505092915050565b60006200448e8262002cac565b91507fffffffffffffffffffffffffffffffffffffffffffffffffffffffffffffffff8203620044c357620044c262003f65565b5b600182019050919050565b6000620044db8262002cac565b9150620044e88362002cac565b925082820390508181111562004503576200450262003f65565b5b92915050565b6000620045168262002cac565b9150620045238362002cac565b9250817fffffffffffffffffffffffffffffffffffffffffffffffffffffffffffffffff04831182151516156200455f576200455e62003f65565b5b828202905092915050565b6000620045778262003a29565b9150620045848362003a29565b9250828201905060ff811115620045a0576200459f62003f65565b5b92915050565b7f4e487b7100000000000000000000000000000000000000000000000000000000600052603260045260246000fd5b7f5361666545524332303a204552433230206f7065726174696f6e20646964206e60008201527f6f74207375636365656400000000000000000000000000000000000000000000602082015250565b600062004633602a8362003340565b91506200464082620045d5565b604082019050919050565b60006020820190508181036000830152620046668162004624565b9050919050565b7f416464726573733a20696e73756666696369656e742062616c616e636520666f60008201527f722063616c6c0000000000000000000000000000000000000000000000000000602082015250565b6000620046cb60268362003340565b9150620046d8826200466d565b604082019050919050565b60006020820190508181036000830152620046fe81620046bc565b9050919050565b7f416464726573733a2063616c6c20746f206e6f6e2d636f6e7472616374000000600082015250565b60006200473d601d8362003340565b91506200474a8262004705565b602082019050919050565b6000602082019050818103600083015262004770816200472e565b9050919050565b600062004785828462004135565b91508190509291505056fe60806040523480156200001157600080fd5b5060405162003be338038062003be38339818101604052810190620000379190620008d6565b828281600390816200004a919062000bbb565b5080600490816200005c919062000bbb565b50505080600660006101000a81548160ff021916908360ff160217905550620000b96000600281111562000095576200009462000ca2565b5b60006002811115620000ac57620000ab62000ca2565b5b33620001d960201b60201c565b6200014560016002811115620000d457620000d362000ca2565b5b60006002811115620000eb57620000ea62000ca2565b5b600067ffffffffffffffff81111562000109576200010862000734565b5b604051908082528060200260200182016040528015620001385781602001602082028036833780820191505090505b506200037460201b60201c565b620001d06002808111156200015f576200015e62000ca2565b5b6000600281111562000176576200017562000ca2565b5b600067ffffffffffffffff81111562000194576200019362000734565b5b604051908082528060200260200182016040528015620001c35781602001602082028036833780820191505090505b506200037460201b60201c565b50505062001039565b8260006002811115620001f157620001f062000ca2565b5b6005600083815260200190815260200160002060010160009054906101000a900460ff1660028111156200022a576200022962000ca2565b5b146200026d576040517f08c379a0000000000000000000000000000000000000000000000000000000008152600401620002649062000d32565b60405180910390fd5b600060056000868152602001908152602001600020905060018160010160006101000a81548160ff02191690836002811115620002af57620002ae62000ca2565b5b0217905550838160000181905550620002da83826002016200050f60201b620011fe1790919060201c565b60006002811115620002f157620002f062000ca2565b5b6005600086815260200190815260200160002060010160009054906101000a900460ff1660028111156200032a576200032962000ca2565b5b036200036d576040517f08c379a0000000000000000000000000000000000000000000000000000000008152600401620003649062000dca565b60405180910390fd5b5050505050565b82600060028111156200038c576200038b62000ca2565b5b6005600083815260200190815260200160002060010160009054906101000a900460ff166002811115620003c557620003c462000ca2565b5b1462000408576040517f08c379a0000000000000000000000000000000000000000000000000000000008152600401620003ff9062000d32565b60405180910390fd5b600060056000868152602001908152602001600020905060028160010160006101000a81548160ff021916908360028111156200044a576200044962000ca2565b5b02179055508381600001819055506200047583826003016200052560201b6200120c1790919060201c565b600060028111156200048c576200048b62000ca2565b5b6005600086815260200190815260200160002060010160009054906101000a900460ff166002811115620004c557620004c462000ca2565b5b0362000508576040517f08c379a0000000000000000000000000000000000000000000000000000000008152600401620004ff9062000e62565b60405180910390fd5b5050505050565b6200052182826200057c60201b60201c565b5050565b60005b8151811015620005775762000561838383815181106200054d576200054c62000e84565b5b60200260200101516200063560201b60201c565b80806200056e9062000ee2565b91505062000528565b505050565b600073ffffffffffffffffffffffffffffffffffffffff168173ffffffffffffffffffffffffffffffffffffffff1603620005ee576040517f08c379a0000000000000000000000000000000000000000000000000000000008152600401620005e59062000fa5565b60405180910390fd5b808260000160006101000a81548173ffffffffffffffffffffffffffffffffffffffff021916908373ffffffffffffffffffffffffffffffffffffffff1602179055505050565b600073ffffffffffffffffffffffffffffffffffffffff168173ffffffffffffffffffffffffffffffffffffffff1603620006a7576040517f08c379a00000000000000000000000000000000000000000000000000000000081526004016200069e9062001017565b60405180910390fd5b60018260000160008373ffffffffffffffffffffffffffffffffffffffff1673ffffffffffffffffffffffffffffffffffffffff16815260200190815260200160002060006101000a81548160ff0219169083151502179055505050565b6000604051905090565b600080fd5b600080fd5b600080fd5b600080fd5b6000601f19601f8301169050919050565b7f4e487b7100000000000000000000000000000000000000000000000000000000600052604160045260246000fd5b6200076e8262000723565b810181811067ffffffffffffffff8211171562000790576200078f62000734565b5b80604052505050565b6000620007a562000705565b9050620007b3828262000763565b919050565b600067ffffffffffffffff821115620007d657620007d562000734565b5b620007e18262000723565b9050602081019050919050565b60005b838110156200080e578082015181840152602081019050620007f1565b60008484015250505050565b6000620008316200082b84620007b8565b62000799565b90508281526020810184848401111562000850576200084f6200071e565b5b6200085d848285620007ee565b509392505050565b600082601f8301126200087d576200087c62000719565b5b81516200088f8482602086016200081a565b91505092915050565b600060ff82169050919050565b620008b08162000898565b8114620008bc57600080fd5b50565b600081519050620008d081620008a5565b92915050565b600080600060608486031215620008f257620008f16200070f565b5b600084015167ffffffffffffffff81111562000913576200091262000714565b5b620009218682870162000865565b935050602084015167ffffffffffffffff81111562000945576200094462000714565b5b620009538682870162000865565b92505060406200096686828701620008bf565b9150509250925092565b600081519050919050565b7f4e487b7100000000000000000000000000000000000000000000000000000000600052602260045260246000fd5b60006002820490506001821680620009c357607f821691505b602082108103620009d957620009d86200097b565b5b50919050565b60008190508160005260206000209050919050565b60006020601f8301049050919050565b600082821b905092915050565b60006008830262000a437fffffffffffffffffffffffffffffffffffffffffffffffffffffffffffffffff8262000a04565b62000a4f868362000a04565b95508019841693508086168417925050509392505050565b6000819050919050565b6000819050919050565b600062000a9c62000a9662000a908462000a67565b62000a71565b62000a67565b9050919050565b6000819050919050565b62000ab88362000a7b565b62000ad062000ac78262000aa3565b84845462000a11565b825550505050565b600090565b62000ae762000ad8565b62000af481848462000aad565b505050565b5b8181101562000b1c5762000b1060008262000add565b60018101905062000afa565b5050565b601f82111562000b6b5762000b3581620009df565b62000b4084620009f4565b8101602085101562000b50578190505b62000b6862000b5f85620009f4565b83018262000af9565b50505b505050565b600082821c905092915050565b600062000b906000198460080262000b70565b1980831691505092915050565b600062000bab838362000b7d565b9150826002028217905092915050565b62000bc68262000970565b67ffffffffffffffff81111562000be25762000be162000734565b5b62000bee8254620009aa565b62000bfb82828562000b20565b600060209050601f83116001811462000c33576000841562000c1e578287015190505b62000c2a858262000b9d565b86555062000c9a565b601f19841662000c4386620009df565b60005b8281101562000c6d5784890151825560018201915060208501945060208101905062000c46565b8683101562000c8d578489015162000c89601f89168262000b7d565b8355505b6001600288020188555050505b505050505050565b7f4e487b7100000000000000000000000000000000000000000000000000000000600052602160045260246000fd5b600082825260208201905092915050565b7f43616e6e6f74207573652061207072652d6578697374696e6720726f6c650000600082015250565b600062000d1a601e8362000cd1565b915062000d278262000ce2565b602082019050919050565b6000602082019050818103600083015262000d4d8162000d0b565b9050919050565b7f417474656d7074656420746f2075736520616e20696e76616c696420726f6c6560008201527f20746f206d616e61676520616e206578636c757369766520726f6c6500000000602082015250565b600062000db2603c8362000cd1565b915062000dbf8262000d54565b604082019050919050565b6000602082019050818103600083015262000de58162000da3565b9050919050565b7f417474656d7074656420746f2075736520616e20696e76616c696420726f6c6560008201527f20746f206d616e61676520612073686172656420726f6c650000000000000000602082015250565b600062000e4a60388362000cd1565b915062000e578262000dec565b604082019050919050565b6000602082019050818103600083015262000e7d8162000e3b565b9050919050565b7f4e487b7100000000000000000000000000000000000000000000000000000000600052603260045260246000fd5b7f4e487b7100000000000000000000000000000000000000000000000000000000600052601160045260246000fd5b600062000eef8262000a67565b91507fffffffffffffffffffffffffffffffffffffffffffffffffffffffffffffffff820362000f245762000f2362000eb3565b5b600182019050919050565b7f43616e6e6f742073657420616e206578636c757369766520726f6c6520746f2060008201527f3078300000000000000000000000000000000000000000000000000000000000602082015250565b600062000f8d60238362000cd1565b915062000f9a8262000f2f565b604082019050919050565b6000602082019050818103600083015262000fc08162000f7e565b9050919050565b7f43616e6e6f74206164642030783020746f20612073686172656420726f6c6500600082015250565b600062000fff601f8362000cd1565b91506200100c8262000fc7565b602082019050919050565b60006020820190508181036000830152620010328162000ff0565b9050919050565b612b9a80620010496000396000f3fe608060405234801561001057600080fd5b506004361061014d5760003560e01c806374d0a676116100c3578063a9059cbb1161007c578063a9059cbb146103d6578063aaa14ca314610406578063ab3545e514610422578063d97c05be14610452578063dd62ed3e1461046e578063f44637ba1461049e5761014d565b806374d0a676146102f057806379cc67901461030c5780637cdc1cb91461033c57806395d89b411461036c578063983b2d561461038a578063a457c2d7146103a65761014d565b80633950935111610115578063395093511461020c57806340c10f191461023c57806342966c681461026c5780636be7658b1461028857806370a08231146102a457806373cc802a146102d45761014d565b806306fdde0314610152578063095ea7b31461017057806318160ddd146101a057806323b872dd146101be578063313ce567146101ee575b600080fd5b61015a6104ba565b6040516101679190611dc4565b60405180910390f35b61018a60048036038101906101859190611e7f565b61054c565b6040516101979190611eda565b60405180910390f35b6101a861056f565b6040516101b59190611f04565b60405180910390f35b6101d860048036038101906101d39190611f1f565b610579565b6040516101e59190611eda565b60405180910390f35b6101f66105a8565b6040516102039190611f8e565b60405180910390f35b61022660048036038101906102219190611e7f565b6105bf565b6040516102339190611eda565b60405180910390f35b61025660048036038101906102519190611e7f565b610669565b6040516102639190611eda565b60405180910390f35b61028660048036038101906102819190611fa9565b6106dd565b005b6102a2600480360381019061029d9190611fd6565b610747565b005b6102be60048036038101906102b99190612016565b6108ba565b6040516102cb9190611f04565b60405180910390f35b6102ee60048036038101906102e99190612016565b610902565b005b61030a60048036038101906103059190611fd6565b610922565b005b61032660048036038101906103219190611e7f565b610a95565b6040516103339190611eda565b60405180910390f35b61035660048036038101906103519190611fd6565b610b08565b6040516103639190611eda565b60405180910390f35b610374610c16565b6040516103819190611dc4565b60405180910390f35b6103a4600480360381019061039f9190612016565b610ca8565b005b6103c060048036038101906103bb9190611e7f565b610cc8565b6040516103cd9190611eda565b60405180910390f35b6103f060048036038101906103eb9190611e7f565b610db2565b6040516103fd9190611eda565b60405180910390f35b610420600480360381019061041b9190611fa9565b610dd5565b005b61043c60048036038101906104379190611fa9565b610f31565b6040516104499190612052565b60405180910390f35b61046c60048036038101906104679190611fd6565b610fe4565b005b6104886004803603810190610483919061206d565b611158565b6040516104959190611f04565b60405180910390f35b6104b860048036038101906104b39190612016565b6111df565b005b6060600380546104c9906120dc565b80601f01602080910402602001604051908101604052809291908181526020018280546104f5906120dc565b80156105425780601f1061051757610100808354040283529160200191610542565b820191906000526020600020905b81548152906001019060200180831161052557829003601f168201915b5050505050905090565b600080610557611254565b905061056481858561125c565b600191505092915050565b6000600254905090565b600080610584611254565b9050610591858285611425565b61059c8585856114b1565b60019150509392505050565b6000600660009054906101000a900460ff16905090565b6000806105ca611254565b905061065e818585600160008673ffffffffffffffffffffffffffffffffffffffff1673ffffffffffffffffffffffffffffffffffffffff16815260200190815260200160002060008973ffffffffffffffffffffffffffffffffffffffff1673ffffffffffffffffffffffffffffffffffffffff16815260200190815260200160002054610659919061213c565b61125c565b600191505092915050565b60006001600281111561067f5761067e612170565b5b6106898133610b08565b6106c8576040517f08c379a00000000000000000000000000000000000000000000000000000000081526004016106bf90612211565b60405180910390fd5b6106d28484611730565b600191505092915050565b6002808111156106f0576106ef612170565b5b6106fa8133610b08565b610739576040517f08c379a000000000000000000000000000000000000000000000000000000000815260040161073090612211565b60405180910390fd5b610743338361188f565b5050565b8160028081111561075b5761075a612170565b5b6005600083815260200190815260200160002060010160009054906101000a900460ff16600281111561079157610790612170565b5b146107d1576040517f08c379a00000000000000000000000000000000000000000000000000000000081526004016107c8906122a3565b60405180910390fd5b826107f2600560008381526020019081526020016000206000015433610b08565b610831576040517f08c379a000000000000000000000000000000000000000000000000000000000815260040161082890612335565b60405180910390fd5b6108598360056000878152602001908152602001600020600301611a6590919063ffffffff16565b3373ffffffffffffffffffffffffffffffffffffffff168373ffffffffffffffffffffffffffffffffffffffff16857feb3e33034c392e69263b04ec0fa376dc12784a41b6676c7f31b936cbc0fbb5af60405160405180910390a450505050565b60008060008373ffffffffffffffffffffffffffffffffffffffff1673ffffffffffffffffffffffffffffffffffffffff168152602001908152602001600020549050919050565b61091f6000600281111561091957610918612170565b5b82610fe4565b50565b8160028081111561093657610935612170565b5b6005600083815260200190815260200160002060010160009054906101000a900460ff16600281111561096c5761096b612170565b5b146109ac576040517f08c379a00000000000000000000000000000000000000000000000000000000081526004016109a3906122a3565b60405180910390fd5b826109cd600560008381526020019081526020016000206000015433610b08565b610a0c576040517f08c379a0000000000000000000000000000000000000000000000000000000008152600401610a0390612335565b60405180910390fd5b610a348360056000878152602001908152602001600020600301611ac390919063ffffffff16565b3373ffffffffffffffffffffffffffffffffffffffff168373ffffffffffffffffffffffffffffffffffffffff16857f63502af7324ff6db91ab38f8236a648727d9385ea6c782073dd4882d8a61a48f60405160405180910390a450505050565b6000600280811115610aaa57610aa9612170565b5b610ab48133610b08565b610af3576040517f08c379a0000000000000000000000000000000000000000000000000000000008152600401610aea90612211565b60405180910390fd5b610afd848461188f565b600191505092915050565b60008060056000858152602001908152602001600020905060016002811115610b3457610b33612170565b5b8160010160009054906101000a900460ff166002811115610b5857610b57612170565b5b03610b7b57610b738382600201611b9090919063ffffffff16565b915050610c10565b600280811115610b8e57610b8d612170565b5b8160010160009054906101000a900460ff166002811115610bb257610bb1612170565b5b03610bd557610bcd8382600301611bed90919063ffffffff16565b915050610c10565b6040517f08c379a0000000000000000000000000000000000000000000000000000000008152600401610c07906123a1565b60405180910390fd5b92915050565b606060048054610c25906120dc565b80601f0160208091040260200160405190810160405280929190818152602001828054610c51906120dc565b8015610c9e5780601f10610c7357610100808354040283529160200191610c9e565b820191906000526020600020905b815481529060010190602001808311610c8157829003601f168201915b5050505050905090565b610cc560016002811115610cbf57610cbe612170565b5b82610922565b50565b600080610cd3611254565b90506000600160008373ffffffffffffffffffffffffffffffffffffffff1673ffffffffffffffffffffffffffffffffffffffff16815260200190815260200160002060008673ffffffffffffffffffffffffffffffffffffffff1673ffffffffffffffffffffffffffffffffffffffff16815260200190815260200160002054905083811015610d99576040517f08c379a0000000000000000000000000000000000000000000000000000000008152600401610d9090612433565b60405180910390fd5b610da6828686840361125c565b60019250505092915050565b600080610dbd611254565b9050610dca8185856114b1565b600191505092915050565b80600280811115610de957610de8612170565b5b6005600083815260200190815260200160002060010160009054906101000a900460ff166002811115610e1f57610e1e612170565b5b14610e5f576040517f08c379a0000000000000000000000000000000000000000000000000000000008152600401610e56906122a3565b60405180910390fd5b81610e6a8133610b08565b610ea9576040517f08c379a0000000000000000000000000000000000000000000000000000000008152600401610ea090612211565b60405180910390fd5b610ed13360056000868152602001908152602001600020600301611a6590919063ffffffff16565b3373ffffffffffffffffffffffffffffffffffffffff163373ffffffffffffffffffffffffffffffffffffffff16847feb3e33034c392e69263b04ec0fa376dc12784a41b6676c7f31b936cbc0fbb5af60405160405180910390a4505050565b60008160016002811115610f4857610f47612170565b5b6005600083815260200190815260200160002060010160009054906101000a900460ff166002811115610f7e57610f7d612170565b5b14610fbe576040517f08c379a0000000000000000000000000000000000000000000000000000000008152600401610fb5906124c5565b60405180910390fd5b610fdc60056000858152602001908152602001600020600201611c46565b915050919050565b8160016002811115610ff957610ff8612170565b5b6005600083815260200190815260200160002060010160009054906101000a900460ff16600281111561102f5761102e612170565b5b1461106f576040517f08c379a0000000000000000000000000000000000000000000000000000000008152600401611066906124c5565b60405180910390fd5b82611090600560008381526020019081526020016000206000015433610b08565b6110cf576040517f08c379a00000000000000000000000000000000000000000000000000000000081526004016110c690612335565b60405180910390fd5b6110f78360056000878152602001908152602001600020600201611c7490919063ffffffff16565b3373ffffffffffffffffffffffffffffffffffffffff168373ffffffffffffffffffffffffffffffffffffffff16857f3b855c56b409b671c7112789d022675eb639d0bcb8896f1b6197c132f799e74660405160405180910390a450505050565b6000600160008473ffffffffffffffffffffffffffffffffffffffff1673ffffffffffffffffffffffffffffffffffffffff16815260200190815260200160002060008373ffffffffffffffffffffffffffffffffffffffff1673ffffffffffffffffffffffffffffffffffffffff16815260200190815260200160002054905092915050565b6111fb6002808111156111f5576111f4612170565b5b82610922565b50565b6112088282611c74565b5050565b60005b815181101561124f5761123c8383838151811061122f5761122e6124e5565b5b6020026020010151611ac3565b808061124790612514565b91505061120f565b505050565b600033905090565b600073ffffffffffffffffffffffffffffffffffffffff168373ffffffffffffffffffffffffffffffffffffffff16036112cb576040517f08c379a00000000000000000000000000000000000000000000000000000000081526004016112c2906125ce565b60405180910390fd5b600073ffffffffffffffffffffffffffffffffffffffff168273ffffffffffffffffffffffffffffffffffffffff160361133a576040517f08c379a000000000000000000000000000000000000000000000000000000000815260040161133190612660565b60405180910390fd5b80600160008573ffffffffffffffffffffffffffffffffffffffff1673ffffffffffffffffffffffffffffffffffffffff16815260200190815260200160002060008473ffffffffffffffffffffffffffffffffffffffff1673ffffffffffffffffffffffffffffffffffffffff168152602001908152602001600020819055508173ffffffffffffffffffffffffffffffffffffffff168373ffffffffffffffffffffffffffffffffffffffff167f8c5be1e5ebec7d5bd14f71427d1e84f3dd0314c0f7b2291e5b200ac8c7c3b925836040516114189190611f04565b60405180910390a3505050565b60006114318484611158565b90507fffffffffffffffffffffffffffffffffffffffffffffffffffffffffffffffff81146114ab578181101561149d576040517f08c379a0000000000000000000000000000000000000000000000000000000008152600401611494906126cc565b60405180910390fd5b6114aa848484840361125c565b5b50505050565b600073ffffffffffffffffffffffffffffffffffffffff168373ffffffffffffffffffffffffffffffffffffffff1603611520576040517f08c379a00000000000000000000000000000000000000000000000000000000081526004016115179061275e565b60405180910390fd5b600073ffffffffffffffffffffffffffffffffffffffff168273ffffffffffffffffffffffffffffffffffffffff160361158f576040517f08c379a0000000000000000000000000000000000000000000000000000000008152600401611586906127f0565b60405180910390fd5b61159a838383611d2a565b60008060008573ffffffffffffffffffffffffffffffffffffffff1673ffffffffffffffffffffffffffffffffffffffff16815260200190815260200160002054905081811015611620576040517f08c379a000000000000000000000000000000000000000000000000000000000815260040161161790612882565b60405180910390fd5b8181036000808673ffffffffffffffffffffffffffffffffffffffff1673ffffffffffffffffffffffffffffffffffffffff16815260200190815260200160002081905550816000808573ffffffffffffffffffffffffffffffffffffffff1673ffffffffffffffffffffffffffffffffffffffff16815260200190815260200160002060008282546116b3919061213c565b925050819055508273ffffffffffffffffffffffffffffffffffffffff168473ffffffffffffffffffffffffffffffffffffffff167fddf252ad1be2c89b69c2b068fc378daa952ba7f163c4a11628f55a4df523b3ef846040516117179190611f04565b60405180910390a361172a848484611d2f565b50505050565b600073ffffffffffffffffffffffffffffffffffffffff168273ffffffffffffffffffffffffffffffffffffffff160361179f576040517f08c379a0000000000000000000000000000000000000000000000000000000008152600401611796906128ee565b60405180910390fd5b6117ab60008383611d2a565b80600260008282546117bd919061213c565b92505081905550806000808473ffffffffffffffffffffffffffffffffffffffff1673ffffffffffffffffffffffffffffffffffffffff1681526020019081526020016000206000828254611812919061213c565b925050819055508173ffffffffffffffffffffffffffffffffffffffff16600073ffffffffffffffffffffffffffffffffffffffff167fddf252ad1be2c89b69c2b068fc378daa952ba7f163c4a11628f55a4df523b3ef836040516118779190611f04565b60405180910390a361188b60008383611d2f565b5050565b600073ffffffffffffffffffffffffffffffffffffffff168273ffffffffffffffffffffffffffffffffffffffff16036118fe576040517f08c379a00000000000000000000000000000000000000000000000000000000081526004016118f590612980565b60405180910390fd5b61190a82600083611d2a565b60008060008473ffffffffffffffffffffffffffffffffffffffff1673ffffffffffffffffffffffffffffffffffffffff16815260200190815260200160002054905081811015611990576040517f08c379a000000000000000000000000000000000000000000000000000000000815260040161198790612a12565b60405180910390fd5b8181036000808573ffffffffffffffffffffffffffffffffffffffff1673ffffffffffffffffffffffffffffffffffffffff1681526020019081526020016000208190555081600260008282546119e79190612a32565b92505081905550600073ffffffffffffffffffffffffffffffffffffffff168373ffffffffffffffffffffffffffffffffffffffff167fddf252ad1be2c89b69c2b068fc378daa952ba7f163c4a11628f55a4df523b3ef84604051611a4c9190611f04565b60405180910390a3611a6083600084611d2f565b505050565b60008260000160008373ffffffffffffffffffffffffffffffffffffffff1673ffffffffffffffffffffffffffffffffffffffff16815260200190815260200160002060006101000a81548160ff0219169083151502179055505050565b600073ffffffffffffffffffffffffffffffffffffffff168173ffffffffffffffffffffffffffffffffffffffff1603611b32576040517f08c379a0000000000000000000000000000000000000000000000000000000008152600401611b2990612ab2565b60405180910390fd5b60018260000160008373ffffffffffffffffffffffffffffffffffffffff1673ffffffffffffffffffffffffffffffffffffffff16815260200190815260200160002060006101000a81548160ff0219169083151502179055505050565b60008173ffffffffffffffffffffffffffffffffffffffff168360000160009054906101000a900473ffffffffffffffffffffffffffffffffffffffff1673ffffffffffffffffffffffffffffffffffffffff1614905092915050565b60008260000160008373ffffffffffffffffffffffffffffffffffffffff1673ffffffffffffffffffffffffffffffffffffffff16815260200190815260200160002060009054906101000a900460ff16905092915050565b60008160000160009054906101000a900473ffffffffffffffffffffffffffffffffffffffff169050919050565b600073ffffffffffffffffffffffffffffffffffffffff168173ffffffffffffffffffffffffffffffffffffffff1603611ce3576040517f08c379a0000000000000000000000000000000000000000000000000000000008152600401611cda90612b44565b60405180910390fd5b808260000160006101000a81548173ffffffffffffffffffffffffffffffffffffffff021916908373ffffffffffffffffffffffffffffffffffffffff1602179055505050565b505050565b505050565b600081519050919050565b600082825260208201905092915050565b60005b83811015611d6e578082015181840152602081019050611d53565b60008484015250505050565b6000601f19601f8301169050919050565b6000611d9682611d34565b611da08185611d3f565b9350611db0818560208601611d50565b611db981611d7a565b840191505092915050565b60006020820190508181036000830152611dde8184611d8b565b905092915050565b600080fd5b600073ffffffffffffffffffffffffffffffffffffffff82169050919050565b6000611e1682611deb565b9050919050565b611e2681611e0b565b8114611e3157600080fd5b50565b600081359050611e4381611e1d565b92915050565b6000819050919050565b611e5c81611e49565b8114611e6757600080fd5b50565b600081359050611e7981611e53565b92915050565b60008060408385031215611e9657611e95611de6565b5b6000611ea485828601611e34565b9250506020611eb585828601611e6a565b9150509250929050565b60008115159050919050565b611ed481611ebf565b82525050565b6000602082019050611eef6000830184611ecb565b92915050565b611efe81611e49565b82525050565b6000602082019050611f196000830184611ef5565b92915050565b600080600060608486031215611f3857611f37611de6565b5b6000611f4686828701611e34565b9350506020611f5786828701611e34565b9250506040611f6886828701611e6a565b9150509250925092565b600060ff82169050919050565b611f8881611f72565b82525050565b6000602082019050611fa36000830184611f7f565b92915050565b600060208284031215611fbf57611fbe611de6565b5b6000611fcd84828501611e6a565b91505092915050565b60008060408385031215611fed57611fec611de6565b5b6000611ffb85828601611e6a565b925050602061200c85828601611e34565b9150509250929050565b60006020828403121561202c5761202b611de6565b5b600061203a84828501611e34565b91505092915050565b61204c81611e0b565b82525050565b60006020820190506120676000830184612043565b92915050565b6000806040838503121561208457612083611de6565b5b600061209285828601611e34565b92505060206120a385828601611e34565b9150509250929050565b7f4e487b7100000000000000000000000000000000000000000000000000000000600052602260045260246000fd5b600060028204905060018216806120f457607f821691505b602082108103612107576121066120ad565b5b50919050565b7f4e487b7100000000000000000000000000000000000000000000000000000000600052601160045260246000fd5b600061214782611e49565b915061215283611e49565b925082820190508082111561216a5761216961210d565b5b92915050565b7f4e487b7100000000000000000000000000000000000000000000000000000000600052602160045260246000fd5b7f53656e64657220646f6573206e6f7420686f6c6420726571756972656420726f60008201527f6c65000000000000000000000000000000000000000000000000000000000000602082015250565b60006121fb602283611d3f565b91506122068261219f565b604082019050919050565b6000602082019050818103600083015261222a816121ee565b9050919050565b7f4d7573742062652063616c6c6564206f6e20616e20696e697469616c697a656460008201527f2053686172656420726f6c650000000000000000000000000000000000000000602082015250565b600061228d602c83611d3f565b915061229882612231565b604082019050919050565b600060208201905081810360008301526122bc81612280565b9050919050565b7f43616e206f6e6c792062652063616c6c6564206279206120726f6c65206d616e60008201527f6167657200000000000000000000000000000000000000000000000000000000602082015250565b600061231f602483611d3f565b915061232a826122c3565b604082019050919050565b6000602082019050818103600083015261234e81612312565b9050919050565b7f496e76616c696420726f6c654964000000000000000000000000000000000000600082015250565b600061238b600e83611d3f565b915061239682612355565b602082019050919050565b600060208201905081810360008301526123ba8161237e565b9050919050565b7f45524332303a2064656372656173656420616c6c6f77616e63652062656c6f7760008201527f207a65726f000000000000000000000000000000000000000000000000000000602082015250565b600061241d602583611d3f565b9150612428826123c1565b604082019050919050565b6000602082019050818103600083015261244c81612410565b9050919050565b7f4d7573742062652063616c6c6564206f6e20616e20696e697469616c697a656460008201527f204578636c757369766520726f6c650000000000000000000000000000000000602082015250565b60006124af602f83611d3f565b91506124ba82612453565b604082019050919050565b600060208201905081810360008301526124de816124a2565b9050919050565b7f4e487b7100000000000000000000000000000000000000000000000000000000600052603260045260246000fd5b600061251f82611e49565b91507fffffffffffffffffffffffffffffffffffffffffffffffffffffffffffffffff82036125515761255061210d565b5b600182019050919050565b7f45524332303a20617070726f76652066726f6d20746865207a65726f2061646460008201527f7265737300000000000000000000000000000000000000000000000000000000602082015250565b60006125b8602483611d3f565b91506125c38261255c565b604082019050919050565b600060208201905081810360008301526125e7816125ab565b9050919050565b7f45524332303a20617070726f766520746f20746865207a65726f20616464726560008201527f7373000000000000000000000000000000000000000000000000000000000000602082015250565b600061264a602283611d3f565b9150612655826125ee565b604082019050919050565b600060208201905081810360008301526126798161263d565b9050919050565b7f45524332303a20696e73756666696369656e7420616c6c6f77616e6365000000600082015250565b60006126b6601d83611d3f565b91506126c182612680565b602082019050919050565b600060208201905081810360008301526126e5816126a9565b9050919050565b7f45524332303a207472616e736665722066726f6d20746865207a65726f20616460008201527f6472657373000000000000000000000000000000000000000000000000000000602082015250565b6000612748602583611d3f565b9150612753826126ec565b604082019050919050565b600060208201905081810360008301526127778161273b565b9050919050565b7f45524332303a207472616e7366657220746f20746865207a65726f206164647260008201527f6573730000000000000000000000000000000000000000000000000000000000602082015250565b60006127da602383611d3f565b91506127e58261277e565b604082019050919050565b60006020820190508181036000830152612809816127cd565b9050919050565b7f45524332303a207472616e7366657220616d6f756e742065786365656473206260008201527f616c616e63650000000000000000000000000000000000000000000000000000602082015250565b600061286c602683611d3f565b915061287782612810565b604082019050919050565b6000602082019050818103600083015261289b8161285f565b9050919050565b7f45524332303a206d696e7420746f20746865207a65726f206164647265737300600082015250565b60006128d8601f83611d3f565b91506128e3826128a2565b602082019050919050565b60006020820190508181036000830152612907816128cb565b9050919050565b7f45524332303a206275726e2066726f6d20746865207a65726f2061646472657360008201527f7300000000000000000000000000000000000000000000000000000000000000602082015250565b600061296a602183611d3f565b91506129758261290e565b604082019050919050565b600060208201905081810360008301526129998161295d565b9050919050565b7f45524332303a206275726e20616d6f756e7420657863656564732062616c616e60008201527f6365000000000000000000000000000000000000000000000000000000000000602082015250565b60006129fc602283611d3f565b9150612a07826129a0565b604082019050919050565b60006020820190508181036000830152612a2b816129ef565b9050919050565b6000612a3d82611e49565b9150612a4883611e49565b9250828203905081811115612a6057612a5f61210d565b5b92915050565b7f43616e6e6f74206164642030783020746f20612073686172656420726f6c6500600082015250565b6000612a9c601f83611d3f565b9150612aa782612a66565b602082019050919050565b60006020820190508181036000830152612acb81612a8f565b9050919050565b7f43616e6e6f742073657420616e206578636c757369766520726f6c6520746f2060008201527f3078300000000000000000000000000000000000000000000000000000000000602082015250565b6000612b2e602383611d3f565b9150612b3982612ad2565b604082019050919050565b60006020820190508181036000830152612b5d81612b21565b905091905056fea26469706673582212204fa420c089e385e7e070524fe5b3c79fdb89c6806fa4c0cdfb3360482a1c138764736f6c63430008100033a2646970667358221220e251afae6252e9385869c38d795ff76d81b9a0342f66554a32e60f80dcbdd5b164736f6c63430008100033",
    "linkReferences": {},
    "deployedLinkReferences": {}
}