{
  "abi": [
    {
      "inputs": [
        {
          "internalType": "contract FinderInterface",
          "name": "_finder",
          "type": "address"
        },
        {
          "internalType": "contract IERC20",
          "name": "_defaultCurrency",
          "type": "address"
        },
        {
          "internalType": "uint64",
          "name": "_defaultLiveness",
          "type": "uint64"
        },
        {
          "internalType": "address",
          "name": "_timerAddress",
          "type": "address"
        }
      ],
      "stateMutability": "nonpayable",
      "type": "constructor"
    },
    {
      "anonymous": false,
      "inputs": [
        {
          "indexed": false,
          "internalType": "contract IERC20",
          "name": "defaultCurrency",
          "type": "address"
        },
        {
          "indexed": false,
          "internalType": "uint64",
          "name": "defaultLiveness",
          "type": "uint64"
        },
        {
          "indexed": false,
          "internalType": "uint256",
          "name": "burnedBondPercentage",
          "type": "uint256"
        }
      ],
      "name": "AdminPropertiesSet",
      "type": "event"
    },
    {
      "anonymous": false,
      "inputs": [
        {
          "indexed": true,
          "internalType": "bytes32",
          "name": "assertionId",
          "type": "bytes32"
        },
        {
          "indexed": true,
          "internalType": "address",
          "name": "caller",
          "type": "address"
        },
        {
          "indexed": true,
          "internalType": "address",
          "name": "disputer",
          "type": "address"
        }
      ],
      "name": "AssertionDisputed",
      "type": "event"
    },
    {
      "anonymous": false,
      "inputs": [
        {
          "indexed": true,
          "internalType": "bytes32",
          "name": "assertionId",
          "type": "bytes32"
        },
        {
          "indexed": false,
          "internalType": "bytes32",
          "name": "domainId",
          "type": "bytes32"
        },
        {
          "indexed": false,
          "internalType": "bytes",
          "name": "claim",
          "type": "bytes"
        },
        {
          "indexed": true,
          "internalType": "address",
          "name": "asserter",
          "type": "address"
        },
        {
          "indexed": false,
          "internalType": "address",
          "name": "callbackRecipient",
          "type": "address"
        },
        {
          "indexed": false,
          "internalType": "address",
          "name": "escalationManager",
          "type": "address"
        },
        {
          "indexed": false,
          "internalType": "address",
          "name": "caller",
          "type": "address"
        },
        {
          "indexed": false,
          "internalType": "uint64",
          "name": "expirationTime",
          "type": "uint64"
        },
        {
          "indexed": false,
          "internalType": "contract IERC20",
          "name": "currency",
          "type": "address"
        },
        {
          "indexed": false,
          "internalType": "uint256",
          "name": "bond",
          "type": "uint256"
        },
        {
          "indexed": true,
          "internalType": "bytes32",
          "name": "identifier",
          "type": "bytes32"
        }
      ],
      "name": "AssertionMade",
      "type": "event"
    },
    {
      "anonymous": false,
      "inputs": [
        {
          "indexed": true,
          "internalType": "bytes32",
          "name": "assertionId",
          "type": "bytes32"
        },
        {
          "indexed": true,
          "internalType": "address",
          "name": "bondRecipient",
          "type": "address"
        },
        {
          "indexed": false,
          "internalType": "bool",
          "name": "disputed",
          "type": "bool"
        },
        {
          "indexed": false,
          "internalType": "bool",
          "name": "settlementResolution",
          "type": "bool"
        },
        {
          "indexed": false,
          "internalType": "address",
          "name": "settleCaller",
          "type": "address"
        }
      ],
      "name": "AssertionSettled",
      "type": "event"
    },
    {
      "anonymous": false,
      "inputs": [
        {
          "indexed": true,
          "internalType": "address",
          "name": "previousOwner",
          "type": "address"
        },
        {
          "indexed": true,
          "internalType": "address",
          "name": "newOwner",
          "type": "address"
        }
      ],
      "name": "OwnershipTransferred",
      "type": "event"
    },
    {
      "inputs": [
        {
          "internalType": "bytes",
          "name": "claim",
          "type": "bytes"
        },
        {
          "internalType": "address",
          "name": "asserter",
          "type": "address"
        },
        {
          "internalType": "address",
          "name": "callbackRecipient",
          "type": "address"
        },
        {
          "internalType": "address",
          "name": "escalationManager",
          "type": "address"
        },
        {
          "internalType": "uint64",
          "name": "liveness",
          "type": "uint64"
        },
        {
          "internalType": "contract IERC20",
          "name": "currency",
          "type": "address"
        },
        {
          "internalType": "uint256",
          "name": "bond",
          "type": "uint256"
        },
        {
          "internalType": "bytes32",
          "name": "identifier",
          "type": "bytes32"
        },
        {
          "internalType": "bytes32",
          "name": "domainId",
          "type": "bytes32"
        }
      ],
      "name": "assertTruth",
      "outputs": [
        {
          "internalType": "bytes32",
          "name": "assertionId",
          "type": "bytes32"
        }
      ],
      "stateMutability": "nonpayable",
      "type": "function"
    },
    {
      "inputs": [
        {
          "internalType": "bytes",
          "name": "claim",
          "type": "bytes"
        },
        {
          "internalType": "address",
          "name": "asserter",
          "type": "address"
        }
      ],
      "name": "assertTruthWithDefaults",
      "outputs": [
        {
          "internalType": "bytes32",
          "name": "",
          "type": "bytes32"
        }
      ],
      "stateMutability": "nonpayable",
      "type": "function"
    },
    {
      "inputs": [
        {
          "internalType": "bytes32",
          "name": "",
          "type": "bytes32"
        }
      ],
      "name": "assertions",
      "outputs": [
        {
          "components": [
            {
              "internalType": "bool",
              "name": "arbitrateViaEscalationManager",
              "type": "bool"
            },
            {
              "internalType": "bool",
              "name": "discardOracle",
              "type": "bool"
            },
            {
              "internalType": "bool",
              "name": "validateDisputers",
              "type": "bool"
            },
            {
              "internalType": "address",
              "name": "assertingCaller",
              "type": "address"
            },
            {
              "internalType": "address",
              "name": "escalationManager",
              "type": "address"
            }
          ],
          "internalType": "struct OptimisticOracleV3Interface.EscalationManagerSettings",
          "name": "escalationManagerSettings",
          "type": "tuple"
        },
        {
          "internalType": "address",
          "name": "asserter",
          "type": "address"
        },
        {
          "internalType": "uint64",
          "name": "assertionTime",
          "type": "uint64"
        },
        {
          "internalType": "bool",
          "name": "settled",
          "type": "bool"
        },
        {
          "internalType": "contract IERC20",
          "name": "currency",
          "type": "address"
        },
        {
          "internalType": "uint64",
          "name": "expirationTime",
          "type": "uint64"
        },
        {
          "internalType": "bool",
          "name": "settlementResolution",
          "type": "bool"
        },
        {
          "internalType": "bytes32",
          "name": "domainId",
          "type": "bytes32"
        },
        {
          "internalType": "bytes32",
          "name": "identifier",
          "type": "bytes32"
        },
        {
          "internalType": "uint256",
          "name": "bond",
          "type": "uint256"
        },
        {
          "internalType": "address",
          "name": "callbackRecipient",
          "type": "address"
        },
        {
          "internalType": "address",
          "name": "disputer",
          "type": "address"
        }
      ],
      "stateMutability": "view",
      "type": "function"
    },
    {
      "inputs": [],
      "name": "burnedBondPercentage",
      "outputs": [
        {
          "internalType": "uint256",
          "name": "",
          "type": "uint256"
        }
      ],
      "stateMutability": "view",
      "type": "function"
    },
    {
      "inputs": [
        {
          "internalType": "address",
          "name": "",
          "type": "address"
        }
      ],
      "name": "cachedCurrencies",
      "outputs": [
        {
          "internalType": "bool",
          "name": "isWhitelisted",
          "type": "bool"
        },
        {
          "internalType": "uint256",
          "name": "finalFee",
          "type": "uint256"
        }
      ],
      "stateMutability": "view",
      "type": "function"
    },
    {
      "inputs": [
        {
          "internalType": "bytes32",
          "name": "",
          "type": "bytes32"
        }
      ],
      "name": "cachedIdentifiers",
      "outputs": [
        {
          "internalType": "bool",
          "name": "",
          "type": "bool"
        }
      ],
      "stateMutability": "view",
      "type": "function"
    },
    {
      "inputs": [],
      "name": "cachedOracle",
      "outputs": [
        {
          "internalType": "address",
          "name": "",
          "type": "address"
        }
      ],
      "stateMutability": "view",
      "type": "function"
    },
    {
      "inputs": [],
      "name": "defaultCurrency",
      "outputs": [
        {
          "internalType": "contract IERC20",
          "name": "",
          "type": "address"
        }
      ],
      "stateMutability": "view",
      "type": "function"
    },
    {
      "inputs": [],
      "name": "defaultIdentifier",
      "outputs": [
        {
          "internalType": "bytes32",
          "name": "",
          "type": "bytes32"
        }
      ],
      "stateMutability": "view",
      "type": "function"
    },
    {
      "inputs": [],
      "name": "defaultLiveness",
      "outputs": [
        {
          "internalType": "uint64",
          "name": "",
          "type": "uint64"
        }
      ],
      "stateMutability": "view",
      "type": "function"
    },
    {
      "inputs": [
        {
          "internalType": "bytes32",
          "name": "assertionId",
          "type": "bytes32"
        },
        {
          "internalType": "address",
          "name": "disputer",
          "type": "address"
        }
      ],
      "name": "disputeAssertion",
      "outputs": [],
      "stateMutability": "nonpayable",
      "type": "function"
    },
    {
      "inputs": [],
      "name": "finder",
      "outputs": [
        {
          "internalType": "contract FinderInterface",
          "name": "",
          "type": "address"
        }
      ],
      "stateMutability": "view",
      "type": "function"
    },
    {
      "inputs": [
        {
          "internalType": "bytes32",
          "name": "assertionId",
          "type": "bytes32"
        }
      ],
      "name": "getAssertion",
      "outputs": [
        {
          "components": [
            {
              "components": [
                {
                  "internalType": "bool",
                  "name": "arbitrateViaEscalationManager",
                  "type": "bool"
                },
                {
                  "internalType": "bool",
                  "name": "discardOracle",
                  "type": "bool"
                },
                {
                  "internalType": "bool",
                  "name": "validateDisputers",
                  "type": "bool"
                },
                {
                  "internalType": "address",
                  "name": "assertingCaller",
                  "type": "address"
                },
                {
                  "internalType": "address",
                  "name": "escalationManager",
                  "type": "address"
                }
              ],
              "internalType": "struct OptimisticOracleV3Interface.EscalationManagerSettings",
              "name": "escalationManagerSettings",
              "type": "tuple"
            },
            {
              "internalType": "address",
              "name": "asserter",
              "type": "address"
            },
            {
              "internalType": "uint64",
              "name": "assertionTime",
              "type": "uint64"
            },
            {
              "internalType": "bool",
              "name": "settled",
              "type": "bool"
            },
            {
              "internalType": "contract IERC20",
              "name": "currency",
              "type": "address"
            },
            {
              "internalType": "uint64",
              "name": "expirationTime",
              "type": "uint64"
            },
            {
              "internalType": "bool",
              "name": "settlementResolution",
              "type": "bool"
            },
            {
              "internalType": "bytes32",
              "name": "domainId",
              "type": "bytes32"
            },
            {
              "internalType": "bytes32",
              "name": "identifier",
              "type": "bytes32"
            },
            {
              "internalType": "uint256",
              "name": "bond",
              "type": "uint256"
            },
            {
              "internalType": "address",
              "name": "callbackRecipient",
              "type": "address"
            },
            {
              "internalType": "address",
              "name": "disputer",
              "type": "address"
            }
          ],
          "internalType": "struct OptimisticOracleV3Interface.Assertion",
          "name": "",
          "type": "tuple"
        }
      ],
      "stateMutability": "view",
      "type": "function"
    },
    {
      "inputs": [
        {
          "internalType": "bytes32",
          "name": "assertionId",
          "type": "bytes32"
        }
      ],
      "name": "getAssertionResult",
      "outputs": [
        {
          "internalType": "bool",
          "name": "",
          "type": "bool"
        }
      ],
      "stateMutability": "view",
      "type": "function"
    },
    {
      "inputs": [],
      "name": "getCurrentTime",
      "outputs": [
        {
          "internalType": "uint256",
          "name": "",
          "type": "uint256"
        }
      ],
      "stateMutability": "view",
      "type": "function"
    },
    {
      "inputs": [
        {
          "internalType": "address",
          "name": "currency",
          "type": "address"
        }
      ],
      "name": "getMinimumBond",
      "outputs": [
        {
          "internalType": "uint256",
          "name": "",
          "type": "uint256"
        }
      ],
      "stateMutability": "view",
      "type": "function"
    },
    {
      "inputs": [
        {
          "internalType": "bytes[]",
          "name": "data",
          "type": "bytes[]"
        }
      ],
      "name": "multicall",
      "outputs": [
        {
          "internalType": "bytes[]",
          "name": "results",
          "type": "bytes[]"
        }
      ],
      "stateMutability": "nonpayable",
      "type": "function"
    },
    {
      "inputs": [],
      "name": "numericalTrue",
      "outputs": [
        {
          "internalType": "int256",
          "name": "",
          "type": "int256"
        }
      ],
      "stateMutability": "view",
      "type": "function"
    },
    {
      "inputs": [],
      "name": "owner",
      "outputs": [
        {
          "internalType": "address",
          "name": "",
          "type": "address"
        }
      ],
      "stateMutability": "view",
      "type": "function"
    },
    {
      "inputs": [],
      "name": "renounceOwnership",
      "outputs": [],
      "stateMutability": "nonpayable",
      "type": "function"
    },
    {
      "inputs": [
        {
          "internalType": "contract IERC20",
          "name": "_defaultCurrency",
          "type": "address"
        },
        {
          "internalType": "uint64",
          "name": "_defaultLiveness",
          "type": "uint64"
        },
        {
          "internalType": "uint256",
          "name": "_burnedBondPercentage",
          "type": "uint256"
        }
      ],
      "name": "setAdminProperties",
      "outputs": [],
      "stateMutability": "nonpayable",
      "type": "function"
    },
    {
      "inputs": [
        {
          "internalType": "uint256",
          "name": "time",
          "type": "uint256"
        }
      ],
      "name": "setCurrentTime",
      "outputs": [],
      "stateMutability": "nonpayable",
      "type": "function"
    },
    {
      "inputs": [
        {
          "internalType": "bytes32",
          "name": "assertionId",
          "type": "bytes32"
        }
      ],
      "name": "settleAndGetAssertionResult",
      "outputs": [
        {
          "internalType": "bool",
          "name": "",
          "type": "bool"
        }
      ],
      "stateMutability": "nonpayable",
      "type": "function"
    },
    {
      "inputs": [
        {
          "internalType": "bytes32",
          "name": "assertionId",
          "type": "bytes32"
        }
      ],
      "name": "settleAssertion",
      "outputs": [],
      "stateMutability": "nonpayable",
      "type": "function"
    },
    {
      "inputs": [
        {
          "internalType": "bytes32",
          "name": "assertionId",
          "type": "bytes32"
        }
      ],
      "name": "stampAssertion",
      "outputs": [
        {
          "internalType": "bytes",
          "name": "",
          "type": "bytes"
        }
      ],
      "stateMutability": "view",
      "type": "function"
    },
    {
      "inputs": [
        {
          "internalType": "bytes32",
          "name": "identifier",
          "type": "bytes32"
        },
        {
          "internalType": "address",
          "name": "currency",
          "type": "address"
        }
      ],
      "name": "syncUmaParams",
      "outputs": [],
      "stateMutability": "nonpayable",
      "type": "function"
    },
    {
      "inputs": [],
      "name": "timerAddress",
      "outputs": [
        {
          "internalType": "address",
          "name": "",
          "type": "address"
        }
      ],
      "stateMutability": "view",
      "type": "function"
    },
    {
      "inputs": [
        {
          "internalType": "address",
          "name": "newOwner",
          "type": "address"
        }
      ],
      "name": "transferOwnership",
      "outputs": [],
      "stateMutability": "nonpayable",
      "type": "function"
    }
  ],
  "bytecode": {
    "object": "0x60a06040523480156200001157600080fd5b5060405162003e9638038062003e9683398101604081905262000034916200065e565b6000805460ff191660011790558084848462000057620000513390565b620000a8565b6001600160a01b0383166080526200007982826706f05b59d3b2000062000101565b5050600780546001600160a01b0319166001600160a01b039390931692909217909155506200076d9350505050565b600080546001600160a01b03838116610100818102610100600160a81b0319851617855560405193049190911692909183917f8be0079c531659141344cd1fd0a4f28419497f9722a3daafe3b4186f6b6457e091a35050565b6000546001600160a01b03610100909104163314620001675760405162461bcd60e51b815260206004820181905260248201527f4f776e61626c653a2063616c6c6572206973206e6f7420746865206f776e657260448201526064015b60405180910390fd5b670de0b6b3a7640000811115620001c15760405162461bcd60e51b815260206004820152601c60248201527f4275726e656420626f6e642070657263656e74616765203e203130300000000060448201526064016200015e565b60008111620002135760405162461bcd60e51b815260206004820152601b60248201527f4275726e656420626f6e642070657263656e746167652069732030000000000060448201526064016200015e565b6005819055600680546001600160401b038416600160a01b026001600160e01b03199091166001600160a01b03861617179055620002616b082a6a68aa4a8bea8a4aaa8960a31b84620002b8565b604080516001600160a01b03851681526001600160401b03841660208201529081018290527fd0f09246d369018534c67fec6a6c3259c6f962ef82c5521c337ae0ccc104e4bd9060600160405180910390a1505050565b6080516040516302abf57960e61b8152654f7261636c6560d01b60048201526001600160a01b039091169063aafd5e4090602401602060405180830381865afa1580156200030a573d6000803e3d6000fd5b505050506040513d601f19601f82011682018060405250810190620003309190620006d1565b600180546001600160a01b0319166001600160a01b03929092169190911790556200035a62000523565b6001600160a01b03166390978d1b836040518263ffffffff1660e01b81526004016200038891815260200190565b602060405180830381865afa158015620003a6573d6000803e3d6000fd5b505050506040513d601f19601f82011682018060405250810190620003cc9190620006f8565b6000838152600360205260409020805460ff1916911515919091179055620003f3620005b9565b604051631d1d5b3960e11b81526001600160a01b0383811660048301529190911690633a3ab67290602401602060405180830381865afa1580156200043c573d6000803e3d6000fd5b505050506040513d601f19601f82011682018060405250810190620004629190620006f8565b6001600160a01b0382166000908152600260205260409020805460ff1916911515919091179055620004936200060b565b604051635b97aadd60e01b81526001600160a01b0383811660048301529190911690635b97aadd90602401602060405180830381865afa158015620004dc573d6000803e3d6000fd5b505050506040513d601f19601f820116820180604052508101906200050291906200071c565b516001600160a01b0390911660009081526002602052604090206001015550565b6080516040516302abf57960e61b81527f4964656e74696669657257686974656c6973740000000000000000000000000060048201526000916001600160a01b03169063aafd5e40906024015b602060405180830381865afa1580156200058e573d6000803e3d6000fd5b505050506040513d601f19601f82011682018060405250810190620005b49190620006d1565b905090565b6080516040516302abf57960e61b81527f436f6c6c61746572616c57686974656c6973740000000000000000000000000060048201526000916001600160a01b03169063aafd5e409060240162000570565b6080516040516302abf57960e61b81526453746f726560d81b60048201526000916001600160a01b03169063aafd5e409060240162000570565b6001600160a01b03811681146200065b57600080fd5b50565b600080600080608085870312156200067557600080fd5b8451620006828162000645565b6020860151909450620006958162000645565b60408601519093506001600160401b0381168114620006b357600080fd5b6060860151909250620006c68162000645565b939692955090935050565b600060208284031215620006e457600080fd5b8151620006f18162000645565b9392505050565b6000602082840312156200070b57600080fd5b81518015158114620006f157600080fd5b6000602082840312156200072f57600080fd5b604051602081016001600160401b03811182821017156200076057634e487b7160e01b600052604160045260246000fd5b6040529151825250919050565b6080516136f1620007a560003960008181610578015281816116df01528181611fa701528181612607015261266c01526136f16000f3fe608060405234801561001057600080fd5b50600436106101c45760003560e01c80638da5cb5b116100f9578063b9a3c84c11610097578063da03b36e11610071578063da03b36e146106a4578063e39dfd7f146106b3578063f2fde38b146106c6578063fe4e1983146106d957600080fd5b8063b9a3c84c14610573578063d509b0171461059a578063d60715b5146105b057600080fd5b8063a7af2d0f116100d3578063a7af2d0f1461050d578063a865578514610520578063ac9650d814610533578063afedba4f1461055357600080fd5b80638da5cb5b146104d15780638ea2f2ab146104e7578063a6a22b43146104fa57600080fd5b80634360af3d11610166578063707621571161014057806370762157146102bf578063715018a614610303578063827625201461030b578063883028841461031e57600080fd5b80634360af3d14610266578063530dd392146102795780636457c979146102ac57600080fd5b806322f8e566116101a257806322f8e5661461022357806329cb924d1461023857806336b13af4146102405780634124beef1461025357600080fd5b806308e7c3e6146101c95780631c39c38d146101e557806320402e1d14610210575b600080fd5b6101d260055481565b6040519081526020015b60405180910390f35b6007546101f8906001600160a01b031681565b6040516001600160a01b0390911681526020016101dc565b6006546101f8906001600160a01b031681565b610236610231366004612c90565b61070b565b005b6101d2610781565b6101d261024e366004612cce565b610790565b610236610261366004612c90565b610817565b6101d2610274366004612d50565b610be1565b61029c610287366004612c90565b60036020526000908152604090205460ff1681565b60405190151581526020016101dc565b6101d26102ba366004612df1565b610c1c565b6102ec6102cd366004612d50565b6002602052600090815260409020805460019091015460ff9091169082565b6040805192151583526020830191909152016101dc565b610236611233565b610236610319366004612ee1565b61126f565b6104c461032c366004612c90565b6040805161022081018252600061018082018181526101a083018290526101c083018290526101e083018290526102008301829052825260208201819052918101829052606081018290526080810182905260a0810182905260c0810182905260e0810182905261010081018290526101208101829052610140810182905261016081019190915250600090815260046020818152604092839020835161022081018552815460ff80821615156101808401908152610100808404831615156101a0860152620100008404831615156101c08601526001600160a01b03630100000090940484166101e0860152600186015484166102008601529084526002850154808416968501969096526001600160401b03600160a01b808804821699860199909952600160e01b96879004831615156060860152600386015480851660808701529889041660a085015294909604909516151560c08201529281015460e08401526005810154918301919091526006810154610120830152600781015483166101408301526008015490911661016082015290565b6040516101dc9190612f61565b60005461010090046001600160a01b03166101f8565b61029c6104f5366004612c90565b6113ea565b61023661050836600461303b565b611422565b6001546101f8906001600160a01b031681565b61023661052e36600461303b565b6116c1565b61054661054136600461306b565b611935565b6040516101dc919061312f565b610566610561366004612c90565b611a8c565b6040516101dc9190613191565b6101f87f000000000000000000000000000000000000000000000000000000000000000081565b6101d26b082a6a68aa4a8bea8a4aaa8960a31b81565b61068c6105be366004612c90565b600460208181526000928352604092839020835160a081018552815460ff808216151583526101008204811615159483019490945262010000810484161515958201959095526001600160a01b0363010000009095048516606082015260018201548516608082015260028201546003830154948301546005840154600685015460078601546008909601549498848116986001600160401b03600160a01b80880482169a600160e01b9889900481169a8486169a928504909316989093049092169594939290811691168c565b6040516101dc9c9b9a999897969594939291906131a4565b6101d2670de0b6b3a764000081565b61029c6106c1366004612c90565b611a97565b6102366106d4366004612d50565b611c15565b6006546106f390600160a01b90046001600160401b031681565b6040516001600160401b0390911681526020016101dc565b6007546001600160a01b031661072057600080fd5b60075460405163117c72b360e11b8152600481018390526001600160a01b03909116906322f8e56690602401600060405180830381600087803b15801561076657600080fd5b505af115801561077a573d6000803e3d6000fd5b5050505050565b600061078b611cb3565b905090565b600061080d84848080601f01602080910402602001604051908101604052809392919081815260200183838082843760009201829052506006548894509092508291506001600160401b03600160a01b820416906001600160a01b03166107f681610be1565b6b082a6a68aa4a8bea8a4aaa8960a31b6000610c1c565b90505b9392505050565b61081f611d43565b61082e6000805460ff19169055565b600081815260046020526040902060028101546001600160a01b03166108965760405162461bcd60e51b8152602060048201526018602482015277105cdcd95c9d1a5bdb88191bd95cc81b9bdd08195e1a5cdd60421b60448201526064015b60405180910390fd5b6002810154600160e01b900460ff16156108f25760405162461bcd60e51b815260206004820152601960248201527f417373657274696f6e20616c726561647920736574746c656400000000000000604482015260640161088d565b60028101805460ff60e01b1916600160e01b17905560088101546001600160a01b0316610a1857610921610781565b6003820154600160a01b90046001600160401b0316111561097c5760405162461bcd60e51b8152602060048201526015602482015274105cdcd95c9d1a5bdb881b9bdd08195e1c1a5c9959605a1b604482015260640161088d565b60038101805460ff60e01b198116600160e01b17909155600282015460068301546109b4926001600160a01b03908116921690611d95565b6109bf826001611dfd565b6002810154604080516000815260016020820152338183015290516001600160a01b039092169184917ff4fa324b13daeb4e1aae736c2553632ae0fb16fb31f2d4da8ac99fd056313a13919081900360600190a3610bcb565b60058101546002820154600091610a4191859190600160a01b90046001600160401b0316611f04565b8254909150610100900460ff1615610a675760038201805460ff60e01b19169055610a89565b60038201805460ff60e01b1916670de0b6b3a76400008314600160e01b021790555b6000670de0b6b3a76400008214610aad5760088301546001600160a01b0316610abc565b60028301546001600160a01b03165b90506000670de0b6b3a76400008460060154600554610adb919061323b565b610ae59190613270565b905060008185600601546002610afb919061323b565b610b059190613292565b9050610b27610b12611f87565b60038701546001600160a01b03169084611d95565b6003850154610b40906001600160a01b03168483611d95565b8454610100900460ff16610b68576003850154610b68908790600160e01b900460ff16611dfd565b60038501546040805160018152600160e01b90920460ff161515602083015233908201526001600160a01b0384169087907ff4fa324b13daeb4e1aae736c2553632ae0fb16fb31f2d4da8ac99fd056313a139060600160405180910390a3505050505b50610bde6000805460ff19166001179055565b50565b6001600160a01b038116600090815260026020526040812060010154600554610c1282670de0b6b3a764000061323b565b6108109190613270565b6000610c26611d43565b610c356000805460ff19169055565b6000610c3f610781565b9050610c5a8b86836001600160401b03168a8a8e8e8b61201b565b91506001600160a01b038a16610ca75760405162461bcd60e51b8152602060048201526012602482015271041737365727465722063616e7420626520360741b604482015260640161088d565b6000828152600460205260409020600201546001600160a01b031615610d0f5760405162461bcd60e51b815260206004820152601860248201527f417373657274696f6e20616c7265616479206578697374730000000000000000604482015260640161088d565b610d1884612062565b610d5d5760405162461bcd60e51b81526020600482015260166024820152752ab739bab83837b93a32b21034b232b73a34b334b2b960511b604482015260640161088d565b610d668661211b565b610da95760405162461bcd60e51b8152602060048201526014602482015273556e737570706f727465642063757272656e637960601b604482015260640161088d565b610db286610be1565b851015610df75760405162461bcd60e51b8152602060048201526013602482015272426f6e6420616d6f756e7420746f6f206c6f7760681b604482015260640161088d565b6040805161022081018252600061018082018181526101a083018290526101c08301829052336101e08401526001600160a01b038c81166102008501529083528d811660208401526001600160401b038516938301939093526060820152908716608082015260a08101610e6b89846132a5565b6001600160401b031681526020016000151581526020018481526020018581526020018681526020018a6001600160a01b0316815260200160006001600160a01b03168152506004600084815260200190815260200160002060008201518160000160008201518160000160006101000a81548160ff02191690831515021790555060208201518160000160016101000a81548160ff02191690831515021790555060408201518160000160026101000a81548160ff02191690831515021790555060608201518160000160036101000a8154816001600160a01b0302191690836001600160a01b0316021790555060808201518160010160006101000a8154816001600160a01b0302191690836001600160a01b03160217905550505060208201518160020160006101000a8154816001600160a01b0302191690836001600160a01b0316021790555060408201518160020160146101000a8154816001600160401b0302191690836001600160401b03160217905550606082015181600201601c6101000a81548160ff02191690831515021790555060808201518160030160006101000a8154816001600160a01b0302191690836001600160a01b0316021790555060a08201518160030160146101000a8154816001600160401b0302191690836001600160401b0316021790555060c082015181600301601c6101000a81548160ff02191690831515021790555060e08201518160040155610100820151816005015561012082015181600601556101408201518160070160006101000a8154816001600160a01b0302191690836001600160a01b031602179055506101608201518160080160006101000a8154816001600160a01b0302191690836001600160a01b0316021790555090505060006111078361227d565b8051909150156111515760405162461bcd60e51b8152602060048201526015602482015274105cdcd95c9d1a5bdb881b9bdd08185b1b1bddd959605a1b604482015260640161088d565b6000838152600460209081526040918290209083015191830151606090930151815462ffff001916620100009115159190910261ff00191617610100931515939093029290921760ff19169015151790556111b76001600160a01b038716333088612352565b838a6001600160a01b0316837fdb1513f0abeb57a364db56aa3eb52015cca5268f00fd67bc73aaf22bccab02b7868f8e8e338f8a6111f591906132a5565b8f8f60405161120b9897969594939291906132c5565b60405180910390a4506112266000805460ff19166001179055565b9998505050505050505050565b6000546001600160a01b036101009091041633146112635760405162461bcd60e51b815260040161088d90613327565b61126d600061238a565b565b6000546001600160a01b0361010090910416331461129f5760405162461bcd60e51b815260040161088d90613327565b670de0b6b3a76400008111156112f75760405162461bcd60e51b815260206004820152601c60248201527f4275726e656420626f6e642070657263656e74616765203e2031303000000000604482015260640161088d565b600081116113475760405162461bcd60e51b815260206004820152601b60248201527f4275726e656420626f6e642070657263656e7461676520697320300000000000604482015260640161088d565b6005819055600680546001600160401b038416600160a01b026001600160e01b03199091166001600160a01b038616171790556113936b082a6a68aa4a8bea8a4aaa8960a31b846116c1565b604080516001600160a01b03851681526001600160401b03841660208201529081018290527fd0f09246d369018534c67fec6a6c3259c6f962ef82c5521c337ae0ccc104e4bd9060600160405180910390a1505050565b600081815260046020526040812060020154600160e01b900460ff166114135761141382610817565b61141c82611a97565b92915050565b61142a611d43565b6114396000805460ff19169055565b6001600160a01b0381166114855760405162461bcd60e51b8152602060048201526013602482015272044697370757465722063616e2774206265203606c1b604482015260640161088d565b600082815260046020526040902060028101546001600160a01b03166114e85760405162461bcd60e51b8152602060048201526018602482015277105cdcd95c9d1a5bdb88191bd95cc81b9bdd08195e1a5cdd60421b604482015260640161088d565b60088101546001600160a01b0316156115435760405162461bcd60e51b815260206004820152601a60248201527f417373657274696f6e20616c7265616479206469737075746564000000000000604482015260640161088d565b61154b610781565b6003820154600160a01b90046001600160401b0316116115a45760405162461bcd60e51b8152602060048201526014602482015273105cdcd95c9d1a5bdb881a5cc8195e1c1a5c995960621b604482015260640161088d565b6115ad836123e3565b6115ef5760405162461bcd60e51b8152602060048201526013602482015272111a5cdc1d5d19481b9bdd08185b1b1bddd959606a1b604482015260640161088d565b6008810180546001600160a01b0319166001600160a01b03848116919091179091556006820154600383015461162a92169033903090612352565b6005810154600282015461164f918591600160a01b90046001600160401b031661249f565b61165883612516565b8054610100900460ff161561167257611672836000611dfd565b6040516001600160a01b03831690339085907f60133788b013c89f2a3756dbc47e3484997b87bd7e0af98a7d70232032c1ce2b90600090a4506116bd6000805460ff19166001179055565b5050565b6040516302abf57960e61b8152654f7261636c6560d01b60048201527f00000000000000000000000000000000000000000000000000000000000000006001600160a01b03169063aafd5e4090602401602060405180830381865afa15801561172e573d6000803e3d6000fd5b505050506040513d601f19601f82011682018060405250810190611752919061335c565b600180546001600160a01b0319166001600160a01b039290921691909117905561177a6125d9565b6001600160a01b03166390978d1b836040518263ffffffff1660e01b81526004016117a791815260200190565b602060405180830381865afa1580156117c4573d6000803e3d6000fd5b505050506040513d601f19601f820116820180604052508101906117e89190613389565b6000838152600360205260409020805460ff191691151591909117905561180d61263e565b604051631d1d5b3960e11b81526001600160a01b0383811660048301529190911690633a3ab67290602401602060405180830381865afa158015611855573d6000803e3d6000fd5b505050506040513d601f19601f820116820180604052508101906118799190613389565b6001600160a01b0382166000908152600260205260409020805460ff19169115159190911790556118a8611f87565b604051635b97aadd60e01b81526001600160a01b0383811660048301529190911690635b97aadd90602401602060405180830381865afa1580156118f0573d6000803e3d6000fd5b505050506040513d601f19601f8201168201806040525081019061191491906133a4565b516001600160a01b0390911660009081526002602052604090206001015550565b6060816001600160401b0381111561194f5761194f612d6d565b60405190808252806020026020018201604052801561198257816020015b606081526020019060019003908161196d5790505b50905060005b82811015611a8557600080308686858181106119a6576119a66133e5565b90506020028101906119b891906133fb565b6040516119c6929190613448565b600060405180830381855af49150503d8060008114611a01576040519150601f19603f3d011682016040523d82523d6000602084013e611a06565b606091505b509150915081611a5257604481511015611a1f57600080fd5b60048101905080806020019051810190611a399190613458565b60405162461bcd60e51b815260040161088d9190613191565b80848481518110611a6557611a656133e5565b602002602001018190525050508080611a7d906134ce565b915050611988565b5092915050565b606061141c826126a3565b6000818152600460208181526040808420815161022081018352815460ff80821615156101808401908152610100808404831615156101a0860152620100008404831615156101c08601526001600160a01b03630100000090940484166101e0860152600186015484166102008601529084526002850154808416978501979097526001600160401b03600160a01b808904821697860197909752600160e01b97889004831615156060860152600386015480851660808701529687041660a085015295909404909316151560c08201529381015460e085015260058101549284019290925260068201546101208401526007820154811661014084015260089091015416610160820181905215801590611bb457508051602001515b15611bc25750600092915050565b8060600151611c0b5760405162461bcd60e51b8152602060048201526015602482015274105cdcd95c9d1a5bdb881b9bdd081cd95d1d1b1959605a1b604482015260640161088d565b60c0015192915050565b6000546001600160a01b03610100909104163314611c455760405162461bcd60e51b815260040161088d90613327565b6001600160a01b038116611caa5760405162461bcd60e51b815260206004820152602660248201527f4f776e61626c653a206e6577206f776e657220697320746865207a65726f206160448201526564647265737360d01b606482015260840161088d565b610bde8161238a565b6007546000906001600160a01b031615611d3e57600760009054906101000a90046001600160a01b03166001600160a01b03166329cb924d6040518163ffffffff1660e01b8152600401602060405180830381865afa158015611d1a573d6000803e3d6000fd5b505050506040513d601f19601f8201168201806040525081019061078b91906134e7565b504290565b60005460ff1661126d5760405162461bcd60e51b815260206004820152601f60248201527f5265656e7472616e637947756172643a207265656e7472616e742063616c6c00604482015260640161088d565b6040516001600160a01b038316602482015260448101829052611df890849063a9059cbb60e01b906064015b60408051601f198184030181529190526020810180516001600160e01b03166001600160e01b031990931692909217909152612729565b505050565b600082815260046020526040902060078101546001909101546001600160a01b0391821691168115611e8c576040516378d8ab5960e11b81526004810185905283151560248201526001600160a01b0383169063f1b156b290604401600060405180830381600087803b158015611e7357600080fd5b505af1158015611e87573d6000803e3d6000fd5b505050505b6001600160a01b03811615611efe576040516378d8ab5960e11b81526004810185905283151560248201526001600160a01b0382169063f1b156b290604401600060405180830381600087803b158015611ee557600080fd5b505af1158015611ef9573d6000803e3d6000fd5b505050505b50505050565b6000611f0f846127fb565b6001600160a01b031663719c6d568484611f28886126a3565b6040518463ffffffff1660e01b8152600401611f4693929190613500565b602060405180830381865afa158015611f63573d6000803e3d6000fd5b505050506040513d601f19601f8201168201806040525081019061080d91906134e7565b6040516302abf57960e61b81526453746f726560d81b60048201526000907f00000000000000000000000000000000000000000000000000000000000000006001600160a01b03169063aafd5e40906024015b602060405180830381865afa158015611ff7573d6000803e3d6000fd5b505050506040513d601f19601f8201168201806040525081019061078b919061335c565b600088888888888888883360405160200161203e9998979695949392919061351f565b60405160208183030381529060405280519060200120905098975050505050505050565b60008181526003602052604081205460ff161561208157506001919050565b6120896125d9565b6001600160a01b03166390978d1b836040518263ffffffff1660e01b81526004016120b691815260200190565b602060405180830381865afa1580156120d3573d6000803e3d6000fd5b505050506040513d601f19601f820116820180604052508101906120f79190613389565b600092835260036020526040909220805460ff191692151592831790555060ff1690565b6001600160a01b03811660009081526002602052604081205460ff161561214457506001919050565b61214c61263e565b604051631d1d5b3960e11b81526001600160a01b0384811660048301529190911690633a3ab67290602401602060405180830381865afa158015612194573d6000803e3d6000fd5b505050506040513d601f19601f820116820180604052508101906121b89190613389565b6001600160a01b0383166000908152600260205260409020805460ff19169115159190911790556121e7611f87565b604051635b97aadd60e01b81526001600160a01b0384811660048301529190911690635b97aadd90602401602060405180830381865afa15801561222f573d6000803e3d6000fd5b505050506040513d601f19601f8201168201806040525081019061225391906133a4565b516001600160a01b0390921660009081526002602052604090206001810192909255505460ff1690565b6040805160808101825260008082526020808301829052828401829052606083018290528482526004905291909120600101546001600160a01b0316806122e9575050604080516080810182526000808252602082018190529181018290526060810191909152919050565b60405163a6b011a760e01b8152600481018490526001600160a01b0382169063a6b011a790602401608060405180830381865afa15801561232e573d6000803e3d6000fd5b505050506040513d601f19601f820116820180604052508101906108109190613587565b6040516001600160a01b0380851660248301528316604482015260648101829052611efe9085906323b872dd60e01b90608401611dc1565b600080546001600160a01b03838116610100818102610100600160a81b0319851617855560405193049190911692909183917f8be0079c531659141344cd1fd0a4f28419497f9722a3daafe3b4186f6b6457e091a35050565b60008181526004602052604081205462010000900460ff1661240757506001919050565b6000828152600460205260409020600101546001600160a01b0316806124305750600192915050565b604051636b915d9160e01b8152600481018490523360248201526001600160a01b03821690636b915d9190604401602060405180830381865afa15801561247b573d6000803e3d6000fd5b505050506040513d601f19601f820116820180604052508101906108109190613389565b6124a8836127fb565b6001600160a01b031663216666a483836124c1876126a3565b6040518463ffffffff1660e01b81526004016124df93929190613500565b600060405180830381600087803b1580156124f957600080fd5b505af115801561250d573d6000803e3d6000fd5b50505050505050565b600081815260046020526040902060078101546001909101546001600160a01b039182169116811561259d57604051633512293b60e21b8152600481018490526001600160a01b0383169063d448a4ec90602401600060405180830381600087803b15801561258457600080fd5b505af1158015612598573d6000803e3d6000fd5b505050505b6001600160a01b03811615611df857604051633512293b60e21b8152600481018490526001600160a01b0382169063d448a4ec906024016124df565b6040516302abf57960e61b8152721259195b9d1a599a595c95da1a5d195b1a5cdd606a1b60048201526000907f00000000000000000000000000000000000000000000000000000000000000006001600160a01b03169063aafd5e4090602401611fda565b6040516302abf57960e61b81527210dbdb1b185d195c985b15da1a5d195b1a5cdd606a1b60048201526000907f00000000000000000000000000000000000000000000000000000000000000006001600160a01b03169063aafd5e4090602401611fda565b606061141c6126e5604051806020016040528060008152506040518060400160405280600b81526020016a185cdcd95c9d1a5bdb925960aa1b81525085612843565b604080518082018252600a81526937b7a0b9b9b2b93a32b960b11b6020808301919091526000878152600490915291909120600201546001600160a01b0316612889565b600061277e826040518060400160405280602081526020017f5361666545524332303a206c6f772d6c6576656c2063616c6c206661696c6564815250856001600160a01b03166128a49092919063ffffffff16565b805190915015611df8578080602001905181019061279c9190613389565b611df85760405162461bcd60e51b815260206004820152602a60248201527f5361666545524332303a204552433230206f7065726174696f6e20646964206e6044820152691bdd081cdd58d8d9595960b21b606482015260840161088d565b60008181526004602052604081205460ff1615612832576000828152600460205260409020600101546001600160a01b031661141c565b50506001546001600160a01b031690565b6060600061285185856128b3565b9050848161285e856128f5565b60405160200161287093929190613603565b6040516020818303038152906040529150509392505050565b6060600061289785856128b3565b9050848161285e85612936565b606061080d848460008561298d565b8151606090156128e457816040516020016128ce9190613646565b604051602081830303815290604052905061141c565b816040516020016128ce919061367a565b6060612904608083901c612abe565b61290d83612abe565b6040805160208101939093528201526060015b6040516020818303038152906040529050919050565b606061294e6001600160801b03602084901c16612abe565b6129698360601b6bffffffffffffffffffffffff1916612abe565b6040516020016129209291909182526001600160c01b031916602082015260280190565b6060824710156129ee5760405162461bcd60e51b815260206004820152602660248201527f416464726573733a20696e73756666696369656e742062616c616e636520666f6044820152651c8818d85b1b60d21b606482015260840161088d565b6001600160a01b0385163b612a455760405162461bcd60e51b815260206004820152601d60248201527f416464726573733a2063616c6c20746f206e6f6e2d636f6e7472616374000000604482015260640161088d565b600080866001600160a01b03168587604051612a61919061369f565b60006040518083038185875af1925050503d8060008114612a9e576040519150601f19603f3d011682016040523d82523d6000602084013e612aa3565b606091505b5091509150612ab3828286612c57565b979650505050505050565b6000808260001c9050806001600160801b03169050806801000000000000000002811777ffffffffffffffff0000000000000000ffffffffffffffff169050806401000000000281177bffffffff00000000ffffffff00000000ffffffff00000000ffffffff16905080620100000281177dffff0000ffff0000ffff0000ffff0000ffff0000ffff0000ffff0000ffff169050806101000281177eff00ff00ff00ff00ff00ff00ff00ff00ff00ff00ff00ff00ff00ff00ff00ff1690508060100281177f0f0f0f0f0f0f0f0f0f0f0f0f0f0f0f0f0f0f0f0f0f0f0f0f0f0f0f0f0f0f0f0f16905060006008827f08080808080808080808080808080808080808080808080808080808080808081681612bd957612bd961325a565b0460047f040404040404040404040404040404040404040404040404040404040404040484160460027f020202020202020202020202020202020202020202020202020202020202020285160417166027029091017f3030303030303030303030303030303030303030303030303030303030303030019392505050565b60608315612c66575081610810565b825115612c765782518084602001fd5b8160405162461bcd60e51b815260040161088d9190613191565b600060208284031215612ca257600080fd5b5035919050565b6001600160a01b0381168114610bde57600080fd5b8035612cc981612ca9565b919050565b600080600060408486031215612ce357600080fd5b83356001600160401b0380821115612cfa57600080fd5b818601915086601f830112612d0e57600080fd5b813581811115612d1d57600080fd5b876020828501011115612d2f57600080fd5b60209283019550935050840135612d4581612ca9565b809150509250925092565b600060208284031215612d6257600080fd5b813561081081612ca9565b634e487b7160e01b600052604160045260246000fd5b604051601f8201601f191681016001600160401b0381118282101715612dab57612dab612d6d565b604052919050565b60006001600160401b03821115612dcc57612dcc612d6d565b50601f01601f191660200190565b80356001600160401b0381168114612cc957600080fd5b60008060008060008060008060006101208a8c031215612e1057600080fd5b89356001600160401b03811115612e2657600080fd5b8a01601f81018c13612e3757600080fd5b8035612e4a612e4582612db3565b612d83565b8181528d6020838501011115612e5f57600080fd5b81602084016020830137600060208383010152809b50505050612e8460208b01612cbe565b9750612e9260408b01612cbe565b9650612ea060608b01612cbe565b9550612eae60808b01612dda565b9450612ebc60a08b01612cbe565b935060c08a0135925060e08a013591506101008a013590509295985092959850929598565b600080600060608486031215612ef657600080fd5b8335612f0181612ca9565b9250612f0f60208501612dda565b9150604084013590509250925092565b8051151582526020808201511515908301526040808201511515908301526060808201516001600160a01b039081169184019190915260809182015116910152565b600061020082019050612f75828451612f1f565b60208301516001600160a01b0390811660a084015260408401516001600160401b031660c08401526060840151151560e084015260808401519081166101008085019190915260a08501519150610120612fd9818601846001600160401b03169052565b60c08601519250610140612ff08187018515159052565b60e08701516101608781019190915292870151610180870152908601516101a08601528501516001600160a01b039081166101c0860152908501519081166101e08501529050611a85565b6000806040838503121561304e57600080fd5b82359150602083013561306081612ca9565b809150509250929050565b6000806020838503121561307e57600080fd5b82356001600160401b038082111561309557600080fd5b818501915085601f8301126130a957600080fd5b8135818111156130b857600080fd5b8660208260051b85010111156130cd57600080fd5b60209290920196919550909350505050565b60005b838110156130fa5781810151838201526020016130e2565b50506000910152565b6000815180845261311b8160208601602086016130df565b601f01601f19169290920160200192915050565b6000602080830181845280855180835260408601915060408160051b870101925083870160005b8281101561318457603f19888603018452613172858351613103565b94509285019290850190600101613156565b5092979650505050505050565b6020815260006108106020830184613103565b61020081016131b3828f612f1f565b6001600160a01b039c8d1660a08301526001600160401b039b8c1660c083015299151560e0820152978b16610100890152959098166101208701529215156101408601526101608501919091526101808401526101a08301529284166101c0820152919092166101e090910152919050565b634e487b7160e01b600052601160045260246000fd5b600081600019048311821515161561325557613255613225565b500290565b634e487b7160e01b600052601260045260246000fd5b60008261328d57634e487b7160e01b600052601260045260246000fd5b500490565b8181038181111561141c5761141c613225565b6001600160401b03818116838216019080821115611a8557611a85613225565b60006101008a83528060208401526132df8184018b613103565b6001600160a01b03998a1660408501529789166060840152505093861660808501526001600160401b039290921660a084015290931660c082015260e0019190915292915050565b6020808252818101527f4f776e61626c653a2063616c6c6572206973206e6f7420746865206f776e6572604082015260600190565b60006020828403121561336e57600080fd5b815161081081612ca9565b80518015158114612cc957600080fd5b60006020828403121561339b57600080fd5b61081082613379565b6000602082840312156133b657600080fd5b604051602081018181106001600160401b03821117156133d8576133d8612d6d565b6040529151825250919050565b634e487b7160e01b600052603260045260246000fd5b6000808335601e1984360301811261341257600080fd5b8301803591506001600160401b0382111561342c57600080fd5b60200191503681900382131561344157600080fd5b9250929050565b8183823760009101908152919050565b60006020828403121561346a57600080fd5b81516001600160401b0381111561348057600080fd5b8201601f8101841361349157600080fd5b805161349f612e4582612db3565b8181528560208385010111156134b457600080fd5b6134c58260208301602086016130df565b95945050505050565b6000600182016134e0576134e0613225565b5060010190565b6000602082840312156134f957600080fd5b5051919050565b8381528260208201526060604082015260006134c56060830184613103565b60006101208083526135338184018d613103565b602084019b909b52505060408101979097526001600160401b039590951660608701526001600160a01b03938416608087015291831660a0860152821660c085015260e08401521661010090910152919050565b60006080828403121561359957600080fd5b604051608081018181106001600160401b03821117156135bb576135bb612d6d565b6040526135c783613379565b81526135d560208401613379565b60208201526135e660408401613379565b60408201526135f760608401613379565b60608201529392505050565b600084516136158184602089016130df565b8451908301906136298183602089016130df565b845191019061363c8183602088016130df565b0195945050505050565b600b60fa1b8152600082516136628160018501602087016130df565b601d60f91b6001939091019283015250600201919050565b6000825161368c8184602087016130df565b601d60f91b920191825250600101919050565b600082516136b18184602087016130df565b919091019291505056fea26469706673582212208308750472ceb2de8177ffaad79e9d6970ffe4f59d11183bf06a5727259eab7064736f6c63430008100033",
    "linkReferences": {}
  },
  "methodIdentifiers": {
    "assertTruth(bytes,address,address,address,uint64,address,uint256,bytes32,bytes32)": "6457c979",
    "assertTruthWithDefaults(bytes,address)": "36b13af4",
    "assertions(bytes32)": "d60715b5",
    "burnedBondPercentage()": "08e7c3e6",
    "cachedCurrencies(address)": "70762157",
    "cachedIdentifiers(bytes32)": "530dd392",
    "cachedOracle()": "a7af2d0f",
    "defaultCurrency()": "20402e1d",
    "defaultIdentifier()": "d509b017",
    "defaultLiveness()": "fe4e1983",
    "disputeAssertion(bytes32,address)": "a6a22b43",
    "finder()": "b9a3c84c",
    "getAssertion(bytes32)": "88302884",
    "getAssertionResult(bytes32)": "e39dfd7f",
    "getCurrentTime()": "29cb924d",
    "getMinimumBond(address)": "4360af3d",
    "multicall(bytes[])": "ac9650d8",
    "numericalTrue()": "da03b36e",
    "owner()": "8da5cb5b",
    "renounceOwnership()": "715018a6",
    "setAdminProperties(address,uint64,uint256)": "82762520",
    "setCurrentTime(uint256)": "22f8e566",
    "settleAndGetAssertionResult(bytes32)": "8ea2f2ab",
    "settleAssertion(bytes32)": "4124beef",
    "stampAssertion(bytes32)": "afedba4f",
    "syncUmaParams(bytes32,address)": "a8655785",
    "timerAddress()": "1c39c38d",
    "transferOwnership(address)": "f2fde38b"
  },
  "id": 53
}