{
  "abi": [
    {
      "inputs": [],
      "name": "Bridge",
      "outputs": [
        {
          "internalType": "bytes32",
          "name": "",
          "type": "bytes32"
        }
      ],
      "stateMutability": "view",
      "type": "function"
    },
    {
      "inputs": [],
      "name": "ChildMessenger",
      "outputs": [
        {
          "internalType": "bytes32",
          "name": "",
          "type": "bytes32"
        }
      ],
      "stateMutability": "view",
      "type": "function"
    },
    {
      "inputs": [],
      "name": "CollateralWhitelist",
      "outputs": [
        {
          "internalType": "bytes32",
          "name": "",
          "type": "bytes32"
        }
      ],
      "stateMutability": "view",
      "type": "function"
    },
    {
      "inputs": [],
      "name": "FinancialContractsAdmin",
      "outputs": [
        {
          "internalType": "bytes32",
          "name": "",
          "type": "bytes32"
        }
      ],
      "stateMutability": "view",
      "type": "function"
    },
    {
      "inputs": [],
      "name": "GenericHandler",
      "outputs": [
        {
          "internalType": "bytes32",
          "name": "",
          "type": "bytes32"
        }
      ],
      "stateMutability": "view",
      "type": "function"
    },
    {
      "inputs": [],
      "name": "IdentifierWhitelist",
      "outputs": [
        {
          "internalType": "bytes32",
          "name": "",
          "type": "bytes32"
        }
      ],
      "stateMutability": "view",
      "type": "function"
    },
    {
      "inputs": [],
      "name": "OptimisticOracle",
      "outputs": [
        {
          "internalType": "bytes32",
          "name": "",
          "type": "bytes32"
        }
      ],
      "stateMutability": "view",
      "type": "function"
    },
    {
      "inputs": [],
      "name": "OptimisticOracleV2",
      "outputs": [
        {
          "internalType": "bytes32",
          "name": "",
          "type": "bytes32"
        }
      ],
      "stateMutability": "view",
      "type": "function"
    },
    {
      "inputs": [],
      "name": "OptimisticOracleV3",
      "outputs": [
        {
          "internalType": "bytes32",
          "name": "",
          "type": "bytes32"
        }
      ],
      "stateMutability": "view",
      "type": "function"
    },
    {
      "inputs": [],
      "name": "Oracle",
      "outputs": [
        {
          "internalType": "bytes32",
          "name": "",
          "type": "bytes32"
        }
      ],
      "stateMutability": "view",
      "type": "function"
    },
    {
      "inputs": [],
      "name": "OracleHub",
      "outputs": [
        {
          "internalType": "bytes32",
          "name": "",
          "type": "bytes32"
        }
      ],
      "stateMutability": "view",
      "type": "function"
    },
    {
      "inputs": [],
      "name": "OracleSpoke",
      "outputs": [
        {
          "internalType": "bytes32",
          "name": "",
          "type": "bytes32"
        }
      ],
      "stateMutability": "view",
      "type": "function"
    },
    {
      "inputs": [],
      "name": "Registry",
      "outputs": [
        {
          "internalType": "bytes32",
          "name": "",
          "type": "bytes32"
        }
      ],
      "stateMutability": "view",
      "type": "function"
    },
    {
      "inputs": [],
      "name": "SkinnyOptimisticOracle",
      "outputs": [
        {
          "internalType": "bytes32",
          "name": "",
          "type": "bytes32"
        }
      ],
      "stateMutability": "view",
      "type": "function"
    },
    {
      "inputs": [],
      "name": "Store",
      "outputs": [
        {
          "internalType": "bytes32",
          "name": "",
          "type": "bytes32"
        }
      ],
      "stateMutability": "view",
      "type": "function"
    }
  ],
  "bytecode": {
    "object": "0x6102b861003a600b82828239805160001a60731461002d57634e487b7160e01b600052600060045260246000fd5b30600052607381538281f3fe73000000000000000000000000000000000000000030146080604052600436106100ff5760003560e01c80634f4a180b116100a15780637db9743b116100705780637db9743b1461022f5780638adca47f14610241578063f02f8e8314610256578063f24a534e1461027257600080fd5b80634f4a180b146101d2578063598dd097146101ef5780635fa2ef101461020c5780637608ea2f1461021c57600080fd5b80632a71e5b3116100dd5780632a71e5b31461016057806342e90c33146101875780634596ac9b14610196578063473e7ccd146101b657600080fd5b8063079b6c63146101045780631a0fbfb31461012e5780631a4dbd1c14610146575b600080fd5b61011c6d23b2b732b934b1a430b7323632b960911b81565b60405190815260200160405180910390f35b61011c6d21b434b63226b2b9b9b2b733b2b960911b81565b61011c6f4f7074696d69737469634f7261636c6560801b81565b61011c7f46696e616e6369616c436f6e74726163747341646d696e00000000000000000081565b61011c6453746f726560d81b81565b61011c75536b696e6e794f7074696d69737469634f7261636c6560501b81565b61011c7127b83a34b6b4b9ba34b1a7b930b1b632ab1960711b81565b61011c721259195b9d1a599a595c95da1a5d195b1a5cdd606a1b81565b61011c7210dbdb1b185d195c985b15da1a5d195b1a5cdd606a1b81565b61011c6542726964676560d01b81565b61011c6827b930b1b632a43ab160b91b81565b61011c67526567697374727960c01b81565b61011c6a4f7261636c6553706f6b6560a81b81565b61011c714f7074696d69737469634f7261636c65563360701b81565b61011c654f7261636c6560d01b8156fea264697066735822122065fe58261cda0c3569e29eec54e9db4d019f5f5b2d40d78f94e283869d6e461364736f6c63430008100033",
    "linkReferences": {}
  },
  "methodIdentifiers": {
    "Bridge()": "5fa2ef10",
    "ChildMessenger()": "1a0fbfb3",
    "CollateralWhitelist()": "598dd097",
    "FinancialContractsAdmin()": "2a71e5b3",
    "GenericHandler()": "079b6c63",
    "IdentifierWhitelist()": "4f4a180b",
    "OptimisticOracle()": "1a4dbd1c",
    "OptimisticOracleV2()": "473e7ccd",
    "OptimisticOracleV3()": "f02f8e83",
    "Oracle()": "f24a534e",
    "OracleHub()": "7608ea2f",
    "OracleSpoke()": "8adca47f",
    "Registry()": "7db9743b",
    "SkinnyOptimisticOracle()": "4596ac9b",
    "Store()": "42e90c33"
  },
  "id": 41
}